{
	"artifacts/Lalit/multiple inheritance.sol": {
		"B": {
			"abi": [
				{
					"inputs": [],
					"stateMutability": "nonpayable",
					"type": "constructor"
				},
				{
					"inputs": [],
					"name": "b",
					"outputs": [
						{
							"internalType": "uint256",
							"name": "",
							"type": "uint256"
						}
					],
					"stateMutability": "view",
					"type": "function"
				},
				{
					"inputs": [],
					"name": "funB",
					"outputs": [],
					"stateMutability": "nonpayable",
					"type": "function"
				}
			],
			"devdoc": {
				"kind": "dev",
				"methods": {},
				"version": 1
			},
			"evm": {
				"assembly": "    /* \"artifacts/Lalit/multiple inheritance.sol\":165:254  contract B{... */\n  mstore(0x40, 0x80)\n    /* \"artifacts/Lalit/multiple inheritance.sol\":193:216  constructor(){... */\n  callvalue\n  dup1\n  iszero\n  tag_1\n  jumpi\n  0x00\n  dup1\n  revert\ntag_1:\n  pop\n    /* \"artifacts/Lalit/multiple inheritance.sol\":210:213  100 */\n  0x64\n    /* \"artifacts/Lalit/multiple inheritance.sol\":208:209  b */\n  0x00\n    /* \"artifacts/Lalit/multiple inheritance.sol\":208:213  b=100 */\n  dup2\n  swap1\n  sstore\n  pop\n    /* \"artifacts/Lalit/multiple inheritance.sol\":165:254  contract B{... */\n  dataSize(sub_0)\n  dup1\n  dataOffset(sub_0)\n  0x00\n  codecopy\n  0x00\n  return\nstop\n\nsub_0: assembly {\n        /* \"artifacts/Lalit/multiple inheritance.sol\":165:254  contract B{... */\n      mstore(0x40, 0x80)\n      callvalue\n      dup1\n      iszero\n      tag_1\n      jumpi\n      0x00\n      dup1\n      revert\n    tag_1:\n      pop\n      jumpi(tag_2, lt(calldatasize, 0x04))\n      shr(0xe0, calldataload(0x00))\n      dup1\n      0x09ebbbdb\n      eq\n      tag_3\n      jumpi\n      dup1\n      0x4df7e3d0\n      eq\n      tag_4\n      jumpi\n    tag_2:\n      0x00\n      dup1\n      revert\n        /* \"artifacts/Lalit/multiple inheritance.sol\":218:252  function funB() public {... */\n    tag_3:\n      tag_5\n      tag_6\n      jump\t// in\n    tag_5:\n      stop\n        /* \"artifacts/Lalit/multiple inheritance.sol\":178:191  uint public b */\n    tag_4:\n      tag_7\n      tag_8\n      jump\t// in\n    tag_7:\n      mload(0x40)\n      dup1\n      dup3\n      dup2\n      mstore\n      0x20\n      add\n      swap2\n      pop\n      pop\n      mload(0x40)\n      dup1\n      swap2\n      sub\n      swap1\n      return\n        /* \"artifacts/Lalit/multiple inheritance.sol\":218:252  function funB() public {... */\n    tag_6:\n        /* \"artifacts/Lalit/multiple inheritance.sol\":246:248  10 */\n      0x0a\n        /* \"artifacts/Lalit/multiple inheritance.sol\":244:245  b */\n      0x00\n        /* \"artifacts/Lalit/multiple inheritance.sol\":244:248  b=10 */\n      dup2\n      swap1\n      sstore\n      pop\n        /* \"artifacts/Lalit/multiple inheritance.sol\":218:252  function funB() public {... */\n      jump\t// out\n        /* \"artifacts/Lalit/multiple inheritance.sol\":178:191  uint public b */\n    tag_8:\n      sload(0x00)\n      dup2\n      jump\t// out\n\n    auxdata: 0xa2646970667358221220253b6e31c914e8803bc831fdbbf4a901d7fd521f69033b620a1727f63fc2b43164736f6c63430007060033\n}\n",
				"bytecode": {
					"linkReferences": {},
					"object": "6080604052348015600f57600080fd5b50606460008190555060a1806100266000396000f3fe6080604052348015600f57600080fd5b506004361060325760003560e01c806309ebbbdb1460375780634df7e3d014603f575b600080fd5b603d605b565b005b60456065565b6040518082815260200191505060405180910390f35b600a600081905550565b6000548156fea2646970667358221220253b6e31c914e8803bc831fdbbf4a901d7fd521f69033b620a1727f63fc2b43164736f6c63430007060033",
					"opcodes": "PUSH1 0x80 PUSH1 0x40 MSTORE CALLVALUE DUP1 ISZERO PUSH1 0xF JUMPI PUSH1 0x0 DUP1 REVERT JUMPDEST POP PUSH1 0x64 PUSH1 0x0 DUP2 SWAP1 SSTORE POP PUSH1 0xA1 DUP1 PUSH2 0x26 PUSH1 0x0 CODECOPY PUSH1 0x0 RETURN INVALID PUSH1 0x80 PUSH1 0x40 MSTORE CALLVALUE DUP1 ISZERO PUSH1 0xF JUMPI PUSH1 0x0 DUP1 REVERT JUMPDEST POP PUSH1 0x4 CALLDATASIZE LT PUSH1 0x32 JUMPI PUSH1 0x0 CALLDATALOAD PUSH1 0xE0 SHR DUP1 PUSH4 0x9EBBBDB EQ PUSH1 0x37 JUMPI DUP1 PUSH4 0x4DF7E3D0 EQ PUSH1 0x3F JUMPI JUMPDEST PUSH1 0x0 DUP1 REVERT JUMPDEST PUSH1 0x3D PUSH1 0x5B JUMP JUMPDEST STOP JUMPDEST PUSH1 0x45 PUSH1 0x65 JUMP JUMPDEST PUSH1 0x40 MLOAD DUP1 DUP3 DUP2 MSTORE PUSH1 0x20 ADD SWAP2 POP POP PUSH1 0x40 MLOAD DUP1 SWAP2 SUB SWAP1 RETURN JUMPDEST PUSH1 0xA PUSH1 0x0 DUP2 SWAP1 SSTORE POP JUMP JUMPDEST PUSH1 0x0 SLOAD DUP2 JUMP INVALID LOG2 PUSH5 0x6970667358 0x22 SLT KECCAK256 0x25 EXTCODESIZE PUSH15 0x31C914E8803BC831FDBBF4A901D7FD MSTORE 0x1F PUSH10 0x33B620A1727F63FC2B4 BALANCE PUSH5 0x736F6C6343 STOP SMOD MOD STOP CALLER "
				},
				"gasEstimates": {
					"creation": {
						"codeDepositCost": "32200",
						"executionCost": "20101",
						"totalCost": "52301"
					},
					"external": {
						"b()": "1005",
						"funB()": "20136"
					}
				},
				"methodIdentifiers": {
					"b()": "4df7e3d0",
					"funB()": "09ebbbdb"
				}
			},
			"storageLayout": {
				"storage": [
					{
						"astId": 22,
						"contract": "artifacts/Lalit/multiple inheritance.sol:B",
						"label": "b",
						"offset": 0,
						"slot": "0",
						"type": "t_uint256"
					}
				],
				"types": {
					"t_uint256": {
						"encoding": "inplace",
						"label": "uint256",
						"numberOfBytes": "32"
					}
				}
			},
			"userdoc": {
				"kind": "user",
				"methods": {},
				"version": 1
			}
		}
	}
}