{
	"artifacts/Lalit/Lottery.sol": {
		"Lottery": {
			"abi": [
				{
					"inputs": [],
					"stateMutability": "nonpayable",
					"type": "constructor"
				},
				{
					"inputs": [],
					"name": "Manager",
					"outputs": [
						{
							"internalType": "address",
							"name": "",
							"type": "address"
						}
					],
					"stateMutability": "view",
					"type": "function"
				},
				{
					"inputs": [
						{
							"internalType": "uint256",
							"name": "",
							"type": "uint256"
						}
					],
					"name": "Players",
					"outputs": [
						{
							"internalType": "address payable",
							"name": "",
							"type": "address"
						}
					],
					"stateMutability": "view",
					"type": "function"
				},
				{
					"inputs": [],
					"name": "alreadyentered",
					"outputs": [
						{
							"internalType": "bool",
							"name": "",
							"type": "bool"
						}
					],
					"stateMutability": "view",
					"type": "function"
				},
				{
					"inputs": [],
					"name": "enter",
					"outputs": [],
					"stateMutability": "payable",
					"type": "function"
				},
				{
					"inputs": [],
					"name": "getplayers",
					"outputs": [
						{
							"internalType": "address payable[]",
							"name": "",
							"type": "address[]"
						}
					],
					"stateMutability": "view",
					"type": "function"
				},
				{
					"inputs": [],
					"name": "pickwinner",
					"outputs": [],
					"stateMutability": "nonpayable",
					"type": "function"
				}
			],
			"devdoc": {
				"kind": "dev",
				"methods": {},
				"version": 1
			},
			"evm": {
				"assembly": "    /* \"artifacts/Lalit/Lottery.sol\":70:1292  contract Lottery{... */\n  mstore(0x40, 0x80)\n    /* \"artifacts/Lalit/Lottery.sol\":178:269  constructor (){... */\n  callvalue\n  dup1\n  iszero\n  tag_1\n  jumpi\n  0x00\n  dup1\n  revert\ntag_1:\n  pop\n    /* \"artifacts/Lalit/Lottery.sol\":254:264  msg.sender */\n  caller\n    /* \"artifacts/Lalit/Lottery.sol\":244:251  Manager */\n  0x00\n  dup1\n    /* \"artifacts/Lalit/Lottery.sol\":244:264  Manager = msg.sender */\n  0x0100\n  exp\n  dup2\n  sload\n  dup2\n  0xffffffffffffffffffffffffffffffffffffffff\n  mul\n  not\n  and\n  swap1\n  dup4\n  0xffffffffffffffffffffffffffffffffffffffff\n  and\n  mul\n  or\n  swap1\n  sstore\n  pop\n    /* \"artifacts/Lalit/Lottery.sol\":70:1292  contract Lottery{... */\n  dataSize(sub_0)\n  dup1\n  dataOffset(sub_0)\n  0x00\n  codecopy\n  0x00\n  return\nstop\n\nsub_0: assembly {\n        /* \"artifacts/Lalit/Lottery.sol\":70:1292  contract Lottery{... */\n      mstore(0x40, 0x80)\n      jumpi(tag_1, lt(calldatasize, 0x04))\n      shr(0xe0, calldataload(0x00))\n      dup1\n      0x48ef3f03\n      eq\n      tag_2\n      jumpi\n      dup1\n      0x71b80060\n      eq\n      tag_3\n      jumpi\n      dup1\n      0x78357e53\n      eq\n      tag_4\n      jumpi\n      dup1\n      0xb6133ac7\n      eq\n      tag_5\n      jumpi\n      dup1\n      0xe97dcb62\n      eq\n      tag_6\n      jumpi\n      dup1\n      0xecb3db52\n      eq\n      tag_7\n      jumpi\n    tag_1:\n      0x00\n      dup1\n      revert\n        /* \"artifacts/Lalit/Lottery.sol\":113:146  address payable [] public Players */\n    tag_2:\n      callvalue\n      dup1\n      iszero\n      tag_8\n      jumpi\n      0x00\n      dup1\n      revert\n    tag_8:\n      pop\n      tag_9\n      0x04\n      dup1\n      calldatasize\n      sub\n      dup2\n      add\n      swap1\n      tag_10\n      swap2\n      swap1\n      tag_11\n      jump\t// in\n    tag_10:\n      tag_12\n      jump\t// in\n    tag_9:\n      mload(0x40)\n      tag_13\n      swap2\n      swap1\n      tag_14\n      jump\t// in\n    tag_13:\n      mload(0x40)\n      dup1\n      swap2\n      sub\n      swap1\n      return\n        /* \"artifacts/Lalit/Lottery.sol\":842:1197  function pickwinner() public {... */\n    tag_3:\n      callvalue\n      dup1\n      iszero\n      tag_15\n      jumpi\n      0x00\n      dup1\n      revert\n    tag_15:\n      pop\n      tag_16\n      tag_17\n      jump\t// in\n    tag_16:\n      stop\n        /* \"artifacts/Lalit/Lottery.sol\":88:110  address public Manager */\n    tag_4:\n      callvalue\n      dup1\n      iszero\n      tag_18\n      jumpi\n      0x00\n      dup1\n      revert\n    tag_18:\n      pop\n      tag_19\n      tag_20\n      jump\t// in\n    tag_19:\n      mload(0x40)\n      tag_21\n      swap2\n      swap1\n      tag_22\n      jump\t// in\n    tag_21:\n      mload(0x40)\n      dup1\n      swap2\n      sub\n      swap1\n      return\n        /* \"artifacts/Lalit/Lottery.sol\":270:430  function alreadyentered() view public returns(bool){... */\n    tag_5:\n      callvalue\n      dup1\n      iszero\n      tag_23\n      jumpi\n      0x00\n      dup1\n      revert\n    tag_23:\n      pop\n      tag_24\n      tag_25\n      jump\t// in\n    tag_24:\n      mload(0x40)\n      tag_26\n      swap2\n      swap1\n      tag_27\n      jump\t// in\n    tag_26:\n      mload(0x40)\n      dup1\n      swap2\n      sub\n      swap1\n      return\n        /* \"artifacts/Lalit/Lottery.sol\":433:701  function enter() payable public {... */\n    tag_6:\n      tag_28\n      tag_29\n      jump\t// in\n    tag_28:\n      stop\n        /* \"artifacts/Lalit/Lottery.sol\":1199:1289  function getplayers() public view returns(address payable[] memory){... */\n    tag_7:\n      callvalue\n      dup1\n      iszero\n      tag_30\n      jumpi\n      0x00\n      dup1\n      revert\n    tag_30:\n      pop\n      tag_31\n      tag_32\n      jump\t// in\n    tag_31:\n      mload(0x40)\n      tag_33\n      swap2\n      swap1\n      tag_34\n      jump\t// in\n    tag_33:\n      mload(0x40)\n      dup1\n      swap2\n      sub\n      swap1\n      return\n        /* \"artifacts/Lalit/Lottery.sol\":113:146  address payable [] public Players */\n    tag_12:\n      0x01\n      dup2\n      dup2\n      sload\n      dup2\n      lt\n      tag_35\n      jumpi\n      0x00\n      dup1\n      revert\n    tag_35:\n      swap1\n      0x00\n      mstore\n      keccak256(0x00, 0x20)\n      add\n      0x00\n      swap2\n      pop\n      sload\n      swap1\n      0x0100\n      exp\n      swap1\n      div\n      0xffffffffffffffffffffffffffffffffffffffff\n      and\n      dup2\n      jump\t// out\n        /* \"artifacts/Lalit/Lottery.sol\":842:1197  function pickwinner() public {... */\n    tag_17:\n        /* \"artifacts/Lalit/Lottery.sol\":896:903  Manager */\n      0x00\n      dup1\n      sload\n      swap1\n      0x0100\n      exp\n      swap1\n      div\n      0xffffffffffffffffffffffffffffffffffffffff\n      and\n        /* \"artifacts/Lalit/Lottery.sol\":882:903  msg.sender == Manager */\n      0xffffffffffffffffffffffffffffffffffffffff\n      and\n        /* \"artifacts/Lalit/Lottery.sol\":882:892  msg.sender */\n      caller\n        /* \"artifacts/Lalit/Lottery.sol\":882:903  msg.sender == Manager */\n      0xffffffffffffffffffffffffffffffffffffffff\n      and\n      eq\n        /* \"artifacts/Lalit/Lottery.sol\":873:940  require( msg.sender == Manager,\" only manager can pick the winner\") */\n      tag_38\n      jumpi\n      mload(0x40)\n      0x08c379a000000000000000000000000000000000000000000000000000000000\n      dup2\n      mstore\n      0x04\n      add\n      tag_39\n      swap1\n      tag_40\n      jump\t// in\n    tag_39:\n      mload(0x40)\n      dup1\n      swap2\n      sub\n      swap1\n      revert\n    tag_38:\n        /* \"artifacts/Lalit/Lottery.sol\":942:958  uint winnerindex */\n      0x00\n        /* \"artifacts/Lalit/Lottery.sol\":977:984  Players */\n      0x01\n        /* \"artifacts/Lalit/Lottery.sol\":977:991  Players.length */\n      dup1\n      sload\n      swap1\n      pop\n        /* \"artifacts/Lalit/Lottery.sol\":961:975  randomnumber() */\n      tag_41\n        /* \"artifacts/Lalit/Lottery.sol\":961:973  randomnumber */\n      tag_42\n        /* \"artifacts/Lalit/Lottery.sol\":961:975  randomnumber() */\n      jump\t// in\n    tag_41:\n        /* \"artifacts/Lalit/Lottery.sol\":961:991  randomnumber()% Players.length */\n      tag_43\n      swap2\n      swap1\n      tag_44\n      jump\t// in\n    tag_43:\n        /* \"artifacts/Lalit/Lottery.sol\":942:991  uint winnerindex = randomnumber()% Players.length */\n      swap1\n      pop\n        /* \"artifacts/Lalit/Lottery.sol\":993:1016  address contractaddress */\n      0x00\n        /* \"artifacts/Lalit/Lottery.sol\":1027:1031  this */\n      address\n        /* \"artifacts/Lalit/Lottery.sol\":993:1032  address contractaddress = address(this) */\n      swap1\n      pop\n        /* \"artifacts/Lalit/Lottery.sol\":1075:1082  Players */\n      0x01\n        /* \"artifacts/Lalit/Lottery.sol\":1083:1094  winnerindex */\n      dup3\n        /* \"artifacts/Lalit/Lottery.sol\":1075:1095  Players[winnerindex] */\n      dup2\n      sload\n      dup2\n      lt\n      tag_45\n      jumpi\n      tag_46\n      tag_47\n      jump\t// in\n    tag_46:\n    tag_45:\n      swap1\n      0x00\n      mstore\n      keccak256(0x00, 0x20)\n      add\n      0x00\n      swap1\n      sload\n      swap1\n      0x0100\n      exp\n      swap1\n      div\n      0xffffffffffffffffffffffffffffffffffffffff\n      and\n        /* \"artifacts/Lalit/Lottery.sol\":1075:1104  Players[winnerindex].transfer */\n      0xffffffffffffffffffffffffffffffffffffffff\n      and\n        /* \"artifacts/Lalit/Lottery.sol\":1075:1129  Players[winnerindex].transfer(contractaddress.balance) */\n      0x08fc\n        /* \"artifacts/Lalit/Lottery.sol\":1105:1120  contractaddress */\n      dup3\n        /* \"artifacts/Lalit/Lottery.sol\":1105:1128  contractaddress.balance */\n      0xffffffffffffffffffffffffffffffffffffffff\n      and\n      balance\n        /* \"artifacts/Lalit/Lottery.sol\":1075:1129  Players[winnerindex].transfer(contractaddress.balance) */\n      swap1\n      dup2\n      iszero\n      mul\n      swap1\n      mload(0x40)\n      0x00\n      mload(0x40)\n      dup1\n      dup4\n      sub\n      dup2\n      dup6\n      dup9\n      dup9\n      call\n      swap4\n      pop\n      pop\n      pop\n      pop\n      iszero\n      dup1\n      iszero\n      tag_50\n      jumpi\n      returndatasize\n      0x00\n      dup1\n      returndatacopy\n      revert(0x00, returndatasize)\n    tag_50:\n      pop\n        /* \"artifacts/Lalit/Lottery.sol\":1191:1192  0 */\n      0x00\n        /* \"artifacts/Lalit/Lottery.sol\":1169:1193  new address payable[](0) */\n      0xffffffffffffffff\n      dup2\n      gt\n      iszero\n      tag_51\n      jumpi\n      tag_52\n      tag_53\n      jump\t// in\n    tag_52:\n    tag_51:\n      mload(0x40)\n      swap1\n      dup1\n      dup3\n      mstore\n      dup1\n      0x20\n      mul\n      0x20\n      add\n      dup3\n      add\n      0x40\n      mstore\n      dup1\n      iszero\n      tag_54\n      jumpi\n      dup2\n      0x20\n      add\n      0x20\n      dup3\n      mul\n      dup1\n      calldatasize\n      dup4\n      calldatacopy\n      dup1\n      dup3\n      add\n      swap2\n      pop\n      pop\n      swap1\n      pop\n    tag_54:\n      pop\n        /* \"artifacts/Lalit/Lottery.sol\":1159:1166  Players */\n      0x01\n        /* \"artifacts/Lalit/Lottery.sol\":1159:1193  Players = new address payable[](0) */\n      swap1\n      dup1\n      mload\n      swap1\n      0x20\n      add\n      swap1\n      tag_55\n      swap3\n      swap2\n      swap1\n      tag_56\n      jump\t// in\n    tag_55:\n      pop\n        /* \"artifacts/Lalit/Lottery.sol\":871:1197  {... */\n      pop\n      pop\n        /* \"artifacts/Lalit/Lottery.sol\":842:1197  function pickwinner() public {... */\n      jump\t// out\n        /* \"artifacts/Lalit/Lottery.sol\":88:110  address public Manager */\n    tag_20:\n      0x00\n      dup1\n      sload\n      swap1\n      0x0100\n      exp\n      swap1\n      div\n      0xffffffffffffffffffffffffffffffffffffffff\n      and\n      dup2\n      jump\t// out\n        /* \"artifacts/Lalit/Lottery.sol\":270:430  function alreadyentered() view public returns(bool){... */\n    tag_25:\n        /* \"artifacts/Lalit/Lottery.sol\":316:320  bool */\n      0x00\n        /* \"artifacts/Lalit/Lottery.sol\":331:337  uint i */\n      dup1\n        /* \"artifacts/Lalit/Lottery.sol\":338:339  0 */\n      0x00\n        /* \"artifacts/Lalit/Lottery.sol\":331:339  uint i=0 */\n      swap1\n      pop\n        /* \"artifacts/Lalit/Lottery.sol\":327:413  for(uint i=0; i<Players.length; i++){... */\n    tag_58:\n        /* \"artifacts/Lalit/Lottery.sol\":343:350  Players */\n      0x01\n        /* \"artifacts/Lalit/Lottery.sol\":343:357  Players.length */\n      dup1\n      sload\n      swap1\n      pop\n        /* \"artifacts/Lalit/Lottery.sol\":341:342  i */\n      dup2\n        /* \"artifacts/Lalit/Lottery.sol\":341:357  i<Players.length */\n      lt\n        /* \"artifacts/Lalit/Lottery.sol\":327:413  for(uint i=0; i<Players.length; i++){... */\n      iszero\n      tag_59\n      jumpi\n        /* \"artifacts/Lalit/Lottery.sol\":383:393  msg.sender */\n      caller\n        /* \"artifacts/Lalit/Lottery.sol\":369:393  Players[i] == msg.sender */\n      0xffffffffffffffffffffffffffffffffffffffff\n      and\n        /* \"artifacts/Lalit/Lottery.sol\":369:376  Players */\n      0x01\n        /* \"artifacts/Lalit/Lottery.sol\":377:378  i */\n      dup3\n        /* \"artifacts/Lalit/Lottery.sol\":369:379  Players[i] */\n      dup2\n      sload\n      dup2\n      lt\n      tag_61\n      jumpi\n      tag_62\n      tag_47\n      jump\t// in\n    tag_62:\n    tag_61:\n      swap1\n      0x00\n      mstore\n      keccak256(0x00, 0x20)\n      add\n      0x00\n      swap1\n      sload\n      swap1\n      0x0100\n      exp\n      swap1\n      div\n      0xffffffffffffffffffffffffffffffffffffffff\n      and\n        /* \"artifacts/Lalit/Lottery.sol\":369:393  Players[i] == msg.sender */\n      0xffffffffffffffffffffffffffffffffffffffff\n      and\n      eq\n        /* \"artifacts/Lalit/Lottery.sol\":365:410  if( Players[i] == msg.sender)... */\n      iszero\n      tag_64\n      jumpi\n        /* \"artifacts/Lalit/Lottery.sol\":406:410  true */\n      0x01\n        /* \"artifacts/Lalit/Lottery.sol\":399:410  return true */\n      swap2\n      pop\n      pop\n      jump(tag_57)\n        /* \"artifacts/Lalit/Lottery.sol\":365:410  if( Players[i] == msg.sender)... */\n    tag_64:\n        /* \"artifacts/Lalit/Lottery.sol\":359:362  i++ */\n      dup1\n      dup1\n      tag_65\n      swap1\n      tag_66\n      jump\t// in\n    tag_65:\n      swap2\n      pop\n      pop\n        /* \"artifacts/Lalit/Lottery.sol\":327:413  for(uint i=0; i<Players.length; i++){... */\n      jump(tag_58)\n    tag_59:\n      pop\n        /* \"artifacts/Lalit/Lottery.sol\":421:426  false */\n      0x00\n        /* \"artifacts/Lalit/Lottery.sol\":414:426  return false */\n      swap1\n      pop\n        /* \"artifacts/Lalit/Lottery.sol\":270:430  function alreadyentered() view public returns(bool){... */\n    tag_57:\n      swap1\n      jump\t// out\n        /* \"artifacts/Lalit/Lottery.sol\":433:701  function enter() payable public {... */\n    tag_29:\n        /* \"artifacts/Lalit/Lottery.sol\":491:498  Manager */\n      0x00\n      dup1\n      sload\n      swap1\n      0x0100\n      exp\n      swap1\n      div\n      0xffffffffffffffffffffffffffffffffffffffff\n      and\n        /* \"artifacts/Lalit/Lottery.sol\":477:498  msg.sender != Manager */\n      0xffffffffffffffffffffffffffffffffffffffff\n      and\n        /* \"artifacts/Lalit/Lottery.sol\":477:487  msg.sender */\n      caller\n        /* \"artifacts/Lalit/Lottery.sol\":477:498  msg.sender != Manager */\n      0xffffffffffffffffffffffffffffffffffffffff\n      and\n      eq\n      iszero\n        /* \"artifacts/Lalit/Lottery.sol\":467:544  require ( msg.sender != Manager, \" Manager can not take part in the Lottery\") */\n      tag_68\n      jumpi\n      mload(0x40)\n      0x08c379a000000000000000000000000000000000000000000000000000000000\n      dup2\n      mstore\n      0x04\n      add\n      tag_69\n      swap1\n      tag_70\n      jump\t// in\n    tag_69:\n      mload(0x40)\n      dup1\n      swap2\n      sub\n      swap1\n      revert\n    tag_68:\n        /* \"artifacts/Lalit/Lottery.sol\":576:581  false */\n      0x00\n        /* \"artifacts/Lalit/Lottery.sol\":556:581  alreadyentered() == false */\n      iszero\n      iszero\n        /* \"artifacts/Lalit/Lottery.sol\":556:572  alreadyentered() */\n      tag_71\n        /* \"artifacts/Lalit/Lottery.sol\":556:570  alreadyentered */\n      tag_25\n        /* \"artifacts/Lalit/Lottery.sol\":556:572  alreadyentered() */\n      jump\t// in\n    tag_71:\n        /* \"artifacts/Lalit/Lottery.sol\":556:581  alreadyentered() == false */\n      iszero\n      iszero\n      eq\n        /* \"artifacts/Lalit/Lottery.sol\":546:628  require ( alreadyentered() == false, \" Palyer can not take part again in Lottery\") */\n      tag_72\n      jumpi\n      mload(0x40)\n      0x08c379a000000000000000000000000000000000000000000000000000000000\n      dup2\n      mstore\n      0x04\n      add\n      tag_73\n      swap1\n      tag_74\n      jump\t// in\n    tag_73:\n      mload(0x40)\n      dup1\n      swap2\n      sub\n      swap1\n      revert\n    tag_72:\n        /* \"artifacts/Lalit/Lottery.sol\":653:660  1 ether */\n      0x0de0b6b3a7640000\n        /* \"artifacts/Lalit/Lottery.sol\":640:649  msg.value */\n      callvalue\n        /* \"artifacts/Lalit/Lottery.sol\":640:660  msg.value >= 1 ether */\n      lt\n      iszero\n        /* \"artifacts/Lalit/Lottery.sol\":630:697  require ( msg.value >= 1 ether,\" Please pay minimum Lottery Fees\" ) */\n      tag_75\n      jumpi\n      mload(0x40)\n      0x08c379a000000000000000000000000000000000000000000000000000000000\n      dup2\n      mstore\n      0x04\n      add\n      tag_76\n      swap1\n      tag_77\n      jump\t// in\n    tag_76:\n      mload(0x40)\n      dup1\n      swap2\n      sub\n      swap1\n      revert\n    tag_75:\n        /* \"artifacts/Lalit/Lottery.sol\":433:701  function enter() payable public {... */\n      jump\t// out\n        /* \"artifacts/Lalit/Lottery.sol\":1199:1289  function getplayers() public view returns(address payable[] memory){... */\n    tag_32:\n        /* \"artifacts/Lalit/Lottery.sol\":1241:1265  address payable[] memory */\n      0x60\n        /* \"artifacts/Lalit/Lottery.sol\":1279:1286  Players */\n      0x01\n        /* \"artifacts/Lalit/Lottery.sol\":1272:1286  return Players */\n      dup1\n      sload\n      dup1\n      0x20\n      mul\n      0x20\n      add\n      mload(0x40)\n      swap1\n      dup2\n      add\n      0x40\n      mstore\n      dup1\n      swap3\n      swap2\n      swap1\n      dup2\n      dup2\n      mstore\n      0x20\n      add\n      dup3\n      dup1\n      sload\n      dup1\n      iszero\n      tag_79\n      jumpi\n      0x20\n      mul\n      dup3\n      add\n      swap2\n      swap1\n      0x00\n      mstore\n      keccak256(0x00, 0x20)\n      swap1\n    tag_80:\n      dup2\n      0x00\n      swap1\n      sload\n      swap1\n      0x0100\n      exp\n      swap1\n      div\n      0xffffffffffffffffffffffffffffffffffffffff\n      and\n      0xffffffffffffffffffffffffffffffffffffffff\n      and\n      dup2\n      mstore\n      0x20\n      add\n      swap1\n      0x01\n      add\n      swap1\n      dup1\n      dup4\n      gt\n      tag_80\n      jumpi\n    tag_79:\n      pop\n      pop\n      pop\n      pop\n      pop\n      swap1\n      pop\n        /* \"artifacts/Lalit/Lottery.sol\":1199:1289  function getplayers() public view returns(address payable[] memory){... */\n      swap1\n      jump\t// out\n        /* \"artifacts/Lalit/Lottery.sol\":703:840  function randomnumber() private view returns(uint){... */\n    tag_42:\n        /* \"artifacts/Lalit/Lottery.sol\":748:752  uint */\n      0x00\n        /* \"artifacts/Lalit/Lottery.sol\":771:835  sha256(abi.encodePacked(block.difficulty, block.number,Players)) */\n      0x02\n        /* \"artifacts/Lalit/Lottery.sol\":795:811  block.difficulty */\n      difficulty\n        /* \"artifacts/Lalit/Lottery.sol\":813:825  block.number */\n      number\n        /* \"artifacts/Lalit/Lottery.sol\":826:833  Players */\n      0x01\n        /* \"artifacts/Lalit/Lottery.sol\":778:834  abi.encodePacked(block.difficulty, block.number,Players) */\n      add(0x20, mload(0x40))\n      tag_82\n      swap4\n      swap3\n      swap2\n      swap1\n      tag_83\n      jump\t// in\n    tag_82:\n      mload(0x40)\n      0x20\n      dup2\n      dup4\n      sub\n      sub\n      dup2\n      mstore\n      swap1\n      0x40\n      mstore\n        /* \"artifacts/Lalit/Lottery.sol\":771:835  sha256(abi.encodePacked(block.difficulty, block.number,Players)) */\n      mload(0x40)\n      tag_84\n      swap2\n      swap1\n      tag_85\n      jump\t// in\n    tag_84:\n      0x20\n      mload(0x40)\n      dup1\n      dup4\n      sub\n      dup2\n      dup6\n      gas\n      staticcall\n      iszero\n      dup1\n      iszero\n      tag_87\n      jumpi\n      returndatasize\n      0x00\n      dup1\n      returndatacopy\n      revert(0x00, returndatasize)\n    tag_87:\n      pop\n      pop\n      pop\n      mload(0x40)\n      returndatasize\n      not(0x1f)\n      0x1f\n      dup3\n      add\n      and\n      dup3\n      add\n      dup1\n      0x40\n      mstore\n      pop\n      dup2\n      add\n      swap1\n      tag_88\n      swap2\n      swap1\n      tag_89\n      jump\t// in\n    tag_88:\n        /* \"artifacts/Lalit/Lottery.sol\":765:836  uint (sha256(abi.encodePacked(block.difficulty, block.number,Players))) */\n      0x00\n      shr\n        /* \"artifacts/Lalit/Lottery.sol\":758:836  return uint (sha256(abi.encodePacked(block.difficulty, block.number,Players))) */\n      swap1\n      pop\n        /* \"artifacts/Lalit/Lottery.sol\":703:840  function randomnumber() private view returns(uint){... */\n      swap1\n      jump\t// out\n    tag_56:\n      dup3\n      dup1\n      sload\n      dup3\n      dup3\n      sstore\n      swap1\n      0x00\n      mstore\n      keccak256(0x00, 0x20)\n      swap1\n      dup2\n      add\n      swap3\n      dup3\n      iszero\n      tag_90\n      jumpi\n      swap2\n      0x20\n      mul\n      dup3\n      add\n    tag_91:\n      dup3\n      dup2\n      gt\n      iszero\n      tag_92\n      jumpi\n      dup3\n      mload\n      dup3\n      exp(0x0100, 0x00)\n      dup2\n      sload\n      dup2\n      0xffffffffffffffffffffffffffffffffffffffff\n      mul\n      not\n      and\n      swap1\n      dup4\n      0xffffffffffffffffffffffffffffffffffffffff\n      and\n      mul\n      or\n      swap1\n      sstore\n      pop\n      swap2\n      0x20\n      add\n      swap2\n      swap1\n      0x01\n      add\n      swap1\n      jump(tag_91)\n    tag_92:\n    tag_90:\n      pop\n      swap1\n      pop\n      tag_93\n      swap2\n      swap1\n      tag_94\n      jump\t// in\n    tag_93:\n      pop\n      swap1\n      jump\t// out\n    tag_94:\n    tag_95:\n      dup1\n      dup3\n      gt\n      iszero\n      tag_96\n      jumpi\n      0x00\n      dup2\n      0x00\n      swap1\n      sstore\n      pop\n      0x01\n      add\n      jump(tag_95)\n    tag_96:\n      pop\n      swap1\n      jump\t// out\n        /* \"#utility.yul\":7:150   */\n    tag_98:\n        /* \"#utility.yul\":64:69   */\n      0x00\n        /* \"#utility.yul\":95:101   */\n      dup2\n        /* \"#utility.yul\":89:102   */\n      mload\n        /* \"#utility.yul\":80:102   */\n      swap1\n      pop\n        /* \"#utility.yul\":111:144   */\n      tag_100\n        /* \"#utility.yul\":138:143   */\n      dup2\n        /* \"#utility.yul\":111:144   */\n      tag_101\n      jump\t// in\n    tag_100:\n        /* \"#utility.yul\":7:150   */\n      swap3\n      swap2\n      pop\n      pop\n      jump\t// out\n        /* \"#utility.yul\":156:295   */\n    tag_102:\n        /* \"#utility.yul\":202:207   */\n      0x00\n        /* \"#utility.yul\":240:246   */\n      dup2\n        /* \"#utility.yul\":227:247   */\n      calldataload\n        /* \"#utility.yul\":218:247   */\n      swap1\n      pop\n        /* \"#utility.yul\":256:289   */\n      tag_104\n        /* \"#utility.yul\":283:288   */\n      dup2\n        /* \"#utility.yul\":256:289   */\n      tag_105\n      jump\t// in\n    tag_104:\n        /* \"#utility.yul\":156:295   */\n      swap3\n      swap2\n      pop\n      pop\n      jump\t// out\n        /* \"#utility.yul\":301:652   */\n    tag_89:\n        /* \"#utility.yul\":371:377   */\n      0x00\n        /* \"#utility.yul\":420:422   */\n      0x20\n        /* \"#utility.yul\":408:417   */\n      dup3\n        /* \"#utility.yul\":399:406   */\n      dup5\n        /* \"#utility.yul\":395:418   */\n      sub\n        /* \"#utility.yul\":391:423   */\n      slt\n        /* \"#utility.yul\":388:507   */\n      iszero\n      tag_107\n      jumpi\n        /* \"#utility.yul\":426:505   */\n      tag_108\n      tag_109\n      jump\t// in\n    tag_108:\n        /* \"#utility.yul\":388:507   */\n    tag_107:\n        /* \"#utility.yul\":546:547   */\n      0x00\n        /* \"#utility.yul\":571:635   */\n      tag_110\n        /* \"#utility.yul\":627:634   */\n      dup5\n        /* \"#utility.yul\":618:624   */\n      dup3\n        /* \"#utility.yul\":607:616   */\n      dup6\n        /* \"#utility.yul\":603:625   */\n      add\n        /* \"#utility.yul\":571:635   */\n      tag_98\n      jump\t// in\n    tag_110:\n        /* \"#utility.yul\":561:635   */\n      swap2\n      pop\n        /* \"#utility.yul\":517:645   */\n      pop\n        /* \"#utility.yul\":301:652   */\n      swap3\n      swap2\n      pop\n      pop\n      jump\t// out\n        /* \"#utility.yul\":658:987   */\n    tag_11:\n        /* \"#utility.yul\":717:723   */\n      0x00\n        /* \"#utility.yul\":766:768   */\n      0x20\n        /* \"#utility.yul\":754:763   */\n      dup3\n        /* \"#utility.yul\":745:752   */\n      dup5\n        /* \"#utility.yul\":741:764   */\n      sub\n        /* \"#utility.yul\":737:769   */\n      slt\n        /* \"#utility.yul\":734:853   */\n      iszero\n      tag_112\n      jumpi\n        /* \"#utility.yul\":772:851   */\n      tag_113\n      tag_109\n      jump\t// in\n    tag_113:\n        /* \"#utility.yul\":734:853   */\n    tag_112:\n        /* \"#utility.yul\":892:893   */\n      0x00\n        /* \"#utility.yul\":917:970   */\n      tag_114\n        /* \"#utility.yul\":962:969   */\n      dup5\n        /* \"#utility.yul\":953:959   */\n      dup3\n        /* \"#utility.yul\":942:951   */\n      dup6\n        /* \"#utility.yul\":938:960   */\n      add\n        /* \"#utility.yul\":917:970   */\n      tag_102\n      jump\t// in\n    tag_114:\n        /* \"#utility.yul\":907:970   */\n      swap2\n      pop\n        /* \"#utility.yul\":863:980   */\n      pop\n        /* \"#utility.yul\":658:987   */\n      swap3\n      swap2\n      pop\n      pop\n      jump\t// out\n        /* \"#utility.yul\":993:1204   */\n    tag_115:\n        /* \"#utility.yul\":1078:1088   */\n      0x00\n        /* \"#utility.yul\":1099:1161   */\n      tag_117\n        /* \"#utility.yul\":1157:1160   */\n      dup4\n        /* \"#utility.yul\":1149:1155   */\n      dup4\n        /* \"#utility.yul\":1099:1161   */\n      tag_118\n      jump\t// in\n    tag_117:\n        /* \"#utility.yul\":1193:1197   */\n      0x20\n        /* \"#utility.yul\":1188:1191   */\n      dup4\n        /* \"#utility.yul\":1184:1198   */\n      add\n        /* \"#utility.yul\":1170:1198   */\n      swap1\n      pop\n        /* \"#utility.yul\":993:1204   */\n      swap3\n      swap2\n      pop\n      pop\n      jump\t// out\n        /* \"#utility.yul\":1210:1437   */\n    tag_119:\n        /* \"#utility.yul\":1303:1313   */\n      0x00\n        /* \"#utility.yul\":1324:1394   */\n      tag_121\n        /* \"#utility.yul\":1390:1393   */\n      dup4\n        /* \"#utility.yul\":1382:1388   */\n      dup4\n        /* \"#utility.yul\":1324:1394   */\n      tag_122\n      jump\t// in\n    tag_121:\n        /* \"#utility.yul\":1426:1430   */\n      0x20\n        /* \"#utility.yul\":1421:1424   */\n      dup4\n        /* \"#utility.yul\":1417:1431   */\n      add\n        /* \"#utility.yul\":1403:1431   */\n      swap1\n      pop\n        /* \"#utility.yul\":1210:1437   */\n      swap3\n      swap2\n      pop\n      pop\n      jump\t// out\n        /* \"#utility.yul\":1443:1575   */\n    tag_118:\n        /* \"#utility.yul\":1536:1568   */\n      tag_124\n        /* \"#utility.yul\":1562:1567   */\n      dup2\n        /* \"#utility.yul\":1536:1568   */\n      tag_125\n      jump\t// in\n    tag_124:\n        /* \"#utility.yul\":1531:1534   */\n      dup3\n        /* \"#utility.yul\":1524:1569   */\n      mstore\n        /* \"#utility.yul\":1443:1575   */\n      pop\n      pop\n      jump\t// out\n        /* \"#utility.yul\":1581:1723   */\n    tag_126:\n        /* \"#utility.yul\":1684:1716   */\n      tag_128\n        /* \"#utility.yul\":1710:1715   */\n      dup2\n        /* \"#utility.yul\":1684:1716   */\n      tag_125\n      jump\t// in\n    tag_128:\n        /* \"#utility.yul\":1679:1682   */\n      dup3\n        /* \"#utility.yul\":1672:1717   */\n      mstore\n        /* \"#utility.yul\":1581:1723   */\n      pop\n      pop\n      jump\t// out\n        /* \"#utility.yul\":1729:1869   */\n    tag_122:\n        /* \"#utility.yul\":1830:1862   */\n      tag_130\n        /* \"#utility.yul\":1856:1861   */\n      dup2\n        /* \"#utility.yul\":1830:1862   */\n      tag_125\n      jump\t// in\n    tag_130:\n        /* \"#utility.yul\":1825:1828   */\n      dup3\n        /* \"#utility.yul\":1818:1863   */\n      mstore\n        /* \"#utility.yul\":1729:1869   */\n      pop\n      pop\n      jump\t// out\n        /* \"#utility.yul\":1875:1993   */\n    tag_131:\n        /* \"#utility.yul\":1962:1986   */\n      tag_133\n        /* \"#utility.yul\":1980:1985   */\n      dup2\n        /* \"#utility.yul\":1962:1986   */\n      tag_134\n      jump\t// in\n    tag_133:\n        /* \"#utility.yul\":1957:1960   */\n      dup3\n        /* \"#utility.yul\":1950:1987   */\n      mstore\n        /* \"#utility.yul\":1875:1993   */\n      pop\n      pop\n      jump\t// out\n        /* \"#utility.yul\":2045:2841   */\n    tag_135:\n        /* \"#utility.yul\":2180:2183   */\n      0x00\n        /* \"#utility.yul\":2209:2271   */\n      tag_137\n        /* \"#utility.yul\":2265:2270   */\n      dup3\n        /* \"#utility.yul\":2209:2271   */\n      tag_138\n      jump\t// in\n    tag_137:\n        /* \"#utility.yul\":2287:2381   */\n      tag_139\n        /* \"#utility.yul\":2374:2380   */\n      dup2\n        /* \"#utility.yul\":2369:2372   */\n      dup6\n        /* \"#utility.yul\":2287:2381   */\n      tag_140\n      jump\t// in\n    tag_139:\n        /* \"#utility.yul\":2280:2381   */\n      swap4\n      pop\n        /* \"#utility.yul\":2405:2469   */\n      tag_141\n        /* \"#utility.yul\":2463:2468   */\n      dup4\n        /* \"#utility.yul\":2405:2469   */\n      tag_142\n      jump\t// in\n    tag_141:\n        /* \"#utility.yul\":2492:2499   */\n      dup1\n        /* \"#utility.yul\":2523:2524   */\n      0x00\n        /* \"#utility.yul\":2508:2816   */\n    tag_143:\n        /* \"#utility.yul\":2533:2539   */\n      dup4\n        /* \"#utility.yul\":2530:2531   */\n      dup2\n        /* \"#utility.yul\":2527:2540   */\n      lt\n        /* \"#utility.yul\":2508:2816   */\n      iszero\n      tag_145\n      jumpi\n        /* \"#utility.yul\":2609:2615   */\n      dup2\n        /* \"#utility.yul\":2603:2616   */\n      mload\n        /* \"#utility.yul\":2636:2715   */\n      tag_146\n        /* \"#utility.yul\":2711:2714   */\n      dup9\n        /* \"#utility.yul\":2696:2709   */\n      dup3\n        /* \"#utility.yul\":2636:2715   */\n      tag_115\n      jump\t// in\n    tag_146:\n        /* \"#utility.yul\":2629:2715   */\n      swap8\n      pop\n        /* \"#utility.yul\":2738:2806   */\n      tag_147\n        /* \"#utility.yul\":2799:2805   */\n      dup4\n        /* \"#utility.yul\":2738:2806   */\n      tag_148\n      jump\t// in\n    tag_147:\n        /* \"#utility.yul\":2728:2806   */\n      swap3\n      pop\n        /* \"#utility.yul\":2568:2816   */\n      pop\n        /* \"#utility.yul\":2555:2556   */\n      0x01\n        /* \"#utility.yul\":2552:2553   */\n      dup2\n        /* \"#utility.yul\":2548:2557   */\n      add\n        /* \"#utility.yul\":2543:2557   */\n      swap1\n      pop\n        /* \"#utility.yul\":2508:2816   */\n      jump(tag_143)\n    tag_145:\n        /* \"#utility.yul\":2512:2526   */\n      pop\n        /* \"#utility.yul\":2832:2835   */\n      dup6\n        /* \"#utility.yul\":2825:2835   */\n      swap4\n      pop\n        /* \"#utility.yul\":2185:2841   */\n      pop\n      pop\n      pop\n        /* \"#utility.yul\":2045:2841   */\n      swap3\n      swap2\n      pop\n      pop\n      jump\t// out\n        /* \"#utility.yul\":2893:3760   */\n    tag_149:\n        /* \"#utility.yul\":3043:3046   */\n      0x00\n        /* \"#utility.yul\":3072:3131   */\n      tag_151\n        /* \"#utility.yul\":3125:3130   */\n      dup3\n        /* \"#utility.yul\":3072:3131   */\n      tag_152\n      jump\t// in\n    tag_151:\n        /* \"#utility.yul\":3147:3259   */\n      tag_153\n        /* \"#utility.yul\":3252:3258   */\n      dup2\n        /* \"#utility.yul\":3247:3250   */\n      dup6\n        /* \"#utility.yul\":3147:3259   */\n      tag_154\n      jump\t// in\n    tag_153:\n        /* \"#utility.yul\":3140:3259   */\n      swap4\n      pop\n        /* \"#utility.yul\":3283:3344   */\n      tag_155\n        /* \"#utility.yul\":3338:3343   */\n      dup4\n        /* \"#utility.yul\":3283:3344   */\n      tag_156\n      jump\t// in\n    tag_155:\n        /* \"#utility.yul\":3367:3374   */\n      dup1\n        /* \"#utility.yul\":3398:3399   */\n      0x00\n        /* \"#utility.yul\":3383:3735   */\n    tag_157:\n        /* \"#utility.yul\":3408:3414   */\n      dup4\n        /* \"#utility.yul\":3405:3406   */\n      dup2\n        /* \"#utility.yul\":3402:3415   */\n      lt\n        /* \"#utility.yul\":3383:3735   */\n      iszero\n      tag_159\n      jumpi\n        /* \"#utility.yul\":3478:3530   */\n      tag_160\n        /* \"#utility.yul\":3523:3529   */\n      dup3\n        /* \"#utility.yul\":3478:3530   */\n      tag_161\n      jump\t// in\n    tag_160:\n        /* \"#utility.yul\":3550:3637   */\n      tag_162\n        /* \"#utility.yul\":3633:3636   */\n      dup9\n        /* \"#utility.yul\":3618:3631   */\n      dup3\n        /* \"#utility.yul\":3550:3637   */\n      tag_119\n      jump\t// in\n    tag_162:\n        /* \"#utility.yul\":3543:3637   */\n      swap8\n      pop\n        /* \"#utility.yul\":3660:3725   */\n      tag_163\n        /* \"#utility.yul\":3718:3724   */\n      dup4\n        /* \"#utility.yul\":3660:3725   */\n      tag_164\n      jump\t// in\n    tag_163:\n        /* \"#utility.yul\":3650:3725   */\n      swap3\n      pop\n        /* \"#utility.yul\":3443:3735   */\n      pop\n        /* \"#utility.yul\":3430:3431   */\n      0x01\n        /* \"#utility.yul\":3427:3428   */\n      dup2\n        /* \"#utility.yul\":3423:3432   */\n      add\n        /* \"#utility.yul\":3418:3432   */\n      swap1\n      pop\n        /* \"#utility.yul\":3383:3735   */\n      jump(tag_157)\n    tag_159:\n        /* \"#utility.yul\":3387:3401   */\n      pop\n        /* \"#utility.yul\":3751:3754   */\n      dup6\n        /* \"#utility.yul\":3744:3754   */\n      swap4\n      pop\n        /* \"#utility.yul\":3048:3760   */\n      pop\n      pop\n      pop\n        /* \"#utility.yul\":2893:3760   */\n      swap3\n      swap2\n      pop\n      pop\n      jump\t// out\n        /* \"#utility.yul\":3766:3875   */\n    tag_165:\n        /* \"#utility.yul\":3847:3868   */\n      tag_167\n        /* \"#utility.yul\":3862:3867   */\n      dup2\n        /* \"#utility.yul\":3847:3868   */\n      tag_168\n      jump\t// in\n    tag_167:\n        /* \"#utility.yul\":3842:3845   */\n      dup3\n        /* \"#utility.yul\":3835:3869   */\n      mstore\n        /* \"#utility.yul\":3766:3875   */\n      pop\n      pop\n      jump\t// out\n        /* \"#utility.yul\":3881:4254   */\n    tag_169:\n        /* \"#utility.yul\":3985:3988   */\n      0x00\n        /* \"#utility.yul\":4013:4051   */\n      tag_171\n        /* \"#utility.yul\":4045:4050   */\n      dup3\n        /* \"#utility.yul\":4013:4051   */\n      tag_172\n      jump\t// in\n    tag_171:\n        /* \"#utility.yul\":4067:4155   */\n      tag_173\n        /* \"#utility.yul\":4148:4154   */\n      dup2\n        /* \"#utility.yul\":4143:4146   */\n      dup6\n        /* \"#utility.yul\":4067:4155   */\n      tag_174\n      jump\t// in\n    tag_173:\n        /* \"#utility.yul\":4060:4155   */\n      swap4\n      pop\n        /* \"#utility.yul\":4164:4216   */\n      tag_175\n        /* \"#utility.yul\":4209:4215   */\n      dup2\n        /* \"#utility.yul\":4204:4207   */\n      dup6\n        /* \"#utility.yul\":4197:4201   */\n      0x20\n        /* \"#utility.yul\":4190:4195   */\n      dup7\n        /* \"#utility.yul\":4186:4202   */\n      add\n        /* \"#utility.yul\":4164:4216   */\n      tag_176\n      jump\t// in\n    tag_175:\n        /* \"#utility.yul\":4241:4247   */\n      dup1\n        /* \"#utility.yul\":4236:4239   */\n      dup5\n        /* \"#utility.yul\":4232:4248   */\n      add\n        /* \"#utility.yul\":4225:4248   */\n      swap2\n      pop\n        /* \"#utility.yul\":3989:4254   */\n      pop\n        /* \"#utility.yul\":3881:4254   */\n      swap3\n      swap2\n      pop\n      pop\n      jump\t// out\n        /* \"#utility.yul\":4260:4626   */\n    tag_177:\n        /* \"#utility.yul\":4402:4405   */\n      0x00\n        /* \"#utility.yul\":4423:4490   */\n      tag_179\n        /* \"#utility.yul\":4487:4489   */\n      0x29\n        /* \"#utility.yul\":4482:4485   */\n      dup4\n        /* \"#utility.yul\":4423:4490   */\n      tag_180\n      jump\t// in\n    tag_179:\n        /* \"#utility.yul\":4416:4490   */\n      swap2\n      pop\n        /* \"#utility.yul\":4499:4592   */\n      tag_181\n        /* \"#utility.yul\":4588:4591   */\n      dup3\n        /* \"#utility.yul\":4499:4592   */\n      tag_182\n      jump\t// in\n    tag_181:\n        /* \"#utility.yul\":4617:4619   */\n      0x40\n        /* \"#utility.yul\":4612:4615   */\n      dup3\n        /* \"#utility.yul\":4608:4620   */\n      add\n        /* \"#utility.yul\":4601:4620   */\n      swap1\n      pop\n        /* \"#utility.yul\":4260:4626   */\n      swap2\n      swap1\n      pop\n      jump\t// out\n        /* \"#utility.yul\":4632:4998   */\n    tag_183:\n        /* \"#utility.yul\":4774:4777   */\n      0x00\n        /* \"#utility.yul\":4795:4862   */\n      tag_185\n        /* \"#utility.yul\":4859:4861   */\n      0x21\n        /* \"#utility.yul\":4854:4857   */\n      dup4\n        /* \"#utility.yul\":4795:4862   */\n      tag_180\n      jump\t// in\n    tag_185:\n        /* \"#utility.yul\":4788:4862   */\n      swap2\n      pop\n        /* \"#utility.yul\":4871:4964   */\n      tag_186\n        /* \"#utility.yul\":4960:4963   */\n      dup3\n        /* \"#utility.yul\":4871:4964   */\n      tag_187\n      jump\t// in\n    tag_186:\n        /* \"#utility.yul\":4989:4991   */\n      0x40\n        /* \"#utility.yul\":4984:4987   */\n      dup3\n        /* \"#utility.yul\":4980:4992   */\n      add\n        /* \"#utility.yul\":4973:4992   */\n      swap1\n      pop\n        /* \"#utility.yul\":4632:4998   */\n      swap2\n      swap1\n      pop\n      jump\t// out\n        /* \"#utility.yul\":5004:5370   */\n    tag_188:\n        /* \"#utility.yul\":5146:5149   */\n      0x00\n        /* \"#utility.yul\":5167:5234   */\n      tag_190\n        /* \"#utility.yul\":5231:5233   */\n      0x20\n        /* \"#utility.yul\":5226:5229   */\n      dup4\n        /* \"#utility.yul\":5167:5234   */\n      tag_180\n      jump\t// in\n    tag_190:\n        /* \"#utility.yul\":5160:5234   */\n      swap2\n      pop\n        /* \"#utility.yul\":5243:5336   */\n      tag_191\n        /* \"#utility.yul\":5332:5335   */\n      dup3\n        /* \"#utility.yul\":5243:5336   */\n      tag_192\n      jump\t// in\n    tag_191:\n        /* \"#utility.yul\":5361:5363   */\n      0x20\n        /* \"#utility.yul\":5356:5359   */\n      dup3\n        /* \"#utility.yul\":5352:5364   */\n      add\n        /* \"#utility.yul\":5345:5364   */\n      swap1\n      pop\n        /* \"#utility.yul\":5004:5370   */\n      swap2\n      swap1\n      pop\n      jump\t// out\n        /* \"#utility.yul\":5376:5742   */\n    tag_193:\n        /* \"#utility.yul\":5518:5521   */\n      0x00\n        /* \"#utility.yul\":5539:5606   */\n      tag_195\n        /* \"#utility.yul\":5603:5605   */\n      0x2a\n        /* \"#utility.yul\":5598:5601   */\n      dup4\n        /* \"#utility.yul\":5539:5606   */\n      tag_180\n      jump\t// in\n    tag_195:\n        /* \"#utility.yul\":5532:5606   */\n      swap2\n      pop\n        /* \"#utility.yul\":5615:5708   */\n      tag_196\n        /* \"#utility.yul\":5704:5707   */\n      dup3\n        /* \"#utility.yul\":5615:5708   */\n      tag_197\n      jump\t// in\n    tag_196:\n        /* \"#utility.yul\":5733:5735   */\n      0x40\n        /* \"#utility.yul\":5728:5731   */\n      dup3\n        /* \"#utility.yul\":5724:5736   */\n      add\n        /* \"#utility.yul\":5717:5736   */\n      swap1\n      pop\n        /* \"#utility.yul\":5376:5742   */\n      swap2\n      swap1\n      pop\n      jump\t// out\n        /* \"#utility.yul\":5748:5905   */\n    tag_198:\n        /* \"#utility.yul\":5853:5898   */\n      tag_200\n        /* \"#utility.yul\":5873:5897   */\n      tag_201\n        /* \"#utility.yul\":5891:5896   */\n      dup3\n        /* \"#utility.yul\":5873:5897   */\n      tag_202\n      jump\t// in\n    tag_201:\n        /* \"#utility.yul\":5853:5898   */\n      tag_203\n      jump\t// in\n    tag_200:\n        /* \"#utility.yul\":5848:5851   */\n      dup3\n        /* \"#utility.yul\":5841:5899   */\n      mstore\n        /* \"#utility.yul\":5748:5905   */\n      pop\n      pop\n      jump\t// out\n        /* \"#utility.yul\":5911:6182   */\n    tag_85:\n        /* \"#utility.yul\":6041:6044   */\n      0x00\n        /* \"#utility.yul\":6063:6156   */\n      tag_205\n        /* \"#utility.yul\":6152:6155   */\n      dup3\n        /* \"#utility.yul\":6143:6149   */\n      dup5\n        /* \"#utility.yul\":6063:6156   */\n      tag_169\n      jump\t// in\n    tag_205:\n        /* \"#utility.yul\":6056:6156   */\n      swap2\n      pop\n        /* \"#utility.yul\":6173:6176   */\n      dup2\n        /* \"#utility.yul\":6166:6176   */\n      swap1\n      pop\n        /* \"#utility.yul\":5911:6182   */\n      swap3\n      swap2\n      pop\n      pop\n      jump\t// out\n        /* \"#utility.yul\":6188:6831   */\n    tag_83:\n        /* \"#utility.yul\":6419:6422   */\n      0x00\n        /* \"#utility.yul\":6434:6509   */\n      tag_207\n        /* \"#utility.yul\":6505:6508   */\n      dup3\n        /* \"#utility.yul\":6496:6502   */\n      dup7\n        /* \"#utility.yul\":6434:6509   */\n      tag_198\n      jump\t// in\n    tag_207:\n        /* \"#utility.yul\":6534:6536   */\n      0x20\n        /* \"#utility.yul\":6529:6532   */\n      dup3\n        /* \"#utility.yul\":6525:6537   */\n      add\n        /* \"#utility.yul\":6518:6537   */\n      swap2\n      pop\n        /* \"#utility.yul\":6547:6622   */\n      tag_208\n        /* \"#utility.yul\":6618:6621   */\n      dup3\n        /* \"#utility.yul\":6609:6615   */\n      dup6\n        /* \"#utility.yul\":6547:6622   */\n      tag_198\n      jump\t// in\n    tag_208:\n        /* \"#utility.yul\":6647:6649   */\n      0x20\n        /* \"#utility.yul\":6642:6645   */\n      dup3\n        /* \"#utility.yul\":6638:6650   */\n      add\n        /* \"#utility.yul\":6631:6650   */\n      swap2\n      pop\n        /* \"#utility.yul\":6667:6805   */\n      tag_209\n        /* \"#utility.yul\":6801:6804   */\n      dup3\n        /* \"#utility.yul\":6792:6798   */\n      dup5\n        /* \"#utility.yul\":6667:6805   */\n      tag_149\n      jump\t// in\n    tag_209:\n        /* \"#utility.yul\":6660:6805   */\n      swap2\n      pop\n        /* \"#utility.yul\":6822:6825   */\n      dup2\n        /* \"#utility.yul\":6815:6825   */\n      swap1\n      pop\n        /* \"#utility.yul\":6188:6831   */\n      swap5\n      swap4\n      pop\n      pop\n      pop\n      pop\n      jump\t// out\n        /* \"#utility.yul\":6837:7059   */\n    tag_22:\n        /* \"#utility.yul\":6930:6934   */\n      0x00\n        /* \"#utility.yul\":6968:6970   */\n      0x20\n        /* \"#utility.yul\":6957:6966   */\n      dup3\n        /* \"#utility.yul\":6953:6971   */\n      add\n        /* \"#utility.yul\":6945:6971   */\n      swap1\n      pop\n        /* \"#utility.yul\":6981:7052   */\n      tag_211\n        /* \"#utility.yul\":7049:7050   */\n      0x00\n        /* \"#utility.yul\":7038:7047   */\n      dup4\n        /* \"#utility.yul\":7034:7051   */\n      add\n        /* \"#utility.yul\":7025:7031   */\n      dup5\n        /* \"#utility.yul\":6981:7052   */\n      tag_131\n      jump\t// in\n    tag_211:\n        /* \"#utility.yul\":6837:7059   */\n      swap3\n      swap2\n      pop\n      pop\n      jump\t// out\n        /* \"#utility.yul\":7065:7319   */\n    tag_14:\n        /* \"#utility.yul\":7174:7178   */\n      0x00\n        /* \"#utility.yul\":7212:7214   */\n      0x20\n        /* \"#utility.yul\":7201:7210   */\n      dup3\n        /* \"#utility.yul\":7197:7215   */\n      add\n        /* \"#utility.yul\":7189:7215   */\n      swap1\n      pop\n        /* \"#utility.yul\":7225:7312   */\n      tag_213\n        /* \"#utility.yul\":7309:7310   */\n      0x00\n        /* \"#utility.yul\":7298:7307   */\n      dup4\n        /* \"#utility.yul\":7294:7311   */\n      add\n        /* \"#utility.yul\":7285:7291   */\n      dup5\n        /* \"#utility.yul\":7225:7312   */\n      tag_126\n      jump\t// in\n    tag_213:\n        /* \"#utility.yul\":7065:7319   */\n      swap3\n      swap2\n      pop\n      pop\n      jump\t// out\n        /* \"#utility.yul\":7325:7730   */\n    tag_34:\n        /* \"#utility.yul\":7484:7488   */\n      0x00\n        /* \"#utility.yul\":7522:7524   */\n      0x20\n        /* \"#utility.yul\":7511:7520   */\n      dup3\n        /* \"#utility.yul\":7507:7525   */\n      add\n        /* \"#utility.yul\":7499:7525   */\n      swap1\n      pop\n        /* \"#utility.yul\":7571:7580   */\n      dup2\n        /* \"#utility.yul\":7565:7569   */\n      dup2\n        /* \"#utility.yul\":7561:7581   */\n      sub\n        /* \"#utility.yul\":7557:7558   */\n      0x00\n        /* \"#utility.yul\":7546:7555   */\n      dup4\n        /* \"#utility.yul\":7542:7559   */\n      add\n        /* \"#utility.yul\":7535:7582   */\n      mstore\n        /* \"#utility.yul\":7599:7723   */\n      tag_215\n        /* \"#utility.yul\":7718:7722   */\n      dup2\n        /* \"#utility.yul\":7709:7715   */\n      dup5\n        /* \"#utility.yul\":7599:7723   */\n      tag_135\n      jump\t// in\n    tag_215:\n        /* \"#utility.yul\":7591:7723   */\n      swap1\n      pop\n        /* \"#utility.yul\":7325:7730   */\n      swap3\n      swap2\n      pop\n      pop\n      jump\t// out\n        /* \"#utility.yul\":7736:7946   */\n    tag_27:\n        /* \"#utility.yul\":7823:7827   */\n      0x00\n        /* \"#utility.yul\":7861:7863   */\n      0x20\n        /* \"#utility.yul\":7850:7859   */\n      dup3\n        /* \"#utility.yul\":7846:7864   */\n      add\n        /* \"#utility.yul\":7838:7864   */\n      swap1\n      pop\n        /* \"#utility.yul\":7874:7939   */\n      tag_217\n        /* \"#utility.yul\":7936:7937   */\n      0x00\n        /* \"#utility.yul\":7925:7934   */\n      dup4\n        /* \"#utility.yul\":7921:7938   */\n      add\n        /* \"#utility.yul\":7912:7918   */\n      dup5\n        /* \"#utility.yul\":7874:7939   */\n      tag_165\n      jump\t// in\n    tag_217:\n        /* \"#utility.yul\":7736:7946   */\n      swap3\n      swap2\n      pop\n      pop\n      jump\t// out\n        /* \"#utility.yul\":7952:8371   */\n    tag_70:\n        /* \"#utility.yul\":8118:8122   */\n      0x00\n        /* \"#utility.yul\":8156:8158   */\n      0x20\n        /* \"#utility.yul\":8145:8154   */\n      dup3\n        /* \"#utility.yul\":8141:8159   */\n      add\n        /* \"#utility.yul\":8133:8159   */\n      swap1\n      pop\n        /* \"#utility.yul\":8205:8214   */\n      dup2\n        /* \"#utility.yul\":8199:8203   */\n      dup2\n        /* \"#utility.yul\":8195:8215   */\n      sub\n        /* \"#utility.yul\":8191:8192   */\n      0x00\n        /* \"#utility.yul\":8180:8189   */\n      dup4\n        /* \"#utility.yul\":8176:8193   */\n      add\n        /* \"#utility.yul\":8169:8216   */\n      mstore\n        /* \"#utility.yul\":8233:8364   */\n      tag_219\n        /* \"#utility.yul\":8359:8363   */\n      dup2\n        /* \"#utility.yul\":8233:8364   */\n      tag_177\n      jump\t// in\n    tag_219:\n        /* \"#utility.yul\":8225:8364   */\n      swap1\n      pop\n        /* \"#utility.yul\":7952:8371   */\n      swap2\n      swap1\n      pop\n      jump\t// out\n        /* \"#utility.yul\":8377:8796   */\n    tag_40:\n        /* \"#utility.yul\":8543:8547   */\n      0x00\n        /* \"#utility.yul\":8581:8583   */\n      0x20\n        /* \"#utility.yul\":8570:8579   */\n      dup3\n        /* \"#utility.yul\":8566:8584   */\n      add\n        /* \"#utility.yul\":8558:8584   */\n      swap1\n      pop\n        /* \"#utility.yul\":8630:8639   */\n      dup2\n        /* \"#utility.yul\":8624:8628   */\n      dup2\n        /* \"#utility.yul\":8620:8640   */\n      sub\n        /* \"#utility.yul\":8616:8617   */\n      0x00\n        /* \"#utility.yul\":8605:8614   */\n      dup4\n        /* \"#utility.yul\":8601:8618   */\n      add\n        /* \"#utility.yul\":8594:8641   */\n      mstore\n        /* \"#utility.yul\":8658:8789   */\n      tag_221\n        /* \"#utility.yul\":8784:8788   */\n      dup2\n        /* \"#utility.yul\":8658:8789   */\n      tag_183\n      jump\t// in\n    tag_221:\n        /* \"#utility.yul\":8650:8789   */\n      swap1\n      pop\n        /* \"#utility.yul\":8377:8796   */\n      swap2\n      swap1\n      pop\n      jump\t// out\n        /* \"#utility.yul\":8802:9221   */\n    tag_77:\n        /* \"#utility.yul\":8968:8972   */\n      0x00\n        /* \"#utility.yul\":9006:9008   */\n      0x20\n        /* \"#utility.yul\":8995:9004   */\n      dup3\n        /* \"#utility.yul\":8991:9009   */\n      add\n        /* \"#utility.yul\":8983:9009   */\n      swap1\n      pop\n        /* \"#utility.yul\":9055:9064   */\n      dup2\n        /* \"#utility.yul\":9049:9053   */\n      dup2\n        /* \"#utility.yul\":9045:9065   */\n      sub\n        /* \"#utility.yul\":9041:9042   */\n      0x00\n        /* \"#utility.yul\":9030:9039   */\n      dup4\n        /* \"#utility.yul\":9026:9043   */\n      add\n        /* \"#utility.yul\":9019:9066   */\n      mstore\n        /* \"#utility.yul\":9083:9214   */\n      tag_223\n        /* \"#utility.yul\":9209:9213   */\n      dup2\n        /* \"#utility.yul\":9083:9214   */\n      tag_188\n      jump\t// in\n    tag_223:\n        /* \"#utility.yul\":9075:9214   */\n      swap1\n      pop\n        /* \"#utility.yul\":8802:9221   */\n      swap2\n      swap1\n      pop\n      jump\t// out\n        /* \"#utility.yul\":9227:9646   */\n    tag_74:\n        /* \"#utility.yul\":9393:9397   */\n      0x00\n        /* \"#utility.yul\":9431:9433   */\n      0x20\n        /* \"#utility.yul\":9420:9429   */\n      dup3\n        /* \"#utility.yul\":9416:9434   */\n      add\n        /* \"#utility.yul\":9408:9434   */\n      swap1\n      pop\n        /* \"#utility.yul\":9480:9489   */\n      dup2\n        /* \"#utility.yul\":9474:9478   */\n      dup2\n        /* \"#utility.yul\":9470:9490   */\n      sub\n        /* \"#utility.yul\":9466:9467   */\n      0x00\n        /* \"#utility.yul\":9455:9464   */\n      dup4\n        /* \"#utility.yul\":9451:9468   */\n      add\n        /* \"#utility.yul\":9444:9491   */\n      mstore\n        /* \"#utility.yul\":9508:9639   */\n      tag_225\n        /* \"#utility.yul\":9634:9638   */\n      dup2\n        /* \"#utility.yul\":9508:9639   */\n      tag_193\n      jump\t// in\n    tag_225:\n        /* \"#utility.yul\":9500:9639   */\n      swap1\n      pop\n        /* \"#utility.yul\":9227:9646   */\n      swap2\n      swap1\n      pop\n      jump\t// out\n        /* \"#utility.yul\":9733:9873   */\n    tag_142:\n        /* \"#utility.yul\":9808:9812   */\n      0x00\n        /* \"#utility.yul\":9831:9834   */\n      dup2\n        /* \"#utility.yul\":9823:9834   */\n      swap1\n      pop\n        /* \"#utility.yul\":9861:9865   */\n      0x20\n        /* \"#utility.yul\":9856:9859   */\n      dup3\n        /* \"#utility.yul\":9852:9866   */\n      add\n        /* \"#utility.yul\":9844:9866   */\n      swap1\n      pop\n        /* \"#utility.yul\":9733:9873   */\n      swap2\n      swap1\n      pop\n      jump\t// out\n        /* \"#utility.yul\":9879:10043   */\n    tag_156:\n        /* \"#utility.yul\":9951:9955   */\n      0x00\n        /* \"#utility.yul\":9974:9977   */\n      dup2\n        /* \"#utility.yul\":9966:9977   */\n      swap1\n      pop\n        /* \"#utility.yul\":9997:10000   */\n      dup2\n        /* \"#utility.yul\":9994:9995   */\n      0x00\n        /* \"#utility.yul\":9987:10001   */\n      mstore\n        /* \"#utility.yul\":10031:10035   */\n      0x20\n        /* \"#utility.yul\":10028:10029   */\n      0x00\n        /* \"#utility.yul\":10018:10036   */\n      keccak256\n        /* \"#utility.yul\":10010:10036   */\n      swap1\n      pop\n        /* \"#utility.yul\":9879:10043   */\n      swap2\n      swap1\n      pop\n      jump\t// out\n        /* \"#utility.yul\":10049:10171   */\n    tag_138:\n        /* \"#utility.yul\":10124:10130   */\n      0x00\n        /* \"#utility.yul\":10158:10163   */\n      dup2\n        /* \"#utility.yul\":10152:10164   */\n      mload\n        /* \"#utility.yul\":10142:10164   */\n      swap1\n      pop\n        /* \"#utility.yul\":10049:10171   */\n      swap2\n      swap1\n      pop\n      jump\t// out\n        /* \"#utility.yul\":10177:10296   */\n    tag_152:\n        /* \"#utility.yul\":10249:10255   */\n      0x00\n        /* \"#utility.yul\":10283:10288   */\n      dup2\n        /* \"#utility.yul\":10277:10289   */\n      sload\n        /* \"#utility.yul\":10267:10289   */\n      swap1\n      pop\n        /* \"#utility.yul\":10177:10296   */\n      swap2\n      swap1\n      pop\n      jump\t// out\n        /* \"#utility.yul\":10302:10400   */\n    tag_172:\n        /* \"#utility.yul\":10353:10359   */\n      0x00\n        /* \"#utility.yul\":10387:10392   */\n      dup2\n        /* \"#utility.yul\":10381:10393   */\n      mload\n        /* \"#utility.yul\":10371:10393   */\n      swap1\n      pop\n        /* \"#utility.yul\":10302:10400   */\n      swap2\n      swap1\n      pop\n      jump\t// out\n        /* \"#utility.yul\":10406:10527   */\n    tag_148:\n        /* \"#utility.yul\":10484:10488   */\n      0x00\n        /* \"#utility.yul\":10516:10520   */\n      0x20\n        /* \"#utility.yul\":10511:10514   */\n      dup3\n        /* \"#utility.yul\":10507:10521   */\n      add\n        /* \"#utility.yul\":10499:10521   */\n      swap1\n      pop\n        /* \"#utility.yul\":10406:10527   */\n      swap2\n      swap1\n      pop\n      jump\t// out\n        /* \"#utility.yul\":10533:10651   */\n    tag_164:\n        /* \"#utility.yul\":10608:10612   */\n      0x00\n        /* \"#utility.yul\":10640:10644   */\n      0x01\n        /* \"#utility.yul\":10635:10638   */\n      dup3\n        /* \"#utility.yul\":10631:10645   */\n      add\n        /* \"#utility.yul\":10623:10645   */\n      swap1\n      pop\n        /* \"#utility.yul\":10533:10651   */\n      swap2\n      swap1\n      pop\n      jump\t// out\n        /* \"#utility.yul\":10657:10849   */\n    tag_140:\n        /* \"#utility.yul\":10764:10775   */\n      0x00\n        /* \"#utility.yul\":10798:10804   */\n      dup3\n        /* \"#utility.yul\":10793:10796   */\n      dup3\n        /* \"#utility.yul\":10786:10805   */\n      mstore\n        /* \"#utility.yul\":10838:10842   */\n      0x20\n        /* \"#utility.yul\":10833:10836   */\n      dup3\n        /* \"#utility.yul\":10829:10843   */\n      add\n        /* \"#utility.yul\":10814:10843   */\n      swap1\n      pop\n        /* \"#utility.yul\":10657:10849   */\n      swap3\n      swap2\n      pop\n      pop\n      jump\t// out\n        /* \"#utility.yul\":10855:11026   */\n    tag_154:\n        /* \"#utility.yul\":10980:10991   */\n      0x00\n        /* \"#utility.yul\":11017:11020   */\n      dup2\n        /* \"#utility.yul\":11002:11020   */\n      swap1\n      pop\n        /* \"#utility.yul\":10855:11026   */\n      swap3\n      swap2\n      pop\n      pop\n      jump\t// out\n        /* \"#utility.yul\":11032:11179   */\n    tag_174:\n        /* \"#utility.yul\":11133:11144   */\n      0x00\n        /* \"#utility.yul\":11170:11173   */\n      dup2\n        /* \"#utility.yul\":11155:11173   */\n      swap1\n      pop\n        /* \"#utility.yul\":11032:11179   */\n      swap3\n      swap2\n      pop\n      pop\n      jump\t// out\n        /* \"#utility.yul\":11185:11354   */\n    tag_180:\n        /* \"#utility.yul\":11269:11280   */\n      0x00\n        /* \"#utility.yul\":11303:11309   */\n      dup3\n        /* \"#utility.yul\":11298:11301   */\n      dup3\n        /* \"#utility.yul\":11291:11310   */\n      mstore\n        /* \"#utility.yul\":11343:11347   */\n      0x20\n        /* \"#utility.yul\":11338:11341   */\n      dup3\n        /* \"#utility.yul\":11334:11348   */\n      add\n        /* \"#utility.yul\":11319:11348   */\n      swap1\n      pop\n        /* \"#utility.yul\":11185:11354   */\n      swap3\n      swap2\n      pop\n      pop\n      jump\t// out\n        /* \"#utility.yul\":11360:11507   */\n    tag_239:\n        /* \"#utility.yul\":11418:11425   */\n      0x00\n        /* \"#utility.yul\":11458:11500   */\n      0xffffffffffffffffffffffffffffffffffffffff\n        /* \"#utility.yul\":11451:11456   */\n      dup3\n        /* \"#utility.yul\":11447:11501   */\n      and\n        /* \"#utility.yul\":11436:11501   */\n      swap1\n      pop\n        /* \"#utility.yul\":11360:11507   */\n      swap2\n      swap1\n      pop\n      jump\t// out\n        /* \"#utility.yul\":11513:11609   */\n    tag_134:\n        /* \"#utility.yul\":11550:11557   */\n      0x00\n        /* \"#utility.yul\":11579:11603   */\n      tag_242\n        /* \"#utility.yul\":11597:11602   */\n      dup3\n        /* \"#utility.yul\":11579:11603   */\n      tag_243\n      jump\t// in\n    tag_242:\n        /* \"#utility.yul\":11568:11603   */\n      swap1\n      pop\n        /* \"#utility.yul\":11513:11609   */\n      swap2\n      swap1\n      pop\n      jump\t// out\n        /* \"#utility.yul\":11615:11719   */\n    tag_125:\n        /* \"#utility.yul\":11660:11667   */\n      0x00\n        /* \"#utility.yul\":11689:11713   */\n      tag_245\n        /* \"#utility.yul\":11707:11712   */\n      dup3\n        /* \"#utility.yul\":11689:11713   */\n      tag_243\n      jump\t// in\n    tag_245:\n        /* \"#utility.yul\":11678:11713   */\n      swap1\n      pop\n        /* \"#utility.yul\":11615:11719   */\n      swap2\n      swap1\n      pop\n      jump\t// out\n        /* \"#utility.yul\":11725:11815   */\n    tag_168:\n        /* \"#utility.yul\":11759:11766   */\n      0x00\n        /* \"#utility.yul\":11802:11807   */\n      dup2\n        /* \"#utility.yul\":11795:11808   */\n      iszero\n        /* \"#utility.yul\":11788:11809   */\n      iszero\n        /* \"#utility.yul\":11777:11809   */\n      swap1\n      pop\n        /* \"#utility.yul\":11725:11815   */\n      swap2\n      swap1\n      pop\n      jump\t// out\n        /* \"#utility.yul\":11821:11898   */\n    tag_247:\n        /* \"#utility.yul\":11858:11865   */\n      0x00\n        /* \"#utility.yul\":11887:11892   */\n      dup2\n        /* \"#utility.yul\":11876:11892   */\n      swap1\n      pop\n        /* \"#utility.yul\":11821:11898   */\n      swap2\n      swap1\n      pop\n      jump\t// out\n        /* \"#utility.yul\":11904:12030   */\n    tag_243:\n        /* \"#utility.yul\":11941:11948   */\n      0x00\n        /* \"#utility.yul\":11981:12023   */\n      0xffffffffffffffffffffffffffffffffffffffff\n        /* \"#utility.yul\":11974:11979   */\n      dup3\n        /* \"#utility.yul\":11970:12024   */\n      and\n        /* \"#utility.yul\":11959:12024   */\n      swap1\n      pop\n        /* \"#utility.yul\":11904:12030   */\n      swap2\n      swap1\n      pop\n      jump\t// out\n        /* \"#utility.yul\":12036:12113   */\n    tag_202:\n        /* \"#utility.yul\":12073:12080   */\n      0x00\n        /* \"#utility.yul\":12102:12107   */\n      dup2\n        /* \"#utility.yul\":12091:12107   */\n      swap1\n      pop\n        /* \"#utility.yul\":12036:12113   */\n      swap2\n      swap1\n      pop\n      jump\t// out\n        /* \"#utility.yul\":12119:12426   */\n    tag_176:\n        /* \"#utility.yul\":12187:12188   */\n      0x00\n        /* \"#utility.yul\":12197:12310   */\n    tag_252:\n        /* \"#utility.yul\":12211:12217   */\n      dup4\n        /* \"#utility.yul\":12208:12209   */\n      dup2\n        /* \"#utility.yul\":12205:12218   */\n      lt\n        /* \"#utility.yul\":12197:12310   */\n      iszero\n      tag_254\n      jumpi\n        /* \"#utility.yul\":12296:12297   */\n      dup1\n        /* \"#utility.yul\":12291:12294   */\n      dup3\n        /* \"#utility.yul\":12287:12298   */\n      add\n        /* \"#utility.yul\":12281:12299   */\n      mload\n        /* \"#utility.yul\":12277:12278   */\n      dup2\n        /* \"#utility.yul\":12272:12275   */\n      dup5\n        /* \"#utility.yul\":12268:12279   */\n      add\n        /* \"#utility.yul\":12261:12300   */\n      mstore\n        /* \"#utility.yul\":12233:12235   */\n      0x20\n        /* \"#utility.yul\":12230:12231   */\n      dup2\n        /* \"#utility.yul\":12226:12236   */\n      add\n        /* \"#utility.yul\":12221:12236   */\n      swap1\n      pop\n        /* \"#utility.yul\":12197:12310   */\n      jump(tag_252)\n    tag_254:\n        /* \"#utility.yul\":12328:12334   */\n      dup4\n        /* \"#utility.yul\":12325:12326   */\n      dup2\n        /* \"#utility.yul\":12322:12335   */\n      gt\n        /* \"#utility.yul\":12319:12420   */\n      iszero\n      tag_255\n      jumpi\n        /* \"#utility.yul\":12408:12409   */\n      0x00\n        /* \"#utility.yul\":12399:12405   */\n      dup5\n        /* \"#utility.yul\":12394:12397   */\n      dup5\n        /* \"#utility.yul\":12390:12406   */\n      add\n        /* \"#utility.yul\":12383:12410   */\n      mstore\n        /* \"#utility.yul\":12319:12420   */\n    tag_255:\n        /* \"#utility.yul\":12168:12426   */\n      pop\n        /* \"#utility.yul\":12119:12426   */\n      pop\n      pop\n      pop\n      jump\t// out\n        /* \"#utility.yul\":12432:12614   */\n    tag_256:\n        /* \"#utility.yul\":12509:12514   */\n      0x00\n        /* \"#utility.yul\":12534:12608   */\n      tag_258\n        /* \"#utility.yul\":12573:12607   */\n      tag_259\n        /* \"#utility.yul\":12596:12606   */\n      dup4\n        /* \"#utility.yul\":12573:12607   */\n      tag_260\n      jump\t// in\n    tag_259:\n        /* \"#utility.yul\":12534:12608   */\n      tag_239\n      jump\t// in\n    tag_258:\n        /* \"#utility.yul\":12525:12608   */\n      swap1\n      pop\n        /* \"#utility.yul\":12432:12614   */\n      swap2\n      swap1\n      pop\n      jump\t// out\n        /* \"#utility.yul\":12620:12853   */\n    tag_66:\n        /* \"#utility.yul\":12659:12662   */\n      0x00\n        /* \"#utility.yul\":12682:12706   */\n      tag_262\n        /* \"#utility.yul\":12700:12705   */\n      dup3\n        /* \"#utility.yul\":12682:12706   */\n      tag_202\n      jump\t// in\n    tag_262:\n        /* \"#utility.yul\":12673:12706   */\n      swap2\n      pop\n        /* \"#utility.yul\":12728:12794   */\n      0xffffffffffffffffffffffffffffffffffffffffffffffffffffffffffffffff\n        /* \"#utility.yul\":12721:12726   */\n      dup3\n        /* \"#utility.yul\":12718:12795   */\n      eq\n        /* \"#utility.yul\":12715:12818   */\n      iszero\n      tag_263\n      jumpi\n        /* \"#utility.yul\":12798:12816   */\n      tag_264\n      tag_265\n      jump\t// in\n    tag_264:\n        /* \"#utility.yul\":12715:12818   */\n    tag_263:\n        /* \"#utility.yul\":12845:12846   */\n      0x01\n        /* \"#utility.yul\":12838:12843   */\n      dup3\n        /* \"#utility.yul\":12834:12847   */\n      add\n        /* \"#utility.yul\":12827:12847   */\n      swap1\n      pop\n        /* \"#utility.yul\":12620:12853   */\n      swap2\n      swap1\n      pop\n      jump\t// out\n        /* \"#utility.yul\":12859:12938   */\n    tag_203:\n        /* \"#utility.yul\":12898:12905   */\n      0x00\n        /* \"#utility.yul\":12927:12932   */\n      dup2\n        /* \"#utility.yul\":12916:12932   */\n      swap1\n      pop\n        /* \"#utility.yul\":12859:12938   */\n      swap2\n      swap1\n      pop\n      jump\t// out\n        /* \"#utility.yul\":12944:13120   */\n    tag_44:\n        /* \"#utility.yul\":12976:12977   */\n      0x00\n        /* \"#utility.yul\":12993:13013   */\n      tag_268\n        /* \"#utility.yul\":13011:13012   */\n      dup3\n        /* \"#utility.yul\":12993:13013   */\n      tag_202\n      jump\t// in\n    tag_268:\n        /* \"#utility.yul\":12988:13013   */\n      swap2\n      pop\n        /* \"#utility.yul\":13027:13047   */\n      tag_269\n        /* \"#utility.yul\":13045:13046   */\n      dup4\n        /* \"#utility.yul\":13027:13047   */\n      tag_202\n      jump\t// in\n    tag_269:\n        /* \"#utility.yul\":13022:13047   */\n      swap3\n      pop\n        /* \"#utility.yul\":13066:13067   */\n      dup3\n        /* \"#utility.yul\":13056:13091   */\n      tag_270\n      jumpi\n        /* \"#utility.yul\":13071:13089   */\n      tag_271\n      tag_272\n      jump\t// in\n    tag_271:\n        /* \"#utility.yul\":13056:13091   */\n    tag_270:\n        /* \"#utility.yul\":13112:13113   */\n      dup3\n        /* \"#utility.yul\":13109:13110   */\n      dup3\n        /* \"#utility.yul\":13105:13114   */\n      mod\n        /* \"#utility.yul\":13100:13114   */\n      swap1\n      pop\n        /* \"#utility.yul\":12944:13120   */\n      swap3\n      swap2\n      pop\n      pop\n      jump\t// out\n        /* \"#utility.yul\":13126:13306   */\n    tag_265:\n        /* \"#utility.yul\":13174:13251   */\n      0x4e487b7100000000000000000000000000000000000000000000000000000000\n        /* \"#utility.yul\":13171:13172   */\n      0x00\n        /* \"#utility.yul\":13164:13252   */\n      mstore\n        /* \"#utility.yul\":13271:13275   */\n      0x11\n        /* \"#utility.yul\":13268:13269   */\n      0x04\n        /* \"#utility.yul\":13261:13276   */\n      mstore\n        /* \"#utility.yul\":13295:13299   */\n      0x24\n        /* \"#utility.yul\":13292:13293   */\n      0x00\n        /* \"#utility.yul\":13285:13300   */\n      revert\n        /* \"#utility.yul\":13312:13492   */\n    tag_272:\n        /* \"#utility.yul\":13360:13437   */\n      0x4e487b7100000000000000000000000000000000000000000000000000000000\n        /* \"#utility.yul\":13357:13358   */\n      0x00\n        /* \"#utility.yul\":13350:13438   */\n      mstore\n        /* \"#utility.yul\":13457:13461   */\n      0x12\n        /* \"#utility.yul\":13454:13455   */\n      0x04\n        /* \"#utility.yul\":13447:13462   */\n      mstore\n        /* \"#utility.yul\":13481:13485   */\n      0x24\n        /* \"#utility.yul\":13478:13479   */\n      0x00\n        /* \"#utility.yul\":13471:13486   */\n      revert\n        /* \"#utility.yul\":13498:13678   */\n    tag_47:\n        /* \"#utility.yul\":13546:13623   */\n      0x4e487b7100000000000000000000000000000000000000000000000000000000\n        /* \"#utility.yul\":13543:13544   */\n      0x00\n        /* \"#utility.yul\":13536:13624   */\n      mstore\n        /* \"#utility.yul\":13643:13647   */\n      0x32\n        /* \"#utility.yul\":13640:13641   */\n      0x04\n        /* \"#utility.yul\":13633:13648   */\n      mstore\n        /* \"#utility.yul\":13667:13671   */\n      0x24\n        /* \"#utility.yul\":13664:13665   */\n      0x00\n        /* \"#utility.yul\":13657:13672   */\n      revert\n        /* \"#utility.yul\":13684:13864   */\n    tag_53:\n        /* \"#utility.yul\":13732:13809   */\n      0x4e487b7100000000000000000000000000000000000000000000000000000000\n        /* \"#utility.yul\":13729:13730   */\n      0x00\n        /* \"#utility.yul\":13722:13810   */\n      mstore\n        /* \"#utility.yul\":13829:13833   */\n      0x41\n        /* \"#utility.yul\":13826:13827   */\n      0x04\n        /* \"#utility.yul\":13819:13834   */\n      mstore\n        /* \"#utility.yul\":13853:13857   */\n      0x24\n        /* \"#utility.yul\":13850:13851   */\n      0x00\n        /* \"#utility.yul\":13843:13858   */\n      revert\n        /* \"#utility.yul\":13870:14030   */\n    tag_161:\n        /* \"#utility.yul\":13933:13938   */\n      0x00\n        /* \"#utility.yul\":13958:14023   */\n      tag_278\n        /* \"#utility.yul\":14017:14021   */\n      dup3\n        /* \"#utility.yul\":14011:14022   */\n      sload\n        /* \"#utility.yul\":13958:14023   */\n      tag_256\n      jump\t// in\n    tag_278:\n        /* \"#utility.yul\":13949:14023   */\n      swap1\n      pop\n        /* \"#utility.yul\":13870:14030   */\n      swap2\n      swap1\n      pop\n      jump\t// out\n        /* \"#utility.yul\":14159:14276   */\n    tag_109:\n        /* \"#utility.yul\":14268:14269   */\n      0x00\n        /* \"#utility.yul\":14265:14266   */\n      dup1\n        /* \"#utility.yul\":14258:14270   */\n      revert\n        /* \"#utility.yul\":14282:14384   */\n    tag_260:\n        /* \"#utility.yul\":14324:14332   */\n      0x00\n        /* \"#utility.yul\":14371:14376   */\n      dup2\n        /* \"#utility.yul\":14368:14369   */\n      0x00\n        /* \"#utility.yul\":14364:14377   */\n      shr\n        /* \"#utility.yul\":14343:14377   */\n      swap1\n      pop\n        /* \"#utility.yul\":14282:14384   */\n      swap2\n      swap1\n      pop\n      jump\t// out\n        /* \"#utility.yul\":14390:14618   */\n    tag_182:\n        /* \"#utility.yul\":14530:14564   */\n      0x204d616e616765722063616e206e6f742074616b65207061727420696e207468\n        /* \"#utility.yul\":14526:14527   */\n      0x00\n        /* \"#utility.yul\":14518:14524   */\n      dup3\n        /* \"#utility.yul\":14514:14528   */\n      add\n        /* \"#utility.yul\":14507:14565   */\n      mstore\n        /* \"#utility.yul\":14599:14610   */\n      0x65204c6f74746572790000000000000000000000000000000000000000000000\n        /* \"#utility.yul\":14594:14596   */\n      0x20\n        /* \"#utility.yul\":14586:14592   */\n      dup3\n        /* \"#utility.yul\":14582:14597   */\n      add\n        /* \"#utility.yul\":14575:14611   */\n      mstore\n        /* \"#utility.yul\":14390:14618   */\n      pop\n      jump\t// out\n        /* \"#utility.yul\":14624:14844   */\n    tag_187:\n        /* \"#utility.yul\":14764:14798   */\n      0x206f6e6c79206d616e616765722063616e207069636b207468652077696e6e65\n        /* \"#utility.yul\":14760:14761   */\n      0x00\n        /* \"#utility.yul\":14752:14758   */\n      dup3\n        /* \"#utility.yul\":14748:14762   */\n      add\n        /* \"#utility.yul\":14741:14799   */\n      mstore\n        /* \"#utility.yul\":14833:14836   */\n      0x7200000000000000000000000000000000000000000000000000000000000000\n        /* \"#utility.yul\":14828:14830   */\n      0x20\n        /* \"#utility.yul\":14820:14826   */\n      dup3\n        /* \"#utility.yul\":14816:14831   */\n      add\n        /* \"#utility.yul\":14809:14837   */\n      mstore\n        /* \"#utility.yul\":14624:14844   */\n      pop\n      jump\t// out\n        /* \"#utility.yul\":14850:15032   */\n    tag_192:\n        /* \"#utility.yul\":14990:15024   */\n      0x20506c6561736520706179206d696e696d756d204c6f74746572792046656573\n        /* \"#utility.yul\":14986:14987   */\n      0x00\n        /* \"#utility.yul\":14978:14984   */\n      dup3\n        /* \"#utility.yul\":14974:14988   */\n      add\n        /* \"#utility.yul\":14967:15025   */\n      mstore\n        /* \"#utility.yul\":14850:15032   */\n      pop\n      jump\t// out\n        /* \"#utility.yul\":15038:15267   */\n    tag_197:\n        /* \"#utility.yul\":15178:15212   */\n      0x2050616c7965722063616e206e6f742074616b65207061727420616761696e20\n        /* \"#utility.yul\":15174:15175   */\n      0x00\n        /* \"#utility.yul\":15166:15172   */\n      dup3\n        /* \"#utility.yul\":15162:15176   */\n      add\n        /* \"#utility.yul\":15155:15213   */\n      mstore\n        /* \"#utility.yul\":15247:15259   */\n      0x696e204c6f747465727900000000000000000000000000000000000000000000\n        /* \"#utility.yul\":15242:15244   */\n      0x20\n        /* \"#utility.yul\":15234:15240   */\n      dup3\n        /* \"#utility.yul\":15230:15245   */\n      add\n        /* \"#utility.yul\":15223:15260   */\n      mstore\n        /* \"#utility.yul\":15038:15267   */\n      pop\n      jump\t// out\n        /* \"#utility.yul\":15273:15395   */\n    tag_101:\n        /* \"#utility.yul\":15346:15370   */\n      tag_288\n        /* \"#utility.yul\":15364:15369   */\n      dup2\n        /* \"#utility.yul\":15346:15370   */\n      tag_247\n      jump\t// in\n    tag_288:\n        /* \"#utility.yul\":15339:15344   */\n      dup2\n        /* \"#utility.yul\":15336:15371   */\n      eq\n        /* \"#utility.yul\":15326:15389   */\n      tag_289\n      jumpi\n        /* \"#utility.yul\":15385:15386   */\n      0x00\n        /* \"#utility.yul\":15382:15383   */\n      dup1\n        /* \"#utility.yul\":15375:15387   */\n      revert\n        /* \"#utility.yul\":15326:15389   */\n    tag_289:\n        /* \"#utility.yul\":15273:15395   */\n      pop\n      jump\t// out\n        /* \"#utility.yul\":15401:15523   */\n    tag_105:\n        /* \"#utility.yul\":15474:15498   */\n      tag_291\n        /* \"#utility.yul\":15492:15497   */\n      dup2\n        /* \"#utility.yul\":15474:15498   */\n      tag_202\n      jump\t// in\n    tag_291:\n        /* \"#utility.yul\":15467:15472   */\n      dup2\n        /* \"#utility.yul\":15464:15499   */\n      eq\n        /* \"#utility.yul\":15454:15517   */\n      tag_292\n      jumpi\n        /* \"#utility.yul\":15513:15514   */\n      0x00\n        /* \"#utility.yul\":15510:15511   */\n      dup1\n        /* \"#utility.yul\":15503:15515   */\n      revert\n        /* \"#utility.yul\":15454:15517   */\n    tag_292:\n        /* \"#utility.yul\":15401:15523   */\n      pop\n      jump\t// out\n\n    auxdata: 0xa264697066735822122016df48aa4d4ead1e7b175fc39922aec4f1525899a775f273d2c2a1d62450e14264736f6c63430008070033\n}\n",
				"bytecode": {
					"linkReferences": {},
					"object": "608060405234801561001057600080fd5b50336000806101000a81548173ffffffffffffffffffffffffffffffffffffffff021916908373ffffffffffffffffffffffffffffffffffffffff160217905550610ef6806100606000396000f3fe6080604052600436106100555760003560e01c806348ef3f031461005a57806371b800601461009757806378357e53146100ae578063b6133ac7146100d9578063e97dcb6214610104578063ecb3db521461010e575b600080fd5b34801561006657600080fd5b50610081600480360381019061007c919061072c565b610139565b60405161008e91906109d6565b60405180910390f35b3480156100a357600080fd5b506100ac610178565b005b3480156100ba57600080fd5b506100c3610327565b6040516100d091906109bb565b60405180910390f35b3480156100e557600080fd5b506100ee61034b565b6040516100fb9190610a13565b60405180910390f35b61010c6103f8565b005b34801561011a57600080fd5b50610123610522565b60405161013091906109f1565b60405180910390f35b6001818154811061014957600080fd5b906000526020600020016000915054906101000a900473ffffffffffffffffffffffffffffffffffffffff1681565b60008054906101000a900473ffffffffffffffffffffffffffffffffffffffff1673ffffffffffffffffffffffffffffffffffffffff163373ffffffffffffffffffffffffffffffffffffffff1614610206576040517f08c379a00000000000000000000000000000000000000000000000000000000081526004016101fd90610a4e565b60405180910390fd5b60006001805490506102166105b0565b6102209190610c6a565b905060003090506001828154811061023b5761023a610cf9565b5b9060005260206000200160009054906101000a900473ffffffffffffffffffffffffffffffffffffffff1673ffffffffffffffffffffffffffffffffffffffff166108fc8273ffffffffffffffffffffffffffffffffffffffff16319081150290604051600060405180830381858888f193505050501580156102c2573d6000803e3d6000fd5b50600067ffffffffffffffff8111156102de576102dd610d28565b5b60405190808252806020026020018201604052801561030c5781602001602082028036833780820191505090505b506001908051906020019061032292919061062e565b505050565b60008054906101000a900473ffffffffffffffffffffffffffffffffffffffff1681565b600080600090505b6001805490508110156103ef573373ffffffffffffffffffffffffffffffffffffffff166001828154811061038b5761038a610cf9565b5b9060005260206000200160009054906101000a900473ffffffffffffffffffffffffffffffffffffffff1673ffffffffffffffffffffffffffffffffffffffff1614156103dc5760019150506103f5565b80806103e790610c17565b915050610353565b50600090505b90565b60008054906101000a900473ffffffffffffffffffffffffffffffffffffffff1673ffffffffffffffffffffffffffffffffffffffff163373ffffffffffffffffffffffffffffffffffffffff161415610487576040517f08c379a000000000000000000000000000000000000000000000000000000000815260040161047e90610a2e565b60405180910390fd5b6000151561049361034b565b1515146104d5576040517f08c379a00000000000000000000000000000000000000000000000000000000081526004016104cc90610a8e565b60405180910390fd5b670de0b6b3a7640000341015610520576040517f08c379a000000000000000000000000000000000000000000000000000000000815260040161051790610a6e565b60405180910390fd5b565b606060018054806020026020016040519081016040528092919081815260200182805480156105a657602002820191906000526020600020905b8160009054906101000a900473ffffffffffffffffffffffffffffffffffffffff1673ffffffffffffffffffffffffffffffffffffffff168152602001906001019080831161055c575b5050505050905090565b60006002444360016040516020016105ca93929190610982565b6040516020818303038152906040526040516105e6919061096b565b602060405180830381855afa158015610603573d6000803e3d6000fd5b5050506040513d601f19601f8201168201806040525081019061062691906106ff565b60001c905090565b8280548282559060005260206000209081019282156106a7579160200282015b828111156106a65782518260006101000a81548173ffffffffffffffffffffffffffffffffffffffff021916908373ffffffffffffffffffffffffffffffffffffffff1602179055509160200191906001019061064e565b5b5090506106b491906106b8565b5090565b5b808211156106d15760008160009055506001016106b9565b5090565b6000815190506106e481610e92565b92915050565b6000813590506106f981610ea9565b92915050565b60006020828403121561071557610714610d6a565b5b6000610723848285016106d5565b91505092915050565b60006020828403121561074257610741610d6a565b5b6000610750848285016106ea565b91505092915050565b60006107658383610789565b60208301905092915050565b600061077d83836107a7565b60208301905092915050565b61079281610b78565b82525050565b6107a181610b78565b82525050565b6107b081610b78565b82525050565b6107bf81610b66565b82525050565b60006107d082610ad3565b6107da8185610b0e565b93506107e583610aae565b8060005b838110156108165781516107fd8882610759565b975061080883610af4565b9250506001810190506107e9565b5085935050505092915050565b600061082e82610ade565b6108388185610b1f565b935061084383610abe565b8060005b8381101561087b5761085882610d57565b6108628882610771565b975061086d83610b01565b925050600181019050610847565b5085935050505092915050565b61089181610b8a565b82525050565b60006108a282610ae9565b6108ac8185610b2a565b93506108bc818560208601610bca565b80840191505092915050565b60006108d5602983610b35565b91506108e082610d7c565b604082019050919050565b60006108f8602183610b35565b915061090382610dcb565b604082019050919050565b600061091b602083610b35565b915061092682610e1a565b602082019050919050565b600061093e602a83610b35565b915061094982610e43565b604082019050919050565b61096561096082610bc0565b610c60565b82525050565b60006109778284610897565b915081905092915050565b600061098e8286610954565b60208201915061099e8285610954565b6020820191506109ae8284610823565b9150819050949350505050565b60006020820190506109d060008301846107b6565b92915050565b60006020820190506109eb6000830184610798565b92915050565b60006020820190508181036000830152610a0b81846107c5565b905092915050565b6000602082019050610a286000830184610888565b92915050565b60006020820190508181036000830152610a47816108c8565b9050919050565b60006020820190508181036000830152610a67816108eb565b9050919050565b60006020820190508181036000830152610a878161090e565b9050919050565b60006020820190508181036000830152610aa781610931565b9050919050565b6000819050602082019050919050565b60008190508160005260206000209050919050565b600081519050919050565b600081549050919050565b600081519050919050565b6000602082019050919050565b6000600182019050919050565b600082825260208201905092915050565b600081905092915050565b600081905092915050565b600082825260208201905092915050565b600073ffffffffffffffffffffffffffffffffffffffff82169050919050565b6000610b7182610ba0565b9050919050565b6000610b8382610ba0565b9050919050565b60008115159050919050565b6000819050919050565b600073ffffffffffffffffffffffffffffffffffffffff82169050919050565b6000819050919050565b60005b83811015610be8578082015181840152602081019050610bcd565b83811115610bf7576000848401525b50505050565b6000610c10610c0b83610d6f565b610b46565b9050919050565b6000610c2282610bc0565b91507fffffffffffffffffffffffffffffffffffffffffffffffffffffffffffffffff821415610c5557610c54610c9b565b5b600182019050919050565b6000819050919050565b6000610c7582610bc0565b9150610c8083610bc0565b925082610c9057610c8f610cca565b5b828206905092915050565b7f4e487b7100000000000000000000000000000000000000000000000000000000600052601160045260246000fd5b7f4e487b7100000000000000000000000000000000000000000000000000000000600052601260045260246000fd5b7f4e487b7100000000000000000000000000000000000000000000000000000000600052603260045260246000fd5b7f4e487b7100000000000000000000000000000000000000000000000000000000600052604160045260246000fd5b6000610d638254610bfd565b9050919050565b600080fd5b60008160001c9050919050565b7f204d616e616765722063616e206e6f742074616b65207061727420696e20746860008201527f65204c6f74746572790000000000000000000000000000000000000000000000602082015250565b7f206f6e6c79206d616e616765722063616e207069636b207468652077696e6e6560008201527f7200000000000000000000000000000000000000000000000000000000000000602082015250565b7f20506c6561736520706179206d696e696d756d204c6f74746572792046656573600082015250565b7f2050616c7965722063616e206e6f742074616b65207061727420616761696e2060008201527f696e204c6f747465727900000000000000000000000000000000000000000000602082015250565b610e9b81610b96565b8114610ea657600080fd5b50565b610eb281610bc0565b8114610ebd57600080fd5b5056fea264697066735822122016df48aa4d4ead1e7b175fc39922aec4f1525899a775f273d2c2a1d62450e14264736f6c63430008070033",
					"opcodes": "PUSH1 0x80 PUSH1 0x40 MSTORE CALLVALUE DUP1 ISZERO PUSH2 0x10 JUMPI PUSH1 0x0 DUP1 REVERT JUMPDEST POP CALLER PUSH1 0x0 DUP1 PUSH2 0x100 EXP DUP2 SLOAD DUP2 PUSH20 0xFFFFFFFFFFFFFFFFFFFFFFFFFFFFFFFFFFFFFFFF MUL NOT AND SWAP1 DUP4 PUSH20 0xFFFFFFFFFFFFFFFFFFFFFFFFFFFFFFFFFFFFFFFF AND MUL OR SWAP1 SSTORE POP PUSH2 0xEF6 DUP1 PUSH2 0x60 PUSH1 0x0 CODECOPY PUSH1 0x0 RETURN INVALID PUSH1 0x80 PUSH1 0x40 MSTORE PUSH1 0x4 CALLDATASIZE LT PUSH2 0x55 JUMPI PUSH1 0x0 CALLDATALOAD PUSH1 0xE0 SHR DUP1 PUSH4 0x48EF3F03 EQ PUSH2 0x5A JUMPI DUP1 PUSH4 0x71B80060 EQ PUSH2 0x97 JUMPI DUP1 PUSH4 0x78357E53 EQ PUSH2 0xAE JUMPI DUP1 PUSH4 0xB6133AC7 EQ PUSH2 0xD9 JUMPI DUP1 PUSH4 0xE97DCB62 EQ PUSH2 0x104 JUMPI DUP1 PUSH4 0xECB3DB52 EQ PUSH2 0x10E JUMPI JUMPDEST PUSH1 0x0 DUP1 REVERT JUMPDEST CALLVALUE DUP1 ISZERO PUSH2 0x66 JUMPI PUSH1 0x0 DUP1 REVERT JUMPDEST POP PUSH2 0x81 PUSH1 0x4 DUP1 CALLDATASIZE SUB DUP2 ADD SWAP1 PUSH2 0x7C SWAP2 SWAP1 PUSH2 0x72C JUMP JUMPDEST PUSH2 0x139 JUMP JUMPDEST PUSH1 0x40 MLOAD PUSH2 0x8E SWAP2 SWAP1 PUSH2 0x9D6 JUMP JUMPDEST PUSH1 0x40 MLOAD DUP1 SWAP2 SUB SWAP1 RETURN JUMPDEST CALLVALUE DUP1 ISZERO PUSH2 0xA3 JUMPI PUSH1 0x0 DUP1 REVERT JUMPDEST POP PUSH2 0xAC PUSH2 0x178 JUMP JUMPDEST STOP JUMPDEST CALLVALUE DUP1 ISZERO PUSH2 0xBA JUMPI PUSH1 0x0 DUP1 REVERT JUMPDEST POP PUSH2 0xC3 PUSH2 0x327 JUMP JUMPDEST PUSH1 0x40 MLOAD PUSH2 0xD0 SWAP2 SWAP1 PUSH2 0x9BB JUMP JUMPDEST PUSH1 0x40 MLOAD DUP1 SWAP2 SUB SWAP1 RETURN JUMPDEST CALLVALUE DUP1 ISZERO PUSH2 0xE5 JUMPI PUSH1 0x0 DUP1 REVERT JUMPDEST POP PUSH2 0xEE PUSH2 0x34B JUMP JUMPDEST PUSH1 0x40 MLOAD PUSH2 0xFB SWAP2 SWAP1 PUSH2 0xA13 JUMP JUMPDEST PUSH1 0x40 MLOAD DUP1 SWAP2 SUB SWAP1 RETURN JUMPDEST PUSH2 0x10C PUSH2 0x3F8 JUMP JUMPDEST STOP JUMPDEST CALLVALUE DUP1 ISZERO PUSH2 0x11A JUMPI PUSH1 0x0 DUP1 REVERT JUMPDEST POP PUSH2 0x123 PUSH2 0x522 JUMP JUMPDEST PUSH1 0x40 MLOAD PUSH2 0x130 SWAP2 SWAP1 PUSH2 0x9F1 JUMP JUMPDEST PUSH1 0x40 MLOAD DUP1 SWAP2 SUB SWAP1 RETURN JUMPDEST PUSH1 0x1 DUP2 DUP2 SLOAD DUP2 LT PUSH2 0x149 JUMPI PUSH1 0x0 DUP1 REVERT JUMPDEST SWAP1 PUSH1 0x0 MSTORE PUSH1 0x20 PUSH1 0x0 KECCAK256 ADD PUSH1 0x0 SWAP2 POP SLOAD SWAP1 PUSH2 0x100 EXP SWAP1 DIV PUSH20 0xFFFFFFFFFFFFFFFFFFFFFFFFFFFFFFFFFFFFFFFF AND DUP2 JUMP JUMPDEST PUSH1 0x0 DUP1 SLOAD SWAP1 PUSH2 0x100 EXP SWAP1 DIV PUSH20 0xFFFFFFFFFFFFFFFFFFFFFFFFFFFFFFFFFFFFFFFF AND PUSH20 0xFFFFFFFFFFFFFFFFFFFFFFFFFFFFFFFFFFFFFFFF AND CALLER PUSH20 0xFFFFFFFFFFFFFFFFFFFFFFFFFFFFFFFFFFFFFFFF AND EQ PUSH2 0x206 JUMPI PUSH1 0x40 MLOAD PUSH32 0x8C379A000000000000000000000000000000000000000000000000000000000 DUP2 MSTORE PUSH1 0x4 ADD PUSH2 0x1FD SWAP1 PUSH2 0xA4E JUMP JUMPDEST PUSH1 0x40 MLOAD DUP1 SWAP2 SUB SWAP1 REVERT JUMPDEST PUSH1 0x0 PUSH1 0x1 DUP1 SLOAD SWAP1 POP PUSH2 0x216 PUSH2 0x5B0 JUMP JUMPDEST PUSH2 0x220 SWAP2 SWAP1 PUSH2 0xC6A JUMP JUMPDEST SWAP1 POP PUSH1 0x0 ADDRESS SWAP1 POP PUSH1 0x1 DUP3 DUP2 SLOAD DUP2 LT PUSH2 0x23B JUMPI PUSH2 0x23A PUSH2 0xCF9 JUMP JUMPDEST JUMPDEST SWAP1 PUSH1 0x0 MSTORE PUSH1 0x20 PUSH1 0x0 KECCAK256 ADD PUSH1 0x0 SWAP1 SLOAD SWAP1 PUSH2 0x100 EXP SWAP1 DIV PUSH20 0xFFFFFFFFFFFFFFFFFFFFFFFFFFFFFFFFFFFFFFFF AND PUSH20 0xFFFFFFFFFFFFFFFFFFFFFFFFFFFFFFFFFFFFFFFF AND PUSH2 0x8FC DUP3 PUSH20 0xFFFFFFFFFFFFFFFFFFFFFFFFFFFFFFFFFFFFFFFF AND BALANCE SWAP1 DUP2 ISZERO MUL SWAP1 PUSH1 0x40 MLOAD PUSH1 0x0 PUSH1 0x40 MLOAD DUP1 DUP4 SUB DUP2 DUP6 DUP9 DUP9 CALL SWAP4 POP POP POP POP ISZERO DUP1 ISZERO PUSH2 0x2C2 JUMPI RETURNDATASIZE PUSH1 0x0 DUP1 RETURNDATACOPY RETURNDATASIZE PUSH1 0x0 REVERT JUMPDEST POP PUSH1 0x0 PUSH8 0xFFFFFFFFFFFFFFFF DUP2 GT ISZERO PUSH2 0x2DE JUMPI PUSH2 0x2DD PUSH2 0xD28 JUMP JUMPDEST JUMPDEST PUSH1 0x40 MLOAD SWAP1 DUP1 DUP3 MSTORE DUP1 PUSH1 0x20 MUL PUSH1 0x20 ADD DUP3 ADD PUSH1 0x40 MSTORE DUP1 ISZERO PUSH2 0x30C JUMPI DUP2 PUSH1 0x20 ADD PUSH1 0x20 DUP3 MUL DUP1 CALLDATASIZE DUP4 CALLDATACOPY DUP1 DUP3 ADD SWAP2 POP POP SWAP1 POP JUMPDEST POP PUSH1 0x1 SWAP1 DUP1 MLOAD SWAP1 PUSH1 0x20 ADD SWAP1 PUSH2 0x322 SWAP3 SWAP2 SWAP1 PUSH2 0x62E JUMP JUMPDEST POP POP POP JUMP JUMPDEST PUSH1 0x0 DUP1 SLOAD SWAP1 PUSH2 0x100 EXP SWAP1 DIV PUSH20 0xFFFFFFFFFFFFFFFFFFFFFFFFFFFFFFFFFFFFFFFF AND DUP2 JUMP JUMPDEST PUSH1 0x0 DUP1 PUSH1 0x0 SWAP1 POP JUMPDEST PUSH1 0x1 DUP1 SLOAD SWAP1 POP DUP2 LT ISZERO PUSH2 0x3EF JUMPI CALLER PUSH20 0xFFFFFFFFFFFFFFFFFFFFFFFFFFFFFFFFFFFFFFFF AND PUSH1 0x1 DUP3 DUP2 SLOAD DUP2 LT PUSH2 0x38B JUMPI PUSH2 0x38A PUSH2 0xCF9 JUMP JUMPDEST JUMPDEST SWAP1 PUSH1 0x0 MSTORE PUSH1 0x20 PUSH1 0x0 KECCAK256 ADD PUSH1 0x0 SWAP1 SLOAD SWAP1 PUSH2 0x100 EXP SWAP1 DIV PUSH20 0xFFFFFFFFFFFFFFFFFFFFFFFFFFFFFFFFFFFFFFFF AND PUSH20 0xFFFFFFFFFFFFFFFFFFFFFFFFFFFFFFFFFFFFFFFF AND EQ ISZERO PUSH2 0x3DC JUMPI PUSH1 0x1 SWAP2 POP POP PUSH2 0x3F5 JUMP JUMPDEST DUP1 DUP1 PUSH2 0x3E7 SWAP1 PUSH2 0xC17 JUMP JUMPDEST SWAP2 POP POP PUSH2 0x353 JUMP JUMPDEST POP PUSH1 0x0 SWAP1 POP JUMPDEST SWAP1 JUMP JUMPDEST PUSH1 0x0 DUP1 SLOAD SWAP1 PUSH2 0x100 EXP SWAP1 DIV PUSH20 0xFFFFFFFFFFFFFFFFFFFFFFFFFFFFFFFFFFFFFFFF AND PUSH20 0xFFFFFFFFFFFFFFFFFFFFFFFFFFFFFFFFFFFFFFFF AND CALLER PUSH20 0xFFFFFFFFFFFFFFFFFFFFFFFFFFFFFFFFFFFFFFFF AND EQ ISZERO PUSH2 0x487 JUMPI PUSH1 0x40 MLOAD PUSH32 0x8C379A000000000000000000000000000000000000000000000000000000000 DUP2 MSTORE PUSH1 0x4 ADD PUSH2 0x47E SWAP1 PUSH2 0xA2E JUMP JUMPDEST PUSH1 0x40 MLOAD DUP1 SWAP2 SUB SWAP1 REVERT JUMPDEST PUSH1 0x0 ISZERO ISZERO PUSH2 0x493 PUSH2 0x34B JUMP JUMPDEST ISZERO ISZERO EQ PUSH2 0x4D5 JUMPI PUSH1 0x40 MLOAD PUSH32 0x8C379A000000000000000000000000000000000000000000000000000000000 DUP2 MSTORE PUSH1 0x4 ADD PUSH2 0x4CC SWAP1 PUSH2 0xA8E JUMP JUMPDEST PUSH1 0x40 MLOAD DUP1 SWAP2 SUB SWAP1 REVERT JUMPDEST PUSH8 0xDE0B6B3A7640000 CALLVALUE LT ISZERO PUSH2 0x520 JUMPI PUSH1 0x40 MLOAD PUSH32 0x8C379A000000000000000000000000000000000000000000000000000000000 DUP2 MSTORE PUSH1 0x4 ADD PUSH2 0x517 SWAP1 PUSH2 0xA6E JUMP JUMPDEST PUSH1 0x40 MLOAD DUP1 SWAP2 SUB SWAP1 REVERT JUMPDEST JUMP JUMPDEST PUSH1 0x60 PUSH1 0x1 DUP1 SLOAD DUP1 PUSH1 0x20 MUL PUSH1 0x20 ADD PUSH1 0x40 MLOAD SWAP1 DUP2 ADD PUSH1 0x40 MSTORE DUP1 SWAP3 SWAP2 SWAP1 DUP2 DUP2 MSTORE PUSH1 0x20 ADD DUP3 DUP1 SLOAD DUP1 ISZERO PUSH2 0x5A6 JUMPI PUSH1 0x20 MUL DUP3 ADD SWAP2 SWAP1 PUSH1 0x0 MSTORE PUSH1 0x20 PUSH1 0x0 KECCAK256 SWAP1 JUMPDEST DUP2 PUSH1 0x0 SWAP1 SLOAD SWAP1 PUSH2 0x100 EXP SWAP1 DIV PUSH20 0xFFFFFFFFFFFFFFFFFFFFFFFFFFFFFFFFFFFFFFFF AND PUSH20 0xFFFFFFFFFFFFFFFFFFFFFFFFFFFFFFFFFFFFFFFF AND DUP2 MSTORE PUSH1 0x20 ADD SWAP1 PUSH1 0x1 ADD SWAP1 DUP1 DUP4 GT PUSH2 0x55C JUMPI JUMPDEST POP POP POP POP POP SWAP1 POP SWAP1 JUMP JUMPDEST PUSH1 0x0 PUSH1 0x2 DIFFICULTY NUMBER PUSH1 0x1 PUSH1 0x40 MLOAD PUSH1 0x20 ADD PUSH2 0x5CA SWAP4 SWAP3 SWAP2 SWAP1 PUSH2 0x982 JUMP JUMPDEST PUSH1 0x40 MLOAD PUSH1 0x20 DUP2 DUP4 SUB SUB DUP2 MSTORE SWAP1 PUSH1 0x40 MSTORE PUSH1 0x40 MLOAD PUSH2 0x5E6 SWAP2 SWAP1 PUSH2 0x96B JUMP JUMPDEST PUSH1 0x20 PUSH1 0x40 MLOAD DUP1 DUP4 SUB DUP2 DUP6 GAS STATICCALL ISZERO DUP1 ISZERO PUSH2 0x603 JUMPI RETURNDATASIZE PUSH1 0x0 DUP1 RETURNDATACOPY RETURNDATASIZE PUSH1 0x0 REVERT JUMPDEST POP POP POP PUSH1 0x40 MLOAD RETURNDATASIZE PUSH1 0x1F NOT PUSH1 0x1F DUP3 ADD AND DUP3 ADD DUP1 PUSH1 0x40 MSTORE POP DUP2 ADD SWAP1 PUSH2 0x626 SWAP2 SWAP1 PUSH2 0x6FF JUMP JUMPDEST PUSH1 0x0 SHR SWAP1 POP SWAP1 JUMP JUMPDEST DUP3 DUP1 SLOAD DUP3 DUP3 SSTORE SWAP1 PUSH1 0x0 MSTORE PUSH1 0x20 PUSH1 0x0 KECCAK256 SWAP1 DUP2 ADD SWAP3 DUP3 ISZERO PUSH2 0x6A7 JUMPI SWAP2 PUSH1 0x20 MUL DUP3 ADD JUMPDEST DUP3 DUP2 GT ISZERO PUSH2 0x6A6 JUMPI DUP3 MLOAD DUP3 PUSH1 0x0 PUSH2 0x100 EXP DUP2 SLOAD DUP2 PUSH20 0xFFFFFFFFFFFFFFFFFFFFFFFFFFFFFFFFFFFFFFFF MUL NOT AND SWAP1 DUP4 PUSH20 0xFFFFFFFFFFFFFFFFFFFFFFFFFFFFFFFFFFFFFFFF AND MUL OR SWAP1 SSTORE POP SWAP2 PUSH1 0x20 ADD SWAP2 SWAP1 PUSH1 0x1 ADD SWAP1 PUSH2 0x64E JUMP JUMPDEST JUMPDEST POP SWAP1 POP PUSH2 0x6B4 SWAP2 SWAP1 PUSH2 0x6B8 JUMP JUMPDEST POP SWAP1 JUMP JUMPDEST JUMPDEST DUP1 DUP3 GT ISZERO PUSH2 0x6D1 JUMPI PUSH1 0x0 DUP2 PUSH1 0x0 SWAP1 SSTORE POP PUSH1 0x1 ADD PUSH2 0x6B9 JUMP JUMPDEST POP SWAP1 JUMP JUMPDEST PUSH1 0x0 DUP2 MLOAD SWAP1 POP PUSH2 0x6E4 DUP2 PUSH2 0xE92 JUMP JUMPDEST SWAP3 SWAP2 POP POP JUMP JUMPDEST PUSH1 0x0 DUP2 CALLDATALOAD SWAP1 POP PUSH2 0x6F9 DUP2 PUSH2 0xEA9 JUMP JUMPDEST SWAP3 SWAP2 POP POP JUMP JUMPDEST PUSH1 0x0 PUSH1 0x20 DUP3 DUP5 SUB SLT ISZERO PUSH2 0x715 JUMPI PUSH2 0x714 PUSH2 0xD6A JUMP JUMPDEST JUMPDEST PUSH1 0x0 PUSH2 0x723 DUP5 DUP3 DUP6 ADD PUSH2 0x6D5 JUMP JUMPDEST SWAP2 POP POP SWAP3 SWAP2 POP POP JUMP JUMPDEST PUSH1 0x0 PUSH1 0x20 DUP3 DUP5 SUB SLT ISZERO PUSH2 0x742 JUMPI PUSH2 0x741 PUSH2 0xD6A JUMP JUMPDEST JUMPDEST PUSH1 0x0 PUSH2 0x750 DUP5 DUP3 DUP6 ADD PUSH2 0x6EA JUMP JUMPDEST SWAP2 POP POP SWAP3 SWAP2 POP POP JUMP JUMPDEST PUSH1 0x0 PUSH2 0x765 DUP4 DUP4 PUSH2 0x789 JUMP JUMPDEST PUSH1 0x20 DUP4 ADD SWAP1 POP SWAP3 SWAP2 POP POP JUMP JUMPDEST PUSH1 0x0 PUSH2 0x77D DUP4 DUP4 PUSH2 0x7A7 JUMP JUMPDEST PUSH1 0x20 DUP4 ADD SWAP1 POP SWAP3 SWAP2 POP POP JUMP JUMPDEST PUSH2 0x792 DUP2 PUSH2 0xB78 JUMP JUMPDEST DUP3 MSTORE POP POP JUMP JUMPDEST PUSH2 0x7A1 DUP2 PUSH2 0xB78 JUMP JUMPDEST DUP3 MSTORE POP POP JUMP JUMPDEST PUSH2 0x7B0 DUP2 PUSH2 0xB78 JUMP JUMPDEST DUP3 MSTORE POP POP JUMP JUMPDEST PUSH2 0x7BF DUP2 PUSH2 0xB66 JUMP JUMPDEST DUP3 MSTORE POP POP JUMP JUMPDEST PUSH1 0x0 PUSH2 0x7D0 DUP3 PUSH2 0xAD3 JUMP JUMPDEST PUSH2 0x7DA DUP2 DUP6 PUSH2 0xB0E JUMP JUMPDEST SWAP4 POP PUSH2 0x7E5 DUP4 PUSH2 0xAAE JUMP JUMPDEST DUP1 PUSH1 0x0 JUMPDEST DUP4 DUP2 LT ISZERO PUSH2 0x816 JUMPI DUP2 MLOAD PUSH2 0x7FD DUP9 DUP3 PUSH2 0x759 JUMP JUMPDEST SWAP8 POP PUSH2 0x808 DUP4 PUSH2 0xAF4 JUMP JUMPDEST SWAP3 POP POP PUSH1 0x1 DUP2 ADD SWAP1 POP PUSH2 0x7E9 JUMP JUMPDEST POP DUP6 SWAP4 POP POP POP POP SWAP3 SWAP2 POP POP JUMP JUMPDEST PUSH1 0x0 PUSH2 0x82E DUP3 PUSH2 0xADE JUMP JUMPDEST PUSH2 0x838 DUP2 DUP6 PUSH2 0xB1F JUMP JUMPDEST SWAP4 POP PUSH2 0x843 DUP4 PUSH2 0xABE JUMP JUMPDEST DUP1 PUSH1 0x0 JUMPDEST DUP4 DUP2 LT ISZERO PUSH2 0x87B JUMPI PUSH2 0x858 DUP3 PUSH2 0xD57 JUMP JUMPDEST PUSH2 0x862 DUP9 DUP3 PUSH2 0x771 JUMP JUMPDEST SWAP8 POP PUSH2 0x86D DUP4 PUSH2 0xB01 JUMP JUMPDEST SWAP3 POP POP PUSH1 0x1 DUP2 ADD SWAP1 POP PUSH2 0x847 JUMP JUMPDEST POP DUP6 SWAP4 POP POP POP POP SWAP3 SWAP2 POP POP JUMP JUMPDEST PUSH2 0x891 DUP2 PUSH2 0xB8A JUMP JUMPDEST DUP3 MSTORE POP POP JUMP JUMPDEST PUSH1 0x0 PUSH2 0x8A2 DUP3 PUSH2 0xAE9 JUMP JUMPDEST PUSH2 0x8AC DUP2 DUP6 PUSH2 0xB2A JUMP JUMPDEST SWAP4 POP PUSH2 0x8BC DUP2 DUP6 PUSH1 0x20 DUP7 ADD PUSH2 0xBCA JUMP JUMPDEST DUP1 DUP5 ADD SWAP2 POP POP SWAP3 SWAP2 POP POP JUMP JUMPDEST PUSH1 0x0 PUSH2 0x8D5 PUSH1 0x29 DUP4 PUSH2 0xB35 JUMP JUMPDEST SWAP2 POP PUSH2 0x8E0 DUP3 PUSH2 0xD7C JUMP JUMPDEST PUSH1 0x40 DUP3 ADD SWAP1 POP SWAP2 SWAP1 POP JUMP JUMPDEST PUSH1 0x0 PUSH2 0x8F8 PUSH1 0x21 DUP4 PUSH2 0xB35 JUMP JUMPDEST SWAP2 POP PUSH2 0x903 DUP3 PUSH2 0xDCB JUMP JUMPDEST PUSH1 0x40 DUP3 ADD SWAP1 POP SWAP2 SWAP1 POP JUMP JUMPDEST PUSH1 0x0 PUSH2 0x91B PUSH1 0x20 DUP4 PUSH2 0xB35 JUMP JUMPDEST SWAP2 POP PUSH2 0x926 DUP3 PUSH2 0xE1A JUMP JUMPDEST PUSH1 0x20 DUP3 ADD SWAP1 POP SWAP2 SWAP1 POP JUMP JUMPDEST PUSH1 0x0 PUSH2 0x93E PUSH1 0x2A DUP4 PUSH2 0xB35 JUMP JUMPDEST SWAP2 POP PUSH2 0x949 DUP3 PUSH2 0xE43 JUMP JUMPDEST PUSH1 0x40 DUP3 ADD SWAP1 POP SWAP2 SWAP1 POP JUMP JUMPDEST PUSH2 0x965 PUSH2 0x960 DUP3 PUSH2 0xBC0 JUMP JUMPDEST PUSH2 0xC60 JUMP JUMPDEST DUP3 MSTORE POP POP JUMP JUMPDEST PUSH1 0x0 PUSH2 0x977 DUP3 DUP5 PUSH2 0x897 JUMP JUMPDEST SWAP2 POP DUP2 SWAP1 POP SWAP3 SWAP2 POP POP JUMP JUMPDEST PUSH1 0x0 PUSH2 0x98E DUP3 DUP7 PUSH2 0x954 JUMP JUMPDEST PUSH1 0x20 DUP3 ADD SWAP2 POP PUSH2 0x99E DUP3 DUP6 PUSH2 0x954 JUMP JUMPDEST PUSH1 0x20 DUP3 ADD SWAP2 POP PUSH2 0x9AE DUP3 DUP5 PUSH2 0x823 JUMP JUMPDEST SWAP2 POP DUP2 SWAP1 POP SWAP5 SWAP4 POP POP POP POP JUMP JUMPDEST PUSH1 0x0 PUSH1 0x20 DUP3 ADD SWAP1 POP PUSH2 0x9D0 PUSH1 0x0 DUP4 ADD DUP5 PUSH2 0x7B6 JUMP JUMPDEST SWAP3 SWAP2 POP POP JUMP JUMPDEST PUSH1 0x0 PUSH1 0x20 DUP3 ADD SWAP1 POP PUSH2 0x9EB PUSH1 0x0 DUP4 ADD DUP5 PUSH2 0x798 JUMP JUMPDEST SWAP3 SWAP2 POP POP JUMP JUMPDEST PUSH1 0x0 PUSH1 0x20 DUP3 ADD SWAP1 POP DUP2 DUP2 SUB PUSH1 0x0 DUP4 ADD MSTORE PUSH2 0xA0B DUP2 DUP5 PUSH2 0x7C5 JUMP JUMPDEST SWAP1 POP SWAP3 SWAP2 POP POP JUMP JUMPDEST PUSH1 0x0 PUSH1 0x20 DUP3 ADD SWAP1 POP PUSH2 0xA28 PUSH1 0x0 DUP4 ADD DUP5 PUSH2 0x888 JUMP JUMPDEST SWAP3 SWAP2 POP POP JUMP JUMPDEST PUSH1 0x0 PUSH1 0x20 DUP3 ADD SWAP1 POP DUP2 DUP2 SUB PUSH1 0x0 DUP4 ADD MSTORE PUSH2 0xA47 DUP2 PUSH2 0x8C8 JUMP JUMPDEST SWAP1 POP SWAP2 SWAP1 POP JUMP JUMPDEST PUSH1 0x0 PUSH1 0x20 DUP3 ADD SWAP1 POP DUP2 DUP2 SUB PUSH1 0x0 DUP4 ADD MSTORE PUSH2 0xA67 DUP2 PUSH2 0x8EB JUMP JUMPDEST SWAP1 POP SWAP2 SWAP1 POP JUMP JUMPDEST PUSH1 0x0 PUSH1 0x20 DUP3 ADD SWAP1 POP DUP2 DUP2 SUB PUSH1 0x0 DUP4 ADD MSTORE PUSH2 0xA87 DUP2 PUSH2 0x90E JUMP JUMPDEST SWAP1 POP SWAP2 SWAP1 POP JUMP JUMPDEST PUSH1 0x0 PUSH1 0x20 DUP3 ADD SWAP1 POP DUP2 DUP2 SUB PUSH1 0x0 DUP4 ADD MSTORE PUSH2 0xAA7 DUP2 PUSH2 0x931 JUMP JUMPDEST SWAP1 POP SWAP2 SWAP1 POP JUMP JUMPDEST PUSH1 0x0 DUP2 SWAP1 POP PUSH1 0x20 DUP3 ADD SWAP1 POP SWAP2 SWAP1 POP JUMP JUMPDEST PUSH1 0x0 DUP2 SWAP1 POP DUP2 PUSH1 0x0 MSTORE PUSH1 0x20 PUSH1 0x0 KECCAK256 SWAP1 POP SWAP2 SWAP1 POP JUMP JUMPDEST PUSH1 0x0 DUP2 MLOAD SWAP1 POP SWAP2 SWAP1 POP JUMP JUMPDEST PUSH1 0x0 DUP2 SLOAD SWAP1 POP SWAP2 SWAP1 POP JUMP JUMPDEST PUSH1 0x0 DUP2 MLOAD SWAP1 POP SWAP2 SWAP1 POP JUMP JUMPDEST PUSH1 0x0 PUSH1 0x20 DUP3 ADD SWAP1 POP SWAP2 SWAP1 POP JUMP JUMPDEST PUSH1 0x0 PUSH1 0x1 DUP3 ADD SWAP1 POP SWAP2 SWAP1 POP JUMP JUMPDEST PUSH1 0x0 DUP3 DUP3 MSTORE PUSH1 0x20 DUP3 ADD SWAP1 POP SWAP3 SWAP2 POP POP JUMP JUMPDEST PUSH1 0x0 DUP2 SWAP1 POP SWAP3 SWAP2 POP POP JUMP JUMPDEST PUSH1 0x0 DUP2 SWAP1 POP SWAP3 SWAP2 POP POP JUMP JUMPDEST PUSH1 0x0 DUP3 DUP3 MSTORE PUSH1 0x20 DUP3 ADD SWAP1 POP SWAP3 SWAP2 POP POP JUMP JUMPDEST PUSH1 0x0 PUSH20 0xFFFFFFFFFFFFFFFFFFFFFFFFFFFFFFFFFFFFFFFF DUP3 AND SWAP1 POP SWAP2 SWAP1 POP JUMP JUMPDEST PUSH1 0x0 PUSH2 0xB71 DUP3 PUSH2 0xBA0 JUMP JUMPDEST SWAP1 POP SWAP2 SWAP1 POP JUMP JUMPDEST PUSH1 0x0 PUSH2 0xB83 DUP3 PUSH2 0xBA0 JUMP JUMPDEST SWAP1 POP SWAP2 SWAP1 POP JUMP JUMPDEST PUSH1 0x0 DUP2 ISZERO ISZERO SWAP1 POP SWAP2 SWAP1 POP JUMP JUMPDEST PUSH1 0x0 DUP2 SWAP1 POP SWAP2 SWAP1 POP JUMP JUMPDEST PUSH1 0x0 PUSH20 0xFFFFFFFFFFFFFFFFFFFFFFFFFFFFFFFFFFFFFFFF DUP3 AND SWAP1 POP SWAP2 SWAP1 POP JUMP JUMPDEST PUSH1 0x0 DUP2 SWAP1 POP SWAP2 SWAP1 POP JUMP JUMPDEST PUSH1 0x0 JUMPDEST DUP4 DUP2 LT ISZERO PUSH2 0xBE8 JUMPI DUP1 DUP3 ADD MLOAD DUP2 DUP5 ADD MSTORE PUSH1 0x20 DUP2 ADD SWAP1 POP PUSH2 0xBCD JUMP JUMPDEST DUP4 DUP2 GT ISZERO PUSH2 0xBF7 JUMPI PUSH1 0x0 DUP5 DUP5 ADD MSTORE JUMPDEST POP POP POP POP JUMP JUMPDEST PUSH1 0x0 PUSH2 0xC10 PUSH2 0xC0B DUP4 PUSH2 0xD6F JUMP JUMPDEST PUSH2 0xB46 JUMP JUMPDEST SWAP1 POP SWAP2 SWAP1 POP JUMP JUMPDEST PUSH1 0x0 PUSH2 0xC22 DUP3 PUSH2 0xBC0 JUMP JUMPDEST SWAP2 POP PUSH32 0xFFFFFFFFFFFFFFFFFFFFFFFFFFFFFFFFFFFFFFFFFFFFFFFFFFFFFFFFFFFFFFFF DUP3 EQ ISZERO PUSH2 0xC55 JUMPI PUSH2 0xC54 PUSH2 0xC9B JUMP JUMPDEST JUMPDEST PUSH1 0x1 DUP3 ADD SWAP1 POP SWAP2 SWAP1 POP JUMP JUMPDEST PUSH1 0x0 DUP2 SWAP1 POP SWAP2 SWAP1 POP JUMP JUMPDEST PUSH1 0x0 PUSH2 0xC75 DUP3 PUSH2 0xBC0 JUMP JUMPDEST SWAP2 POP PUSH2 0xC80 DUP4 PUSH2 0xBC0 JUMP JUMPDEST SWAP3 POP DUP3 PUSH2 0xC90 JUMPI PUSH2 0xC8F PUSH2 0xCCA JUMP JUMPDEST JUMPDEST DUP3 DUP3 MOD SWAP1 POP SWAP3 SWAP2 POP POP JUMP JUMPDEST PUSH32 0x4E487B7100000000000000000000000000000000000000000000000000000000 PUSH1 0x0 MSTORE PUSH1 0x11 PUSH1 0x4 MSTORE PUSH1 0x24 PUSH1 0x0 REVERT JUMPDEST PUSH32 0x4E487B7100000000000000000000000000000000000000000000000000000000 PUSH1 0x0 MSTORE PUSH1 0x12 PUSH1 0x4 MSTORE PUSH1 0x24 PUSH1 0x0 REVERT JUMPDEST PUSH32 0x4E487B7100000000000000000000000000000000000000000000000000000000 PUSH1 0x0 MSTORE PUSH1 0x32 PUSH1 0x4 MSTORE PUSH1 0x24 PUSH1 0x0 REVERT JUMPDEST PUSH32 0x4E487B7100000000000000000000000000000000000000000000000000000000 PUSH1 0x0 MSTORE PUSH1 0x41 PUSH1 0x4 MSTORE PUSH1 0x24 PUSH1 0x0 REVERT JUMPDEST PUSH1 0x0 PUSH2 0xD63 DUP3 SLOAD PUSH2 0xBFD JUMP JUMPDEST SWAP1 POP SWAP2 SWAP1 POP JUMP JUMPDEST PUSH1 0x0 DUP1 REVERT JUMPDEST PUSH1 0x0 DUP2 PUSH1 0x0 SHR SWAP1 POP SWAP2 SWAP1 POP JUMP JUMPDEST PUSH32 0x204D616E616765722063616E206E6F742074616B65207061727420696E207468 PUSH1 0x0 DUP3 ADD MSTORE PUSH32 0x65204C6F74746572790000000000000000000000000000000000000000000000 PUSH1 0x20 DUP3 ADD MSTORE POP JUMP JUMPDEST PUSH32 0x206F6E6C79206D616E616765722063616E207069636B207468652077696E6E65 PUSH1 0x0 DUP3 ADD MSTORE PUSH32 0x7200000000000000000000000000000000000000000000000000000000000000 PUSH1 0x20 DUP3 ADD MSTORE POP JUMP JUMPDEST PUSH32 0x20506C6561736520706179206D696E696D756D204C6F74746572792046656573 PUSH1 0x0 DUP3 ADD MSTORE POP JUMP JUMPDEST PUSH32 0x2050616C7965722063616E206E6F742074616B65207061727420616761696E20 PUSH1 0x0 DUP3 ADD MSTORE PUSH32 0x696E204C6F747465727900000000000000000000000000000000000000000000 PUSH1 0x20 DUP3 ADD MSTORE POP JUMP JUMPDEST PUSH2 0xE9B DUP2 PUSH2 0xB96 JUMP JUMPDEST DUP2 EQ PUSH2 0xEA6 JUMPI PUSH1 0x0 DUP1 REVERT JUMPDEST POP JUMP JUMPDEST PUSH2 0xEB2 DUP2 PUSH2 0xBC0 JUMP JUMPDEST DUP2 EQ PUSH2 0xEBD JUMPI PUSH1 0x0 DUP1 REVERT JUMPDEST POP JUMP INVALID LOG2 PUSH5 0x6970667358 0x22 SLT KECCAK256 AND 0xDF BASEFEE 0xAA 0x4D 0x4E 0xAD 0x1E PUSH28 0x175FC39922AEC4F1525899A775F273D2C2A1D62450E14264736F6C63 NUMBER STOP ADDMOD SMOD STOP CALLER "
				},
				"gasEstimates": {
					"creation": {
						"codeDepositCost": "766000",
						"executionCost": "25065",
						"totalCost": "791065"
					},
					"external": {
						"Manager()": "2533",
						"Players(uint256)": "4934",
						"alreadyentered()": "infinite",
						"enter()": "infinite",
						"getplayers()": "infinite",
						"pickwinner()": "infinite"
					},
					"internal": {
						"randomnumber()": "infinite"
					}
				},
				"methodIdentifiers": {
					"Manager()": "78357e53",
					"Players(uint256)": "48ef3f03",
					"alreadyentered()": "b6133ac7",
					"enter()": "e97dcb62",
					"getplayers()": "ecb3db52",
					"pickwinner()": "71b80060"
				}
			},
			"storageLayout": {
				"storage": [
					{
						"astId": 3,
						"contract": "artifacts/Lalit/Lottery.sol:Lottery",
						"label": "Manager",
						"offset": 0,
						"slot": "0",
						"type": "t_address"
					},
					{
						"astId": 6,
						"contract": "artifacts/Lalit/Lottery.sol:Lottery",
						"label": "Players",
						"offset": 0,
						"slot": "1",
						"type": "t_array(t_address_payable)dyn_storage"
					}
				],
				"types": {
					"t_address": {
						"encoding": "inplace",
						"label": "address",
						"numberOfBytes": "20"
					},
					"t_address_payable": {
						"encoding": "inplace",
						"label": "address payable",
						"numberOfBytes": "20"
					},
					"t_array(t_address_payable)dyn_storage": {
						"base": "t_address_payable",
						"encoding": "dynamic_array",
						"label": "address payable[]",
						"numberOfBytes": "32"
					}
				}
			},
			"userdoc": {
				"kind": "user",
				"methods": {},
				"version": 1
			}
		}
	}
}