{
	"artifacts/Lalit/Selector.sol": {
		"checselector": {
			"abi": [
				{
					"inputs": [
						{
							"internalType": "string",
							"name": "_fun",
							"type": "string"
						}
					],
					"name": "checkselector",
					"outputs": [
						{
							"internalType": "bytes4",
							"name": "",
							"type": "bytes4"
						}
					],
					"stateMutability": "pure",
					"type": "function"
				}
			],
			"devdoc": {
				"kind": "dev",
				"methods": {},
				"version": 1
			},
			"evm": {
				"assembly": "    /* \"artifacts/Lalit/Selector.sol\":540:690  contract checselector{... */\n  mstore(0x40, 0x80)\n  callvalue\n  dup1\n  iszero\n  tag_1\n  jumpi\n  0x00\n  dup1\n  revert\ntag_1:\n  pop\n  dataSize(sub_0)\n  dup1\n  dataOffset(sub_0)\n  0x00\n  codecopy\n  0x00\n  return\nstop\n\nsub_0: assembly {\n        /* \"artifacts/Lalit/Selector.sol\":540:690  contract checselector{... */\n      mstore(0x40, 0x80)\n      callvalue\n      dup1\n      iszero\n      tag_1\n      jumpi\n      0x00\n      dup1\n      revert\n    tag_1:\n      pop\n      jumpi(tag_2, lt(calldatasize, 0x04))\n      shr(0xe0, calldataload(0x00))\n      dup1\n      0xe1bbcc73\n      eq\n      tag_3\n      jumpi\n    tag_2:\n      0x00\n      dup1\n      revert\n        /* \"artifacts/Lalit/Selector.sol\":564:686  function checkselector( string calldata _fun) external pure returns(bytes4){... */\n    tag_3:\n      tag_4\n      0x04\n      dup1\n      calldatasize\n      sub\n      dup2\n      add\n      swap1\n      tag_5\n      swap2\n      swap1\n      tag_6\n      jump\t// in\n    tag_5:\n      tag_7\n      jump\t// in\n    tag_4:\n      mload(0x40)\n      tag_8\n      swap2\n      swap1\n      tag_9\n      jump\t// in\n    tag_8:\n      mload(0x40)\n      dup1\n      swap2\n      sub\n      swap1\n      return\n    tag_7:\n        /* \"artifacts/Lalit/Selector.sol\":632:638  bytes4 */\n      0x00\n        /* \"artifacts/Lalit/Selector.sol\":676:680  _fun */\n      dup3\n      dup3\n        /* \"artifacts/Lalit/Selector.sol\":660:682  keccak256(bytes(_fun)) */\n      mload(0x40)\n      tag_11\n      swap3\n      swap2\n      swap1\n      tag_12\n      jump\t// in\n    tag_11:\n      mload(0x40)\n      dup1\n      swap2\n      sub\n      swap1\n      keccak256\n        /* \"artifacts/Lalit/Selector.sol\":646:683  return bytes4(keccak256(bytes(_fun))) */\n      swap1\n      pop\n        /* \"artifacts/Lalit/Selector.sol\":564:686  function checkselector( string calldata _fun) external pure returns(bytes4){... */\n      swap3\n      swap2\n      pop\n      pop\n      jump\t// out\n        /* \"#utility.yul\":21:574   */\n    tag_14:\n        /* \"#utility.yul\":79:87   */\n      0x00\n        /* \"#utility.yul\":89:95   */\n      dup1\n        /* \"#utility.yul\":139:142   */\n      dup4\n        /* \"#utility.yul\":132:136   */\n      0x1f\n        /* \"#utility.yul\":124:130   */\n      dup5\n        /* \"#utility.yul\":120:137   */\n      add\n        /* \"#utility.yul\":116:143   */\n      slt\n        /* \"#utility.yul\":106:228   */\n      tag_16\n      jumpi\n        /* \"#utility.yul\":147:226   */\n      tag_17\n      tag_18\n      jump\t// in\n    tag_17:\n        /* \"#utility.yul\":106:228   */\n    tag_16:\n        /* \"#utility.yul\":260:266   */\n      dup3\n        /* \"#utility.yul\":247:267   */\n      calldataload\n        /* \"#utility.yul\":237:267   */\n      swap1\n      pop\n        /* \"#utility.yul\":290:308   */\n      0xffffffffffffffff\n        /* \"#utility.yul\":282:288   */\n      dup2\n        /* \"#utility.yul\":279:309   */\n      gt\n        /* \"#utility.yul\":276:393   */\n      iszero\n      tag_19\n      jumpi\n        /* \"#utility.yul\":312:391   */\n      tag_20\n      tag_21\n      jump\t// in\n    tag_20:\n        /* \"#utility.yul\":276:393   */\n    tag_19:\n        /* \"#utility.yul\":426:430   */\n      0x20\n        /* \"#utility.yul\":418:424   */\n      dup4\n        /* \"#utility.yul\":414:431   */\n      add\n        /* \"#utility.yul\":402:431   */\n      swap2\n      pop\n        /* \"#utility.yul\":480:483   */\n      dup4\n        /* \"#utility.yul\":472:476   */\n      0x01\n        /* \"#utility.yul\":464:470   */\n      dup3\n        /* \"#utility.yul\":460:477   */\n      mul\n        /* \"#utility.yul\":450:458   */\n      dup4\n        /* \"#utility.yul\":446:478   */\n      add\n        /* \"#utility.yul\":443:484   */\n      gt\n        /* \"#utility.yul\":440:568   */\n      iszero\n      tag_22\n      jumpi\n        /* \"#utility.yul\":487:566   */\n      tag_23\n      tag_24\n      jump\t// in\n    tag_23:\n        /* \"#utility.yul\":440:568   */\n    tag_22:\n        /* \"#utility.yul\":21:574   */\n      swap3\n      pop\n      swap3\n      swap1\n      pop\n      jump\t// out\n        /* \"#utility.yul\":580:1109   */\n    tag_6:\n        /* \"#utility.yul\":651:657   */\n      0x00\n        /* \"#utility.yul\":659:665   */\n      dup1\n        /* \"#utility.yul\":708:710   */\n      0x20\n        /* \"#utility.yul\":696:705   */\n      dup4\n        /* \"#utility.yul\":687:694   */\n      dup6\n        /* \"#utility.yul\":683:706   */\n      sub\n        /* \"#utility.yul\":679:711   */\n      slt\n        /* \"#utility.yul\":676:795   */\n      iszero\n      tag_26\n      jumpi\n        /* \"#utility.yul\":714:793   */\n      tag_27\n      tag_28\n      jump\t// in\n    tag_27:\n        /* \"#utility.yul\":676:795   */\n    tag_26:\n        /* \"#utility.yul\":862:863   */\n      0x00\n        /* \"#utility.yul\":851:860   */\n      dup4\n        /* \"#utility.yul\":847:864   */\n      add\n        /* \"#utility.yul\":834:865   */\n      calldataload\n        /* \"#utility.yul\":892:910   */\n      0xffffffffffffffff\n        /* \"#utility.yul\":884:890   */\n      dup2\n        /* \"#utility.yul\":881:911   */\n      gt\n        /* \"#utility.yul\":878:995   */\n      iszero\n      tag_29\n      jumpi\n        /* \"#utility.yul\":914:993   */\n      tag_30\n      tag_31\n      jump\t// in\n    tag_30:\n        /* \"#utility.yul\":878:995   */\n    tag_29:\n        /* \"#utility.yul\":1027:1092   */\n      tag_32\n        /* \"#utility.yul\":1084:1091   */\n      dup6\n        /* \"#utility.yul\":1075:1081   */\n      dup3\n        /* \"#utility.yul\":1064:1073   */\n      dup7\n        /* \"#utility.yul\":1060:1082   */\n      add\n        /* \"#utility.yul\":1027:1092   */\n      tag_14\n      jump\t// in\n    tag_32:\n        /* \"#utility.yul\":1009:1092   */\n      swap3\n      pop\n      swap3\n      pop\n        /* \"#utility.yul\":805:1102   */\n      pop\n        /* \"#utility.yul\":580:1109   */\n      swap3\n      pop\n      swap3\n      swap1\n      pop\n      jump\t// out\n        /* \"#utility.yul\":1115:1230   */\n    tag_33:\n        /* \"#utility.yul\":1200:1223   */\n      tag_35\n        /* \"#utility.yul\":1217:1222   */\n      dup2\n        /* \"#utility.yul\":1200:1223   */\n      tag_36\n      jump\t// in\n    tag_35:\n        /* \"#utility.yul\":1195:1198   */\n      dup3\n        /* \"#utility.yul\":1188:1224   */\n      mstore\n        /* \"#utility.yul\":1115:1230   */\n      pop\n      pop\n      jump\t// out\n        /* \"#utility.yul\":1258:1572   */\n    tag_37:\n        /* \"#utility.yul\":1372:1375   */\n      0x00\n        /* \"#utility.yul\":1393:1481   */\n      tag_39\n        /* \"#utility.yul\":1474:1480   */\n      dup4\n        /* \"#utility.yul\":1469:1472   */\n      dup6\n        /* \"#utility.yul\":1393:1481   */\n      tag_40\n      jump\t// in\n    tag_39:\n        /* \"#utility.yul\":1386:1481   */\n      swap4\n      pop\n        /* \"#utility.yul\":1491:1534   */\n      tag_41\n        /* \"#utility.yul\":1527:1533   */\n      dup4\n        /* \"#utility.yul\":1522:1525   */\n      dup6\n        /* \"#utility.yul\":1515:1520   */\n      dup5\n        /* \"#utility.yul\":1491:1534   */\n      tag_42\n      jump\t// in\n    tag_41:\n        /* \"#utility.yul\":1559:1565   */\n      dup3\n        /* \"#utility.yul\":1554:1557   */\n      dup5\n        /* \"#utility.yul\":1550:1566   */\n      add\n        /* \"#utility.yul\":1543:1566   */\n      swap1\n      pop\n        /* \"#utility.yul\":1258:1572   */\n      swap4\n      swap3\n      pop\n      pop\n      pop\n      jump\t// out\n        /* \"#utility.yul\":1578:1869   */\n    tag_12:\n        /* \"#utility.yul\":1718:1721   */\n      0x00\n        /* \"#utility.yul\":1740:1843   */\n      tag_44\n        /* \"#utility.yul\":1839:1842   */\n      dup3\n        /* \"#utility.yul\":1830:1836   */\n      dup5\n        /* \"#utility.yul\":1822:1828   */\n      dup7\n        /* \"#utility.yul\":1740:1843   */\n      tag_37\n      jump\t// in\n    tag_44:\n        /* \"#utility.yul\":1733:1843   */\n      swap2\n      pop\n        /* \"#utility.yul\":1860:1863   */\n      dup2\n        /* \"#utility.yul\":1853:1863   */\n      swap1\n      pop\n        /* \"#utility.yul\":1578:1869   */\n      swap4\n      swap3\n      pop\n      pop\n      pop\n      jump\t// out\n        /* \"#utility.yul\":1875:2093   */\n    tag_9:\n        /* \"#utility.yul\":1966:1970   */\n      0x00\n        /* \"#utility.yul\":2004:2006   */\n      0x20\n        /* \"#utility.yul\":1993:2002   */\n      dup3\n        /* \"#utility.yul\":1989:2007   */\n      add\n        /* \"#utility.yul\":1981:2007   */\n      swap1\n      pop\n        /* \"#utility.yul\":2017:2086   */\n      tag_46\n        /* \"#utility.yul\":2083:2084   */\n      0x00\n        /* \"#utility.yul\":2072:2081   */\n      dup4\n        /* \"#utility.yul\":2068:2085   */\n      add\n        /* \"#utility.yul\":2059:2065   */\n      dup5\n        /* \"#utility.yul\":2017:2086   */\n      tag_33\n      jump\t// in\n    tag_46:\n        /* \"#utility.yul\":1875:2093   */\n      swap3\n      swap2\n      pop\n      pop\n      jump\t// out\n        /* \"#utility.yul\":2180:2327   */\n    tag_40:\n        /* \"#utility.yul\":2281:2292   */\n      0x00\n        /* \"#utility.yul\":2318:2321   */\n      dup2\n        /* \"#utility.yul\":2303:2321   */\n      swap1\n      pop\n        /* \"#utility.yul\":2180:2327   */\n      swap3\n      swap2\n      pop\n      pop\n      jump\t// out\n        /* \"#utility.yul\":2333:2482   */\n    tag_36:\n        /* \"#utility.yul\":2369:2376   */\n      0x00\n        /* \"#utility.yul\":2409:2475   */\n      0xffffffff00000000000000000000000000000000000000000000000000000000\n        /* \"#utility.yul\":2402:2407   */\n      dup3\n        /* \"#utility.yul\":2398:2476   */\n      and\n        /* \"#utility.yul\":2387:2476   */\n      swap1\n      pop\n        /* \"#utility.yul\":2333:2482   */\n      swap2\n      swap1\n      pop\n      jump\t// out\n        /* \"#utility.yul\":2488:2642   */\n    tag_42:\n        /* \"#utility.yul\":2572:2578   */\n      dup3\n        /* \"#utility.yul\":2567:2570   */\n      dup2\n        /* \"#utility.yul\":2562:2565   */\n      dup4\n        /* \"#utility.yul\":2549:2579   */\n      calldatacopy\n        /* \"#utility.yul\":2634:2635   */\n      0x00\n        /* \"#utility.yul\":2625:2631   */\n      dup4\n        /* \"#utility.yul\":2620:2623   */\n      dup4\n        /* \"#utility.yul\":2616:2632   */\n      add\n        /* \"#utility.yul\":2609:2636   */\n      mstore\n        /* \"#utility.yul\":2488:2642   */\n      pop\n      pop\n      pop\n      jump\t// out\n        /* \"#utility.yul\":2648:2765   */\n    tag_21:\n        /* \"#utility.yul\":2757:2758   */\n      0x00\n        /* \"#utility.yul\":2754:2755   */\n      dup1\n        /* \"#utility.yul\":2747:2759   */\n      revert\n        /* \"#utility.yul\":2771:2888   */\n    tag_18:\n        /* \"#utility.yul\":2880:2881   */\n      0x00\n        /* \"#utility.yul\":2877:2878   */\n      dup1\n        /* \"#utility.yul\":2870:2882   */\n      revert\n        /* \"#utility.yul\":2894:3011   */\n    tag_24:\n        /* \"#utility.yul\":3003:3004   */\n      0x00\n        /* \"#utility.yul\":3000:3001   */\n      dup1\n        /* \"#utility.yul\":2993:3005   */\n      revert\n        /* \"#utility.yul\":3017:3134   */\n    tag_31:\n        /* \"#utility.yul\":3126:3127   */\n      0x00\n        /* \"#utility.yul\":3123:3124   */\n      dup1\n        /* \"#utility.yul\":3116:3128   */\n      revert\n        /* \"#utility.yul\":3140:3257   */\n    tag_28:\n        /* \"#utility.yul\":3249:3250   */\n      0x00\n        /* \"#utility.yul\":3246:3247   */\n      dup1\n        /* \"#utility.yul\":3239:3251   */\n      revert\n\n    auxdata: 0xa264697066735822122067a935a96f76371e53aeccaa65636a1aa7a9d9f900013ce50d038bd92ada25b364736f6c63430008070033\n}\n",
				"bytecode": {
					"linkReferences": {},
					"object": "608060405234801561001057600080fd5b50610222806100206000396000f3fe608060405234801561001057600080fd5b506004361061002b5760003560e01c8063e1bbcc7314610030575b600080fd5b61004a600480360381019061004591906100d8565b610060565b6040516100579190610172565b60405180910390f35b60008282604051610072929190610159565b6040518091039020905092915050565b60008083601f840112610098576100976101d8565b5b8235905067ffffffffffffffff8111156100b5576100b46101d3565b5b6020830191508360018202830111156100d1576100d06101dd565b5b9250929050565b600080602083850312156100ef576100ee6101e7565b5b600083013567ffffffffffffffff81111561010d5761010c6101e2565b5b61011985828601610082565b92509250509250929050565b61012e81610198565b82525050565b6000610140838561018d565b935061014d8385846101c4565b82840190509392505050565b6000610166828486610134565b91508190509392505050565b60006020820190506101876000830184610125565b92915050565b600081905092915050565b60007fffffffff0000000000000000000000000000000000000000000000000000000082169050919050565b82818337600083830152505050565b600080fd5b600080fd5b600080fd5b600080fd5b600080fdfea264697066735822122067a935a96f76371e53aeccaa65636a1aa7a9d9f900013ce50d038bd92ada25b364736f6c63430008070033",
					"opcodes": "PUSH1 0x80 PUSH1 0x40 MSTORE CALLVALUE DUP1 ISZERO PUSH2 0x10 JUMPI PUSH1 0x0 DUP1 REVERT JUMPDEST POP PUSH2 0x222 DUP1 PUSH2 0x20 PUSH1 0x0 CODECOPY PUSH1 0x0 RETURN INVALID PUSH1 0x80 PUSH1 0x40 MSTORE CALLVALUE DUP1 ISZERO PUSH2 0x10 JUMPI PUSH1 0x0 DUP1 REVERT JUMPDEST POP PUSH1 0x4 CALLDATASIZE LT PUSH2 0x2B JUMPI PUSH1 0x0 CALLDATALOAD PUSH1 0xE0 SHR DUP1 PUSH4 0xE1BBCC73 EQ PUSH2 0x30 JUMPI JUMPDEST PUSH1 0x0 DUP1 REVERT JUMPDEST PUSH2 0x4A PUSH1 0x4 DUP1 CALLDATASIZE SUB DUP2 ADD SWAP1 PUSH2 0x45 SWAP2 SWAP1 PUSH2 0xD8 JUMP JUMPDEST PUSH2 0x60 JUMP JUMPDEST PUSH1 0x40 MLOAD PUSH2 0x57 SWAP2 SWAP1 PUSH2 0x172 JUMP JUMPDEST PUSH1 0x40 MLOAD DUP1 SWAP2 SUB SWAP1 RETURN JUMPDEST PUSH1 0x0 DUP3 DUP3 PUSH1 0x40 MLOAD PUSH2 0x72 SWAP3 SWAP2 SWAP1 PUSH2 0x159 JUMP JUMPDEST PUSH1 0x40 MLOAD DUP1 SWAP2 SUB SWAP1 KECCAK256 SWAP1 POP SWAP3 SWAP2 POP POP JUMP JUMPDEST PUSH1 0x0 DUP1 DUP4 PUSH1 0x1F DUP5 ADD SLT PUSH2 0x98 JUMPI PUSH2 0x97 PUSH2 0x1D8 JUMP JUMPDEST JUMPDEST DUP3 CALLDATALOAD SWAP1 POP PUSH8 0xFFFFFFFFFFFFFFFF DUP2 GT ISZERO PUSH2 0xB5 JUMPI PUSH2 0xB4 PUSH2 0x1D3 JUMP JUMPDEST JUMPDEST PUSH1 0x20 DUP4 ADD SWAP2 POP DUP4 PUSH1 0x1 DUP3 MUL DUP4 ADD GT ISZERO PUSH2 0xD1 JUMPI PUSH2 0xD0 PUSH2 0x1DD JUMP JUMPDEST JUMPDEST SWAP3 POP SWAP3 SWAP1 POP JUMP JUMPDEST PUSH1 0x0 DUP1 PUSH1 0x20 DUP4 DUP6 SUB SLT ISZERO PUSH2 0xEF JUMPI PUSH2 0xEE PUSH2 0x1E7 JUMP JUMPDEST JUMPDEST PUSH1 0x0 DUP4 ADD CALLDATALOAD PUSH8 0xFFFFFFFFFFFFFFFF DUP2 GT ISZERO PUSH2 0x10D JUMPI PUSH2 0x10C PUSH2 0x1E2 JUMP JUMPDEST JUMPDEST PUSH2 0x119 DUP6 DUP3 DUP7 ADD PUSH2 0x82 JUMP JUMPDEST SWAP3 POP SWAP3 POP POP SWAP3 POP SWAP3 SWAP1 POP JUMP JUMPDEST PUSH2 0x12E DUP2 PUSH2 0x198 JUMP JUMPDEST DUP3 MSTORE POP POP JUMP JUMPDEST PUSH1 0x0 PUSH2 0x140 DUP4 DUP6 PUSH2 0x18D JUMP JUMPDEST SWAP4 POP PUSH2 0x14D DUP4 DUP6 DUP5 PUSH2 0x1C4 JUMP JUMPDEST DUP3 DUP5 ADD SWAP1 POP SWAP4 SWAP3 POP POP POP JUMP JUMPDEST PUSH1 0x0 PUSH2 0x166 DUP3 DUP5 DUP7 PUSH2 0x134 JUMP JUMPDEST SWAP2 POP DUP2 SWAP1 POP SWAP4 SWAP3 POP POP POP JUMP JUMPDEST PUSH1 0x0 PUSH1 0x20 DUP3 ADD SWAP1 POP PUSH2 0x187 PUSH1 0x0 DUP4 ADD DUP5 PUSH2 0x125 JUMP JUMPDEST SWAP3 SWAP2 POP POP JUMP JUMPDEST PUSH1 0x0 DUP2 SWAP1 POP SWAP3 SWAP2 POP POP JUMP JUMPDEST PUSH1 0x0 PUSH32 0xFFFFFFFF00000000000000000000000000000000000000000000000000000000 DUP3 AND SWAP1 POP SWAP2 SWAP1 POP JUMP JUMPDEST DUP3 DUP2 DUP4 CALLDATACOPY PUSH1 0x0 DUP4 DUP4 ADD MSTORE POP POP POP JUMP JUMPDEST PUSH1 0x0 DUP1 REVERT JUMPDEST PUSH1 0x0 DUP1 REVERT JUMPDEST PUSH1 0x0 DUP1 REVERT JUMPDEST PUSH1 0x0 DUP1 REVERT JUMPDEST PUSH1 0x0 DUP1 REVERT INVALID LOG2 PUSH5 0x6970667358 0x22 SLT KECCAK256 PUSH8 0xA935A96F76371E53 0xAE 0xCC 0xAA PUSH6 0x636A1AA7A9D9 0xF9 STOP ADD EXTCODECOPY 0xE5 0xD SUB DUP12 0xD9 0x2A 0xDA 0x25 0xB3 PUSH5 0x736F6C6343 STOP ADDMOD SMOD STOP CALLER "
				},
				"gasEstimates": {
					"creation": {
						"codeDepositCost": "109200",
						"executionCost": "159",
						"totalCost": "109359"
					},
					"external": {
						"checkselector(string)": "infinite"
					}
				},
				"methodIdentifiers": {
					"checkselector(string)": "e1bbcc73"
				}
			},
			"storageLayout": {
				"storage": [],
				"types": null
			},
			"userdoc": {
				"kind": "user",
				"methods": {},
				"version": 1
			}
		}
	}
}