{
	"artifacts/Lalit/Lottery.sol": {
		"Lottery": {
			"abi": [
				{
					"inputs": [],
					"stateMutability": "nonpayable",
					"type": "constructor"
				},
				{
					"inputs": [],
					"name": "Manager",
					"outputs": [
						{
							"internalType": "address",
							"name": "",
							"type": "address"
						}
					],
					"stateMutability": "view",
					"type": "function"
				},
				{
					"inputs": [
						{
							"internalType": "uint256",
							"name": "",
							"type": "uint256"
						}
					],
					"name": "Players",
					"outputs": [
						{
							"internalType": "address payable",
							"name": "",
							"type": "address"
						}
					],
					"stateMutability": "view",
					"type": "function"
				},
				{
					"inputs": [],
					"name": "enter",
					"outputs": [],
					"stateMutability": "payable",
					"type": "function"
				},
				{
					"inputs": [],
					"name": "getplayers",
					"outputs": [
						{
							"internalType": "address payable[]",
							"name": "",
							"type": "address[]"
						}
					],
					"stateMutability": "view",
					"type": "function"
				},
				{
					"inputs": [],
					"name": "pickwinner",
					"outputs": [],
					"stateMutability": "nonpayable",
					"type": "function"
				}
			],
			"devdoc": {
				"kind": "dev",
				"methods": {},
				"version": 1
			},
			"evm": {
				"assembly": "    /* \"artifacts/Lalit/Lottery.sol\":70:1300  contract Lottery{... */\n  mstore(0x40, 0x80)\n    /* \"artifacts/Lalit/Lottery.sol\":177:268  constructor (){... */\n  callvalue\n  dup1\n  iszero\n  tag_1\n  jumpi\n  0x00\n  dup1\n  revert\ntag_1:\n  pop\n    /* \"artifacts/Lalit/Lottery.sol\":253:263  msg.sender */\n  caller\n    /* \"artifacts/Lalit/Lottery.sol\":243:250  Manager */\n  0x00\n  dup1\n    /* \"artifacts/Lalit/Lottery.sol\":243:263  Manager = msg.sender */\n  0x0100\n  exp\n  dup2\n  sload\n  dup2\n  0xffffffffffffffffffffffffffffffffffffffff\n  mul\n  not\n  and\n  swap1\n  dup4\n  0xffffffffffffffffffffffffffffffffffffffff\n  and\n  mul\n  or\n  swap1\n  sstore\n  pop\n    /* \"artifacts/Lalit/Lottery.sol\":70:1300  contract Lottery{... */\n  dataSize(sub_0)\n  dup1\n  dataOffset(sub_0)\n  0x00\n  codecopy\n  0x00\n  return\nstop\n\nsub_0: assembly {\n        /* \"artifacts/Lalit/Lottery.sol\":70:1300  contract Lottery{... */\n      mstore(0x40, 0x80)\n      jumpi(tag_1, lt(calldatasize, 0x04))\n      shr(0xe0, calldataload(0x00))\n      dup1\n      0x48ef3f03\n      eq\n      tag_2\n      jumpi\n      dup1\n      0x71b80060\n      eq\n      tag_3\n      jumpi\n      dup1\n      0x78357e53\n      eq\n      tag_4\n      jumpi\n      dup1\n      0xe97dcb62\n      eq\n      tag_5\n      jumpi\n      dup1\n      0xecb3db52\n      eq\n      tag_6\n      jumpi\n    tag_1:\n      0x00\n      dup1\n      revert\n        /* \"artifacts/Lalit/Lottery.sol\":113:145  address payable[] public Players */\n    tag_2:\n      callvalue\n      dup1\n      iszero\n      tag_7\n      jumpi\n      0x00\n      dup1\n      revert\n    tag_7:\n      pop\n      tag_8\n      0x04\n      dup1\n      calldatasize\n      sub\n      0x20\n      dup2\n      lt\n      iszero\n      tag_9\n      jumpi\n      0x00\n      dup1\n      revert\n    tag_9:\n      dup2\n      add\n      swap1\n      dup1\n      dup1\n      calldataload\n      swap1\n      0x20\n      add\n      swap1\n      swap3\n      swap2\n      swap1\n      pop\n      pop\n      pop\n      tag_10\n      jump\t// in\n    tag_8:\n      mload(0x40)\n      dup1\n      dup3\n      0xffffffffffffffffffffffffffffffffffffffff\n      and\n      dup2\n      mstore\n      0x20\n      add\n      swap2\n      pop\n      pop\n      mload(0x40)\n      dup1\n      swap2\n      sub\n      swap1\n      return\n        /* \"artifacts/Lalit/Lottery.sol\":850:1205  function pickwinner() public {... */\n    tag_3:\n      callvalue\n      dup1\n      iszero\n      tag_11\n      jumpi\n      0x00\n      dup1\n      revert\n    tag_11:\n      pop\n      tag_12\n      tag_13\n      jump\t// in\n    tag_12:\n      stop\n        /* \"artifacts/Lalit/Lottery.sol\":88:110  address public Manager */\n    tag_4:\n      callvalue\n      dup1\n      iszero\n      tag_14\n      jumpi\n      0x00\n      dup1\n      revert\n    tag_14:\n      pop\n      tag_15\n      tag_16\n      jump\t// in\n    tag_15:\n      mload(0x40)\n      dup1\n      dup3\n      0xffffffffffffffffffffffffffffffffffffffff\n      and\n      dup2\n      mstore\n      0x20\n      add\n      swap2\n      pop\n      pop\n      mload(0x40)\n      dup1\n      swap2\n      sub\n      swap1\n      return\n        /* \"artifacts/Lalit/Lottery.sol\":440:709  function enter() payable public {... */\n    tag_5:\n      tag_17\n      tag_18\n      jump\t// in\n    tag_17:\n      stop\n        /* \"artifacts/Lalit/Lottery.sol\":1207:1297  function getplayers() public view returns(address payable[] memory){... */\n    tag_6:\n      callvalue\n      dup1\n      iszero\n      tag_19\n      jumpi\n      0x00\n      dup1\n      revert\n    tag_19:\n      pop\n      tag_20\n      tag_21\n      jump\t// in\n    tag_20:\n      mload(0x40)\n      dup1\n      dup1\n      0x20\n      add\n      dup3\n      dup2\n      sub\n      dup3\n      mstore\n      dup4\n      dup2\n      dup2\n      mload\n      dup2\n      mstore\n      0x20\n      add\n      swap2\n      pop\n      dup1\n      mload\n      swap1\n      0x20\n      add\n      swap1\n      0x20\n      mul\n      dup1\n      dup4\n      dup4\n      0x00\n    tag_22:\n      dup4\n      dup2\n      lt\n      iszero\n      tag_24\n      jumpi\n      dup1\n      dup3\n      add\n      mload\n      dup2\n      dup5\n      add\n      mstore\n      0x20\n      dup2\n      add\n      swap1\n      pop\n      jump(tag_22)\n    tag_24:\n      pop\n      pop\n      pop\n      pop\n      swap1\n      pop\n      add\n      swap3\n      pop\n      pop\n      pop\n      mload(0x40)\n      dup1\n      swap2\n      sub\n      swap1\n      return\n        /* \"artifacts/Lalit/Lottery.sol\":113:145  address payable[] public Players */\n    tag_10:\n      0x01\n      dup2\n      dup2\n      sload\n      dup2\n      lt\n      tag_25\n      jumpi\n      0x00\n      dup1\n      revert\n    tag_25:\n      swap1\n      0x00\n      mstore\n      keccak256(0x00, 0x20)\n      add\n      0x00\n      swap2\n      pop\n      sload\n      swap1\n      0x0100\n      exp\n      swap1\n      div\n      0xffffffffffffffffffffffffffffffffffffffff\n      and\n      dup2\n      jump\t// out\n        /* \"artifacts/Lalit/Lottery.sol\":850:1205  function pickwinner() public {... */\n    tag_13:\n        /* \"artifacts/Lalit/Lottery.sol\":904:911  Manager */\n      0x00\n      dup1\n      sload\n      swap1\n      0x0100\n      exp\n      swap1\n      div\n      0xffffffffffffffffffffffffffffffffffffffff\n      and\n        /* \"artifacts/Lalit/Lottery.sol\":890:911  msg.sender == Manager */\n      0xffffffffffffffffffffffffffffffffffffffff\n      and\n        /* \"artifacts/Lalit/Lottery.sol\":890:900  msg.sender */\n      caller\n        /* \"artifacts/Lalit/Lottery.sol\":890:911  msg.sender == Manager */\n      0xffffffffffffffffffffffffffffffffffffffff\n      and\n      eq\n        /* \"artifacts/Lalit/Lottery.sol\":881:948  require( msg.sender == Manager,\" only manager can pick the winner\") */\n      tag_28\n      jumpi\n      mload(0x40)\n      0x08c379a000000000000000000000000000000000000000000000000000000000\n      dup2\n      mstore\n      0x04\n      add\n      dup1\n      dup1\n      0x20\n      add\n      dup3\n      dup2\n      sub\n      dup3\n      mstore\n      0x21\n      dup2\n      mstore\n      0x20\n      add\n      dup1\n      data_45c6edbd1e248ef4b7b97fb4d24a99ec8d5ef3753e7bb9dc90c96987c07edd8a\n      0x21\n      swap2\n      codecopy\n      0x40\n      add\n      swap2\n      pop\n      pop\n      mload(0x40)\n      dup1\n      swap2\n      sub\n      swap1\n      revert\n    tag_28:\n        /* \"artifacts/Lalit/Lottery.sol\":950:966  uint winnerindex */\n      0x00\n        /* \"artifacts/Lalit/Lottery.sol\":985:992  Players */\n      0x01\n        /* \"artifacts/Lalit/Lottery.sol\":985:999  Players.length */\n      dup1\n      sload\n      swap1\n      pop\n        /* \"artifacts/Lalit/Lottery.sol\":969:983  randomnumber() */\n      tag_29\n        /* \"artifacts/Lalit/Lottery.sol\":969:981  randomnumber */\n      tag_30\n        /* \"artifacts/Lalit/Lottery.sol\":969:983  randomnumber() */\n      jump\t// in\n    tag_29:\n        /* \"artifacts/Lalit/Lottery.sol\":969:999  randomnumber()% Players.length */\n      dup2\n      tag_31\n      jumpi\n      invalid\n    tag_31:\n      mod\n        /* \"artifacts/Lalit/Lottery.sol\":950:999  uint winnerindex = randomnumber()% Players.length */\n      swap1\n      pop\n        /* \"artifacts/Lalit/Lottery.sol\":1001:1024  address contractaddress */\n      0x00\n        /* \"artifacts/Lalit/Lottery.sol\":1035:1039  this */\n      address\n        /* \"artifacts/Lalit/Lottery.sol\":1001:1040  address contractaddress = address(this) */\n      swap1\n      pop\n        /* \"artifacts/Lalit/Lottery.sol\":1083:1090  Players */\n      0x01\n        /* \"artifacts/Lalit/Lottery.sol\":1091:1102  winnerindex */\n      dup3\n        /* \"artifacts/Lalit/Lottery.sol\":1083:1103  Players[winnerindex] */\n      dup2\n      sload\n      dup2\n      lt\n      tag_32\n      jumpi\n      invalid\n    tag_32:\n      swap1\n      0x00\n      mstore\n      keccak256(0x00, 0x20)\n      add\n      0x00\n      swap1\n      sload\n      swap1\n      0x0100\n      exp\n      swap1\n      div\n      0xffffffffffffffffffffffffffffffffffffffff\n      and\n        /* \"artifacts/Lalit/Lottery.sol\":1083:1112  Players[winnerindex].transfer */\n      0xffffffffffffffffffffffffffffffffffffffff\n      and\n        /* \"artifacts/Lalit/Lottery.sol\":1083:1137  Players[winnerindex].transfer(contractaddress.balance) */\n      0x08fc\n        /* \"artifacts/Lalit/Lottery.sol\":1113:1128  contractaddress */\n      dup3\n        /* \"artifacts/Lalit/Lottery.sol\":1113:1136  contractaddress.balance */\n      0xffffffffffffffffffffffffffffffffffffffff\n      and\n      balance\n        /* \"artifacts/Lalit/Lottery.sol\":1083:1137  Players[winnerindex].transfer(contractaddress.balance) */\n      swap1\n      dup2\n      iszero\n      mul\n      swap1\n      mload(0x40)\n      0x00\n      mload(0x40)\n      dup1\n      dup4\n      sub\n      dup2\n      dup6\n      dup9\n      dup9\n      call\n      swap4\n      pop\n      pop\n      pop\n      pop\n      iszero\n      dup1\n      iszero\n      tag_35\n      jumpi\n      returndatasize\n      0x00\n      dup1\n      returndatacopy\n      revert(0x00, returndatasize)\n    tag_35:\n      pop\n        /* \"artifacts/Lalit/Lottery.sol\":1199:1200  0 */\n      0x00\n        /* \"artifacts/Lalit/Lottery.sol\":1177:1201  new address payable[](0) */\n      0xffffffffffffffff\n      dup2\n      gt\n      dup1\n      iszero\n      tag_36\n      jumpi\n      0x00\n      dup1\n      revert\n    tag_36:\n      pop\n      mload(0x40)\n      swap1\n      dup1\n      dup3\n      mstore\n      dup1\n      0x20\n      mul\n      0x20\n      add\n      dup3\n      add\n      0x40\n      mstore\n      dup1\n      iszero\n      tag_37\n      jumpi\n      dup2\n      0x20\n      add\n      0x20\n      dup3\n      mul\n      dup1\n      calldatasize\n      dup4\n      calldatacopy\n      dup1\n      dup3\n      add\n      swap2\n      pop\n      pop\n      swap1\n      pop\n    tag_37:\n      pop\n        /* \"artifacts/Lalit/Lottery.sol\":1167:1174  Players */\n      0x01\n        /* \"artifacts/Lalit/Lottery.sol\":1167:1201  Players = new address payable[](0) */\n      swap1\n      dup1\n      mload\n      swap1\n      0x20\n      add\n      swap1\n      tag_38\n      swap3\n      swap2\n      swap1\n      tag_39\n      jump\t// in\n    tag_38:\n      pop\n        /* \"artifacts/Lalit/Lottery.sol\":850:1205  function pickwinner() public {... */\n      pop\n      pop\n      jump\t// out\n        /* \"artifacts/Lalit/Lottery.sol\":88:110  address public Manager */\n    tag_16:\n      0x00\n      dup1\n      sload\n      swap1\n      0x0100\n      exp\n      swap1\n      div\n      0xffffffffffffffffffffffffffffffffffffffff\n      and\n      dup2\n      jump\t// out\n        /* \"artifacts/Lalit/Lottery.sol\":440:709  function enter() payable public {... */\n    tag_18:\n        /* \"artifacts/Lalit/Lottery.sol\":498:505  Manager */\n      0x00\n      dup1\n      sload\n      swap1\n      0x0100\n      exp\n      swap1\n      div\n      0xffffffffffffffffffffffffffffffffffffffff\n      and\n        /* \"artifacts/Lalit/Lottery.sol\":484:505  msg.sender != Manager */\n      0xffffffffffffffffffffffffffffffffffffffff\n      and\n        /* \"artifacts/Lalit/Lottery.sol\":484:494  msg.sender */\n      caller\n        /* \"artifacts/Lalit/Lottery.sol\":484:505  msg.sender != Manager */\n      0xffffffffffffffffffffffffffffffffffffffff\n      and\n      eq\n      iszero\n        /* \"artifacts/Lalit/Lottery.sol\":474:551  require ( msg.sender != Manager, \" Manager can not take part in the Lottery\") */\n      tag_41\n      jumpi\n      mload(0x40)\n      0x08c379a000000000000000000000000000000000000000000000000000000000\n      dup2\n      mstore\n      0x04\n      add\n      dup1\n      dup1\n      0x20\n      add\n      dup3\n      dup2\n      sub\n      dup3\n      mstore\n      0x29\n      dup2\n      mstore\n      0x20\n      add\n      dup1\n      data_191390fb878144e87bee25d2e41f4b2942b149c9262d24e82a5b7d0a5afca683\n      0x29\n      swap2\n      codecopy\n      0x40\n      add\n      swap2\n      pop\n      pop\n      mload(0x40)\n      dup1\n      swap2\n      sub\n      swap1\n      revert\n    tag_41:\n        /* \"artifacts/Lalit/Lottery.sol\":583:588  false */\n      0x00\n        /* \"artifacts/Lalit/Lottery.sol\":563:588  alreadyentered() == false */\n      iszero\n      iszero\n        /* \"artifacts/Lalit/Lottery.sol\":563:579  alreadyentered() */\n      tag_42\n        /* \"artifacts/Lalit/Lottery.sol\":563:577  alreadyentered */\n      tag_43\n        /* \"artifacts/Lalit/Lottery.sol\":563:579  alreadyentered() */\n      jump\t// in\n    tag_42:\n        /* \"artifacts/Lalit/Lottery.sol\":563:588  alreadyentered() == false */\n      iszero\n      iszero\n      eq\n        /* \"artifacts/Lalit/Lottery.sol\":553:636  require ( alreadyentered() == false, \" Palyers can not take part again in Lottery\") */\n      tag_44\n      jumpi\n      mload(0x40)\n      0x08c379a000000000000000000000000000000000000000000000000000000000\n      dup2\n      mstore\n      0x04\n      add\n      dup1\n      dup1\n      0x20\n      add\n      dup3\n      dup2\n      sub\n      dup3\n      mstore\n      0x2b\n      dup2\n      mstore\n      0x20\n      add\n      dup1\n      data_c166e8a9768efee607443a0e52d5d6286449ad7148c66d580c3e09b9b1d06444\n      0x2b\n      swap2\n      codecopy\n      0x40\n      add\n      swap2\n      pop\n      pop\n      mload(0x40)\n      dup1\n      swap2\n      sub\n      swap1\n      revert\n    tag_44:\n        /* \"artifacts/Lalit/Lottery.sol\":661:668  1 ether */\n      0x0de0b6b3a7640000\n        /* \"artifacts/Lalit/Lottery.sol\":648:657  msg.value */\n      callvalue\n        /* \"artifacts/Lalit/Lottery.sol\":648:668  msg.value == 1 ether */\n      eq\n        /* \"artifacts/Lalit/Lottery.sol\":638:705  require ( msg.value == 1 ether,\" Please pay minimum Lottery Fees\" ) */\n      tag_45\n      jumpi\n      mload(0x40)\n      0x08c379a000000000000000000000000000000000000000000000000000000000\n      dup2\n      mstore\n      0x04\n      add\n      dup1\n      dup1\n      0x20\n      add\n      dup3\n      dup2\n      sub\n      dup3\n      mstore\n      0x20\n      dup2\n      mstore\n      0x20\n      add\n      dup1\n      0x20506c6561736520706179206d696e696d756d204c6f74746572792046656573\n      dup2\n      mstore\n      pop\n      0x20\n      add\n      swap2\n      pop\n      pop\n      mload(0x40)\n      dup1\n      swap2\n      sub\n      swap1\n      revert\n    tag_45:\n        /* \"artifacts/Lalit/Lottery.sol\":440:709  function enter() payable public {... */\n      jump\t// out\n        /* \"artifacts/Lalit/Lottery.sol\":1207:1297  function getplayers() public view returns(address payable[] memory){... */\n    tag_21:\n        /* \"artifacts/Lalit/Lottery.sol\":1249:1273  address payable[] memory */\n      0x60\n        /* \"artifacts/Lalit/Lottery.sol\":1287:1294  Players */\n      0x01\n        /* \"artifacts/Lalit/Lottery.sol\":1280:1294  return Players */\n      dup1\n      sload\n      dup1\n      0x20\n      mul\n      0x20\n      add\n      mload(0x40)\n      swap1\n      dup2\n      add\n      0x40\n      mstore\n      dup1\n      swap3\n      swap2\n      swap1\n      dup2\n      dup2\n      mstore\n      0x20\n      add\n      dup3\n      dup1\n      sload\n      dup1\n      iszero\n      tag_47\n      jumpi\n      0x20\n      mul\n      dup3\n      add\n      swap2\n      swap1\n      0x00\n      mstore\n      keccak256(0x00, 0x20)\n      swap1\n    tag_48:\n      dup2\n      0x00\n      swap1\n      sload\n      swap1\n      0x0100\n      exp\n      swap1\n      div\n      0xffffffffffffffffffffffffffffffffffffffff\n      and\n      0xffffffffffffffffffffffffffffffffffffffff\n      and\n      dup2\n      mstore\n      0x20\n      add\n      swap1\n      0x01\n      add\n      swap1\n      dup1\n      dup4\n      gt\n      tag_48\n      jumpi\n    tag_47:\n      pop\n      pop\n      pop\n      pop\n      pop\n      swap1\n      pop\n        /* \"artifacts/Lalit/Lottery.sol\":1207:1297  function getplayers() public view returns(address payable[] memory){... */\n      swap1\n      jump\t// out\n        /* \"artifacts/Lalit/Lottery.sol\":711:848  function randomnumber() private view returns(uint){... */\n    tag_30:\n        /* \"artifacts/Lalit/Lottery.sol\":756:760  uint */\n      0x00\n        /* \"artifacts/Lalit/Lottery.sol\":779:843  sha256(abi.encodePacked(block.difficulty, block.number,Players)) */\n      0x02\n        /* \"artifacts/Lalit/Lottery.sol\":803:819  block.difficulty */\n      difficulty\n        /* \"artifacts/Lalit/Lottery.sol\":821:833  block.number */\n      number\n        /* \"artifacts/Lalit/Lottery.sol\":834:841  Players */\n      0x01\n        /* \"artifacts/Lalit/Lottery.sol\":786:842  abi.encodePacked(block.difficulty, block.number,Players) */\n      add(0x20, mload(0x40))\n      dup1\n      dup5\n      dup2\n      mstore\n      0x20\n      add\n      dup4\n      dup2\n      mstore\n      0x20\n      add\n      dup3\n      dup1\n      sload\n      dup1\n      iszero\n      tag_50\n      jumpi\n      0x20\n      mul\n      dup3\n      add\n      swap2\n      swap1\n      0x00\n      mstore\n      keccak256(0x00, 0x20)\n      swap1\n    tag_51:\n      dup2\n      0x00\n      swap1\n      sload\n      swap1\n      0x0100\n      exp\n      swap1\n      div\n      0xffffffffffffffffffffffffffffffffffffffff\n      and\n      0xffffffffffffffffffffffffffffffffffffffff\n      and\n      dup2\n      mstore\n      0x20\n      add\n      swap1\n      0x01\n      add\n      swap1\n      dup1\n      dup4\n      gt\n      tag_51\n      jumpi\n    tag_50:\n      pop\n      pop\n      swap4\n      pop\n      pop\n      pop\n      pop\n      mload(0x40)\n      0x20\n      dup2\n      dup4\n      sub\n      sub\n      dup2\n      mstore\n      swap1\n      0x40\n      mstore\n        /* \"artifacts/Lalit/Lottery.sol\":779:843  sha256(abi.encodePacked(block.difficulty, block.number,Players)) */\n      mload(0x40)\n      dup1\n      dup3\n      dup1\n      mload\n      swap1\n      0x20\n      add\n      swap1\n      dup1\n      dup4\n      dup4\n    tag_52:\n      0x20\n      dup4\n      lt\n      tag_54\n      jumpi\n      dup1\n      mload\n      dup3\n      mstore\n      0x20\n      dup3\n      add\n      swap2\n      pop\n      0x20\n      dup2\n      add\n      swap1\n      pop\n      0x20\n      dup4\n      sub\n      swap3\n      pop\n      jump(tag_52)\n    tag_54:\n      0x01\n      dup4\n      0x20\n      sub\n      0x0100\n      exp\n      sub\n      dup1\n      not\n      dup3\n      mload\n      and\n      dup2\n      dup5\n      mload\n      and\n      dup1\n      dup3\n      or\n      dup6\n      mstore\n      pop\n      pop\n      pop\n      pop\n      pop\n      pop\n      swap1\n      pop\n      add\n      swap2\n      pop\n      pop\n      0x20\n      mload(0x40)\n      dup1\n      dup4\n      sub\n      dup2\n      dup6\n      gas\n      staticcall\n      iszero\n      dup1\n      iszero\n      tag_56\n      jumpi\n      returndatasize\n      0x00\n      dup1\n      returndatacopy\n      revert(0x00, returndatasize)\n    tag_56:\n      pop\n      pop\n      pop\n      mload(0x40)\n      returndatasize\n      0x20\n      dup2\n      lt\n      iszero\n      tag_57\n      jumpi\n      0x00\n      dup1\n      revert\n    tag_57:\n      dup2\n      add\n      swap1\n      dup1\n      dup1\n      mload\n      swap1\n      0x20\n      add\n      swap1\n      swap3\n      swap2\n      swap1\n      pop\n      pop\n      pop\n        /* \"artifacts/Lalit/Lottery.sol\":773:844  uint (sha256(abi.encodePacked(block.difficulty, block.number,Players))) */\n      0x00\n      shr\n        /* \"artifacts/Lalit/Lottery.sol\":766:844  return uint (sha256(abi.encodePacked(block.difficulty, block.number,Players))) */\n      swap1\n      pop\n        /* \"artifacts/Lalit/Lottery.sol\":711:848  function randomnumber() private view returns(uint){... */\n      swap1\n      jump\t// out\n        /* \"artifacts/Lalit/Lottery.sol\":269:437  function alreadyentered() view private returns(bool){... */\n    tag_43:\n        /* \"artifacts/Lalit/Lottery.sol\":316:320  bool */\n      0x00\n        /* \"artifacts/Lalit/Lottery.sol\":332:338  uint i */\n      dup1\n        /* \"artifacts/Lalit/Lottery.sol\":339:340  0 */\n      0x00\n        /* \"artifacts/Lalit/Lottery.sol\":332:340  uint i=0 */\n      swap1\n      pop\n        /* \"artifacts/Lalit/Lottery.sol\":344:351  Players */\n      0x01\n        /* \"artifacts/Lalit/Lottery.sol\":344:358  Players.length */\n      dup1\n      sload\n      swap1\n      pop\n        /* \"artifacts/Lalit/Lottery.sol\":342:343  i */\n      dup2\n        /* \"artifacts/Lalit/Lottery.sol\":342:358  i<Players.length */\n      lt\n        /* \"artifacts/Lalit/Lottery.sol\":327:435  for (uint i=0; i<Players.length;i++){... */\n      iszero\n      tag_60\n      jumpi\n        /* \"artifacts/Lalit/Lottery.sol\":383:393  msg.sender */\n      caller\n        /* \"artifacts/Lalit/Lottery.sol\":369:393  Players[i] == msg.sender */\n      0xffffffffffffffffffffffffffffffffffffffff\n      and\n        /* \"artifacts/Lalit/Lottery.sol\":369:376  Players */\n      0x01\n        /* \"artifacts/Lalit/Lottery.sol\":377:378  i */\n      dup3\n        /* \"artifacts/Lalit/Lottery.sol\":369:379  Players[i] */\n      dup2\n      sload\n      dup2\n      lt\n      tag_62\n      jumpi\n      invalid\n    tag_62:\n      swap1\n      0x00\n      mstore\n      keccak256(0x00, 0x20)\n      add\n      0x00\n      swap1\n      sload\n      swap1\n      0x0100\n      exp\n      swap1\n      div\n      0xffffffffffffffffffffffffffffffffffffffff\n      and\n        /* \"artifacts/Lalit/Lottery.sol\":369:393  Players[i] == msg.sender */\n      0xffffffffffffffffffffffffffffffffffffffff\n      and\n      eq\n        /* \"artifacts/Lalit/Lottery.sol\":365:414  if( Players[i] == msg.sender){... */\n      iszero\n      tag_64\n      jumpi\n        /* \"artifacts/Lalit/Lottery.sol\":407:411  true */\n      0x01\n        /* \"artifacts/Lalit/Lottery.sol\":400:411  return true */\n      swap2\n      pop\n      pop\n      jump(tag_58)\n        /* \"artifacts/Lalit/Lottery.sol\":365:414  if( Players[i] == msg.sender){... */\n    tag_64:\n        /* \"artifacts/Lalit/Lottery.sol\":422:427  false */\n      0x00\n        /* \"artifacts/Lalit/Lottery.sol\":415:427  return false */\n      swap2\n      pop\n      pop\n      jump(tag_58)\n        /* \"artifacts/Lalit/Lottery.sol\":327:435  for (uint i=0; i<Players.length;i++){... */\n    tag_60:\n      pop\n        /* \"artifacts/Lalit/Lottery.sol\":269:437  function alreadyentered() view private returns(bool){... */\n    tag_58:\n      swap1\n      jump\t// out\n    tag_39:\n      dup3\n      dup1\n      sload\n      dup3\n      dup3\n      sstore\n      swap1\n      0x00\n      mstore\n      keccak256(0x00, 0x20)\n      swap1\n      dup2\n      add\n      swap3\n      dup3\n      iszero\n      tag_65\n      jumpi\n      swap2\n      0x20\n      mul\n      dup3\n      add\n    tag_66:\n      dup3\n      dup2\n      gt\n      iszero\n      tag_67\n      jumpi\n      dup3\n      mload\n      dup3\n      exp(0x0100, 0x00)\n      dup2\n      sload\n      dup2\n      0xffffffffffffffffffffffffffffffffffffffff\n      mul\n      not\n      and\n      swap1\n      dup4\n      0xffffffffffffffffffffffffffffffffffffffff\n      and\n      mul\n      or\n      swap1\n      sstore\n      pop\n      swap2\n      0x20\n      add\n      swap2\n      swap1\n      0x01\n      add\n      swap1\n      jump(tag_66)\n    tag_67:\n    tag_65:\n      pop\n      swap1\n      pop\n      tag_68\n      swap2\n      swap1\n      tag_69\n      jump\t// in\n    tag_68:\n      pop\n      swap1\n      jump\t// out\n    tag_69:\n    tag_70:\n      dup1\n      dup3\n      gt\n      iszero\n      tag_71\n      jumpi\n      0x00\n      dup2\n      0x00\n      swap1\n      sstore\n      pop\n      0x01\n      add\n      jump(tag_70)\n    tag_71:\n      pop\n      swap1\n      jump\t// out\n    stop\n    data_191390fb878144e87bee25d2e41f4b2942b149c9262d24e82a5b7d0a5afca683 204d616e616765722063616e206e6f742074616b65207061727420696e20746865204c6f7474657279\n    data_45c6edbd1e248ef4b7b97fb4d24a99ec8d5ef3753e7bb9dc90c96987c07edd8a 206f6e6c79206d616e616765722063616e207069636b207468652077696e6e6572\n    data_c166e8a9768efee607443a0e52d5d6286449ad7148c66d580c3e09b9b1d06444 2050616c796572732063616e206e6f742074616b65207061727420616761696e20696e204c6f7474657279\n\n    auxdata: 0xa2646970667358221220e8a298b71bbfe1300a8fc26476c7a4f34344384144bbe17a4d89b42b235ce37b64736f6c63430007060033\n}\n",
				"bytecode": {
					"linkReferences": {},
					"object": "608060405234801561001057600080fd5b50336000806101000a81548173ffffffffffffffffffffffffffffffffffffffff021916908373ffffffffffffffffffffffffffffffffffffffff1602179055506108d7806100606000396000f3fe60806040526004361061004a5760003560e01c806348ef3f031461004f57806371b80060146100b457806378357e53146100cb578063e97dcb621461010c578063ecb3db5214610116575b600080fd5b34801561005b57600080fd5b506100886004803603602081101561007257600080fd5b8101908080359060200190929190505050610182565b604051808273ffffffffffffffffffffffffffffffffffffffff16815260200191505060405180910390f35b3480156100c057600080fd5b506100c96101c1565b005b3480156100d757600080fd5b506100e061037b565b604051808273ffffffffffffffffffffffffffffffffffffffff16815260200191505060405180910390f35b61011461039f565b005b34801561012257600080fd5b5061012b610527565b6040518080602001828103825283818151815260200191508051906020019060200280838360005b8381101561016e578082015181840152602081019050610153565b505050509050019250505060405180910390f35b6001818154811061019257600080fd5b906000526020600020016000915054906101000a900473ffffffffffffffffffffffffffffffffffffffff1681565b60008054906101000a900473ffffffffffffffffffffffffffffffffffffffff1673ffffffffffffffffffffffffffffffffffffffff163373ffffffffffffffffffffffffffffffffffffffff1614610265576040517f08c379a00000000000000000000000000000000000000000000000000000000081526004018080602001828103825260218152602001806108566021913960400191505060405180910390fd5b60006001805490506102756105b5565b8161027c57fe5b06905060003090506001828154811061029157fe5b9060005260206000200160009054906101000a900473ffffffffffffffffffffffffffffffffffffffff1673ffffffffffffffffffffffffffffffffffffffff166108fc8273ffffffffffffffffffffffffffffffffffffffff16319081150290604051600060405180830381858888f19350505050158015610318573d6000803e3d6000fd5b50600067ffffffffffffffff8111801561033157600080fd5b506040519080825280602002602001820160405280156103605781602001602082028036833780820191505090505b5060019080519060200190610376929190610785565b505050565b60008054906101000a900473ffffffffffffffffffffffffffffffffffffffff1681565b60008054906101000a900473ffffffffffffffffffffffffffffffffffffffff1673ffffffffffffffffffffffffffffffffffffffff163373ffffffffffffffffffffffffffffffffffffffff161415610444576040517f08c379a000000000000000000000000000000000000000000000000000000000815260040180806020018281038252602981526020018061082d6029913960400191505060405180910390fd5b600015156104506106ed565b1515146104a8576040517f08c379a000000000000000000000000000000000000000000000000000000000815260040180806020018281038252602b815260200180610877602b913960400191505060405180910390fd5b670de0b6b3a76400003414610525576040517f08c379a00000000000000000000000000000000000000000000000000000000081526004018080602001828103825260208152602001807f20506c6561736520706179206d696e696d756d204c6f7474657279204665657381525060200191505060405180910390fd5b565b606060018054806020026020016040519081016040528092919081815260200182805480156105ab57602002820191906000526020600020905b8160009054906101000a900473ffffffffffffffffffffffffffffffffffffffff1673ffffffffffffffffffffffffffffffffffffffff1681526020019060010190808311610561575b5050505050905090565b600060024443600160405160200180848152602001838152602001828054801561063457602002820191906000526020600020905b8160009054906101000a900473ffffffffffffffffffffffffffffffffffffffff1673ffffffffffffffffffffffffffffffffffffffff16815260200190600101908083116105ea575b505093505050506040516020818303038152906040526040518082805190602001908083835b6020831061067d578051825260208201915060208101905060208303925061065a565b6001836020036101000a038019825116818451168082178552505050505050905001915050602060405180830381855afa1580156106bf573d6000803e3d6000fd5b5050506040513d60208110156106d457600080fd5b810190808051906020019092919050505060001c905090565b60008060009050600180549050811015610780573373ffffffffffffffffffffffffffffffffffffffff166001828154811061072557fe5b9060005260206000200160009054906101000a900473ffffffffffffffffffffffffffffffffffffffff1673ffffffffffffffffffffffffffffffffffffffff161415610776576001915050610782565b6000915050610782565b505b90565b8280548282559060005260206000209081019282156107fe579160200282015b828111156107fd5782518260006101000a81548173ffffffffffffffffffffffffffffffffffffffff021916908373ffffffffffffffffffffffffffffffffffffffff160217905550916020019190600101906107a5565b5b50905061080b919061080f565b5090565b5b80821115610828576000816000905550600101610810565b509056fe204d616e616765722063616e206e6f742074616b65207061727420696e20746865204c6f7474657279206f6e6c79206d616e616765722063616e207069636b207468652077696e6e65722050616c796572732063616e206e6f742074616b65207061727420616761696e20696e204c6f7474657279a2646970667358221220e8a298b71bbfe1300a8fc26476c7a4f34344384144bbe17a4d89b42b235ce37b64736f6c63430007060033",
					"opcodes": "PUSH1 0x80 PUSH1 0x40 MSTORE CALLVALUE DUP1 ISZERO PUSH2 0x10 JUMPI PUSH1 0x0 DUP1 REVERT JUMPDEST POP CALLER PUSH1 0x0 DUP1 PUSH2 0x100 EXP DUP2 SLOAD DUP2 PUSH20 0xFFFFFFFFFFFFFFFFFFFFFFFFFFFFFFFFFFFFFFFF MUL NOT AND SWAP1 DUP4 PUSH20 0xFFFFFFFFFFFFFFFFFFFFFFFFFFFFFFFFFFFFFFFF AND MUL OR SWAP1 SSTORE POP PUSH2 0x8D7 DUP1 PUSH2 0x60 PUSH1 0x0 CODECOPY PUSH1 0x0 RETURN INVALID PUSH1 0x80 PUSH1 0x40 MSTORE PUSH1 0x4 CALLDATASIZE LT PUSH2 0x4A JUMPI PUSH1 0x0 CALLDATALOAD PUSH1 0xE0 SHR DUP1 PUSH4 0x48EF3F03 EQ PUSH2 0x4F JUMPI DUP1 PUSH4 0x71B80060 EQ PUSH2 0xB4 JUMPI DUP1 PUSH4 0x78357E53 EQ PUSH2 0xCB JUMPI DUP1 PUSH4 0xE97DCB62 EQ PUSH2 0x10C JUMPI DUP1 PUSH4 0xECB3DB52 EQ PUSH2 0x116 JUMPI JUMPDEST PUSH1 0x0 DUP1 REVERT JUMPDEST CALLVALUE DUP1 ISZERO PUSH2 0x5B JUMPI PUSH1 0x0 DUP1 REVERT JUMPDEST POP PUSH2 0x88 PUSH1 0x4 DUP1 CALLDATASIZE SUB PUSH1 0x20 DUP2 LT ISZERO PUSH2 0x72 JUMPI PUSH1 0x0 DUP1 REVERT JUMPDEST DUP2 ADD SWAP1 DUP1 DUP1 CALLDATALOAD SWAP1 PUSH1 0x20 ADD SWAP1 SWAP3 SWAP2 SWAP1 POP POP POP PUSH2 0x182 JUMP JUMPDEST PUSH1 0x40 MLOAD DUP1 DUP3 PUSH20 0xFFFFFFFFFFFFFFFFFFFFFFFFFFFFFFFFFFFFFFFF AND DUP2 MSTORE PUSH1 0x20 ADD SWAP2 POP POP PUSH1 0x40 MLOAD DUP1 SWAP2 SUB SWAP1 RETURN JUMPDEST CALLVALUE DUP1 ISZERO PUSH2 0xC0 JUMPI PUSH1 0x0 DUP1 REVERT JUMPDEST POP PUSH2 0xC9 PUSH2 0x1C1 JUMP JUMPDEST STOP JUMPDEST CALLVALUE DUP1 ISZERO PUSH2 0xD7 JUMPI PUSH1 0x0 DUP1 REVERT JUMPDEST POP PUSH2 0xE0 PUSH2 0x37B JUMP JUMPDEST PUSH1 0x40 MLOAD DUP1 DUP3 PUSH20 0xFFFFFFFFFFFFFFFFFFFFFFFFFFFFFFFFFFFFFFFF AND DUP2 MSTORE PUSH1 0x20 ADD SWAP2 POP POP PUSH1 0x40 MLOAD DUP1 SWAP2 SUB SWAP1 RETURN JUMPDEST PUSH2 0x114 PUSH2 0x39F JUMP JUMPDEST STOP JUMPDEST CALLVALUE DUP1 ISZERO PUSH2 0x122 JUMPI PUSH1 0x0 DUP1 REVERT JUMPDEST POP PUSH2 0x12B PUSH2 0x527 JUMP JUMPDEST PUSH1 0x40 MLOAD DUP1 DUP1 PUSH1 0x20 ADD DUP3 DUP2 SUB DUP3 MSTORE DUP4 DUP2 DUP2 MLOAD DUP2 MSTORE PUSH1 0x20 ADD SWAP2 POP DUP1 MLOAD SWAP1 PUSH1 0x20 ADD SWAP1 PUSH1 0x20 MUL DUP1 DUP4 DUP4 PUSH1 0x0 JUMPDEST DUP4 DUP2 LT ISZERO PUSH2 0x16E JUMPI DUP1 DUP3 ADD MLOAD DUP2 DUP5 ADD MSTORE PUSH1 0x20 DUP2 ADD SWAP1 POP PUSH2 0x153 JUMP JUMPDEST POP POP POP POP SWAP1 POP ADD SWAP3 POP POP POP PUSH1 0x40 MLOAD DUP1 SWAP2 SUB SWAP1 RETURN JUMPDEST PUSH1 0x1 DUP2 DUP2 SLOAD DUP2 LT PUSH2 0x192 JUMPI PUSH1 0x0 DUP1 REVERT JUMPDEST SWAP1 PUSH1 0x0 MSTORE PUSH1 0x20 PUSH1 0x0 KECCAK256 ADD PUSH1 0x0 SWAP2 POP SLOAD SWAP1 PUSH2 0x100 EXP SWAP1 DIV PUSH20 0xFFFFFFFFFFFFFFFFFFFFFFFFFFFFFFFFFFFFFFFF AND DUP2 JUMP JUMPDEST PUSH1 0x0 DUP1 SLOAD SWAP1 PUSH2 0x100 EXP SWAP1 DIV PUSH20 0xFFFFFFFFFFFFFFFFFFFFFFFFFFFFFFFFFFFFFFFF AND PUSH20 0xFFFFFFFFFFFFFFFFFFFFFFFFFFFFFFFFFFFFFFFF AND CALLER PUSH20 0xFFFFFFFFFFFFFFFFFFFFFFFFFFFFFFFFFFFFFFFF AND EQ PUSH2 0x265 JUMPI PUSH1 0x40 MLOAD PUSH32 0x8C379A000000000000000000000000000000000000000000000000000000000 DUP2 MSTORE PUSH1 0x4 ADD DUP1 DUP1 PUSH1 0x20 ADD DUP3 DUP2 SUB DUP3 MSTORE PUSH1 0x21 DUP2 MSTORE PUSH1 0x20 ADD DUP1 PUSH2 0x856 PUSH1 0x21 SWAP2 CODECOPY PUSH1 0x40 ADD SWAP2 POP POP PUSH1 0x40 MLOAD DUP1 SWAP2 SUB SWAP1 REVERT JUMPDEST PUSH1 0x0 PUSH1 0x1 DUP1 SLOAD SWAP1 POP PUSH2 0x275 PUSH2 0x5B5 JUMP JUMPDEST DUP2 PUSH2 0x27C JUMPI INVALID JUMPDEST MOD SWAP1 POP PUSH1 0x0 ADDRESS SWAP1 POP PUSH1 0x1 DUP3 DUP2 SLOAD DUP2 LT PUSH2 0x291 JUMPI INVALID JUMPDEST SWAP1 PUSH1 0x0 MSTORE PUSH1 0x20 PUSH1 0x0 KECCAK256 ADD PUSH1 0x0 SWAP1 SLOAD SWAP1 PUSH2 0x100 EXP SWAP1 DIV PUSH20 0xFFFFFFFFFFFFFFFFFFFFFFFFFFFFFFFFFFFFFFFF AND PUSH20 0xFFFFFFFFFFFFFFFFFFFFFFFFFFFFFFFFFFFFFFFF AND PUSH2 0x8FC DUP3 PUSH20 0xFFFFFFFFFFFFFFFFFFFFFFFFFFFFFFFFFFFFFFFF AND BALANCE SWAP1 DUP2 ISZERO MUL SWAP1 PUSH1 0x40 MLOAD PUSH1 0x0 PUSH1 0x40 MLOAD DUP1 DUP4 SUB DUP2 DUP6 DUP9 DUP9 CALL SWAP4 POP POP POP POP ISZERO DUP1 ISZERO PUSH2 0x318 JUMPI RETURNDATASIZE PUSH1 0x0 DUP1 RETURNDATACOPY RETURNDATASIZE PUSH1 0x0 REVERT JUMPDEST POP PUSH1 0x0 PUSH8 0xFFFFFFFFFFFFFFFF DUP2 GT DUP1 ISZERO PUSH2 0x331 JUMPI PUSH1 0x0 DUP1 REVERT JUMPDEST POP PUSH1 0x40 MLOAD SWAP1 DUP1 DUP3 MSTORE DUP1 PUSH1 0x20 MUL PUSH1 0x20 ADD DUP3 ADD PUSH1 0x40 MSTORE DUP1 ISZERO PUSH2 0x360 JUMPI DUP2 PUSH1 0x20 ADD PUSH1 0x20 DUP3 MUL DUP1 CALLDATASIZE DUP4 CALLDATACOPY DUP1 DUP3 ADD SWAP2 POP POP SWAP1 POP JUMPDEST POP PUSH1 0x1 SWAP1 DUP1 MLOAD SWAP1 PUSH1 0x20 ADD SWAP1 PUSH2 0x376 SWAP3 SWAP2 SWAP1 PUSH2 0x785 JUMP JUMPDEST POP POP POP JUMP JUMPDEST PUSH1 0x0 DUP1 SLOAD SWAP1 PUSH2 0x100 EXP SWAP1 DIV PUSH20 0xFFFFFFFFFFFFFFFFFFFFFFFFFFFFFFFFFFFFFFFF AND DUP2 JUMP JUMPDEST PUSH1 0x0 DUP1 SLOAD SWAP1 PUSH2 0x100 EXP SWAP1 DIV PUSH20 0xFFFFFFFFFFFFFFFFFFFFFFFFFFFFFFFFFFFFFFFF AND PUSH20 0xFFFFFFFFFFFFFFFFFFFFFFFFFFFFFFFFFFFFFFFF AND CALLER PUSH20 0xFFFFFFFFFFFFFFFFFFFFFFFFFFFFFFFFFFFFFFFF AND EQ ISZERO PUSH2 0x444 JUMPI PUSH1 0x40 MLOAD PUSH32 0x8C379A000000000000000000000000000000000000000000000000000000000 DUP2 MSTORE PUSH1 0x4 ADD DUP1 DUP1 PUSH1 0x20 ADD DUP3 DUP2 SUB DUP3 MSTORE PUSH1 0x29 DUP2 MSTORE PUSH1 0x20 ADD DUP1 PUSH2 0x82D PUSH1 0x29 SWAP2 CODECOPY PUSH1 0x40 ADD SWAP2 POP POP PUSH1 0x40 MLOAD DUP1 SWAP2 SUB SWAP1 REVERT JUMPDEST PUSH1 0x0 ISZERO ISZERO PUSH2 0x450 PUSH2 0x6ED JUMP JUMPDEST ISZERO ISZERO EQ PUSH2 0x4A8 JUMPI PUSH1 0x40 MLOAD PUSH32 0x8C379A000000000000000000000000000000000000000000000000000000000 DUP2 MSTORE PUSH1 0x4 ADD DUP1 DUP1 PUSH1 0x20 ADD DUP3 DUP2 SUB DUP3 MSTORE PUSH1 0x2B DUP2 MSTORE PUSH1 0x20 ADD DUP1 PUSH2 0x877 PUSH1 0x2B SWAP2 CODECOPY PUSH1 0x40 ADD SWAP2 POP POP PUSH1 0x40 MLOAD DUP1 SWAP2 SUB SWAP1 REVERT JUMPDEST PUSH8 0xDE0B6B3A7640000 CALLVALUE EQ PUSH2 0x525 JUMPI PUSH1 0x40 MLOAD PUSH32 0x8C379A000000000000000000000000000000000000000000000000000000000 DUP2 MSTORE PUSH1 0x4 ADD DUP1 DUP1 PUSH1 0x20 ADD DUP3 DUP2 SUB DUP3 MSTORE PUSH1 0x20 DUP2 MSTORE PUSH1 0x20 ADD DUP1 PUSH32 0x20506C6561736520706179206D696E696D756D204C6F74746572792046656573 DUP2 MSTORE POP PUSH1 0x20 ADD SWAP2 POP POP PUSH1 0x40 MLOAD DUP1 SWAP2 SUB SWAP1 REVERT JUMPDEST JUMP JUMPDEST PUSH1 0x60 PUSH1 0x1 DUP1 SLOAD DUP1 PUSH1 0x20 MUL PUSH1 0x20 ADD PUSH1 0x40 MLOAD SWAP1 DUP2 ADD PUSH1 0x40 MSTORE DUP1 SWAP3 SWAP2 SWAP1 DUP2 DUP2 MSTORE PUSH1 0x20 ADD DUP3 DUP1 SLOAD DUP1 ISZERO PUSH2 0x5AB JUMPI PUSH1 0x20 MUL DUP3 ADD SWAP2 SWAP1 PUSH1 0x0 MSTORE PUSH1 0x20 PUSH1 0x0 KECCAK256 SWAP1 JUMPDEST DUP2 PUSH1 0x0 SWAP1 SLOAD SWAP1 PUSH2 0x100 EXP SWAP1 DIV PUSH20 0xFFFFFFFFFFFFFFFFFFFFFFFFFFFFFFFFFFFFFFFF AND PUSH20 0xFFFFFFFFFFFFFFFFFFFFFFFFFFFFFFFFFFFFFFFF AND DUP2 MSTORE PUSH1 0x20 ADD SWAP1 PUSH1 0x1 ADD SWAP1 DUP1 DUP4 GT PUSH2 0x561 JUMPI JUMPDEST POP POP POP POP POP SWAP1 POP SWAP1 JUMP JUMPDEST PUSH1 0x0 PUSH1 0x2 DIFFICULTY NUMBER PUSH1 0x1 PUSH1 0x40 MLOAD PUSH1 0x20 ADD DUP1 DUP5 DUP2 MSTORE PUSH1 0x20 ADD DUP4 DUP2 MSTORE PUSH1 0x20 ADD DUP3 DUP1 SLOAD DUP1 ISZERO PUSH2 0x634 JUMPI PUSH1 0x20 MUL DUP3 ADD SWAP2 SWAP1 PUSH1 0x0 MSTORE PUSH1 0x20 PUSH1 0x0 KECCAK256 SWAP1 JUMPDEST DUP2 PUSH1 0x0 SWAP1 SLOAD SWAP1 PUSH2 0x100 EXP SWAP1 DIV PUSH20 0xFFFFFFFFFFFFFFFFFFFFFFFFFFFFFFFFFFFFFFFF AND PUSH20 0xFFFFFFFFFFFFFFFFFFFFFFFFFFFFFFFFFFFFFFFF AND DUP2 MSTORE PUSH1 0x20 ADD SWAP1 PUSH1 0x1 ADD SWAP1 DUP1 DUP4 GT PUSH2 0x5EA JUMPI JUMPDEST POP POP SWAP4 POP POP POP POP PUSH1 0x40 MLOAD PUSH1 0x20 DUP2 DUP4 SUB SUB DUP2 MSTORE SWAP1 PUSH1 0x40 MSTORE PUSH1 0x40 MLOAD DUP1 DUP3 DUP1 MLOAD SWAP1 PUSH1 0x20 ADD SWAP1 DUP1 DUP4 DUP4 JUMPDEST PUSH1 0x20 DUP4 LT PUSH2 0x67D JUMPI DUP1 MLOAD DUP3 MSTORE PUSH1 0x20 DUP3 ADD SWAP2 POP PUSH1 0x20 DUP2 ADD SWAP1 POP PUSH1 0x20 DUP4 SUB SWAP3 POP PUSH2 0x65A JUMP JUMPDEST PUSH1 0x1 DUP4 PUSH1 0x20 SUB PUSH2 0x100 EXP SUB DUP1 NOT DUP3 MLOAD AND DUP2 DUP5 MLOAD AND DUP1 DUP3 OR DUP6 MSTORE POP POP POP POP POP POP SWAP1 POP ADD SWAP2 POP POP PUSH1 0x20 PUSH1 0x40 MLOAD DUP1 DUP4 SUB DUP2 DUP6 GAS STATICCALL ISZERO DUP1 ISZERO PUSH2 0x6BF JUMPI RETURNDATASIZE PUSH1 0x0 DUP1 RETURNDATACOPY RETURNDATASIZE PUSH1 0x0 REVERT JUMPDEST POP POP POP PUSH1 0x40 MLOAD RETURNDATASIZE PUSH1 0x20 DUP2 LT ISZERO PUSH2 0x6D4 JUMPI PUSH1 0x0 DUP1 REVERT JUMPDEST DUP2 ADD SWAP1 DUP1 DUP1 MLOAD SWAP1 PUSH1 0x20 ADD SWAP1 SWAP3 SWAP2 SWAP1 POP POP POP PUSH1 0x0 SHR SWAP1 POP SWAP1 JUMP JUMPDEST PUSH1 0x0 DUP1 PUSH1 0x0 SWAP1 POP PUSH1 0x1 DUP1 SLOAD SWAP1 POP DUP2 LT ISZERO PUSH2 0x780 JUMPI CALLER PUSH20 0xFFFFFFFFFFFFFFFFFFFFFFFFFFFFFFFFFFFFFFFF AND PUSH1 0x1 DUP3 DUP2 SLOAD DUP2 LT PUSH2 0x725 JUMPI INVALID JUMPDEST SWAP1 PUSH1 0x0 MSTORE PUSH1 0x20 PUSH1 0x0 KECCAK256 ADD PUSH1 0x0 SWAP1 SLOAD SWAP1 PUSH2 0x100 EXP SWAP1 DIV PUSH20 0xFFFFFFFFFFFFFFFFFFFFFFFFFFFFFFFFFFFFFFFF AND PUSH20 0xFFFFFFFFFFFFFFFFFFFFFFFFFFFFFFFFFFFFFFFF AND EQ ISZERO PUSH2 0x776 JUMPI PUSH1 0x1 SWAP2 POP POP PUSH2 0x782 JUMP JUMPDEST PUSH1 0x0 SWAP2 POP POP PUSH2 0x782 JUMP JUMPDEST POP JUMPDEST SWAP1 JUMP JUMPDEST DUP3 DUP1 SLOAD DUP3 DUP3 SSTORE SWAP1 PUSH1 0x0 MSTORE PUSH1 0x20 PUSH1 0x0 KECCAK256 SWAP1 DUP2 ADD SWAP3 DUP3 ISZERO PUSH2 0x7FE JUMPI SWAP2 PUSH1 0x20 MUL DUP3 ADD JUMPDEST DUP3 DUP2 GT ISZERO PUSH2 0x7FD JUMPI DUP3 MLOAD DUP3 PUSH1 0x0 PUSH2 0x100 EXP DUP2 SLOAD DUP2 PUSH20 0xFFFFFFFFFFFFFFFFFFFFFFFFFFFFFFFFFFFFFFFF MUL NOT AND SWAP1 DUP4 PUSH20 0xFFFFFFFFFFFFFFFFFFFFFFFFFFFFFFFFFFFFFFFF AND MUL OR SWAP1 SSTORE POP SWAP2 PUSH1 0x20 ADD SWAP2 SWAP1 PUSH1 0x1 ADD SWAP1 PUSH2 0x7A5 JUMP JUMPDEST JUMPDEST POP SWAP1 POP PUSH2 0x80B SWAP2 SWAP1 PUSH2 0x80F JUMP JUMPDEST POP SWAP1 JUMP JUMPDEST JUMPDEST DUP1 DUP3 GT ISZERO PUSH2 0x828 JUMPI PUSH1 0x0 DUP2 PUSH1 0x0 SWAP1 SSTORE POP PUSH1 0x1 ADD PUSH2 0x810 JUMP JUMPDEST POP SWAP1 JUMP INVALID KECCAK256 0x4D PUSH2 0x6E61 PUSH8 0x65722063616E206E PUSH16 0x742074616B65207061727420696E2074 PUSH9 0x65204C6F7474657279 KECCAK256 PUSH16 0x6E6C79206D616E616765722063616E20 PUSH17 0x69636B207468652077696E6E6572205061 PUSH13 0x796572732063616E206E6F7420 PUSH21 0x616B65207061727420616761696E20696E204C6F74 PUSH21 0x657279A2646970667358221220E8A298B71BBFE130 EXP DUP16 0xC2 PUSH5 0x76C7A4F343 DIFFICULTY CODESIZE COINBASE DIFFICULTY 0xBB 0xE1 PUSH27 0x4D89B42B235CE37B64736F6C634300070600330000000000000000 "
				},
				"gasEstimates": {
					"creation": {
						"codeDepositCost": "452600",
						"executionCost": "21352",
						"totalCost": "473952"
					},
					"external": {
						"Manager()": "1066",
						"Players(uint256)": "1989",
						"enter()": "infinite",
						"getplayers()": "infinite",
						"pickwinner()": "infinite"
					},
					"internal": {
						"alreadyentered()": "2637",
						"randomnumber()": "infinite"
					}
				},
				"methodIdentifiers": {
					"Manager()": "78357e53",
					"Players(uint256)": "48ef3f03",
					"enter()": "e97dcb62",
					"getplayers()": "ecb3db52",
					"pickwinner()": "71b80060"
				}
			},
			"storageLayout": {
				"storage": [
					{
						"astId": 3,
						"contract": "artifacts/Lalit/Lottery.sol:Lottery",
						"label": "Manager",
						"offset": 0,
						"slot": "0",
						"type": "t_address"
					},
					{
						"astId": 6,
						"contract": "artifacts/Lalit/Lottery.sol:Lottery",
						"label": "Players",
						"offset": 0,
						"slot": "1",
						"type": "t_array(t_address_payable)dyn_storage"
					}
				],
				"types": {
					"t_address": {
						"encoding": "inplace",
						"label": "address",
						"numberOfBytes": "20"
					},
					"t_address_payable": {
						"encoding": "inplace",
						"label": "address payable",
						"numberOfBytes": "20"
					},
					"t_array(t_address_payable)dyn_storage": {
						"base": "t_address_payable",
						"encoding": "dynamic_array",
						"label": "address payable[]",
						"numberOfBytes": "32"
					}
				}
			},
			"userdoc": {
				"kind": "user",
				"methods": {},
				"version": 1
			}
		}
	}
}