{
	"artifacts/Lalit/payable.sol": {
		"Payable": {
			"abi": [
				{
					"inputs": [],
					"name": "getEth",
					"outputs": [],
					"stateMutability": "payable",
					"type": "function"
				},
				{
					"inputs": [],
					"name": "getwbal",
					"outputs": [
						{
							"internalType": "uint256",
							"name": "",
							"type": "uint256"
						}
					],
					"stateMutability": "view",
					"type": "function"
				},
				{
					"inputs": [],
					"name": "owner",
					"outputs": [
						{
							"internalType": "address payable",
							"name": "",
							"type": "address"
						}
					],
					"stateMutability": "view",
					"type": "function"
				}
			],
			"devdoc": {
				"kind": "dev",
				"methods": {},
				"version": 1
			},
			"evm": {
				"assembly": "    /* \"artifacts/Lalit/payable.sol\":344:962  contract Payable{... */\n  mstore(0x40, 0x80)\n    /* \"artifacts/Lalit/payable.sol\":509:519  msg.sender */\n  caller\n    /* \"artifacts/Lalit/payable.sol\":470:520  address payable public owner= payable (msg.sender) */\n  0x00\n  dup1\n  0x0100\n  exp\n  dup2\n  sload\n  dup2\n  0xffffffffffffffffffffffffffffffffffffffff\n  mul\n  not\n  and\n  swap1\n  dup4\n  0xffffffffffffffffffffffffffffffffffffffff\n  and\n  mul\n  or\n  swap1\n  sstore\n  pop\n    /* \"artifacts/Lalit/payable.sol\":344:962  contract Payable{... */\n  callvalue\n  dup1\n  iszero\n  tag_1\n  jumpi\n  0x00\n  dup1\n  revert\ntag_1:\n  pop\n  dataSize(sub_0)\n  dup1\n  dataOffset(sub_0)\n  0x00\n  codecopy\n  0x00\n  return\nstop\n\nsub_0: assembly {\n        /* \"artifacts/Lalit/payable.sol\":344:962  contract Payable{... */\n      mstore(0x40, 0x80)\n      jumpi(tag_1, lt(calldatasize, 0x04))\n      shr(0xe0, calldataload(0x00))\n      dup1\n      0x23db5897\n      eq\n      tag_2\n      jumpi\n      dup1\n      0x8da5cb5b\n      eq\n      tag_3\n      jumpi\n      dup1\n      0xcb05b93e\n      eq\n      tag_4\n      jumpi\n    tag_1:\n      0x00\n      dup1\n      revert\n        /* \"artifacts/Lalit/payable.sol\":642:721  function getwbal() public view returns( uint){... */\n    tag_2:\n      callvalue\n      dup1\n      iszero\n      tag_5\n      jumpi\n      0x00\n      dup1\n      revert\n    tag_5:\n      pop\n      tag_6\n      tag_7\n      jump\t// in\n    tag_6:\n      mload(0x40)\n      dup1\n      dup3\n      dup2\n      mstore\n      0x20\n      add\n      swap2\n      pop\n      pop\n      mload(0x40)\n      dup1\n      swap2\n      sub\n      swap1\n      return\n        /* \"artifacts/Lalit/payable.sol\":470:520  address payable public owner= payable (msg.sender) */\n    tag_3:\n      callvalue\n      dup1\n      iszero\n      tag_8\n      jumpi\n      0x00\n      dup1\n      revert\n    tag_8:\n      pop\n      tag_9\n      tag_10\n      jump\t// in\n    tag_9:\n      mload(0x40)\n      dup1\n      dup3\n      0xffffffffffffffffffffffffffffffffffffffff\n      and\n      dup2\n      mstore\n      0x20\n      add\n      swap2\n      pop\n      pop\n      mload(0x40)\n      dup1\n      swap2\n      sub\n      swap1\n      return\n        /* \"artifacts/Lalit/payable.sol\":523:639  function getEth() public payable{       // is function ko view, pure nahi bna skte, kyoki ether add kar rhe hai.... */\n    tag_4:\n      tag_11\n      tag_12\n      jump\t// in\n    tag_11:\n      stop\n        /* \"artifacts/Lalit/payable.sol\":642:721  function getwbal() public view returns( uint){... */\n    tag_7:\n        /* \"artifacts/Lalit/payable.sol\":682:686  uint */\n      0x00\n        /* \"artifacts/Lalit/payable.sol\":696:717  address(this).balance */\n      selfbalance\n        /* \"artifacts/Lalit/payable.sol\":689:717  return address(this).balance */\n      swap1\n      pop\n        /* \"artifacts/Lalit/payable.sol\":642:721  function getwbal() public view returns( uint){... */\n      swap1\n      jump\t// out\n        /* \"artifacts/Lalit/payable.sol\":470:520  address payable public owner= payable (msg.sender) */\n    tag_10:\n      0x00\n      dup1\n      sload\n      swap1\n      0x0100\n      exp\n      swap1\n      div\n      0xffffffffffffffffffffffffffffffffffffffff\n      and\n      dup2\n      jump\t// out\n        /* \"artifacts/Lalit/payable.sol\":523:639  function getEth() public payable{       // is function ko view, pure nahi bna skte, kyoki ether add kar rhe hai.... */\n    tag_12:\n      jump\t// out\n\n    auxdata: 0xa2646970667358221220121e3f2db72841650ceb431a8d7640c74537bfa22ec246232052f82ca74f7d9d64736f6c63430007060033\n}\n",
				"bytecode": {
					"linkReferences": {},
					"object": "6080604052336000806101000a81548173ffffffffffffffffffffffffffffffffffffffff021916908373ffffffffffffffffffffffffffffffffffffffff16021790555034801561005057600080fd5b50610107806100606000396000f3fe60806040526004361060305760003560e01c806323db58971460355780638da5cb5b14605d578063cb05b93e14609b575b600080fd5b348015604057600080fd5b50604760a3565b6040518082815260200191505060405180910390f35b348015606857600080fd5b50606f60ab565b604051808273ffffffffffffffffffffffffffffffffffffffff16815260200191505060405180910390f35b60a160cf565b005b600047905090565b60008054906101000a900473ffffffffffffffffffffffffffffffffffffffff1681565b56fea2646970667358221220121e3f2db72841650ceb431a8d7640c74537bfa22ec246232052f82ca74f7d9d64736f6c63430007060033",
					"opcodes": "PUSH1 0x80 PUSH1 0x40 MSTORE CALLER PUSH1 0x0 DUP1 PUSH2 0x100 EXP DUP2 SLOAD DUP2 PUSH20 0xFFFFFFFFFFFFFFFFFFFFFFFFFFFFFFFFFFFFFFFF MUL NOT AND SWAP1 DUP4 PUSH20 0xFFFFFFFFFFFFFFFFFFFFFFFFFFFFFFFFFFFFFFFF AND MUL OR SWAP1 SSTORE POP CALLVALUE DUP1 ISZERO PUSH2 0x50 JUMPI PUSH1 0x0 DUP1 REVERT JUMPDEST POP PUSH2 0x107 DUP1 PUSH2 0x60 PUSH1 0x0 CODECOPY PUSH1 0x0 RETURN INVALID PUSH1 0x80 PUSH1 0x40 MSTORE PUSH1 0x4 CALLDATASIZE LT PUSH1 0x30 JUMPI PUSH1 0x0 CALLDATALOAD PUSH1 0xE0 SHR DUP1 PUSH4 0x23DB5897 EQ PUSH1 0x35 JUMPI DUP1 PUSH4 0x8DA5CB5B EQ PUSH1 0x5D JUMPI DUP1 PUSH4 0xCB05B93E EQ PUSH1 0x9B JUMPI JUMPDEST PUSH1 0x0 DUP1 REVERT JUMPDEST CALLVALUE DUP1 ISZERO PUSH1 0x40 JUMPI PUSH1 0x0 DUP1 REVERT JUMPDEST POP PUSH1 0x47 PUSH1 0xA3 JUMP JUMPDEST PUSH1 0x40 MLOAD DUP1 DUP3 DUP2 MSTORE PUSH1 0x20 ADD SWAP2 POP POP PUSH1 0x40 MLOAD DUP1 SWAP2 SUB SWAP1 RETURN JUMPDEST CALLVALUE DUP1 ISZERO PUSH1 0x68 JUMPI PUSH1 0x0 DUP1 REVERT JUMPDEST POP PUSH1 0x6F PUSH1 0xAB JUMP JUMPDEST PUSH1 0x40 MLOAD DUP1 DUP3 PUSH20 0xFFFFFFFFFFFFFFFFFFFFFFFFFFFFFFFFFFFFFFFF AND DUP2 MSTORE PUSH1 0x20 ADD SWAP2 POP POP PUSH1 0x40 MLOAD DUP1 SWAP2 SUB SWAP1 RETURN JUMPDEST PUSH1 0xA1 PUSH1 0xCF JUMP JUMPDEST STOP JUMPDEST PUSH1 0x0 SELFBALANCE SWAP1 POP SWAP1 JUMP JUMPDEST PUSH1 0x0 DUP1 SLOAD SWAP1 PUSH2 0x100 EXP SWAP1 DIV PUSH20 0xFFFFFFFFFFFFFFFFFFFFFFFFFFFFFFFFFFFFFFFF AND DUP2 JUMP JUMPDEST JUMP INVALID LOG2 PUSH5 0x6970667358 0x22 SLT KECCAK256 SLT 0x1E EXTCODEHASH 0x2D 0xB7 0x28 COINBASE PUSH6 0xCEB431A8D76 BLOCKHASH 0xC7 GASLIMIT CALLDATACOPY 0xBF LOG2 0x2E 0xC2 CHAINID 0x23 KECCAK256 MSTORE 0xF8 0x2C 0xA7 0x4F PUSH30 0x9D64736F6C63430007060033000000000000000000000000000000000000 "
				},
				"gasEstimates": {
					"creation": {
						"codeDepositCost": "52600",
						"executionCost": "20971",
						"totalCost": "73571"
					},
					"external": {
						"getEth()": "142",
						"getwbal()": "193",
						"owner()": "1044"
					}
				},
				"methodIdentifiers": {
					"getEth()": "cb05b93e",
					"getwbal()": "23db5897",
					"owner()": "8da5cb5b"
				}
			},
			"storageLayout": {
				"storage": [
					{
						"astId": 8,
						"contract": "artifacts/Lalit/payable.sol:Payable",
						"label": "owner",
						"offset": 0,
						"slot": "0",
						"type": "t_address_payable"
					}
				],
				"types": {
					"t_address_payable": {
						"encoding": "inplace",
						"label": "address payable",
						"numberOfBytes": "20"
					}
				}
			},
			"userdoc": {
				"kind": "user",
				"methods": {},
				"version": 1
			}
		}
	}
}