{
	"artifacts/Lalit/now.sol": {
		"Timer": {
			"abi": [
				{
					"inputs": [
						{
							"internalType": "uint256",
							"name": "Totaltime",
							"type": "uint256"
						}
					],
					"name": "end",
					"outputs": [],
					"stateMutability": "nonpayable",
					"type": "function"
				},
				{
					"inputs": [],
					"name": "gettime",
					"outputs": [
						{
							"internalType": "uint256",
							"name": "",
							"type": "uint256"
						}
					],
					"stateMutability": "view",
					"type": "function"
				},
				{
					"inputs": [],
					"name": "start",
					"outputs": [],
					"stateMutability": "nonpayable",
					"type": "function"
				}
			],
			"devdoc": {
				"kind": "dev",
				"methods": {},
				"version": 1
			},
			"evm": {
				"assembly": "    /* \"artifacts/Lalit/now.sol\":70:326  contract Timer{... */\n  mstore(0x40, 0x80)\n  callvalue\n  dup1\n  iszero\n  tag_1\n  jumpi\n  0x00\n  dup1\n  revert\ntag_1:\n  pop\n  dataSize(sub_0)\n  dup1\n  dataOffset(sub_0)\n  0x00\n  codecopy\n  0x00\n  return\nstop\n\nsub_0: assembly {\n        /* \"artifacts/Lalit/now.sol\":70:326  contract Timer{... */\n      mstore(0x40, 0x80)\n      callvalue\n      dup1\n      iszero\n      tag_1\n      jumpi\n      0x00\n      dup1\n      revert\n    tag_1:\n      pop\n      jumpi(tag_2, lt(calldatasize, 0x04))\n      shr(0xe0, calldataload(0x00))\n      dup1\n      0x0ad24528\n      eq\n      tag_3\n      jumpi\n      dup1\n      0x16d061a5\n      eq\n      tag_4\n      jumpi\n      dup1\n      0xbe9a6555\n      eq\n      tag_5\n      jumpi\n    tag_2:\n      0x00\n      dup1\n      revert\n        /* \"artifacts/Lalit/now.sol\":183:250  function end(uint Totaltime) public{... */\n    tag_3:\n      tag_6\n      0x04\n      dup1\n      calldatasize\n      sub\n      0x20\n      dup2\n      lt\n      iszero\n      tag_7\n      jumpi\n      0x00\n      dup1\n      revert\n    tag_7:\n      dup2\n      add\n      swap1\n      dup1\n      dup1\n      calldataload\n      swap1\n      0x20\n      add\n      swap1\n      swap3\n      swap2\n      swap1\n      pop\n      pop\n      pop\n      tag_8\n      jump\t// in\n    tag_6:\n      stop\n        /* \"artifacts/Lalit/now.sol\":252:323  function gettime() public view returns(uint){... */\n    tag_4:\n      tag_9\n      tag_10\n      jump\t// in\n    tag_9:\n      mload(0x40)\n      dup1\n      dup3\n      dup2\n      mstore\n      0x20\n      add\n      swap2\n      pop\n      pop\n      mload(0x40)\n      dup1\n      swap2\n      sub\n      swap1\n      return\n        /* \"artifacts/Lalit/now.sol\":124:182  function start() public{... */\n    tag_5:\n      tag_11\n      tag_12\n      jump\t// in\n    tag_11:\n      stop\n        /* \"artifacts/Lalit/now.sol\":183:250  function end(uint Totaltime) public{... */\n    tag_8:\n        /* \"artifacts/Lalit/now.sol\":240:246  _start */\n      sload(0x00)\n        /* \"artifacts/Lalit/now.sol\":230:239  Totaltime */\n      dup2\n        /* \"artifacts/Lalit/now.sol\":230:246  Totaltime+_start */\n      add\n        /* \"artifacts/Lalit/now.sol\":224:228  _end */\n      0x01\n        /* \"artifacts/Lalit/now.sol\":224:246  _end= Totaltime+_start */\n      dup2\n      swap1\n      sstore\n      pop\n        /* \"artifacts/Lalit/now.sol\":183:250  function end(uint Totaltime) public{... */\n      pop\n      jump\t// out\n        /* \"artifacts/Lalit/now.sol\":252:323  function gettime() public view returns(uint){... */\n    tag_10:\n        /* \"artifacts/Lalit/now.sol\":291:295  uint */\n      0x00\n        /* \"artifacts/Lalit/now.sol\":314:320  _start */\n      dup1\n      sload\n        /* \"artifacts/Lalit/now.sol\":309:313  _end */\n      sload(0x01)\n        /* \"artifacts/Lalit/now.sol\":309:320  _end-_start */\n      sub\n        /* \"artifacts/Lalit/now.sol\":302:320  return _end-_start */\n      swap1\n      pop\n        /* \"artifacts/Lalit/now.sol\":252:323  function gettime() public view returns(uint){... */\n      swap1\n      jump\t// out\n        /* \"artifacts/Lalit/now.sol\":124:182  function start() public{... */\n    tag_12:\n        /* \"artifacts/Lalit/now.sol\":160:175  block.timestamp */\n      timestamp\n        /* \"artifacts/Lalit/now.sol\":152:158  _start */\n      0x00\n        /* \"artifacts/Lalit/now.sol\":152:175  _start= block.timestamp */\n      dup2\n      swap1\n      sstore\n      pop\n        /* \"artifacts/Lalit/now.sol\":124:182  function start() public{... */\n      jump\t// out\n\n    auxdata: 0xa2646970667358221220b0e1992dd8daec9d4d6afa555a948b6f4a2a932cc04491bc9c3914fe0f3d576664736f6c63430007060033\n}\n",
				"bytecode": {
					"linkReferences": {},
					"object": "608060405234801561001057600080fd5b5060ea8061001f6000396000f3fe6080604052348015600f57600080fd5b5060043610603c5760003560e01c80630ad2452814604157806316d061a514606c578063be9a6555146088575b600080fd5b606a60048036036020811015605557600080fd5b81019080803590602001909291905050506090565b005b6072609e565b6040518082815260200191505060405180910390f35b608e60ab565b005b600054810160018190555050565b6000805460015403905090565b4260008190555056fea2646970667358221220b0e1992dd8daec9d4d6afa555a948b6f4a2a932cc04491bc9c3914fe0f3d576664736f6c63430007060033",
					"opcodes": "PUSH1 0x80 PUSH1 0x40 MSTORE CALLVALUE DUP1 ISZERO PUSH2 0x10 JUMPI PUSH1 0x0 DUP1 REVERT JUMPDEST POP PUSH1 0xEA DUP1 PUSH2 0x1F PUSH1 0x0 CODECOPY PUSH1 0x0 RETURN INVALID PUSH1 0x80 PUSH1 0x40 MSTORE CALLVALUE DUP1 ISZERO PUSH1 0xF JUMPI PUSH1 0x0 DUP1 REVERT JUMPDEST POP PUSH1 0x4 CALLDATASIZE LT PUSH1 0x3C JUMPI PUSH1 0x0 CALLDATALOAD PUSH1 0xE0 SHR DUP1 PUSH4 0xAD24528 EQ PUSH1 0x41 JUMPI DUP1 PUSH4 0x16D061A5 EQ PUSH1 0x6C JUMPI DUP1 PUSH4 0xBE9A6555 EQ PUSH1 0x88 JUMPI JUMPDEST PUSH1 0x0 DUP1 REVERT JUMPDEST PUSH1 0x6A PUSH1 0x4 DUP1 CALLDATASIZE SUB PUSH1 0x20 DUP2 LT ISZERO PUSH1 0x55 JUMPI PUSH1 0x0 DUP1 REVERT JUMPDEST DUP2 ADD SWAP1 DUP1 DUP1 CALLDATALOAD SWAP1 PUSH1 0x20 ADD SWAP1 SWAP3 SWAP2 SWAP1 POP POP POP PUSH1 0x90 JUMP JUMPDEST STOP JUMPDEST PUSH1 0x72 PUSH1 0x9E JUMP JUMPDEST PUSH1 0x40 MLOAD DUP1 DUP3 DUP2 MSTORE PUSH1 0x20 ADD SWAP2 POP POP PUSH1 0x40 MLOAD DUP1 SWAP2 SUB SWAP1 RETURN JUMPDEST PUSH1 0x8E PUSH1 0xAB JUMP JUMPDEST STOP JUMPDEST PUSH1 0x0 SLOAD DUP2 ADD PUSH1 0x1 DUP2 SWAP1 SSTORE POP POP JUMP JUMPDEST PUSH1 0x0 DUP1 SLOAD PUSH1 0x1 SLOAD SUB SWAP1 POP SWAP1 JUMP JUMPDEST TIMESTAMP PUSH1 0x0 DUP2 SWAP1 SSTORE POP JUMP INVALID LOG2 PUSH5 0x6970667358 0x22 SLT KECCAK256 0xB0 0xE1 SWAP10 0x2D 0xD8 0xDA 0xEC SWAP14 0x4D PUSH11 0xFA555A948B6F4A2A932CC0 DIFFICULTY SWAP2 0xBC SWAP13 CODECOPY EQ INVALID 0xF RETURNDATASIZE JUMPI PUSH7 0x64736F6C634300 SMOD MOD STOP CALLER "
				},
				"gasEstimates": {
					"creation": {
						"codeDepositCost": "46800",
						"executionCost": "99",
						"totalCost": "46899"
					},
					"external": {
						"end(uint256)": "21026",
						"gettime()": "1819",
						"start()": "20179"
					}
				},
				"methodIdentifiers": {
					"end(uint256)": "0ad24528",
					"gettime()": "16d061a5",
					"start()": "be9a6555"
				}
			},
			"storageLayout": {
				"storage": [
					{
						"astId": 3,
						"contract": "artifacts/Lalit/now.sol:Timer",
						"label": "_start",
						"offset": 0,
						"slot": "0",
						"type": "t_uint256"
					},
					{
						"astId": 5,
						"contract": "artifacts/Lalit/now.sol:Timer",
						"label": "_end",
						"offset": 0,
						"slot": "1",
						"type": "t_uint256"
					}
				],
				"types": {
					"t_uint256": {
						"encoding": "inplace",
						"label": "uint256",
						"numberOfBytes": "32"
					}
				}
			},
			"userdoc": {
				"kind": "user",
				"methods": {},
				"version": 1
			}
		}
	}
}