{
	"artifacts/Lalit/Restricted Access.sol": {
		"Test": {
			"abi": [
				{
					"inputs": [
						{
							"internalType": "address",
							"name": "_newOwner",
							"type": "address"
						}
					],
					"name": "changeOwner",
					"outputs": [],
					"stateMutability": "nonpayable",
					"type": "function"
				},
				{
					"inputs": [],
					"name": "creationTime",
					"outputs": [
						{
							"internalType": "uint256",
							"name": "",
							"type": "uint256"
						}
					],
					"stateMutability": "view",
					"type": "function"
				},
				{
					"inputs": [],
					"name": "owner",
					"outputs": [
						{
							"internalType": "address",
							"name": "",
							"type": "address"
						}
					],
					"stateMutability": "view",
					"type": "function"
				}
			],
			"devdoc": {
				"kind": "dev",
				"methods": {},
				"version": 1
			},
			"evm": {
				"assembly": "    /* \"artifacts/Lalit/Restricted Access.sol\":698:1041  contract Test {... */\n  mstore(0x40, 0x80)\n    /* \"artifacts/Lalit/Restricted Access.sol\":740:750  msg.sender */\n  caller\n    /* \"artifacts/Lalit/Restricted Access.sol\":717:750  address public owner = msg.sender */\n  0x00\n  dup1\n  0x0100\n  exp\n  dup2\n  sload\n  dup2\n  0xffffffffffffffffffffffffffffffffffffffff\n  mul\n  not\n  and\n  swap1\n  dup4\n  0xffffffffffffffffffffffffffffffffffffffff\n  and\n  mul\n  or\n  swap1\n  sstore\n  pop\n    /* \"artifacts/Lalit/Restricted Access.sol\":782:797  block.timestamp */\n  timestamp\n    /* \"artifacts/Lalit/Restricted Access.sol\":755:797  uint public creationTime = block.timestamp */\n  0x01\n  sstore\n    /* \"artifacts/Lalit/Restricted Access.sol\":698:1041  contract Test {... */\n  callvalue\n  dup1\n  iszero\n  tag_1\n  jumpi\n  0x00\n  dup1\n  revert\ntag_1:\n  pop\n  dataSize(sub_0)\n  dup1\n  dataOffset(sub_0)\n  0x00\n  codecopy\n  0x00\n  return\nstop\n\nsub_0: assembly {\n        /* \"artifacts/Lalit/Restricted Access.sol\":698:1041  contract Test {... */\n      mstore(0x40, 0x80)\n      callvalue\n      dup1\n      iszero\n      tag_1\n      jumpi\n      0x00\n      dup1\n      revert\n    tag_1:\n      pop\n      jumpi(tag_2, lt(calldatasize, 0x04))\n      shr(0xe0, calldataload(0x00))\n      dup1\n      0x8da5cb5b\n      eq\n      tag_3\n      jumpi\n      dup1\n      0xa6f9dae1\n      eq\n      tag_4\n      jumpi\n      dup1\n      0xd8270dce\n      eq\n      tag_5\n      jumpi\n    tag_2:\n      0x00\n      dup1\n      revert\n        /* \"artifacts/Lalit/Restricted Access.sol\":717:750  address public owner = msg.sender */\n    tag_3:\n      tag_6\n      tag_7\n      jump\t// in\n    tag_6:\n      mload(0x40)\n      tag_8\n      swap2\n      swap1\n      tag_9\n      jump\t// in\n    tag_8:\n      mload(0x40)\n      dup1\n      swap2\n      sub\n      swap1\n      return\n        /* \"artifacts/Lalit/Restricted Access.sol\":947:1039  function changeOwner(address _newOwner) public onlyBy(owner) {... */\n    tag_4:\n      tag_10\n      0x04\n      dup1\n      calldatasize\n      sub\n      dup2\n      add\n      swap1\n      tag_11\n      swap2\n      swap1\n      tag_12\n      jump\t// in\n    tag_11:\n      tag_13\n      jump\t// in\n    tag_10:\n      stop\n        /* \"artifacts/Lalit/Restricted Access.sol\":755:797  uint public creationTime = block.timestamp */\n    tag_5:\n      tag_14\n      tag_15\n      jump\t// in\n    tag_14:\n      mload(0x40)\n      tag_16\n      swap2\n      swap1\n      tag_17\n      jump\t// in\n    tag_16:\n      mload(0x40)\n      dup1\n      swap2\n      sub\n      swap1\n      return\n        /* \"artifacts/Lalit/Restricted Access.sol\":717:750  address public owner = msg.sender */\n    tag_7:\n      0x00\n      dup1\n      sload\n      swap1\n      0x0100\n      exp\n      swap1\n      div\n      0xffffffffffffffffffffffffffffffffffffffff\n      and\n      dup2\n      jump\t// out\n        /* \"artifacts/Lalit/Restricted Access.sol\":947:1039  function changeOwner(address _newOwner) public onlyBy(owner) {... */\n    tag_13:\n        /* \"artifacts/Lalit/Restricted Access.sol\":1001:1006  owner */\n      0x00\n      dup1\n      sload\n      swap1\n      0x0100\n      exp\n      swap1\n      div\n      0xffffffffffffffffffffffffffffffffffffffff\n      and\n        /* \"artifacts/Lalit/Restricted Access.sol\":877:885  _account */\n      dup1\n        /* \"artifacts/Lalit/Restricted Access.sol\":863:885  msg.sender == _account */\n      0xffffffffffffffffffffffffffffffffffffffff\n      and\n        /* \"artifacts/Lalit/Restricted Access.sol\":863:873  msg.sender */\n      caller\n        /* \"artifacts/Lalit/Restricted Access.sol\":863:885  msg.sender == _account */\n      0xffffffffffffffffffffffffffffffffffffffff\n      and\n      eq\n        /* \"artifacts/Lalit/Restricted Access.sol\":845:928  require(... */\n      tag_19\n      jumpi\n      mload(0x40)\n      0x08c379a000000000000000000000000000000000000000000000000000000000\n      dup2\n      mstore\n      0x04\n      add\n      tag_20\n      swap1\n      tag_21\n      jump\t// in\n    tag_20:\n      mload(0x40)\n      dup1\n      swap2\n      sub\n      swap1\n      revert\n    tag_19:\n        /* \"artifacts/Lalit/Restricted Access.sol\":1024:1033  _newOwner */\n      dup2\n        /* \"artifacts/Lalit/Restricted Access.sol\":1016:1021  owner */\n      0x00\n      dup1\n        /* \"artifacts/Lalit/Restricted Access.sol\":1016:1033  owner = _newOwner */\n      0x0100\n      exp\n      dup2\n      sload\n      dup2\n      0xffffffffffffffffffffffffffffffffffffffff\n      mul\n      not\n      and\n      swap1\n      dup4\n      0xffffffffffffffffffffffffffffffffffffffff\n      and\n      mul\n      or\n      swap1\n      sstore\n      pop\n        /* \"artifacts/Lalit/Restricted Access.sol\":947:1039  function changeOwner(address _newOwner) public onlyBy(owner) {... */\n      pop\n      pop\n      jump\t// out\n        /* \"artifacts/Lalit/Restricted Access.sol\":755:797  uint public creationTime = block.timestamp */\n    tag_15:\n      sload(0x01)\n      dup2\n      jump\t// out\n        /* \"#utility.yul\":7:146   */\n    tag_24:\n        /* \"#utility.yul\":53:58   */\n      0x00\n        /* \"#utility.yul\":91:97   */\n      dup2\n        /* \"#utility.yul\":78:98   */\n      calldataload\n        /* \"#utility.yul\":69:98   */\n      swap1\n      pop\n        /* \"#utility.yul\":107:140   */\n      tag_26\n        /* \"#utility.yul\":134:139   */\n      dup2\n        /* \"#utility.yul\":107:140   */\n      tag_27\n      jump\t// in\n    tag_26:\n        /* \"#utility.yul\":7:146   */\n      swap3\n      swap2\n      pop\n      pop\n      jump\t// out\n        /* \"#utility.yul\":152:481   */\n    tag_12:\n        /* \"#utility.yul\":211:217   */\n      0x00\n        /* \"#utility.yul\":260:262   */\n      0x20\n        /* \"#utility.yul\":248:257   */\n      dup3\n        /* \"#utility.yul\":239:246   */\n      dup5\n        /* \"#utility.yul\":235:258   */\n      sub\n        /* \"#utility.yul\":231:263   */\n      slt\n        /* \"#utility.yul\":228:347   */\n      iszero\n      tag_29\n      jumpi\n        /* \"#utility.yul\":266:345   */\n      tag_30\n      tag_31\n      jump\t// in\n    tag_30:\n        /* \"#utility.yul\":228:347   */\n    tag_29:\n        /* \"#utility.yul\":386:387   */\n      0x00\n        /* \"#utility.yul\":411:464   */\n      tag_32\n        /* \"#utility.yul\":456:463   */\n      dup5\n        /* \"#utility.yul\":447:453   */\n      dup3\n        /* \"#utility.yul\":436:445   */\n      dup6\n        /* \"#utility.yul\":432:454   */\n      add\n        /* \"#utility.yul\":411:464   */\n      tag_24\n      jump\t// in\n    tag_32:\n        /* \"#utility.yul\":401:464   */\n      swap2\n      pop\n        /* \"#utility.yul\":357:474   */\n      pop\n        /* \"#utility.yul\":152:481   */\n      swap3\n      swap2\n      pop\n      pop\n      jump\t// out\n        /* \"#utility.yul\":487:605   */\n    tag_33:\n        /* \"#utility.yul\":574:598   */\n      tag_35\n        /* \"#utility.yul\":592:597   */\n      dup2\n        /* \"#utility.yul\":574:598   */\n      tag_36\n      jump\t// in\n    tag_35:\n        /* \"#utility.yul\":569:572   */\n      dup3\n        /* \"#utility.yul\":562:599   */\n      mstore\n        /* \"#utility.yul\":487:605   */\n      pop\n      pop\n      jump\t// out\n        /* \"#utility.yul\":611:977   */\n    tag_37:\n        /* \"#utility.yul\":753:756   */\n      0x00\n        /* \"#utility.yul\":774:841   */\n      tag_39\n        /* \"#utility.yul\":838:840   */\n      0x16\n        /* \"#utility.yul\":833:836   */\n      dup4\n        /* \"#utility.yul\":774:841   */\n      tag_40\n      jump\t// in\n    tag_39:\n        /* \"#utility.yul\":767:841   */\n      swap2\n      pop\n        /* \"#utility.yul\":850:943   */\n      tag_41\n        /* \"#utility.yul\":939:942   */\n      dup3\n        /* \"#utility.yul\":850:943   */\n      tag_42\n      jump\t// in\n    tag_41:\n        /* \"#utility.yul\":968:970   */\n      0x20\n        /* \"#utility.yul\":963:966   */\n      dup3\n        /* \"#utility.yul\":959:971   */\n      add\n        /* \"#utility.yul\":952:971   */\n      swap1\n      pop\n        /* \"#utility.yul\":611:977   */\n      swap2\n      swap1\n      pop\n      jump\t// out\n        /* \"#utility.yul\":983:1101   */\n    tag_43:\n        /* \"#utility.yul\":1070:1094   */\n      tag_45\n        /* \"#utility.yul\":1088:1093   */\n      dup2\n        /* \"#utility.yul\":1070:1094   */\n      tag_46\n      jump\t// in\n    tag_45:\n        /* \"#utility.yul\":1065:1068   */\n      dup3\n        /* \"#utility.yul\":1058:1095   */\n      mstore\n        /* \"#utility.yul\":983:1101   */\n      pop\n      pop\n      jump\t// out\n        /* \"#utility.yul\":1107:1329   */\n    tag_9:\n        /* \"#utility.yul\":1200:1204   */\n      0x00\n        /* \"#utility.yul\":1238:1240   */\n      0x20\n        /* \"#utility.yul\":1227:1236   */\n      dup3\n        /* \"#utility.yul\":1223:1241   */\n      add\n        /* \"#utility.yul\":1215:1241   */\n      swap1\n      pop\n        /* \"#utility.yul\":1251:1322   */\n      tag_48\n        /* \"#utility.yul\":1319:1320   */\n      0x00\n        /* \"#utility.yul\":1308:1317   */\n      dup4\n        /* \"#utility.yul\":1304:1321   */\n      add\n        /* \"#utility.yul\":1295:1301   */\n      dup5\n        /* \"#utility.yul\":1251:1322   */\n      tag_33\n      jump\t// in\n    tag_48:\n        /* \"#utility.yul\":1107:1329   */\n      swap3\n      swap2\n      pop\n      pop\n      jump\t// out\n        /* \"#utility.yul\":1335:1754   */\n    tag_21:\n        /* \"#utility.yul\":1501:1505   */\n      0x00\n        /* \"#utility.yul\":1539:1541   */\n      0x20\n        /* \"#utility.yul\":1528:1537   */\n      dup3\n        /* \"#utility.yul\":1524:1542   */\n      add\n        /* \"#utility.yul\":1516:1542   */\n      swap1\n      pop\n        /* \"#utility.yul\":1588:1597   */\n      dup2\n        /* \"#utility.yul\":1582:1586   */\n      dup2\n        /* \"#utility.yul\":1578:1598   */\n      sub\n        /* \"#utility.yul\":1574:1575   */\n      0x00\n        /* \"#utility.yul\":1563:1572   */\n      dup4\n        /* \"#utility.yul\":1559:1576   */\n      add\n        /* \"#utility.yul\":1552:1599   */\n      mstore\n        /* \"#utility.yul\":1616:1747   */\n      tag_50\n        /* \"#utility.yul\":1742:1746   */\n      dup2\n        /* \"#utility.yul\":1616:1747   */\n      tag_37\n      jump\t// in\n    tag_50:\n        /* \"#utility.yul\":1608:1747   */\n      swap1\n      pop\n        /* \"#utility.yul\":1335:1754   */\n      swap2\n      swap1\n      pop\n      jump\t// out\n        /* \"#utility.yul\":1760:1982   */\n    tag_17:\n        /* \"#utility.yul\":1853:1857   */\n      0x00\n        /* \"#utility.yul\":1891:1893   */\n      0x20\n        /* \"#utility.yul\":1880:1889   */\n      dup3\n        /* \"#utility.yul\":1876:1894   */\n      add\n        /* \"#utility.yul\":1868:1894   */\n      swap1\n      pop\n        /* \"#utility.yul\":1904:1975   */\n      tag_52\n        /* \"#utility.yul\":1972:1973   */\n      0x00\n        /* \"#utility.yul\":1961:1970   */\n      dup4\n        /* \"#utility.yul\":1957:1974   */\n      add\n        /* \"#utility.yul\":1948:1954   */\n      dup5\n        /* \"#utility.yul\":1904:1975   */\n      tag_43\n      jump\t// in\n    tag_52:\n        /* \"#utility.yul\":1760:1982   */\n      swap3\n      swap2\n      pop\n      pop\n      jump\t// out\n        /* \"#utility.yul\":2069:2238   */\n    tag_40:\n        /* \"#utility.yul\":2153:2164   */\n      0x00\n        /* \"#utility.yul\":2187:2193   */\n      dup3\n        /* \"#utility.yul\":2182:2185   */\n      dup3\n        /* \"#utility.yul\":2175:2194   */\n      mstore\n        /* \"#utility.yul\":2227:2231   */\n      0x20\n        /* \"#utility.yul\":2222:2225   */\n      dup3\n        /* \"#utility.yul\":2218:2232   */\n      add\n        /* \"#utility.yul\":2203:2232   */\n      swap1\n      pop\n        /* \"#utility.yul\":2069:2238   */\n      swap3\n      swap2\n      pop\n      pop\n      jump\t// out\n        /* \"#utility.yul\":2244:2340   */\n    tag_36:\n        /* \"#utility.yul\":2281:2288   */\n      0x00\n        /* \"#utility.yul\":2310:2334   */\n      tag_57\n        /* \"#utility.yul\":2328:2333   */\n      dup3\n        /* \"#utility.yul\":2310:2334   */\n      tag_58\n      jump\t// in\n    tag_57:\n        /* \"#utility.yul\":2299:2334   */\n      swap1\n      pop\n        /* \"#utility.yul\":2244:2340   */\n      swap2\n      swap1\n      pop\n      jump\t// out\n        /* \"#utility.yul\":2346:2472   */\n    tag_58:\n        /* \"#utility.yul\":2383:2390   */\n      0x00\n        /* \"#utility.yul\":2423:2465   */\n      0xffffffffffffffffffffffffffffffffffffffff\n        /* \"#utility.yul\":2416:2421   */\n      dup3\n        /* \"#utility.yul\":2412:2466   */\n      and\n        /* \"#utility.yul\":2401:2466   */\n      swap1\n      pop\n        /* \"#utility.yul\":2346:2472   */\n      swap2\n      swap1\n      pop\n      jump\t// out\n        /* \"#utility.yul\":2478:2555   */\n    tag_46:\n        /* \"#utility.yul\":2515:2522   */\n      0x00\n        /* \"#utility.yul\":2544:2549   */\n      dup2\n        /* \"#utility.yul\":2533:2549   */\n      swap1\n      pop\n        /* \"#utility.yul\":2478:2555   */\n      swap2\n      swap1\n      pop\n      jump\t// out\n        /* \"#utility.yul\":2684:2801   */\n    tag_31:\n        /* \"#utility.yul\":2793:2794   */\n      0x00\n        /* \"#utility.yul\":2790:2791   */\n      dup1\n        /* \"#utility.yul\":2783:2795   */\n      revert\n        /* \"#utility.yul\":2807:2979   */\n    tag_42:\n        /* \"#utility.yul\":2947:2971   */\n      0x53656e646572206e6f7420617574686f72697a65642e00000000000000000000\n        /* \"#utility.yul\":2943:2944   */\n      0x00\n        /* \"#utility.yul\":2935:2941   */\n      dup3\n        /* \"#utility.yul\":2931:2945   */\n      add\n        /* \"#utility.yul\":2924:2972   */\n      mstore\n        /* \"#utility.yul\":2807:2979   */\n      pop\n      jump\t// out\n        /* \"#utility.yul\":2985:3107   */\n    tag_27:\n        /* \"#utility.yul\":3058:3082   */\n      tag_66\n        /* \"#utility.yul\":3076:3081   */\n      dup2\n        /* \"#utility.yul\":3058:3082   */\n      tag_36\n      jump\t// in\n    tag_66:\n        /* \"#utility.yul\":3051:3056   */\n      dup2\n        /* \"#utility.yul\":3048:3083   */\n      eq\n        /* \"#utility.yul\":3038:3101   */\n      tag_67\n      jumpi\n        /* \"#utility.yul\":3097:3098   */\n      0x00\n        /* \"#utility.yul\":3094:3095   */\n      dup1\n        /* \"#utility.yul\":3087:3099   */\n      revert\n        /* \"#utility.yul\":3038:3101   */\n    tag_67:\n        /* \"#utility.yul\":2985:3107   */\n      pop\n      jump\t// out\n\n    auxdata: 0xa26469706673582212207f67f76acbed4804a8f5b357d51cc7a9c493658a85fc4d1923c11c3f061b7e1d64736f6c63430008070033\n}\n",
				"bytecode": {
					"linkReferences": {},
					"object": "6080604052336000806101000a81548173ffffffffffffffffffffffffffffffffffffffff021916908373ffffffffffffffffffffffffffffffffffffffff1602179055504260015534801561005457600080fd5b5061033c806100646000396000f3fe608060405234801561001057600080fd5b50600436106100415760003560e01c80638da5cb5b14610046578063a6f9dae114610064578063d8270dce14610080575b600080fd5b61004e61009e565b60405161005b919061021e565b60405180910390f35b61007e600480360381019061007991906101b0565b6100c2565b005b610088610195565b6040516100959190610259565b60405180910390f35b60008054906101000a900473ffffffffffffffffffffffffffffffffffffffff1681565b60008054906101000a900473ffffffffffffffffffffffffffffffffffffffff168073ffffffffffffffffffffffffffffffffffffffff163373ffffffffffffffffffffffffffffffffffffffff1614610151576040517f08c379a000000000000000000000000000000000000000000000000000000000815260040161014890610239565b60405180910390fd5b816000806101000a81548173ffffffffffffffffffffffffffffffffffffffff021916908373ffffffffffffffffffffffffffffffffffffffff1602179055505050565b60015481565b6000813590506101aa816102ef565b92915050565b6000602082840312156101c6576101c56102c1565b5b60006101d48482850161019b565b91505092915050565b6101e681610285565b82525050565b60006101f9601683610274565b9150610204826102c6565b602082019050919050565b610218816102b7565b82525050565b600060208201905061023360008301846101dd565b92915050565b60006020820190508181036000830152610252816101ec565b9050919050565b600060208201905061026e600083018461020f565b92915050565b600082825260208201905092915050565b600061029082610297565b9050919050565b600073ffffffffffffffffffffffffffffffffffffffff82169050919050565b6000819050919050565b600080fd5b7f53656e646572206e6f7420617574686f72697a65642e00000000000000000000600082015250565b6102f881610285565b811461030357600080fd5b5056fea26469706673582212207f67f76acbed4804a8f5b357d51cc7a9c493658a85fc4d1923c11c3f061b7e1d64736f6c63430008070033",
					"opcodes": "PUSH1 0x80 PUSH1 0x40 MSTORE CALLER PUSH1 0x0 DUP1 PUSH2 0x100 EXP DUP2 SLOAD DUP2 PUSH20 0xFFFFFFFFFFFFFFFFFFFFFFFFFFFFFFFFFFFFFFFF MUL NOT AND SWAP1 DUP4 PUSH20 0xFFFFFFFFFFFFFFFFFFFFFFFFFFFFFFFFFFFFFFFF AND MUL OR SWAP1 SSTORE POP TIMESTAMP PUSH1 0x1 SSTORE CALLVALUE DUP1 ISZERO PUSH2 0x54 JUMPI PUSH1 0x0 DUP1 REVERT JUMPDEST POP PUSH2 0x33C DUP1 PUSH2 0x64 PUSH1 0x0 CODECOPY PUSH1 0x0 RETURN INVALID PUSH1 0x80 PUSH1 0x40 MSTORE CALLVALUE DUP1 ISZERO PUSH2 0x10 JUMPI PUSH1 0x0 DUP1 REVERT JUMPDEST POP PUSH1 0x4 CALLDATASIZE LT PUSH2 0x41 JUMPI PUSH1 0x0 CALLDATALOAD PUSH1 0xE0 SHR DUP1 PUSH4 0x8DA5CB5B EQ PUSH2 0x46 JUMPI DUP1 PUSH4 0xA6F9DAE1 EQ PUSH2 0x64 JUMPI DUP1 PUSH4 0xD8270DCE EQ PUSH2 0x80 JUMPI JUMPDEST PUSH1 0x0 DUP1 REVERT JUMPDEST PUSH2 0x4E PUSH2 0x9E JUMP JUMPDEST PUSH1 0x40 MLOAD PUSH2 0x5B SWAP2 SWAP1 PUSH2 0x21E JUMP JUMPDEST PUSH1 0x40 MLOAD DUP1 SWAP2 SUB SWAP1 RETURN JUMPDEST PUSH2 0x7E PUSH1 0x4 DUP1 CALLDATASIZE SUB DUP2 ADD SWAP1 PUSH2 0x79 SWAP2 SWAP1 PUSH2 0x1B0 JUMP JUMPDEST PUSH2 0xC2 JUMP JUMPDEST STOP JUMPDEST PUSH2 0x88 PUSH2 0x195 JUMP JUMPDEST PUSH1 0x40 MLOAD PUSH2 0x95 SWAP2 SWAP1 PUSH2 0x259 JUMP JUMPDEST PUSH1 0x40 MLOAD DUP1 SWAP2 SUB SWAP1 RETURN JUMPDEST PUSH1 0x0 DUP1 SLOAD SWAP1 PUSH2 0x100 EXP SWAP1 DIV PUSH20 0xFFFFFFFFFFFFFFFFFFFFFFFFFFFFFFFFFFFFFFFF AND DUP2 JUMP JUMPDEST PUSH1 0x0 DUP1 SLOAD SWAP1 PUSH2 0x100 EXP SWAP1 DIV PUSH20 0xFFFFFFFFFFFFFFFFFFFFFFFFFFFFFFFFFFFFFFFF AND DUP1 PUSH20 0xFFFFFFFFFFFFFFFFFFFFFFFFFFFFFFFFFFFFFFFF AND CALLER PUSH20 0xFFFFFFFFFFFFFFFFFFFFFFFFFFFFFFFFFFFFFFFF AND EQ PUSH2 0x151 JUMPI PUSH1 0x40 MLOAD PUSH32 0x8C379A000000000000000000000000000000000000000000000000000000000 DUP2 MSTORE PUSH1 0x4 ADD PUSH2 0x148 SWAP1 PUSH2 0x239 JUMP JUMPDEST PUSH1 0x40 MLOAD DUP1 SWAP2 SUB SWAP1 REVERT JUMPDEST DUP2 PUSH1 0x0 DUP1 PUSH2 0x100 EXP DUP2 SLOAD DUP2 PUSH20 0xFFFFFFFFFFFFFFFFFFFFFFFFFFFFFFFFFFFFFFFF MUL NOT AND SWAP1 DUP4 PUSH20 0xFFFFFFFFFFFFFFFFFFFFFFFFFFFFFFFFFFFFFFFF AND MUL OR SWAP1 SSTORE POP POP POP JUMP JUMPDEST PUSH1 0x1 SLOAD DUP2 JUMP JUMPDEST PUSH1 0x0 DUP2 CALLDATALOAD SWAP1 POP PUSH2 0x1AA DUP2 PUSH2 0x2EF JUMP JUMPDEST SWAP3 SWAP2 POP POP JUMP JUMPDEST PUSH1 0x0 PUSH1 0x20 DUP3 DUP5 SUB SLT ISZERO PUSH2 0x1C6 JUMPI PUSH2 0x1C5 PUSH2 0x2C1 JUMP JUMPDEST JUMPDEST PUSH1 0x0 PUSH2 0x1D4 DUP5 DUP3 DUP6 ADD PUSH2 0x19B JUMP JUMPDEST SWAP2 POP POP SWAP3 SWAP2 POP POP JUMP JUMPDEST PUSH2 0x1E6 DUP2 PUSH2 0x285 JUMP JUMPDEST DUP3 MSTORE POP POP JUMP JUMPDEST PUSH1 0x0 PUSH2 0x1F9 PUSH1 0x16 DUP4 PUSH2 0x274 JUMP JUMPDEST SWAP2 POP PUSH2 0x204 DUP3 PUSH2 0x2C6 JUMP JUMPDEST PUSH1 0x20 DUP3 ADD SWAP1 POP SWAP2 SWAP1 POP JUMP JUMPDEST PUSH2 0x218 DUP2 PUSH2 0x2B7 JUMP JUMPDEST DUP3 MSTORE POP POP JUMP JUMPDEST PUSH1 0x0 PUSH1 0x20 DUP3 ADD SWAP1 POP PUSH2 0x233 PUSH1 0x0 DUP4 ADD DUP5 PUSH2 0x1DD JUMP JUMPDEST SWAP3 SWAP2 POP POP JUMP JUMPDEST PUSH1 0x0 PUSH1 0x20 DUP3 ADD SWAP1 POP DUP2 DUP2 SUB PUSH1 0x0 DUP4 ADD MSTORE PUSH2 0x252 DUP2 PUSH2 0x1EC JUMP JUMPDEST SWAP1 POP SWAP2 SWAP1 POP JUMP JUMPDEST PUSH1 0x0 PUSH1 0x20 DUP3 ADD SWAP1 POP PUSH2 0x26E PUSH1 0x0 DUP4 ADD DUP5 PUSH2 0x20F JUMP JUMPDEST SWAP3 SWAP2 POP POP JUMP JUMPDEST PUSH1 0x0 DUP3 DUP3 MSTORE PUSH1 0x20 DUP3 ADD SWAP1 POP SWAP3 SWAP2 POP POP JUMP JUMPDEST PUSH1 0x0 PUSH2 0x290 DUP3 PUSH2 0x297 JUMP JUMPDEST SWAP1 POP SWAP2 SWAP1 POP JUMP JUMPDEST PUSH1 0x0 PUSH20 0xFFFFFFFFFFFFFFFFFFFFFFFFFFFFFFFFFFFFFFFF DUP3 AND SWAP1 POP SWAP2 SWAP1 POP JUMP JUMPDEST PUSH1 0x0 DUP2 SWAP1 POP SWAP2 SWAP1 POP JUMP JUMPDEST PUSH1 0x0 DUP1 REVERT JUMPDEST PUSH32 0x53656E646572206E6F7420617574686F72697A65642E00000000000000000000 PUSH1 0x0 DUP3 ADD MSTORE POP JUMP JUMPDEST PUSH2 0x2F8 DUP2 PUSH2 0x285 JUMP JUMPDEST DUP2 EQ PUSH2 0x303 JUMPI PUSH1 0x0 DUP1 REVERT JUMPDEST POP JUMP INVALID LOG2 PUSH5 0x6970667358 0x22 SLT KECCAK256 PUSH32 0x67F76ACBED4804A8F5B357D51CC7A9C493658A85FC4D1923C11C3F061B7E1D64 PUSH20 0x6F6C634300080700330000000000000000000000 "
				},
				"gasEstimates": {
					"creation": {
						"codeDepositCost": "165600",
						"executionCost": "46579",
						"totalCost": "212179"
					},
					"external": {
						"changeOwner(address)": "26894",
						"creationTime()": "2451",
						"owner()": "2489"
					}
				},
				"methodIdentifiers": {
					"changeOwner(address)": "a6f9dae1",
					"creationTime()": "d8270dce",
					"owner()": "8da5cb5b"
				}
			},
			"storageLayout": {
				"storage": [
					{
						"astId": 5,
						"contract": "artifacts/Lalit/Restricted Access.sol:Test",
						"label": "owner",
						"offset": 0,
						"slot": "0",
						"type": "t_address"
					},
					{
						"astId": 9,
						"contract": "artifacts/Lalit/Restricted Access.sol:Test",
						"label": "creationTime",
						"offset": 0,
						"slot": "1",
						"type": "t_uint256"
					}
				],
				"types": {
					"t_address": {
						"encoding": "inplace",
						"label": "address",
						"numberOfBytes": "20"
					},
					"t_uint256": {
						"encoding": "inplace",
						"label": "uint256",
						"numberOfBytes": "32"
					}
				}
			},
			"userdoc": {
				"kind": "user",
				"methods": {},
				"version": 1
			}
		}
	}
}