{
	"artifacts/Lalit/overriding inheritance.sol": {
		"C": {
			"abi": [
				{
					"inputs": [],
					"name": "a",
					"outputs": [
						{
							"internalType": "uint256",
							"name": "",
							"type": "uint256"
						}
					],
					"stateMutability": "view",
					"type": "function"
				},
				{
					"inputs": [],
					"name": "b",
					"outputs": [
						{
							"internalType": "uint256",
							"name": "",
							"type": "uint256"
						}
					],
					"stateMutability": "view",
					"type": "function"
				},
				{
					"inputs": [],
					"name": "fun",
					"outputs": [
						{
							"internalType": "string",
							"name": "",
							"type": "string"
						}
					],
					"stateMutability": "pure",
					"type": "function"
				},
				{
					"inputs": [],
					"name": "funA",
					"outputs": [],
					"stateMutability": "nonpayable",
					"type": "function"
				},
				{
					"inputs": [],
					"name": "funB",
					"outputs": [],
					"stateMutability": "nonpayable",
					"type": "function"
				}
			],
			"devdoc": {
				"kind": "dev",
				"methods": {},
				"version": 1
			},
			"evm": {
				"assembly": "    /* \"artifacts/Lalit/overriding inheritance.sol\":475:708  contract C is A,B{... */\n  mstore(0x40, 0x80)\n  callvalue\n  dup1\n  iszero\n  tag_1\n  jumpi\n  0x00\n  dup1\n  revert\ntag_1:\n  pop\n    /* \"artifacts/Lalit/overriding inheritance.sol\":116:119  100 */\n  0x64\n    /* \"artifacts/Lalit/overriding inheritance.sol\":114:115  a */\n  0x00\n    /* \"artifacts/Lalit/overriding inheritance.sol\":114:119  a=100 */\n  dup2\n  swap1\n  sstore\n  pop\n    /* \"artifacts/Lalit/overriding inheritance.sol\":314:317  100 */\n  0x64\n    /* \"artifacts/Lalit/overriding inheritance.sol\":312:313  b */\n  0x01\n    /* \"artifacts/Lalit/overriding inheritance.sol\":312:317  b=100 */\n  dup2\n  swap1\n  sstore\n  pop\n    /* \"artifacts/Lalit/overriding inheritance.sol\":321:323  50 */\n  0x32\n    /* \"artifacts/Lalit/overriding inheritance.sol\":319:320  a */\n  0x00\n    /* \"artifacts/Lalit/overriding inheritance.sol\":319:323  a=50 */\n  dup2\n  swap1\n  sstore\n  pop\n    /* \"artifacts/Lalit/overriding inheritance.sol\":475:708  contract C is A,B{... */\n  dataSize(sub_0)\n  dup1\n  dataOffset(sub_0)\n  0x00\n  codecopy\n  0x00\n  return\nstop\n\nsub_0: assembly {\n        /* \"artifacts/Lalit/overriding inheritance.sol\":475:708  contract C is A,B{... */\n      mstore(0x40, 0x80)\n      callvalue\n      dup1\n      iszero\n      tag_1\n      jumpi\n      0x00\n      dup1\n      revert\n    tag_1:\n      pop\n      jumpi(tag_2, lt(calldatasize, 0x04))\n      shr(0xe0, calldataload(0x00))\n      dup1\n      0x09ebbbdb\n      eq\n      tag_3\n      jumpi\n      dup1\n      0x0dbe671f\n      eq\n      tag_4\n      jumpi\n      dup1\n      0x4df7e3d0\n      eq\n      tag_5\n      jumpi\n      dup1\n      0x8e5159b0\n      eq\n      tag_6\n      jumpi\n      dup1\n      0x946644cd\n      eq\n      tag_7\n      jumpi\n    tag_2:\n      0x00\n      dup1\n      revert\n        /* \"artifacts/Lalit/overriding inheritance.sol\":328:362  function funB() public {... */\n    tag_3:\n      tag_8\n      tag_9\n      jump\t// in\n    tag_8:\n      stop\n        /* \"artifacts/Lalit/overriding inheritance.sol\":84:97  uint public a */\n    tag_4:\n      tag_10\n      tag_11\n      jump\t// in\n    tag_10:\n      mload(0x40)\n      dup1\n      dup3\n      dup2\n      mstore\n      0x20\n      add\n      swap2\n      pop\n      pop\n      mload(0x40)\n      dup1\n      swap2\n      sub\n      swap1\n      return\n        /* \"artifacts/Lalit/overriding inheritance.sol\":282:295  uint public b */\n    tag_5:\n      tag_12\n      tag_13\n      jump\t// in\n    tag_12:\n      mload(0x40)\n      dup1\n      dup3\n      dup2\n      mstore\n      0x20\n      add\n      swap2\n      pop\n      pop\n      mload(0x40)\n      dup1\n      swap2\n      sub\n      swap1\n      return\n        /* \"artifacts/Lalit/overriding inheritance.sol\":124:158  function funA() public {... */\n    tag_6:\n      tag_14\n      tag_15\n      jump\t// in\n    tag_14:\n      stop\n        /* \"artifacts/Lalit/overriding inheritance.sol\":600:705  function fun() public pure override(A,B) returns( string memory){... */\n    tag_7:\n      tag_16\n      tag_17\n      jump\t// in\n    tag_16:\n      mload(0x40)\n      dup1\n      dup1\n      0x20\n      add\n      dup3\n      dup2\n      sub\n      dup3\n      mstore\n      dup4\n      dup2\n      dup2\n      mload\n      dup2\n      mstore\n      0x20\n      add\n      swap2\n      pop\n      dup1\n      mload\n      swap1\n      0x20\n      add\n      swap1\n      dup1\n      dup4\n      dup4\n      0x00\n    tag_18:\n      dup4\n      dup2\n      lt\n      iszero\n      tag_20\n      jumpi\n      dup1\n      dup3\n      add\n      mload\n      dup2\n      dup5\n      add\n      mstore\n      0x20\n      dup2\n      add\n      swap1\n      pop\n      jump(tag_18)\n    tag_20:\n      pop\n      pop\n      pop\n      pop\n      swap1\n      pop\n      swap1\n      dup2\n      add\n      swap1\n      0x1f\n      and\n      dup1\n      iszero\n      tag_21\n      jumpi\n      dup1\n      dup3\n      sub\n      dup1\n      mload\n      0x01\n      dup4\n      0x20\n      sub\n      0x0100\n      exp\n      sub\n      not\n      and\n      dup2\n      mstore\n      0x20\n      add\n      swap2\n      pop\n    tag_21:\n      pop\n      swap3\n      pop\n      pop\n      pop\n      mload(0x40)\n      dup1\n      swap2\n      sub\n      swap1\n      return\n        /* \"artifacts/Lalit/overriding inheritance.sol\":328:362  function funB() public {... */\n    tag_9:\n        /* \"artifacts/Lalit/overriding inheritance.sol\":356:357  0 */\n      0x00\n        /* \"artifacts/Lalit/overriding inheritance.sol\":354:355  b */\n      0x01\n        /* \"artifacts/Lalit/overriding inheritance.sol\":354:357  b=0 */\n      dup2\n      swap1\n      sstore\n      pop\n        /* \"artifacts/Lalit/overriding inheritance.sol\":328:362  function funB() public {... */\n      jump\t// out\n        /* \"artifacts/Lalit/overriding inheritance.sol\":84:97  uint public a */\n    tag_11:\n      sload(0x00)\n      dup2\n      jump\t// out\n        /* \"artifacts/Lalit/overriding inheritance.sol\":282:295  uint public b */\n    tag_13:\n      sload(0x01)\n      dup2\n      jump\t// out\n        /* \"artifacts/Lalit/overriding inheritance.sol\":124:158  function funA() public {... */\n    tag_15:\n        /* \"artifacts/Lalit/overriding inheritance.sol\":152:154  10 */\n      0x0a\n        /* \"artifacts/Lalit/overriding inheritance.sol\":150:151  a */\n      0x00\n        /* \"artifacts/Lalit/overriding inheritance.sol\":150:154  a=10 */\n      dup2\n      swap1\n      sstore\n      pop\n        /* \"artifacts/Lalit/overriding inheritance.sol\":124:158  function funA() public {... */\n      jump\t// out\n        /* \"artifacts/Lalit/overriding inheritance.sol\":600:705  function fun() public pure override(A,B) returns( string memory){... */\n    tag_17:\n        /* \"artifacts/Lalit/overriding inheritance.sol\":650:663  string memory */\n      0x60\n        /* \"artifacts/Lalit/overriding inheritance.sol\":671:700  return \" i am in contract C \" */\n      mload(0x40)\n      dup1\n      0x40\n      add\n      0x40\n      mstore\n      dup1\n      0x14\n      dup2\n      mstore\n      0x20\n      add\n      0x206920616d20696e20636f6e7472616374204320000000000000000000000000\n      dup2\n      mstore\n      pop\n      swap1\n      pop\n        /* \"artifacts/Lalit/overriding inheritance.sol\":600:705  function fun() public pure override(A,B) returns( string memory){... */\n      swap1\n      jump\t// out\n\n    auxdata: 0xa2646970667358221220c53d7bcc1c4770bc34a87a1ede81aeb65b6498088c119d41fd7c654f0d6993dd64736f6c63430007060033\n}\n",
				"bytecode": {
					"linkReferences": {},
					"object": "608060405234801561001057600080fd5b506064600081905550606460018190555060326000819055506101c2806100386000396000f3fe608060405234801561001057600080fd5b50600436106100575760003560e01c806309ebbbdb1461005c5780630dbe671f146100665780634df7e3d0146100845780638e5159b0146100a2578063946644cd146100ac575b600080fd5b61006461012f565b005b61006e610139565b6040518082815260200191505060405180910390f35b61008c61013f565b6040518082815260200191505060405180910390f35b6100aa610145565b005b6100b461014f565b6040518080602001828103825283818151815260200191508051906020019080838360005b838110156100f45780820151818401526020810190506100d9565b50505050905090810190601f1680156101215780820380516001836020036101000a031916815260200191505b509250505060405180910390f35b6000600181905550565b60005481565b60015481565b600a600081905550565b60606040518060400160405280601481526020017f206920616d20696e20636f6e747261637420432000000000000000000000000081525090509056fea2646970667358221220c53d7bcc1c4770bc34a87a1ede81aeb65b6498088c119d41fd7c654f0d6993dd64736f6c63430007060033",
					"opcodes": "PUSH1 0x80 PUSH1 0x40 MSTORE CALLVALUE DUP1 ISZERO PUSH2 0x10 JUMPI PUSH1 0x0 DUP1 REVERT JUMPDEST POP PUSH1 0x64 PUSH1 0x0 DUP2 SWAP1 SSTORE POP PUSH1 0x64 PUSH1 0x1 DUP2 SWAP1 SSTORE POP PUSH1 0x32 PUSH1 0x0 DUP2 SWAP1 SSTORE POP PUSH2 0x1C2 DUP1 PUSH2 0x38 PUSH1 0x0 CODECOPY PUSH1 0x0 RETURN INVALID PUSH1 0x80 PUSH1 0x40 MSTORE CALLVALUE DUP1 ISZERO PUSH2 0x10 JUMPI PUSH1 0x0 DUP1 REVERT JUMPDEST POP PUSH1 0x4 CALLDATASIZE LT PUSH2 0x57 JUMPI PUSH1 0x0 CALLDATALOAD PUSH1 0xE0 SHR DUP1 PUSH4 0x9EBBBDB EQ PUSH2 0x5C JUMPI DUP1 PUSH4 0xDBE671F EQ PUSH2 0x66 JUMPI DUP1 PUSH4 0x4DF7E3D0 EQ PUSH2 0x84 JUMPI DUP1 PUSH4 0x8E5159B0 EQ PUSH2 0xA2 JUMPI DUP1 PUSH4 0x946644CD EQ PUSH2 0xAC JUMPI JUMPDEST PUSH1 0x0 DUP1 REVERT JUMPDEST PUSH2 0x64 PUSH2 0x12F JUMP JUMPDEST STOP JUMPDEST PUSH2 0x6E PUSH2 0x139 JUMP JUMPDEST PUSH1 0x40 MLOAD DUP1 DUP3 DUP2 MSTORE PUSH1 0x20 ADD SWAP2 POP POP PUSH1 0x40 MLOAD DUP1 SWAP2 SUB SWAP1 RETURN JUMPDEST PUSH2 0x8C PUSH2 0x13F JUMP JUMPDEST PUSH1 0x40 MLOAD DUP1 DUP3 DUP2 MSTORE PUSH1 0x20 ADD SWAP2 POP POP PUSH1 0x40 MLOAD DUP1 SWAP2 SUB SWAP1 RETURN JUMPDEST PUSH2 0xAA PUSH2 0x145 JUMP JUMPDEST STOP JUMPDEST PUSH2 0xB4 PUSH2 0x14F JUMP JUMPDEST PUSH1 0x40 MLOAD DUP1 DUP1 PUSH1 0x20 ADD DUP3 DUP2 SUB DUP3 MSTORE DUP4 DUP2 DUP2 MLOAD DUP2 MSTORE PUSH1 0x20 ADD SWAP2 POP DUP1 MLOAD SWAP1 PUSH1 0x20 ADD SWAP1 DUP1 DUP4 DUP4 PUSH1 0x0 JUMPDEST DUP4 DUP2 LT ISZERO PUSH2 0xF4 JUMPI DUP1 DUP3 ADD MLOAD DUP2 DUP5 ADD MSTORE PUSH1 0x20 DUP2 ADD SWAP1 POP PUSH2 0xD9 JUMP JUMPDEST POP POP POP POP SWAP1 POP SWAP1 DUP2 ADD SWAP1 PUSH1 0x1F AND DUP1 ISZERO PUSH2 0x121 JUMPI DUP1 DUP3 SUB DUP1 MLOAD PUSH1 0x1 DUP4 PUSH1 0x20 SUB PUSH2 0x100 EXP SUB NOT AND DUP2 MSTORE PUSH1 0x20 ADD SWAP2 POP JUMPDEST POP SWAP3 POP POP POP PUSH1 0x40 MLOAD DUP1 SWAP2 SUB SWAP1 RETURN JUMPDEST PUSH1 0x0 PUSH1 0x1 DUP2 SWAP1 SSTORE POP JUMP JUMPDEST PUSH1 0x0 SLOAD DUP2 JUMP JUMPDEST PUSH1 0x1 SLOAD DUP2 JUMP JUMPDEST PUSH1 0xA PUSH1 0x0 DUP2 SWAP1 SSTORE POP JUMP JUMPDEST PUSH1 0x60 PUSH1 0x40 MLOAD DUP1 PUSH1 0x40 ADD PUSH1 0x40 MSTORE DUP1 PUSH1 0x14 DUP2 MSTORE PUSH1 0x20 ADD PUSH32 0x206920616D20696E20636F6E7472616374204320000000000000000000000000 DUP2 MSTORE POP SWAP1 POP SWAP1 JUMP INVALID LOG2 PUSH5 0x6970667358 0x22 SLT KECCAK256 0xC5 RETURNDATASIZE PUSH28 0xCC1C4770BC34A87A1EDE81AEB65B6498088C119D41FD7C654F0D6993 0xDD PUSH5 0x736F6C6343 STOP SMOD MOD STOP CALLER "
				},
				"gasEstimates": {
					"creation": {
						"codeDepositCost": "90000",
						"executionCost": "45183",
						"totalCost": "135183"
					},
					"external": {
						"a()": "1005",
						"b()": "1027",
						"fun()": "infinite",
						"funA()": "20202",
						"funB()": "5136"
					}
				},
				"methodIdentifiers": {
					"a()": "0dbe671f",
					"b()": "4df7e3d0",
					"fun()": "946644cd",
					"funA()": "8e5159b0",
					"funB()": "09ebbbdb"
				}
			},
			"storageLayout": {
				"storage": [
					{
						"astId": 3,
						"contract": "artifacts/Lalit/overriding inheritance.sol:C",
						"label": "a",
						"offset": 0,
						"slot": "0",
						"type": "t_uint256"
					},
					{
						"astId": 32,
						"contract": "artifacts/Lalit/overriding inheritance.sol:C",
						"label": "b",
						"offset": 0,
						"slot": "1",
						"type": "t_uint256"
					}
				],
				"types": {
					"t_uint256": {
						"encoding": "inplace",
						"label": "uint256",
						"numberOfBytes": "32"
					}
				}
			},
			"userdoc": {
				"kind": "user",
				"methods": {},
				"version": 1
			}
		}
	}
}