{
	"artifacts/Lalit/Array.sol": {
		"fixedsizearray": {
			"abi": [
				{
					"inputs": [],
					"stateMutability": "nonpayable",
					"type": "constructor"
				},
				{
					"inputs": [
						{
							"internalType": "uint256",
							"name": "",
							"type": "uint256"
						}
					],
					"name": "arr1",
					"outputs": [
						{
							"internalType": "uint256",
							"name": "",
							"type": "uint256"
						}
					],
					"stateMutability": "view",
					"type": "function"
				}
			],
			"devdoc": {
				"kind": "dev",
				"methods": {},
				"version": 1
			},
			"evm": {
				"assembly": "    /* \"artifacts/Lalit/Array.sol\":71:187  contract fixedsizearray{... */\n  mstore(0x40, 0x80)\n    /* \"artifacts/Lalit/Array.sol\":97:133  uint[5] public arr1=[10,20,30,40,50] */\n  mload(0x40)\n  dup1\n  0xa0\n  add\n  0x40\n  mstore\n  dup1\n    /* \"artifacts/Lalit/Array.sol\":118:120  10 */\n  0x0a\n    /* \"artifacts/Lalit/Array.sol\":97:133  uint[5] public arr1=[10,20,30,40,50] */\n  0xff\n  and\n  dup2\n  mstore\n  0x20\n  add\n    /* \"artifacts/Lalit/Array.sol\":121:123  20 */\n  0x14\n    /* \"artifacts/Lalit/Array.sol\":97:133  uint[5] public arr1=[10,20,30,40,50] */\n  0xff\n  and\n  dup2\n  mstore\n  0x20\n  add\n    /* \"artifacts/Lalit/Array.sol\":124:126  30 */\n  0x1e\n    /* \"artifacts/Lalit/Array.sol\":97:133  uint[5] public arr1=[10,20,30,40,50] */\n  0xff\n  and\n  dup2\n  mstore\n  0x20\n  add\n    /* \"artifacts/Lalit/Array.sol\":127:129  40 */\n  0x28\n    /* \"artifacts/Lalit/Array.sol\":97:133  uint[5] public arr1=[10,20,30,40,50] */\n  0xff\n  and\n  dup2\n  mstore\n  0x20\n  add\n    /* \"artifacts/Lalit/Array.sol\":130:132  50 */\n  0x32\n    /* \"artifacts/Lalit/Array.sol\":97:133  uint[5] public arr1=[10,20,30,40,50] */\n  0xff\n  and\n  dup2\n  mstore\n  pop\n  0x00\n  swap1\n  0x05\n  tag_1\n  swap3\n  swap2\n  swap1\n  tag_2\n  jump\t// in\ntag_1:\n  pop\n    /* \"artifacts/Lalit/Array.sol\":136:182  constructor (){... */\n  callvalue\n  dup1\n  iszero\n  tag_3\n  jumpi\n  0x00\n  dup1\n  revert\ntag_3:\n  pop\n    /* \"artifacts/Lalit/Array.sol\":157:179  arr1= [10,20,30,40,50] */\n  mload(0x40)\n  dup1\n  0xa0\n  add\n  0x40\n  mstore\n  dup1\n    /* \"artifacts/Lalit/Array.sol\":164:166  10 */\n  0x0a\n    /* \"artifacts/Lalit/Array.sol\":157:179  arr1= [10,20,30,40,50] */\n  0xff\n  and\n  dup2\n  mstore\n  0x20\n  add\n    /* \"artifacts/Lalit/Array.sol\":167:169  20 */\n  0x14\n    /* \"artifacts/Lalit/Array.sol\":157:179  arr1= [10,20,30,40,50] */\n  0xff\n  and\n  dup2\n  mstore\n  0x20\n  add\n    /* \"artifacts/Lalit/Array.sol\":170:172  30 */\n  0x1e\n    /* \"artifacts/Lalit/Array.sol\":157:179  arr1= [10,20,30,40,50] */\n  0xff\n  and\n  dup2\n  mstore\n  0x20\n  add\n    /* \"artifacts/Lalit/Array.sol\":173:175  40 */\n  0x28\n    /* \"artifacts/Lalit/Array.sol\":157:179  arr1= [10,20,30,40,50] */\n  0xff\n  and\n  dup2\n  mstore\n  0x20\n  add\n    /* \"artifacts/Lalit/Array.sol\":176:178  50 */\n  0x32\n    /* \"artifacts/Lalit/Array.sol\":157:179  arr1= [10,20,30,40,50] */\n  0xff\n  and\n  dup2\n  mstore\n  pop\n    /* \"artifacts/Lalit/Array.sol\":157:161  arr1 */\n  0x00\n    /* \"artifacts/Lalit/Array.sol\":157:179  arr1= [10,20,30,40,50] */\n  swap1\n  0x05\n  tag_6\n  swap3\n  swap2\n  swap1\n  tag_2\n  jump\t// in\ntag_6:\n  pop\n    /* \"artifacts/Lalit/Array.sol\":71:187  contract fixedsizearray{... */\n  jump(tag_7)\ntag_2:\n  dup3\n  0x05\n  dup2\n  add\n  swap3\n  dup3\n  iszero\n  tag_8\n  jumpi\n  swap2\n  0x20\n  mul\n  dup3\n  add\ntag_9:\n  dup3\n  dup2\n  gt\n  iszero\n  tag_10\n  jumpi\n  dup3\n  mload\n  dup3\n  swap1\n  0xff\n  and\n  swap1\n  sstore\n  swap2\n  0x20\n  add\n  swap2\n  swap1\n  0x01\n  add\n  swap1\n  jump(tag_9)\ntag_10:\ntag_8:\n  pop\n  swap1\n  pop\n  tag_11\n  swap2\n  swap1\n  tag_12\n  jump\t// in\ntag_11:\n  pop\n  swap1\n  jump\t// out\ntag_12:\ntag_13:\n  dup1\n  dup3\n  gt\n  iszero\n  tag_14\n  jumpi\n  0x00\n  dup2\n  0x00\n  swap1\n  sstore\n  pop\n  0x01\n  add\n  jump(tag_13)\ntag_14:\n  pop\n  swap1\n  jump\t// out\ntag_7:\n  dataSize(sub_0)\n  dup1\n  dataOffset(sub_0)\n  0x00\n  codecopy\n  0x00\n  return\nstop\n\nsub_0: assembly {\n        /* \"artifacts/Lalit/Array.sol\":71:187  contract fixedsizearray{... */\n      mstore(0x40, 0x80)\n      callvalue\n      dup1\n      iszero\n      tag_1\n      jumpi\n      0x00\n      dup1\n      revert\n    tag_1:\n      pop\n      jumpi(tag_2, lt(calldatasize, 0x04))\n      shr(0xe0, calldataload(0x00))\n      dup1\n      0x6987b1fb\n      eq\n      tag_3\n      jumpi\n    tag_2:\n      0x00\n      dup1\n      revert\n        /* \"artifacts/Lalit/Array.sol\":97:133  uint[5] public arr1=[10,20,30,40,50] */\n    tag_3:\n      tag_4\n      0x04\n      dup1\n      calldatasize\n      sub\n      0x20\n      dup2\n      lt\n      iszero\n      tag_5\n      jumpi\n      0x00\n      dup1\n      revert\n    tag_5:\n      dup2\n      add\n      swap1\n      dup1\n      dup1\n      calldataload\n      swap1\n      0x20\n      add\n      swap1\n      swap3\n      swap2\n      swap1\n      pop\n      pop\n      pop\n      tag_6\n      jump\t// in\n    tag_4:\n      mload(0x40)\n      dup1\n      dup3\n      dup2\n      mstore\n      0x20\n      add\n      swap2\n      pop\n      pop\n      mload(0x40)\n      dup1\n      swap2\n      sub\n      swap1\n      return\n    tag_6:\n      0x00\n      dup2\n      0x05\n      dup2\n      lt\n      tag_7\n      jumpi\n      0x00\n      dup1\n      revert\n    tag_7:\n      add\n      0x00\n      swap2\n      pop\n      swap1\n      pop\n      sload\n      dup2\n      jump\t// out\n\n    auxdata: 0xa2646970667358221220ded6375c0ae8dc5e9cf6bdec2bce6e5cd5bc33f63224118cb3a2ce3a79d41ae864736f6c63430007060033\n}\n",
				"bytecode": {
					"linkReferences": {},
					"object": "60806040526040518060a00160405280600a60ff168152602001601460ff168152602001601e60ff168152602001602860ff168152602001603260ff16815250600090600561004f9291906100ae565b5034801561005c57600080fd5b506040518060a00160405280600a60ff168152602001601460ff168152602001601e60ff168152602001602860ff168152602001603260ff1681525060009060056100a89291906100ae565b50610110565b82600581019282156100e2579160200282015b828111156100e1578251829060ff169055916020019190600101906100c1565b5b5090506100ef91906100f3565b5090565b5b8082111561010c5760008160009055506001016100f4565b5090565b60bc8061011e6000396000f3fe6080604052348015600f57600080fd5b506004361060285760003560e01c80636987b1fb14602d575b600080fd5b605660048036036020811015604157600080fd5b8101908080359060200190929190505050606c565b6040518082815260200191505060405180910390f35b60008160058110607b57600080fd5b01600091509050548156fea2646970667358221220ded6375c0ae8dc5e9cf6bdec2bce6e5cd5bc33f63224118cb3a2ce3a79d41ae864736f6c63430007060033",
					"opcodes": "PUSH1 0x80 PUSH1 0x40 MSTORE PUSH1 0x40 MLOAD DUP1 PUSH1 0xA0 ADD PUSH1 0x40 MSTORE DUP1 PUSH1 0xA PUSH1 0xFF AND DUP2 MSTORE PUSH1 0x20 ADD PUSH1 0x14 PUSH1 0xFF AND DUP2 MSTORE PUSH1 0x20 ADD PUSH1 0x1E PUSH1 0xFF AND DUP2 MSTORE PUSH1 0x20 ADD PUSH1 0x28 PUSH1 0xFF AND DUP2 MSTORE PUSH1 0x20 ADD PUSH1 0x32 PUSH1 0xFF AND DUP2 MSTORE POP PUSH1 0x0 SWAP1 PUSH1 0x5 PUSH2 0x4F SWAP3 SWAP2 SWAP1 PUSH2 0xAE JUMP JUMPDEST POP CALLVALUE DUP1 ISZERO PUSH2 0x5C JUMPI PUSH1 0x0 DUP1 REVERT JUMPDEST POP PUSH1 0x40 MLOAD DUP1 PUSH1 0xA0 ADD PUSH1 0x40 MSTORE DUP1 PUSH1 0xA PUSH1 0xFF AND DUP2 MSTORE PUSH1 0x20 ADD PUSH1 0x14 PUSH1 0xFF AND DUP2 MSTORE PUSH1 0x20 ADD PUSH1 0x1E PUSH1 0xFF AND DUP2 MSTORE PUSH1 0x20 ADD PUSH1 0x28 PUSH1 0xFF AND DUP2 MSTORE PUSH1 0x20 ADD PUSH1 0x32 PUSH1 0xFF AND DUP2 MSTORE POP PUSH1 0x0 SWAP1 PUSH1 0x5 PUSH2 0xA8 SWAP3 SWAP2 SWAP1 PUSH2 0xAE JUMP JUMPDEST POP PUSH2 0x110 JUMP JUMPDEST DUP3 PUSH1 0x5 DUP2 ADD SWAP3 DUP3 ISZERO PUSH2 0xE2 JUMPI SWAP2 PUSH1 0x20 MUL DUP3 ADD JUMPDEST DUP3 DUP2 GT ISZERO PUSH2 0xE1 JUMPI DUP3 MLOAD DUP3 SWAP1 PUSH1 0xFF AND SWAP1 SSTORE SWAP2 PUSH1 0x20 ADD SWAP2 SWAP1 PUSH1 0x1 ADD SWAP1 PUSH2 0xC1 JUMP JUMPDEST JUMPDEST POP SWAP1 POP PUSH2 0xEF SWAP2 SWAP1 PUSH2 0xF3 JUMP JUMPDEST POP SWAP1 JUMP JUMPDEST JUMPDEST DUP1 DUP3 GT ISZERO PUSH2 0x10C JUMPI PUSH1 0x0 DUP2 PUSH1 0x0 SWAP1 SSTORE POP PUSH1 0x1 ADD PUSH2 0xF4 JUMP JUMPDEST POP SWAP1 JUMP JUMPDEST PUSH1 0xBC DUP1 PUSH2 0x11E PUSH1 0x0 CODECOPY PUSH1 0x0 RETURN INVALID PUSH1 0x80 PUSH1 0x40 MSTORE CALLVALUE DUP1 ISZERO PUSH1 0xF JUMPI PUSH1 0x0 DUP1 REVERT JUMPDEST POP PUSH1 0x4 CALLDATASIZE LT PUSH1 0x28 JUMPI PUSH1 0x0 CALLDATALOAD PUSH1 0xE0 SHR DUP1 PUSH4 0x6987B1FB EQ PUSH1 0x2D JUMPI JUMPDEST PUSH1 0x0 DUP1 REVERT JUMPDEST PUSH1 0x56 PUSH1 0x4 DUP1 CALLDATASIZE SUB PUSH1 0x20 DUP2 LT ISZERO PUSH1 0x41 JUMPI PUSH1 0x0 DUP1 REVERT JUMPDEST DUP2 ADD SWAP1 DUP1 DUP1 CALLDATALOAD SWAP1 PUSH1 0x20 ADD SWAP1 SWAP3 SWAP2 SWAP1 POP POP POP PUSH1 0x6C JUMP JUMPDEST PUSH1 0x40 MLOAD DUP1 DUP3 DUP2 MSTORE PUSH1 0x20 ADD SWAP2 POP POP PUSH1 0x40 MLOAD DUP1 SWAP2 SUB SWAP1 RETURN JUMPDEST PUSH1 0x0 DUP2 PUSH1 0x5 DUP2 LT PUSH1 0x7B JUMPI PUSH1 0x0 DUP1 REVERT JUMPDEST ADD PUSH1 0x0 SWAP2 POP SWAP1 POP SLOAD DUP2 JUMP INVALID LOG2 PUSH5 0x6970667358 0x22 SLT KECCAK256 0xDE 0xD6 CALLDATACOPY 0x5C EXP 0xE8 0xDC 0x5E SWAP13 0xF6 0xBD 0xEC 0x2B 0xCE PUSH15 0x5CD5BC33F63224118CB3A2CE3A79D4 BYTE 0xE8 PUSH5 0x736F6C6343 STOP SMOD MOD STOP CALLER "
				},
				"gasEstimates": {
					"creation": {
						"codeDepositCost": "37600",
						"executionCost": "infinite",
						"totalCost": "infinite"
					},
					"external": {
						"arr1(uint256)": "1107"
					}
				},
				"methodIdentifiers": {
					"arr1(uint256)": "6987b1fb"
				}
			},
			"storageLayout": {
				"storage": [
					{
						"astId": 11,
						"contract": "artifacts/Lalit/Array.sol:fixedsizearray",
						"label": "arr1",
						"offset": 0,
						"slot": "0",
						"type": "t_array(t_uint256)5_storage"
					}
				],
				"types": {
					"t_array(t_uint256)5_storage": {
						"base": "t_uint256",
						"encoding": "inplace",
						"label": "uint256[5]",
						"numberOfBytes": "160"
					},
					"t_uint256": {
						"encoding": "inplace",
						"label": "uint256",
						"numberOfBytes": "32"
					}
				}
			},
			"userdoc": {
				"kind": "user",
				"methods": {},
				"version": 1
			}
		}
	}
}