{
	"artifacts/Lalit/Selector.sol": {
		"Receiver": {
			"abi": [
				{
					"anonymous": false,
					"inputs": [
						{
							"indexed": false,
							"internalType": "bytes",
							"name": "data",
							"type": "bytes"
						}
					],
					"name": "log",
					"type": "event"
				},
				{
					"inputs": [
						{
							"internalType": "address",
							"name": "_to",
							"type": "address"
						},
						{
							"internalType": "uint256",
							"name": "_amount",
							"type": "uint256"
						}
					],
					"name": "TRansfer",
					"outputs": [],
					"stateMutability": "nonpayable",
					"type": "function"
				}
			],
			"devdoc": {
				"kind": "dev",
				"methods": {},
				"version": 1
			},
			"evm": {
				"assembly": "    /* \"artifacts/Lalit/Selector.sol\":70:538  contract Receiver{... */\n  mstore(0x40, 0x80)\n  callvalue\n  dup1\n  iszero\n  tag_1\n  jumpi\n  0x00\n  dup1\n  revert\ntag_1:\n  pop\n  dataSize(sub_0)\n  dup1\n  dataOffset(sub_0)\n  0x00\n  codecopy\n  0x00\n  return\nstop\n\nsub_0: assembly {\n        /* \"artifacts/Lalit/Selector.sol\":70:538  contract Receiver{... */\n      mstore(0x40, 0x80)\n      callvalue\n      dup1\n      iszero\n      tag_1\n      jumpi\n      0x00\n      dup1\n      revert\n    tag_1:\n      pop\n      jumpi(tag_2, lt(calldatasize, 0x04))\n      shr(0xe0, calldataload(0x00))\n      dup1\n      0x67a144c0\n      eq\n      tag_3\n      jumpi\n    tag_2:\n      0x00\n      dup1\n      revert\n        /* \"artifacts/Lalit/Selector.sol\":115:536  function TRansfer( address _to, uint _amount) public{... */\n    tag_3:\n      tag_4\n      0x04\n      dup1\n      calldatasize\n      sub\n      dup2\n      add\n      swap1\n      tag_5\n      swap2\n      swap1\n      tag_6\n      jump\t// in\n    tag_5:\n      tag_7\n      jump\t// in\n    tag_4:\n      stop\n    tag_7:\n        /* \"artifacts/Lalit/Selector.sol\":174:187  log(msg.data) */\n      0x0be77f5642494da7d212b92a3472c4f471abb24e17467f41788e7de7915d6238\n        /* \"artifacts/Lalit/Selector.sol\":178:186  msg.data */\n      0x00\n      calldatasize\n        /* \"artifacts/Lalit/Selector.sol\":174:187  log(msg.data) */\n      mload(0x40)\n      tag_9\n      swap3\n      swap2\n      swap1\n      tag_10\n      jump\t// in\n    tag_9:\n      mload(0x40)\n      dup1\n      swap2\n      sub\n      swap1\n      log1\n        /* \"artifacts/Lalit/Selector.sol\":115:536  function TRansfer( address _to, uint _amount) public{... */\n      pop\n      pop\n      jump\t// out\n        /* \"#utility.yul\":7:146   */\n    tag_12:\n        /* \"#utility.yul\":53:58   */\n      0x00\n        /* \"#utility.yul\":91:97   */\n      dup2\n        /* \"#utility.yul\":78:98   */\n      calldataload\n        /* \"#utility.yul\":69:98   */\n      swap1\n      pop\n        /* \"#utility.yul\":107:140   */\n      tag_14\n        /* \"#utility.yul\":134:139   */\n      dup2\n        /* \"#utility.yul\":107:140   */\n      tag_15\n      jump\t// in\n    tag_14:\n        /* \"#utility.yul\":7:146   */\n      swap3\n      swap2\n      pop\n      pop\n      jump\t// out\n        /* \"#utility.yul\":152:291   */\n    tag_16:\n        /* \"#utility.yul\":198:203   */\n      0x00\n        /* \"#utility.yul\":236:242   */\n      dup2\n        /* \"#utility.yul\":223:243   */\n      calldataload\n        /* \"#utility.yul\":214:243   */\n      swap1\n      pop\n        /* \"#utility.yul\":252:285   */\n      tag_18\n        /* \"#utility.yul\":279:284   */\n      dup2\n        /* \"#utility.yul\":252:285   */\n      tag_19\n      jump\t// in\n    tag_18:\n        /* \"#utility.yul\":152:291   */\n      swap3\n      swap2\n      pop\n      pop\n      jump\t// out\n        /* \"#utility.yul\":297:771   */\n    tag_6:\n        /* \"#utility.yul\":365:371   */\n      0x00\n        /* \"#utility.yul\":373:379   */\n      dup1\n        /* \"#utility.yul\":422:424   */\n      0x40\n        /* \"#utility.yul\":410:419   */\n      dup4\n        /* \"#utility.yul\":401:408   */\n      dup6\n        /* \"#utility.yul\":397:420   */\n      sub\n        /* \"#utility.yul\":393:425   */\n      slt\n        /* \"#utility.yul\":390:509   */\n      iszero\n      tag_21\n      jumpi\n        /* \"#utility.yul\":428:507   */\n      tag_22\n      tag_23\n      jump\t// in\n    tag_22:\n        /* \"#utility.yul\":390:509   */\n    tag_21:\n        /* \"#utility.yul\":548:549   */\n      0x00\n        /* \"#utility.yul\":573:626   */\n      tag_24\n        /* \"#utility.yul\":618:625   */\n      dup6\n        /* \"#utility.yul\":609:615   */\n      dup3\n        /* \"#utility.yul\":598:607   */\n      dup7\n        /* \"#utility.yul\":594:616   */\n      add\n        /* \"#utility.yul\":573:626   */\n      tag_12\n      jump\t// in\n    tag_24:\n        /* \"#utility.yul\":563:626   */\n      swap3\n      pop\n        /* \"#utility.yul\":519:636   */\n      pop\n        /* \"#utility.yul\":675:677   */\n      0x20\n        /* \"#utility.yul\":701:754   */\n      tag_25\n        /* \"#utility.yul\":746:753   */\n      dup6\n        /* \"#utility.yul\":737:743   */\n      dup3\n        /* \"#utility.yul\":726:735   */\n      dup7\n        /* \"#utility.yul\":722:744   */\n      add\n        /* \"#utility.yul\":701:754   */\n      tag_16\n      jump\t// in\n    tag_25:\n        /* \"#utility.yul\":691:754   */\n      swap2\n      pop\n        /* \"#utility.yul\":646:764   */\n      pop\n        /* \"#utility.yul\":297:771   */\n      swap3\n      pop\n      swap3\n      swap1\n      pop\n      jump\t// out\n        /* \"#utility.yul\":799:1100   */\n    tag_26:\n        /* \"#utility.yul\":895:898   */\n      0x00\n        /* \"#utility.yul\":916:986   */\n      tag_28\n        /* \"#utility.yul\":979:985   */\n      dup4\n        /* \"#utility.yul\":974:977   */\n      dup6\n        /* \"#utility.yul\":916:986   */\n      tag_29\n      jump\t// in\n    tag_28:\n        /* \"#utility.yul\":909:986   */\n      swap4\n      pop\n        /* \"#utility.yul\":996:1039   */\n      tag_30\n        /* \"#utility.yul\":1032:1038   */\n      dup4\n        /* \"#utility.yul\":1027:1030   */\n      dup6\n        /* \"#utility.yul\":1020:1025   */\n      dup5\n        /* \"#utility.yul\":996:1039   */\n      tag_31\n      jump\t// in\n    tag_30:\n        /* \"#utility.yul\":1064:1093   */\n      tag_32\n        /* \"#utility.yul\":1086:1092   */\n      dup4\n        /* \"#utility.yul\":1064:1093   */\n      tag_33\n      jump\t// in\n    tag_32:\n        /* \"#utility.yul\":1059:1062   */\n      dup5\n        /* \"#utility.yul\":1055:1094   */\n      add\n        /* \"#utility.yul\":1048:1094   */\n      swap1\n      pop\n        /* \"#utility.yul\":799:1100   */\n      swap4\n      swap3\n      pop\n      pop\n      pop\n      jump\t// out\n        /* \"#utility.yul\":1106:1435   */\n    tag_10:\n        /* \"#utility.yul\":1227:1231   */\n      0x00\n        /* \"#utility.yul\":1265:1267   */\n      0x20\n        /* \"#utility.yul\":1254:1263   */\n      dup3\n        /* \"#utility.yul\":1250:1268   */\n      add\n        /* \"#utility.yul\":1242:1268   */\n      swap1\n      pop\n        /* \"#utility.yul\":1314:1323   */\n      dup2\n        /* \"#utility.yul\":1308:1312   */\n      dup2\n        /* \"#utility.yul\":1304:1324   */\n      sub\n        /* \"#utility.yul\":1300:1301   */\n      0x00\n        /* \"#utility.yul\":1289:1298   */\n      dup4\n        /* \"#utility.yul\":1285:1302   */\n      add\n        /* \"#utility.yul\":1278:1325   */\n      mstore\n        /* \"#utility.yul\":1342:1428   */\n      tag_35\n        /* \"#utility.yul\":1423:1427   */\n      dup2\n        /* \"#utility.yul\":1414:1420   */\n      dup5\n        /* \"#utility.yul\":1406:1412   */\n      dup7\n        /* \"#utility.yul\":1342:1428   */\n      tag_26\n      jump\t// in\n    tag_35:\n        /* \"#utility.yul\":1334:1428   */\n      swap1\n      pop\n        /* \"#utility.yul\":1106:1435   */\n      swap4\n      swap3\n      pop\n      pop\n      pop\n      jump\t// out\n        /* \"#utility.yul\":1522:1690   */\n    tag_29:\n        /* \"#utility.yul\":1605:1616   */\n      0x00\n        /* \"#utility.yul\":1639:1645   */\n      dup3\n        /* \"#utility.yul\":1634:1637   */\n      dup3\n        /* \"#utility.yul\":1627:1646   */\n      mstore\n        /* \"#utility.yul\":1679:1683   */\n      0x20\n        /* \"#utility.yul\":1674:1677   */\n      dup3\n        /* \"#utility.yul\":1670:1684   */\n      add\n        /* \"#utility.yul\":1655:1684   */\n      swap1\n      pop\n        /* \"#utility.yul\":1522:1690   */\n      swap3\n      swap2\n      pop\n      pop\n      jump\t// out\n        /* \"#utility.yul\":1696:1792   */\n    tag_39:\n        /* \"#utility.yul\":1733:1740   */\n      0x00\n        /* \"#utility.yul\":1762:1786   */\n      tag_41\n        /* \"#utility.yul\":1780:1785   */\n      dup3\n        /* \"#utility.yul\":1762:1786   */\n      tag_42\n      jump\t// in\n    tag_41:\n        /* \"#utility.yul\":1751:1786   */\n      swap1\n      pop\n        /* \"#utility.yul\":1696:1792   */\n      swap2\n      swap1\n      pop\n      jump\t// out\n        /* \"#utility.yul\":1798:1924   */\n    tag_42:\n        /* \"#utility.yul\":1835:1842   */\n      0x00\n        /* \"#utility.yul\":1875:1917   */\n      0xffffffffffffffffffffffffffffffffffffffff\n        /* \"#utility.yul\":1868:1873   */\n      dup3\n        /* \"#utility.yul\":1864:1918   */\n      and\n        /* \"#utility.yul\":1853:1918   */\n      swap1\n      pop\n        /* \"#utility.yul\":1798:1924   */\n      swap2\n      swap1\n      pop\n      jump\t// out\n        /* \"#utility.yul\":1930:2007   */\n    tag_44:\n        /* \"#utility.yul\":1967:1974   */\n      0x00\n        /* \"#utility.yul\":1996:2001   */\n      dup2\n        /* \"#utility.yul\":1985:2001   */\n      swap1\n      pop\n        /* \"#utility.yul\":1930:2007   */\n      swap2\n      swap1\n      pop\n      jump\t// out\n        /* \"#utility.yul\":2013:2167   */\n    tag_31:\n        /* \"#utility.yul\":2097:2103   */\n      dup3\n        /* \"#utility.yul\":2092:2095   */\n      dup2\n        /* \"#utility.yul\":2087:2090   */\n      dup4\n        /* \"#utility.yul\":2074:2104   */\n      calldatacopy\n        /* \"#utility.yul\":2159:2160   */\n      0x00\n        /* \"#utility.yul\":2150:2156   */\n      dup4\n        /* \"#utility.yul\":2145:2148   */\n      dup4\n        /* \"#utility.yul\":2141:2157   */\n      add\n        /* \"#utility.yul\":2134:2161   */\n      mstore\n        /* \"#utility.yul\":2013:2167   */\n      pop\n      pop\n      pop\n      jump\t// out\n        /* \"#utility.yul\":2296:2413   */\n    tag_23:\n        /* \"#utility.yul\":2405:2406   */\n      0x00\n        /* \"#utility.yul\":2402:2403   */\n      dup1\n        /* \"#utility.yul\":2395:2407   */\n      revert\n        /* \"#utility.yul\":2419:2521   */\n    tag_33:\n        /* \"#utility.yul\":2460:2466   */\n      0x00\n        /* \"#utility.yul\":2511:2513   */\n      0x1f\n        /* \"#utility.yul\":2507:2514   */\n      not\n        /* \"#utility.yul\":2502:2504   */\n      0x1f\n        /* \"#utility.yul\":2495:2500   */\n      dup4\n        /* \"#utility.yul\":2491:2505   */\n      add\n        /* \"#utility.yul\":2487:2515   */\n      and\n        /* \"#utility.yul\":2477:2515   */\n      swap1\n      pop\n        /* \"#utility.yul\":2419:2521   */\n      swap2\n      swap1\n      pop\n      jump\t// out\n        /* \"#utility.yul\":2527:2649   */\n    tag_15:\n        /* \"#utility.yul\":2600:2624   */\n      tag_52\n        /* \"#utility.yul\":2618:2623   */\n      dup2\n        /* \"#utility.yul\":2600:2624   */\n      tag_39\n      jump\t// in\n    tag_52:\n        /* \"#utility.yul\":2593:2598   */\n      dup2\n        /* \"#utility.yul\":2590:2625   */\n      eq\n        /* \"#utility.yul\":2580:2643   */\n      tag_53\n      jumpi\n        /* \"#utility.yul\":2639:2640   */\n      0x00\n        /* \"#utility.yul\":2636:2637   */\n      dup1\n        /* \"#utility.yul\":2629:2641   */\n      revert\n        /* \"#utility.yul\":2580:2643   */\n    tag_53:\n        /* \"#utility.yul\":2527:2649   */\n      pop\n      jump\t// out\n        /* \"#utility.yul\":2655:2777   */\n    tag_19:\n        /* \"#utility.yul\":2728:2752   */\n      tag_55\n        /* \"#utility.yul\":2746:2751   */\n      dup2\n        /* \"#utility.yul\":2728:2752   */\n      tag_44\n      jump\t// in\n    tag_55:\n        /* \"#utility.yul\":2721:2726   */\n      dup2\n        /* \"#utility.yul\":2718:2753   */\n      eq\n        /* \"#utility.yul\":2708:2771   */\n      tag_56\n      jumpi\n        /* \"#utility.yul\":2767:2768   */\n      0x00\n        /* \"#utility.yul\":2764:2765   */\n      dup1\n        /* \"#utility.yul\":2757:2769   */\n      revert\n        /* \"#utility.yul\":2708:2771   */\n    tag_56:\n        /* \"#utility.yul\":2655:2777   */\n      pop\n      jump\t// out\n\n    auxdata: 0xa26469706673582212208d0ddf89ecfffb4bc3662479851b5e142b0d4664b25569a6773f4aa3d818d2bd64736f6c63430008070033\n}\n",
				"bytecode": {
					"linkReferences": {},
					"object": "608060405234801561001057600080fd5b5061021b806100206000396000f3fe608060405234801561001057600080fd5b506004361061002b5760003560e01c806367a144c014610030575b600080fd5b61004a600480360381019061004591906100b4565b61004c565b005b7f0be77f5642494da7d212b92a3472c4f471abb24e17467f41788e7de7915d623860003660405161007e929190610121565b60405180910390a15050565b600081359050610099816101b7565b92915050565b6000813590506100ae816101ce565b92915050565b600080604083850312156100cb576100ca6101a1565b5b60006100d98582860161008a565b92505060206100ea8582860161009f565b9150509250929050565b60006101008385610145565b935061010d838584610192565b610116836101a6565b840190509392505050565b6000602082019050818103600083015261013c8184866100f4565b90509392505050565b600082825260208201905092915050565b600061016182610168565b9050919050565b600073ffffffffffffffffffffffffffffffffffffffff82169050919050565b6000819050919050565b82818337600083830152505050565b600080fd5b6000601f19601f8301169050919050565b6101c081610156565b81146101cb57600080fd5b50565b6101d781610188565b81146101e257600080fd5b5056fea26469706673582212208d0ddf89ecfffb4bc3662479851b5e142b0d4664b25569a6773f4aa3d818d2bd64736f6c63430008070033",
					"opcodes": "PUSH1 0x80 PUSH1 0x40 MSTORE CALLVALUE DUP1 ISZERO PUSH2 0x10 JUMPI PUSH1 0x0 DUP1 REVERT JUMPDEST POP PUSH2 0x21B DUP1 PUSH2 0x20 PUSH1 0x0 CODECOPY PUSH1 0x0 RETURN INVALID PUSH1 0x80 PUSH1 0x40 MSTORE CALLVALUE DUP1 ISZERO PUSH2 0x10 JUMPI PUSH1 0x0 DUP1 REVERT JUMPDEST POP PUSH1 0x4 CALLDATASIZE LT PUSH2 0x2B JUMPI PUSH1 0x0 CALLDATALOAD PUSH1 0xE0 SHR DUP1 PUSH4 0x67A144C0 EQ PUSH2 0x30 JUMPI JUMPDEST PUSH1 0x0 DUP1 REVERT JUMPDEST PUSH2 0x4A PUSH1 0x4 DUP1 CALLDATASIZE SUB DUP2 ADD SWAP1 PUSH2 0x45 SWAP2 SWAP1 PUSH2 0xB4 JUMP JUMPDEST PUSH2 0x4C JUMP JUMPDEST STOP JUMPDEST PUSH32 0xBE77F5642494DA7D212B92A3472C4F471ABB24E17467F41788E7DE7915D6238 PUSH1 0x0 CALLDATASIZE PUSH1 0x40 MLOAD PUSH2 0x7E SWAP3 SWAP2 SWAP1 PUSH2 0x121 JUMP JUMPDEST PUSH1 0x40 MLOAD DUP1 SWAP2 SUB SWAP1 LOG1 POP POP JUMP JUMPDEST PUSH1 0x0 DUP2 CALLDATALOAD SWAP1 POP PUSH2 0x99 DUP2 PUSH2 0x1B7 JUMP JUMPDEST SWAP3 SWAP2 POP POP JUMP JUMPDEST PUSH1 0x0 DUP2 CALLDATALOAD SWAP1 POP PUSH2 0xAE DUP2 PUSH2 0x1CE JUMP JUMPDEST SWAP3 SWAP2 POP POP JUMP JUMPDEST PUSH1 0x0 DUP1 PUSH1 0x40 DUP4 DUP6 SUB SLT ISZERO PUSH2 0xCB JUMPI PUSH2 0xCA PUSH2 0x1A1 JUMP JUMPDEST JUMPDEST PUSH1 0x0 PUSH2 0xD9 DUP6 DUP3 DUP7 ADD PUSH2 0x8A JUMP JUMPDEST SWAP3 POP POP PUSH1 0x20 PUSH2 0xEA DUP6 DUP3 DUP7 ADD PUSH2 0x9F JUMP JUMPDEST SWAP2 POP POP SWAP3 POP SWAP3 SWAP1 POP JUMP JUMPDEST PUSH1 0x0 PUSH2 0x100 DUP4 DUP6 PUSH2 0x145 JUMP JUMPDEST SWAP4 POP PUSH2 0x10D DUP4 DUP6 DUP5 PUSH2 0x192 JUMP JUMPDEST PUSH2 0x116 DUP4 PUSH2 0x1A6 JUMP JUMPDEST DUP5 ADD SWAP1 POP SWAP4 SWAP3 POP POP POP JUMP JUMPDEST PUSH1 0x0 PUSH1 0x20 DUP3 ADD SWAP1 POP DUP2 DUP2 SUB PUSH1 0x0 DUP4 ADD MSTORE PUSH2 0x13C DUP2 DUP5 DUP7 PUSH2 0xF4 JUMP JUMPDEST SWAP1 POP SWAP4 SWAP3 POP POP POP JUMP JUMPDEST PUSH1 0x0 DUP3 DUP3 MSTORE PUSH1 0x20 DUP3 ADD SWAP1 POP SWAP3 SWAP2 POP POP JUMP JUMPDEST PUSH1 0x0 PUSH2 0x161 DUP3 PUSH2 0x168 JUMP JUMPDEST SWAP1 POP SWAP2 SWAP1 POP JUMP JUMPDEST PUSH1 0x0 PUSH20 0xFFFFFFFFFFFFFFFFFFFFFFFFFFFFFFFFFFFFFFFF DUP3 AND SWAP1 POP SWAP2 SWAP1 POP JUMP JUMPDEST PUSH1 0x0 DUP2 SWAP1 POP SWAP2 SWAP1 POP JUMP JUMPDEST DUP3 DUP2 DUP4 CALLDATACOPY PUSH1 0x0 DUP4 DUP4 ADD MSTORE POP POP POP JUMP JUMPDEST PUSH1 0x0 DUP1 REVERT JUMPDEST PUSH1 0x0 PUSH1 0x1F NOT PUSH1 0x1F DUP4 ADD AND SWAP1 POP SWAP2 SWAP1 POP JUMP JUMPDEST PUSH2 0x1C0 DUP2 PUSH2 0x156 JUMP JUMPDEST DUP2 EQ PUSH2 0x1CB JUMPI PUSH1 0x0 DUP1 REVERT JUMPDEST POP JUMP JUMPDEST PUSH2 0x1D7 DUP2 PUSH2 0x188 JUMP JUMPDEST DUP2 EQ PUSH2 0x1E2 JUMPI PUSH1 0x0 DUP1 REVERT JUMPDEST POP JUMP INVALID LOG2 PUSH5 0x6970667358 0x22 SLT KECCAK256 DUP14 0xD 0xDF DUP10 0xEC SELFDESTRUCT 0xFB 0x4B 0xC3 PUSH7 0x2479851B5E142B 0xD CHAINID PUSH5 0xB25569A677 EXTCODEHASH 0x4A LOG3 0xD8 XOR 0xD2 0xBD PUSH5 0x736F6C6343 STOP ADDMOD SMOD STOP CALLER "
				},
				"gasEstimates": {
					"creation": {
						"codeDepositCost": "107800",
						"executionCost": "153",
						"totalCost": "107953"
					},
					"external": {
						"TRansfer(address,uint256)": "infinite"
					}
				},
				"methodIdentifiers": {
					"TRansfer(address,uint256)": "67a144c0"
				}
			},
			"storageLayout": {
				"storage": [],
				"types": null
			},
			"userdoc": {
				"kind": "user",
				"methods": {},
				"version": 1
			}
		}
	}
}