{
	"artifacts/Lalit/Selector.sol": {
		"checselector": {
			"abi": [
				{
					"inputs": [
						{
							"internalType": "string",
							"name": "_fun",
							"type": "string"
						}
					],
					"name": "checkselector",
					"outputs": [
						{
							"internalType": "bytes4",
							"name": "",
							"type": "bytes4"
						}
					],
					"stateMutability": "pure",
					"type": "function"
				}
			],
			"devdoc": {
				"kind": "dev",
				"methods": {},
				"version": 1
			},
			"evm": {
				"assembly": "    /* \"artifacts/Lalit/Selector.sol\":540:688  contract checselector{... */\n  mstore(0x40, 0x80)\n  callvalue\n  dup1\n  iszero\n  tag_1\n  jumpi\n  0x00\n  dup1\n  revert\ntag_1:\n  pop\n  dataSize(sub_0)\n  dup1\n  dataOffset(sub_0)\n  0x00\n  codecopy\n  0x00\n  return\nstop\n\nsub_0: assembly {\n        /* \"artifacts/Lalit/Selector.sol\":540:688  contract checselector{... */\n      mstore(0x40, 0x80)\n      callvalue\n      dup1\n      iszero\n      tag_1\n      jumpi\n      0x00\n      dup1\n      revert\n    tag_1:\n      pop\n      jumpi(tag_2, lt(calldatasize, 0x04))\n      shr(0xe0, calldataload(0x00))\n      dup1\n      0xe1bbcc73\n      eq\n      tag_3\n      jumpi\n    tag_2:\n      0x00\n      dup1\n      revert\n        /* \"artifacts/Lalit/Selector.sol\":564:684  function checkselector( string memory _fun) external pure returns(bytes4){... */\n    tag_3:\n      tag_4\n      0x04\n      dup1\n      calldatasize\n      sub\n      dup2\n      add\n      swap1\n      tag_5\n      swap2\n      swap1\n      tag_6\n      jump\t// in\n    tag_5:\n      tag_7\n      jump\t// in\n    tag_4:\n      mload(0x40)\n      tag_8\n      swap2\n      swap1\n      tag_9\n      jump\t// in\n    tag_8:\n      mload(0x40)\n      dup1\n      swap2\n      sub\n      swap1\n      return\n    tag_7:\n        /* \"artifacts/Lalit/Selector.sol\":630:636  bytes4 */\n      0x00\n        /* \"artifacts/Lalit/Selector.sol\":674:678  _fun */\n      dup2\n        /* \"artifacts/Lalit/Selector.sol\":658:680  keccak256(bytes(_fun)) */\n      dup1\n      mload\n      swap1\n      0x20\n      add\n      keccak256\n        /* \"artifacts/Lalit/Selector.sol\":644:681  return bytes4(keccak256(bytes(_fun))) */\n      swap1\n      pop\n        /* \"artifacts/Lalit/Selector.sol\":564:684  function checkselector( string memory _fun) external pure returns(bytes4){... */\n      swap2\n      swap1\n      pop\n      jump\t// out\n        /* \"#utility.yul\":7:419   */\n    tag_12:\n        /* \"#utility.yul\":85:90   */\n      0x00\n        /* \"#utility.yul\":110:176   */\n      tag_14\n        /* \"#utility.yul\":126:175   */\n      tag_15\n        /* \"#utility.yul\":168:174   */\n      dup5\n        /* \"#utility.yul\":126:175   */\n      tag_16\n      jump\t// in\n    tag_15:\n        /* \"#utility.yul\":110:176   */\n      tag_17\n      jump\t// in\n    tag_14:\n        /* \"#utility.yul\":101:176   */\n      swap1\n      pop\n        /* \"#utility.yul\":199:205   */\n      dup3\n        /* \"#utility.yul\":192:197   */\n      dup2\n        /* \"#utility.yul\":185:206   */\n      mstore\n        /* \"#utility.yul\":237:241   */\n      0x20\n        /* \"#utility.yul\":230:235   */\n      dup2\n        /* \"#utility.yul\":226:242   */\n      add\n        /* \"#utility.yul\":275:278   */\n      dup5\n        /* \"#utility.yul\":266:272   */\n      dup5\n        /* \"#utility.yul\":261:264   */\n      dup5\n        /* \"#utility.yul\":257:273   */\n      add\n        /* \"#utility.yul\":254:279   */\n      gt\n        /* \"#utility.yul\":251:363   */\n      iszero\n      tag_18\n      jumpi\n        /* \"#utility.yul\":282:361   */\n      tag_19\n      tag_20\n      jump\t// in\n    tag_19:\n        /* \"#utility.yul\":251:363   */\n    tag_18:\n        /* \"#utility.yul\":372:413   */\n      tag_21\n        /* \"#utility.yul\":406:412   */\n      dup5\n        /* \"#utility.yul\":401:404   */\n      dup3\n        /* \"#utility.yul\":396:399   */\n      dup6\n        /* \"#utility.yul\":372:413   */\n      tag_22\n      jump\t// in\n    tag_21:\n        /* \"#utility.yul\":91:419   */\n      pop\n        /* \"#utility.yul\":7:419   */\n      swap4\n      swap3\n      pop\n      pop\n      pop\n      jump\t// out\n        /* \"#utility.yul\":439:779   */\n    tag_23:\n        /* \"#utility.yul\":495:500   */\n      0x00\n        /* \"#utility.yul\":544:547   */\n      dup3\n        /* \"#utility.yul\":537:541   */\n      0x1f\n        /* \"#utility.yul\":529:535   */\n      dup4\n        /* \"#utility.yul\":525:542   */\n      add\n        /* \"#utility.yul\":521:548   */\n      slt\n        /* \"#utility.yul\":511:633   */\n      tag_25\n      jumpi\n        /* \"#utility.yul\":552:631   */\n      tag_26\n      tag_27\n      jump\t// in\n    tag_26:\n        /* \"#utility.yul\":511:633   */\n    tag_25:\n        /* \"#utility.yul\":669:675   */\n      dup2\n        /* \"#utility.yul\":656:676   */\n      calldataload\n        /* \"#utility.yul\":694:773   */\n      tag_28\n        /* \"#utility.yul\":769:772   */\n      dup5\n        /* \"#utility.yul\":761:767   */\n      dup3\n        /* \"#utility.yul\":754:758   */\n      0x20\n        /* \"#utility.yul\":746:752   */\n      dup7\n        /* \"#utility.yul\":742:759   */\n      add\n        /* \"#utility.yul\":694:773   */\n      tag_12\n      jump\t// in\n    tag_28:\n        /* \"#utility.yul\":685:773   */\n      swap2\n      pop\n        /* \"#utility.yul\":501:779   */\n      pop\n        /* \"#utility.yul\":439:779   */\n      swap3\n      swap2\n      pop\n      pop\n      jump\t// out\n        /* \"#utility.yul\":785:1294   */\n    tag_6:\n        /* \"#utility.yul\":854:860   */\n      0x00\n        /* \"#utility.yul\":903:905   */\n      0x20\n        /* \"#utility.yul\":891:900   */\n      dup3\n        /* \"#utility.yul\":882:889   */\n      dup5\n        /* \"#utility.yul\":878:901   */\n      sub\n        /* \"#utility.yul\":874:906   */\n      slt\n        /* \"#utility.yul\":871:990   */\n      iszero\n      tag_30\n      jumpi\n        /* \"#utility.yul\":909:988   */\n      tag_31\n      tag_32\n      jump\t// in\n    tag_31:\n        /* \"#utility.yul\":871:990   */\n    tag_30:\n        /* \"#utility.yul\":1057:1058   */\n      0x00\n        /* \"#utility.yul\":1046:1055   */\n      dup3\n        /* \"#utility.yul\":1042:1059   */\n      add\n        /* \"#utility.yul\":1029:1060   */\n      calldataload\n        /* \"#utility.yul\":1087:1105   */\n      0xffffffffffffffff\n        /* \"#utility.yul\":1079:1085   */\n      dup2\n        /* \"#utility.yul\":1076:1106   */\n      gt\n        /* \"#utility.yul\":1073:1190   */\n      iszero\n      tag_33\n      jumpi\n        /* \"#utility.yul\":1109:1188   */\n      tag_34\n      tag_35\n      jump\t// in\n    tag_34:\n        /* \"#utility.yul\":1073:1190   */\n    tag_33:\n        /* \"#utility.yul\":1214:1277   */\n      tag_36\n        /* \"#utility.yul\":1269:1276   */\n      dup5\n        /* \"#utility.yul\":1260:1266   */\n      dup3\n        /* \"#utility.yul\":1249:1258   */\n      dup6\n        /* \"#utility.yul\":1245:1267   */\n      add\n        /* \"#utility.yul\":1214:1277   */\n      tag_23\n      jump\t// in\n    tag_36:\n        /* \"#utility.yul\":1204:1277   */\n      swap2\n      pop\n        /* \"#utility.yul\":1000:1287   */\n      pop\n        /* \"#utility.yul\":785:1294   */\n      swap3\n      swap2\n      pop\n      pop\n      jump\t// out\n        /* \"#utility.yul\":1300:1415   */\n    tag_37:\n        /* \"#utility.yul\":1385:1408   */\n      tag_39\n        /* \"#utility.yul\":1402:1407   */\n      dup2\n        /* \"#utility.yul\":1385:1408   */\n      tag_40\n      jump\t// in\n    tag_39:\n        /* \"#utility.yul\":1380:1383   */\n      dup3\n        /* \"#utility.yul\":1373:1409   */\n      mstore\n        /* \"#utility.yul\":1300:1415   */\n      pop\n      pop\n      jump\t// out\n        /* \"#utility.yul\":1421:1639   */\n    tag_9:\n        /* \"#utility.yul\":1512:1516   */\n      0x00\n        /* \"#utility.yul\":1550:1552   */\n      0x20\n        /* \"#utility.yul\":1539:1548   */\n      dup3\n        /* \"#utility.yul\":1535:1553   */\n      add\n        /* \"#utility.yul\":1527:1553   */\n      swap1\n      pop\n        /* \"#utility.yul\":1563:1632   */\n      tag_42\n        /* \"#utility.yul\":1629:1630   */\n      0x00\n        /* \"#utility.yul\":1618:1627   */\n      dup4\n        /* \"#utility.yul\":1614:1631   */\n      add\n        /* \"#utility.yul\":1605:1611   */\n      dup5\n        /* \"#utility.yul\":1563:1632   */\n      tag_37\n      jump\t// in\n    tag_42:\n        /* \"#utility.yul\":1421:1639   */\n      swap3\n      swap2\n      pop\n      pop\n      jump\t// out\n        /* \"#utility.yul\":1645:1774   */\n    tag_17:\n        /* \"#utility.yul\":1679:1685   */\n      0x00\n        /* \"#utility.yul\":1706:1726   */\n      tag_44\n      tag_45\n      jump\t// in\n    tag_44:\n        /* \"#utility.yul\":1696:1726   */\n      swap1\n      pop\n        /* \"#utility.yul\":1735:1768   */\n      tag_46\n        /* \"#utility.yul\":1763:1767   */\n      dup3\n        /* \"#utility.yul\":1755:1761   */\n      dup3\n        /* \"#utility.yul\":1735:1768   */\n      tag_47\n      jump\t// in\n    tag_46:\n        /* \"#utility.yul\":1645:1774   */\n      swap2\n      swap1\n      pop\n      jump\t// out\n        /* \"#utility.yul\":1780:1855   */\n    tag_45:\n        /* \"#utility.yul\":1813:1819   */\n      0x00\n        /* \"#utility.yul\":1846:1848   */\n      0x40\n        /* \"#utility.yul\":1840:1849   */\n      mload\n        /* \"#utility.yul\":1830:1849   */\n      swap1\n      pop\n        /* \"#utility.yul\":1780:1855   */\n      swap1\n      jump\t// out\n        /* \"#utility.yul\":1861:2169   */\n    tag_16:\n        /* \"#utility.yul\":1923:1927   */\n      0x00\n        /* \"#utility.yul\":2013:2031   */\n      0xffffffffffffffff\n        /* \"#utility.yul\":2005:2011   */\n      dup3\n        /* \"#utility.yul\":2002:2032   */\n      gt\n        /* \"#utility.yul\":1999:2055   */\n      iszero\n      tag_50\n      jumpi\n        /* \"#utility.yul\":2035:2053   */\n      tag_51\n      tag_52\n      jump\t// in\n    tag_51:\n        /* \"#utility.yul\":1999:2055   */\n    tag_50:\n        /* \"#utility.yul\":2073:2102   */\n      tag_53\n        /* \"#utility.yul\":2095:2101   */\n      dup3\n        /* \"#utility.yul\":2073:2102   */\n      tag_54\n      jump\t// in\n    tag_53:\n        /* \"#utility.yul\":2065:2102   */\n      swap1\n      pop\n        /* \"#utility.yul\":2157:2161   */\n      0x20\n        /* \"#utility.yul\":2151:2155   */\n      dup2\n        /* \"#utility.yul\":2147:2162   */\n      add\n        /* \"#utility.yul\":2139:2162   */\n      swap1\n      pop\n        /* \"#utility.yul\":1861:2169   */\n      swap2\n      swap1\n      pop\n      jump\t// out\n        /* \"#utility.yul\":2175:2324   */\n    tag_40:\n        /* \"#utility.yul\":2211:2218   */\n      0x00\n        /* \"#utility.yul\":2251:2317   */\n      0xffffffff00000000000000000000000000000000000000000000000000000000\n        /* \"#utility.yul\":2244:2249   */\n      dup3\n        /* \"#utility.yul\":2240:2318   */\n      and\n        /* \"#utility.yul\":2229:2318   */\n      swap1\n      pop\n        /* \"#utility.yul\":2175:2324   */\n      swap2\n      swap1\n      pop\n      jump\t// out\n        /* \"#utility.yul\":2330:2484   */\n    tag_22:\n        /* \"#utility.yul\":2414:2420   */\n      dup3\n        /* \"#utility.yul\":2409:2412   */\n      dup2\n        /* \"#utility.yul\":2404:2407   */\n      dup4\n        /* \"#utility.yul\":2391:2421   */\n      calldatacopy\n        /* \"#utility.yul\":2476:2477   */\n      0x00\n        /* \"#utility.yul\":2467:2473   */\n      dup4\n        /* \"#utility.yul\":2462:2465   */\n      dup4\n        /* \"#utility.yul\":2458:2474   */\n      add\n        /* \"#utility.yul\":2451:2478   */\n      mstore\n        /* \"#utility.yul\":2330:2484   */\n      pop\n      pop\n      pop\n      jump\t// out\n        /* \"#utility.yul\":2490:2771   */\n    tag_47:\n        /* \"#utility.yul\":2573:2600   */\n      tag_58\n        /* \"#utility.yul\":2595:2599   */\n      dup3\n        /* \"#utility.yul\":2573:2600   */\n      tag_54\n      jump\t// in\n    tag_58:\n        /* \"#utility.yul\":2565:2571   */\n      dup2\n        /* \"#utility.yul\":2561:2601   */\n      add\n        /* \"#utility.yul\":2703:2709   */\n      dup2\n        /* \"#utility.yul\":2691:2701   */\n      dup2\n        /* \"#utility.yul\":2688:2710   */\n      lt\n        /* \"#utility.yul\":2667:2685   */\n      0xffffffffffffffff\n        /* \"#utility.yul\":2655:2665   */\n      dup3\n        /* \"#utility.yul\":2652:2686   */\n      gt\n        /* \"#utility.yul\":2649:2711   */\n      or\n        /* \"#utility.yul\":2646:2734   */\n      iszero\n      tag_59\n      jumpi\n        /* \"#utility.yul\":2714:2732   */\n      tag_60\n      tag_52\n      jump\t// in\n    tag_60:\n        /* \"#utility.yul\":2646:2734   */\n    tag_59:\n        /* \"#utility.yul\":2754:2764   */\n      dup1\n        /* \"#utility.yul\":2750:2752   */\n      0x40\n        /* \"#utility.yul\":2743:2765   */\n      mstore\n        /* \"#utility.yul\":2533:2771   */\n      pop\n        /* \"#utility.yul\":2490:2771   */\n      pop\n      pop\n      jump\t// out\n        /* \"#utility.yul\":2777:2957   */\n    tag_52:\n        /* \"#utility.yul\":2825:2902   */\n      0x4e487b7100000000000000000000000000000000000000000000000000000000\n        /* \"#utility.yul\":2822:2823   */\n      0x00\n        /* \"#utility.yul\":2815:2903   */\n      mstore\n        /* \"#utility.yul\":2922:2926   */\n      0x41\n        /* \"#utility.yul\":2919:2920   */\n      0x04\n        /* \"#utility.yul\":2912:2927   */\n      mstore\n        /* \"#utility.yul\":2946:2950   */\n      0x24\n        /* \"#utility.yul\":2943:2944   */\n      0x00\n        /* \"#utility.yul\":2936:2951   */\n      revert\n        /* \"#utility.yul\":2963:3080   */\n    tag_27:\n        /* \"#utility.yul\":3072:3073   */\n      0x00\n        /* \"#utility.yul\":3069:3070   */\n      dup1\n        /* \"#utility.yul\":3062:3074   */\n      revert\n        /* \"#utility.yul\":3086:3203   */\n    tag_20:\n        /* \"#utility.yul\":3195:3196   */\n      0x00\n        /* \"#utility.yul\":3192:3193   */\n      dup1\n        /* \"#utility.yul\":3185:3197   */\n      revert\n        /* \"#utility.yul\":3209:3326   */\n    tag_35:\n        /* \"#utility.yul\":3318:3319   */\n      0x00\n        /* \"#utility.yul\":3315:3316   */\n      dup1\n        /* \"#utility.yul\":3308:3320   */\n      revert\n        /* \"#utility.yul\":3332:3449   */\n    tag_32:\n        /* \"#utility.yul\":3441:3442   */\n      0x00\n        /* \"#utility.yul\":3438:3439   */\n      dup1\n        /* \"#utility.yul\":3431:3443   */\n      revert\n        /* \"#utility.yul\":3455:3557   */\n    tag_54:\n        /* \"#utility.yul\":3496:3502   */\n      0x00\n        /* \"#utility.yul\":3547:3549   */\n      0x1f\n        /* \"#utility.yul\":3543:3550   */\n      not\n        /* \"#utility.yul\":3538:3540   */\n      0x1f\n        /* \"#utility.yul\":3531:3536   */\n      dup4\n        /* \"#utility.yul\":3527:3541   */\n      add\n        /* \"#utility.yul\":3523:3551   */\n      and\n        /* \"#utility.yul\":3513:3551   */\n      swap1\n      pop\n        /* \"#utility.yul\":3455:3557   */\n      swap2\n      swap1\n      pop\n      jump\t// out\n\n    auxdata: 0xa26469706673582212208e0efb553f6d1c226fb62f151c3d53fcec9618011da8b0bab54210735c2c489764736f6c63430008070033\n}\n",
				"bytecode": {
					"linkReferences": {},
					"object": "608060405234801561001057600080fd5b506102a0806100206000396000f3fe608060405234801561001057600080fd5b506004361061002b5760003560e01c8063e1bbcc7314610030575b600080fd5b61004a600480360381019061004591906100e1565b610060565b6040516100579190610139565b60405180910390f35b600081805190602001209050919050565b600061008461007f84610179565b610154565b9050828152602081018484840111156100a05761009f61024a565b5b6100ab8482856101d6565b509392505050565b600082601f8301126100c8576100c7610245565b5b81356100d8848260208601610071565b91505092915050565b6000602082840312156100f7576100f6610254565b5b600082013567ffffffffffffffff8111156101155761011461024f565b5b610121848285016100b3565b91505092915050565b610133816101aa565b82525050565b600060208201905061014e600083018461012a565b92915050565b600061015e61016f565b905061016a82826101e5565b919050565b6000604051905090565b600067ffffffffffffffff82111561019457610193610216565b5b61019d82610259565b9050602081019050919050565b60007fffffffff0000000000000000000000000000000000000000000000000000000082169050919050565b82818337600083830152505050565b6101ee82610259565b810181811067ffffffffffffffff8211171561020d5761020c610216565b5b80604052505050565b7f4e487b7100000000000000000000000000000000000000000000000000000000600052604160045260246000fd5b600080fd5b600080fd5b600080fd5b600080fd5b6000601f19601f830116905091905056fea26469706673582212208e0efb553f6d1c226fb62f151c3d53fcec9618011da8b0bab54210735c2c489764736f6c63430008070033",
					"opcodes": "PUSH1 0x80 PUSH1 0x40 MSTORE CALLVALUE DUP1 ISZERO PUSH2 0x10 JUMPI PUSH1 0x0 DUP1 REVERT JUMPDEST POP PUSH2 0x2A0 DUP1 PUSH2 0x20 PUSH1 0x0 CODECOPY PUSH1 0x0 RETURN INVALID PUSH1 0x80 PUSH1 0x40 MSTORE CALLVALUE DUP1 ISZERO PUSH2 0x10 JUMPI PUSH1 0x0 DUP1 REVERT JUMPDEST POP PUSH1 0x4 CALLDATASIZE LT PUSH2 0x2B JUMPI PUSH1 0x0 CALLDATALOAD PUSH1 0xE0 SHR DUP1 PUSH4 0xE1BBCC73 EQ PUSH2 0x30 JUMPI JUMPDEST PUSH1 0x0 DUP1 REVERT JUMPDEST PUSH2 0x4A PUSH1 0x4 DUP1 CALLDATASIZE SUB DUP2 ADD SWAP1 PUSH2 0x45 SWAP2 SWAP1 PUSH2 0xE1 JUMP JUMPDEST PUSH2 0x60 JUMP JUMPDEST PUSH1 0x40 MLOAD PUSH2 0x57 SWAP2 SWAP1 PUSH2 0x139 JUMP JUMPDEST PUSH1 0x40 MLOAD DUP1 SWAP2 SUB SWAP1 RETURN JUMPDEST PUSH1 0x0 DUP2 DUP1 MLOAD SWAP1 PUSH1 0x20 ADD KECCAK256 SWAP1 POP SWAP2 SWAP1 POP JUMP JUMPDEST PUSH1 0x0 PUSH2 0x84 PUSH2 0x7F DUP5 PUSH2 0x179 JUMP JUMPDEST PUSH2 0x154 JUMP JUMPDEST SWAP1 POP DUP3 DUP2 MSTORE PUSH1 0x20 DUP2 ADD DUP5 DUP5 DUP5 ADD GT ISZERO PUSH2 0xA0 JUMPI PUSH2 0x9F PUSH2 0x24A JUMP JUMPDEST JUMPDEST PUSH2 0xAB DUP5 DUP3 DUP6 PUSH2 0x1D6 JUMP JUMPDEST POP SWAP4 SWAP3 POP POP POP JUMP JUMPDEST PUSH1 0x0 DUP3 PUSH1 0x1F DUP4 ADD SLT PUSH2 0xC8 JUMPI PUSH2 0xC7 PUSH2 0x245 JUMP JUMPDEST JUMPDEST DUP2 CALLDATALOAD PUSH2 0xD8 DUP5 DUP3 PUSH1 0x20 DUP7 ADD PUSH2 0x71 JUMP JUMPDEST SWAP2 POP POP SWAP3 SWAP2 POP POP JUMP JUMPDEST PUSH1 0x0 PUSH1 0x20 DUP3 DUP5 SUB SLT ISZERO PUSH2 0xF7 JUMPI PUSH2 0xF6 PUSH2 0x254 JUMP JUMPDEST JUMPDEST PUSH1 0x0 DUP3 ADD CALLDATALOAD PUSH8 0xFFFFFFFFFFFFFFFF DUP2 GT ISZERO PUSH2 0x115 JUMPI PUSH2 0x114 PUSH2 0x24F JUMP JUMPDEST JUMPDEST PUSH2 0x121 DUP5 DUP3 DUP6 ADD PUSH2 0xB3 JUMP JUMPDEST SWAP2 POP POP SWAP3 SWAP2 POP POP JUMP JUMPDEST PUSH2 0x133 DUP2 PUSH2 0x1AA JUMP JUMPDEST DUP3 MSTORE POP POP JUMP JUMPDEST PUSH1 0x0 PUSH1 0x20 DUP3 ADD SWAP1 POP PUSH2 0x14E PUSH1 0x0 DUP4 ADD DUP5 PUSH2 0x12A JUMP JUMPDEST SWAP3 SWAP2 POP POP JUMP JUMPDEST PUSH1 0x0 PUSH2 0x15E PUSH2 0x16F JUMP JUMPDEST SWAP1 POP PUSH2 0x16A DUP3 DUP3 PUSH2 0x1E5 JUMP JUMPDEST SWAP2 SWAP1 POP JUMP JUMPDEST PUSH1 0x0 PUSH1 0x40 MLOAD SWAP1 POP SWAP1 JUMP JUMPDEST PUSH1 0x0 PUSH8 0xFFFFFFFFFFFFFFFF DUP3 GT ISZERO PUSH2 0x194 JUMPI PUSH2 0x193 PUSH2 0x216 JUMP JUMPDEST JUMPDEST PUSH2 0x19D DUP3 PUSH2 0x259 JUMP JUMPDEST SWAP1 POP PUSH1 0x20 DUP2 ADD SWAP1 POP SWAP2 SWAP1 POP JUMP JUMPDEST PUSH1 0x0 PUSH32 0xFFFFFFFF00000000000000000000000000000000000000000000000000000000 DUP3 AND SWAP1 POP SWAP2 SWAP1 POP JUMP JUMPDEST DUP3 DUP2 DUP4 CALLDATACOPY PUSH1 0x0 DUP4 DUP4 ADD MSTORE POP POP POP JUMP JUMPDEST PUSH2 0x1EE DUP3 PUSH2 0x259 JUMP JUMPDEST DUP2 ADD DUP2 DUP2 LT PUSH8 0xFFFFFFFFFFFFFFFF DUP3 GT OR ISZERO PUSH2 0x20D JUMPI PUSH2 0x20C PUSH2 0x216 JUMP JUMPDEST JUMPDEST DUP1 PUSH1 0x40 MSTORE POP POP POP JUMP JUMPDEST PUSH32 0x4E487B7100000000000000000000000000000000000000000000000000000000 PUSH1 0x0 MSTORE PUSH1 0x41 PUSH1 0x4 MSTORE PUSH1 0x24 PUSH1 0x0 REVERT JUMPDEST PUSH1 0x0 DUP1 REVERT JUMPDEST PUSH1 0x0 DUP1 REVERT JUMPDEST PUSH1 0x0 DUP1 REVERT JUMPDEST PUSH1 0x0 DUP1 REVERT JUMPDEST PUSH1 0x0 PUSH1 0x1F NOT PUSH1 0x1F DUP4 ADD AND SWAP1 POP SWAP2 SWAP1 POP JUMP INVALID LOG2 PUSH5 0x6970667358 0x22 SLT KECCAK256 DUP15 0xE 0xFB SSTORE EXTCODEHASH PUSH14 0x1C226FB62F151C3D53FCEC961801 SAR 0xA8 0xB0 0xBA 0xB5 TIMESTAMP LT PUSH20 0x5C2C489764736F6C634300080700330000000000 "
				},
				"gasEstimates": {
					"creation": {
						"codeDepositCost": "134400",
						"executionCost": "177",
						"totalCost": "134577"
					},
					"external": {
						"checkselector(string)": "infinite"
					}
				},
				"methodIdentifiers": {
					"checkselector(string)": "e1bbcc73"
				}
			},
			"storageLayout": {
				"storage": [],
				"types": null
			},
			"userdoc": {
				"kind": "user",
				"methods": {},
				"version": 1
			}
		}
	}
}