{
	"artifacts/Lalit/Timer.sol": {
		"timer": {
			"abi": [
				{
					"inputs": [
						{
							"internalType": "uint256",
							"name": "totaltime",
							"type": "uint256"
						}
					],
					"name": "End",
					"outputs": [],
					"stateMutability": "nonpayable",
					"type": "function"
				},
				{
					"inputs": [],
					"name": "Start",
					"outputs": [],
					"stateMutability": "nonpayable",
					"type": "function"
				},
				{
					"inputs": [],
					"name": "difftime",
					"outputs": [
						{
							"internalType": "uint256",
							"name": "",
							"type": "uint256"
						}
					],
					"stateMutability": "view",
					"type": "function"
				}
			],
			"devdoc": {
				"kind": "dev",
				"methods": {},
				"version": 1
			},
			"evm": {
				"assembly": "    /* \"artifacts/Lalit/Timer.sol\":370:768  contract timer{... */\n  mstore(0x40, 0x80)\n  callvalue\n  dup1\n  iszero\n  tag_1\n  jumpi\n  0x00\n  dup1\n  revert\ntag_1:\n  pop\n  dataSize(sub_0)\n  dup1\n  dataOffset(sub_0)\n  0x00\n  codecopy\n  0x00\n  return\nstop\n\nsub_0: assembly {\n        /* \"artifacts/Lalit/Timer.sol\":370:768  contract timer{... */\n      mstore(0x40, 0x80)\n      callvalue\n      dup1\n      iszero\n      tag_1\n      jumpi\n      0x00\n      dup1\n      revert\n    tag_1:\n      pop\n      jumpi(tag_2, lt(calldatasize, 0x04))\n      shr(0xe0, calldataload(0x00))\n      dup1\n      0x1b55ba3a\n      eq\n      tag_3\n      jumpi\n      dup1\n      0x1d9505ab\n      eq\n      tag_4\n      jumpi\n      dup1\n      0x2c03d2f0\n      eq\n      tag_5\n      jumpi\n    tag_2:\n      0x00\n      dup1\n      revert\n        /* \"artifacts/Lalit/Timer.sol\":502:576  function Start() public{... */\n    tag_3:\n      tag_6\n      tag_7\n      jump\t// in\n    tag_6:\n      stop\n        /* \"artifacts/Lalit/Timer.sol\":674:765  function difftime() public view timeover returns(uint){... */\n    tag_4:\n      tag_8\n      tag_9\n      jump\t// in\n    tag_8:\n      mload(0x40)\n      dup1\n      dup3\n      dup2\n      mstore\n      0x20\n      add\n      swap2\n      pop\n      pop\n      mload(0x40)\n      dup1\n      swap2\n      sub\n      swap1\n      return\n        /* \"artifacts/Lalit/Timer.sol\":578:673  function End(uint totaltime) public{... */\n    tag_5:\n      tag_10\n      0x04\n      dup1\n      calldatasize\n      sub\n      0x20\n      dup2\n      lt\n      iszero\n      tag_11\n      jumpi\n      0x00\n      dup1\n      revert\n    tag_11:\n      dup2\n      add\n      swap1\n      dup1\n      dup1\n      calldataload\n      swap1\n      0x20\n      add\n      swap1\n      swap3\n      swap2\n      swap1\n      pop\n      pop\n      pop\n      tag_12\n      jump\t// in\n    tag_10:\n      stop\n        /* \"artifacts/Lalit/Timer.sol\":502:576  function Start() public{... */\n    tag_7:\n        /* \"artifacts/Lalit/Timer.sol\":544:559  block.timestamp */\n      timestamp\n        /* \"artifacts/Lalit/Timer.sol\":535:541  _Start */\n      0x00\n        /* \"artifacts/Lalit/Timer.sol\":535:559  _Start = block.timestamp */\n      dup2\n      swap1\n      sstore\n      pop\n        /* \"artifacts/Lalit/Timer.sol\":502:576  function Start() public{... */\n      jump\t// out\n        /* \"artifacts/Lalit/Timer.sol\":674:765  function difftime() public view timeover returns(uint){... */\n    tag_9:\n        /* \"artifacts/Lalit/Timer.sol\":723:727  uint */\n      0x00\n        /* \"artifacts/Lalit/Timer.sol\":472:473  0 */\n      dup1\n        /* \"artifacts/Lalit/Timer.sol\":456:471  block.timestamp */\n      timestamp\n        /* \"artifacts/Lalit/Timer.sol\":451:455  _End */\n      sload(0x01)\n        /* \"artifacts/Lalit/Timer.sol\":451:471  _End-block.timestamp */\n      sub\n        /* \"artifacts/Lalit/Timer.sol\":451:473  _End-block.timestamp>0 */\n      gt\n        /* \"artifacts/Lalit/Timer.sol\":442:487  require (_End-block.timestamp>0,\" time over\") */\n      tag_15\n      jumpi\n      mload(0x40)\n      0x08c379a000000000000000000000000000000000000000000000000000000000\n      dup2\n      mstore\n      0x04\n      add\n      dup1\n      dup1\n      0x20\n      add\n      dup3\n      dup2\n      sub\n      dup3\n      mstore\n      0x0a\n      dup2\n      mstore\n      0x20\n      add\n      dup1\n      0x2074696d65206f76657200000000000000000000000000000000000000000000\n      dup2\n      mstore\n      pop\n      0x20\n      add\n      swap2\n      pop\n      pop\n      mload(0x40)\n      dup1\n      swap2\n      sub\n      swap1\n      revert\n    tag_15:\n        /* \"artifacts/Lalit/Timer.sol\":747:762  block.timestamp */\n      timestamp\n        /* \"artifacts/Lalit/Timer.sol\":742:746  _End */\n      sload(0x01)\n        /* \"artifacts/Lalit/Timer.sol\":742:762  _End-block.timestamp */\n      sub\n        /* \"artifacts/Lalit/Timer.sol\":735:762  return _End-block.timestamp */\n      swap1\n      pop\n        /* \"artifacts/Lalit/Timer.sol\":674:765  function difftime() public view timeover returns(uint){... */\n      swap1\n      jump\t// out\n        /* \"artifacts/Lalit/Timer.sol\":578:673  function End(uint totaltime) public{... */\n    tag_12:\n        /* \"artifacts/Lalit/Timer.sol\":641:656  block.timestamp */\n      timestamp\n        /* \"artifacts/Lalit/Timer.sol\":630:639  totaltime */\n      dup2\n        /* \"artifacts/Lalit/Timer.sol\":630:656  totaltime +block.timestamp */\n      add\n        /* \"artifacts/Lalit/Timer.sol\":623:627  _End */\n      0x01\n        /* \"artifacts/Lalit/Timer.sol\":623:656  _End = totaltime +block.timestamp */\n      dup2\n      swap1\n      sstore\n      pop\n        /* \"artifacts/Lalit/Timer.sol\":578:673  function End(uint totaltime) public{... */\n      pop\n      jump\t// out\n\n    auxdata: 0xa26469706673582212204ab63e8cfd8f96384d72b6db598a3546ac42ed07043f6c4b593c8832cb8c5fff64736f6c63430007060033\n}\n",
				"bytecode": {
					"linkReferences": {},
					"object": "608060405234801561001057600080fd5b5061016c806100206000396000f3fe608060405234801561001057600080fd5b50600436106100415760003560e01c80631b55ba3a146100465780631d9505ab146100505780632c03d2f01461006e575b600080fd5b61004e61009c565b005b6100586100a5565b6040518082815260200191505060405180910390f35b61009a6004803603602081101561008457600080fd5b810190808035906020019092919050505061012a565b005b42600081905550565b600080426001540311610120576040517f08c379a000000000000000000000000000000000000000000000000000000000815260040180806020018281038252600a8152602001807f2074696d65206f7665720000000000000000000000000000000000000000000081525060200191505060405180910390fd5b4260015403905090565b4281016001819055505056fea26469706673582212204ab63e8cfd8f96384d72b6db598a3546ac42ed07043f6c4b593c8832cb8c5fff64736f6c63430007060033",
					"opcodes": "PUSH1 0x80 PUSH1 0x40 MSTORE CALLVALUE DUP1 ISZERO PUSH2 0x10 JUMPI PUSH1 0x0 DUP1 REVERT JUMPDEST POP PUSH2 0x16C DUP1 PUSH2 0x20 PUSH1 0x0 CODECOPY PUSH1 0x0 RETURN INVALID PUSH1 0x80 PUSH1 0x40 MSTORE CALLVALUE DUP1 ISZERO PUSH2 0x10 JUMPI PUSH1 0x0 DUP1 REVERT JUMPDEST POP PUSH1 0x4 CALLDATASIZE LT PUSH2 0x41 JUMPI PUSH1 0x0 CALLDATALOAD PUSH1 0xE0 SHR DUP1 PUSH4 0x1B55BA3A EQ PUSH2 0x46 JUMPI DUP1 PUSH4 0x1D9505AB EQ PUSH2 0x50 JUMPI DUP1 PUSH4 0x2C03D2F0 EQ PUSH2 0x6E JUMPI JUMPDEST PUSH1 0x0 DUP1 REVERT JUMPDEST PUSH2 0x4E PUSH2 0x9C JUMP JUMPDEST STOP JUMPDEST PUSH2 0x58 PUSH2 0xA5 JUMP JUMPDEST PUSH1 0x40 MLOAD DUP1 DUP3 DUP2 MSTORE PUSH1 0x20 ADD SWAP2 POP POP PUSH1 0x40 MLOAD DUP1 SWAP2 SUB SWAP1 RETURN JUMPDEST PUSH2 0x9A PUSH1 0x4 DUP1 CALLDATASIZE SUB PUSH1 0x20 DUP2 LT ISZERO PUSH2 0x84 JUMPI PUSH1 0x0 DUP1 REVERT JUMPDEST DUP2 ADD SWAP1 DUP1 DUP1 CALLDATALOAD SWAP1 PUSH1 0x20 ADD SWAP1 SWAP3 SWAP2 SWAP1 POP POP POP PUSH2 0x12A JUMP JUMPDEST STOP JUMPDEST TIMESTAMP PUSH1 0x0 DUP2 SWAP1 SSTORE POP JUMP JUMPDEST PUSH1 0x0 DUP1 TIMESTAMP PUSH1 0x1 SLOAD SUB GT PUSH2 0x120 JUMPI PUSH1 0x40 MLOAD PUSH32 0x8C379A000000000000000000000000000000000000000000000000000000000 DUP2 MSTORE PUSH1 0x4 ADD DUP1 DUP1 PUSH1 0x20 ADD DUP3 DUP2 SUB DUP3 MSTORE PUSH1 0xA DUP2 MSTORE PUSH1 0x20 ADD DUP1 PUSH32 0x2074696D65206F76657200000000000000000000000000000000000000000000 DUP2 MSTORE POP PUSH1 0x20 ADD SWAP2 POP POP PUSH1 0x40 MLOAD DUP1 SWAP2 SUB SWAP1 REVERT JUMPDEST TIMESTAMP PUSH1 0x1 SLOAD SUB SWAP1 POP SWAP1 JUMP JUMPDEST TIMESTAMP DUP2 ADD PUSH1 0x1 DUP2 SWAP1 SSTORE POP POP JUMP INVALID LOG2 PUSH5 0x6970667358 0x22 SLT KECCAK256 0x4A 0xB6 RETURNDATACOPY DUP13 REVERT DUP16 SWAP7 CODESIZE 0x4D PUSH19 0xB6DB598A3546AC42ED07043F6C4B593C8832CB DUP13 0x5F SELFDESTRUCT PUSH5 0x736F6C6343 STOP SMOD MOD STOP CALLER "
				},
				"gasEstimates": {
					"creation": {
						"codeDepositCost": "72800",
						"executionCost": "123",
						"totalCost": "72923"
					},
					"external": {
						"End(uint256)": "20269",
						"Start()": "20135",
						"difftime()": "1846"
					}
				},
				"methodIdentifiers": {
					"End(uint256)": "2c03d2f0",
					"Start()": "1b55ba3a",
					"difftime()": "1d9505ab"
				}
			},
			"storageLayout": {
				"storage": [
					{
						"astId": 3,
						"contract": "artifacts/Lalit/Timer.sol:timer",
						"label": "_Start",
						"offset": 0,
						"slot": "0",
						"type": "t_uint256"
					},
					{
						"astId": 5,
						"contract": "artifacts/Lalit/Timer.sol:timer",
						"label": "_End",
						"offset": 0,
						"slot": "1",
						"type": "t_uint256"
					}
				],
				"types": {
					"t_uint256": {
						"encoding": "inplace",
						"label": "uint256",
						"numberOfBytes": "32"
					}
				}
			},
			"userdoc": {
				"kind": "user",
				"methods": {},
				"version": 1
			}
		}
	}
}