{
	"artifacts/Lalit/Fallback,  Receive.sol": {
		"fallback_receive": {
			"abi": [
				{
					"anonymous": false,
					"inputs": [
						{
							"indexed": false,
							"internalType": "string",
							"name": "_fun",
							"type": "string"
						},
						{
							"indexed": false,
							"internalType": "address",
							"name": "_sender",
							"type": "address"
						},
						{
							"indexed": false,
							"internalType": "uint256",
							"name": "_value",
							"type": "uint256"
						},
						{
							"indexed": false,
							"internalType": "bytes",
							"name": "_data",
							"type": "bytes"
						}
					],
					"name": "log",
					"type": "event"
				},
				{
					"stateMutability": "payable",
					"type": "fallback"
				},
				{
					"inputs": [],
					"name": "getwbal",
					"outputs": [
						{
							"internalType": "uint256",
							"name": "",
							"type": "uint256"
						}
					],
					"stateMutability": "view",
					"type": "function"
				},
				{
					"inputs": [],
					"name": "getwbal2",
					"outputs": [
						{
							"internalType": "uint256",
							"name": "",
							"type": "uint256"
						}
					],
					"stateMutability": "view",
					"type": "function"
				},
				{
					"inputs": [],
					"name": "getwbal3",
					"outputs": [
						{
							"internalType": "uint256",
							"name": "",
							"type": "uint256"
						}
					],
					"stateMutability": "view",
					"type": "function"
				},
				{
					"stateMutability": "payable",
					"type": "receive"
				}
			],
			"devdoc": {
				"kind": "dev",
				"methods": {},
				"version": 1
			},
			"evm": {
				"assembly": "    /* \"artifacts/Lalit/Fallback,  Receive.sol\":543:1438  contract fallback_receive{... */\n  mstore(0x40, 0x80)\n  callvalue\n  dup1\n  iszero\n  tag_1\n  jumpi\n  0x00\n  dup1\n  revert\ntag_1:\n  pop\n  dataSize(sub_0)\n  dup1\n  dataOffset(sub_0)\n  0x00\n  codecopy\n  0x00\n  return\nstop\n\nsub_0: assembly {\n        /* \"artifacts/Lalit/Fallback,  Receive.sol\":543:1438  contract fallback_receive{... */\n      mstore(0x40, 0x80)\n      jumpi(tag_1, lt(calldatasize, 0x04))\n      shr(0xe0, calldataload(0x00))\n      dup1\n      0x23db5897\n      eq\n      tag_3\n      jumpi\n      dup1\n      0xacfb3b91\n      eq\n      tag_4\n      jumpi\n      dup1\n      0xc888874b\n      eq\n      tag_5\n      jumpi\n      jump(tag_2)\n    tag_1:\n      jumpi(tag_2, calldatasize)\n        /* \"artifacts/Lalit/Fallback,  Receive.sol\":901:944  log (\"receive \", msg.sender, msg.value,\" \") */\n      0xbb7455e1330c1ad664613f3d998bd858bae53893f04a4eb34718b211dd87c59e\n        /* \"artifacts/Lalit/Fallback,  Receive.sol\":918:928  msg.sender */\n      caller\n        /* \"artifacts/Lalit/Fallback,  Receive.sol\":930:939  msg.value */\n      callvalue\n        /* \"artifacts/Lalit/Fallback,  Receive.sol\":901:944  log (\"receive \", msg.sender, msg.value,\" \") */\n      mload(0x40)\n      dup1\n      dup1\n      0x20\n      add\n      dup5\n      0xffffffffffffffffffffffffffffffffffffffff\n      and\n      dup2\n      mstore\n      0x20\n      add\n      dup4\n      dup2\n      mstore\n      0x20\n      add\n      dup1\n      0x20\n      add\n      dup4\n      dup2\n      sub\n      dup4\n      mstore\n      0x08\n      dup2\n      mstore\n      0x20\n      add\n      dup1\n      0x7265636569766520000000000000000000000000000000000000000000000000\n      dup2\n      mstore\n      pop\n      0x20\n      add\n      dup4\n      dup2\n      sub\n      dup3\n      mstore\n      0x01\n      dup2\n      mstore\n      0x20\n      add\n      dup1\n      0x2000000000000000000000000000000000000000000000000000000000000000\n      dup2\n      mstore\n      pop\n      0x20\n      add\n      swap5\n      pop\n      pop\n      pop\n      pop\n      pop\n      mload(0x40)\n      dup1\n      swap2\n      sub\n      swap1\n      log1\n        /* \"artifacts/Lalit/Fallback,  Receive.sol\":543:1438  contract fallback_receive{... */\n      stop\n    tag_2:\n        /* \"artifacts/Lalit/Fallback,  Receive.sol\":808:858  log (\"fallback \", msg.sender, msg.value, msg.data) */\n      0xbb7455e1330c1ad664613f3d998bd858bae53893f04a4eb34718b211dd87c59e\n        /* \"artifacts/Lalit/Fallback,  Receive.sol\":826:836  msg.sender */\n      caller\n        /* \"artifacts/Lalit/Fallback,  Receive.sol\":838:847  msg.value */\n      callvalue\n        /* \"artifacts/Lalit/Fallback,  Receive.sol\":849:857  msg.data */\n      0x00\n      calldatasize\n        /* \"artifacts/Lalit/Fallback,  Receive.sol\":808:858  log (\"fallback \", msg.sender, msg.value, msg.data) */\n      mload(0x40)\n      dup1\n      dup1\n      0x20\n      add\n      dup7\n      0xffffffffffffffffffffffffffffffffffffffff\n      and\n      dup2\n      mstore\n      0x20\n      add\n      dup6\n      dup2\n      mstore\n      0x20\n      add\n      dup1\n      0x20\n      add\n      dup4\n      dup2\n      sub\n      dup4\n      mstore\n      0x09\n      dup2\n      mstore\n      0x20\n      add\n      dup1\n      0x66616c6c6261636b200000000000000000000000000000000000000000000000\n      dup2\n      mstore\n      pop\n      0x20\n      add\n      dup4\n      dup2\n      sub\n      dup3\n      mstore\n      dup6\n      dup6\n      dup3\n      dup2\n      dup2\n      mstore\n      0x20\n      add\n      swap3\n      pop\n      dup1\n      dup3\n      dup5\n      calldatacopy\n      0x00\n      dup2\n      dup5\n      add\n      mstore\n      not(0x1f)\n      0x1f\n      dup3\n      add\n      and\n      swap1\n      pop\n      dup1\n      dup4\n      add\n      swap3\n      pop\n      pop\n      pop\n      swap7\n      pop\n      pop\n      pop\n      pop\n      pop\n      pop\n      pop\n      mload(0x40)\n      dup1\n      swap2\n      sub\n      swap1\n      log1\n        /* \"artifacts/Lalit/Fallback,  Receive.sol\":543:1438  contract fallback_receive{... */\n      stop\n        /* \"artifacts/Lalit/Fallback,  Receive.sol\":1196:1275  function getwbal() public view returns( uint){... */\n    tag_3:\n      callvalue\n      dup1\n      iszero\n      tag_10\n      jumpi\n      0x00\n      dup1\n      revert\n    tag_10:\n      pop\n      tag_11\n      tag_12\n      jump\t// in\n    tag_11:\n      mload(0x40)\n      dup1\n      dup3\n      dup2\n      mstore\n      0x20\n      add\n      swap2\n      pop\n      pop\n      mload(0x40)\n      dup1\n      swap2\n      sub\n      swap1\n      return\n        /* \"artifacts/Lalit/Fallback,  Receive.sol\":1276:1355  function getwbal2() public view returns( uint){... */\n    tag_4:\n      callvalue\n      dup1\n      iszero\n      tag_13\n      jumpi\n      0x00\n      dup1\n      revert\n    tag_13:\n      pop\n      tag_14\n      tag_15\n      jump\t// in\n    tag_14:\n      mload(0x40)\n      dup1\n      dup3\n      dup2\n      mstore\n      0x20\n      add\n      swap2\n      pop\n      pop\n      mload(0x40)\n      dup1\n      swap2\n      sub\n      swap1\n      return\n        /* \"artifacts/Lalit/Fallback,  Receive.sol\":1356:1435  function getwbal3() public view returns( uint){... */\n    tag_5:\n      callvalue\n      dup1\n      iszero\n      tag_16\n      jumpi\n      0x00\n      dup1\n      revert\n    tag_16:\n      pop\n      tag_17\n      tag_18\n      jump\t// in\n    tag_17:\n      mload(0x40)\n      dup1\n      dup3\n      dup2\n      mstore\n      0x20\n      add\n      swap2\n      pop\n      pop\n      mload(0x40)\n      dup1\n      swap2\n      sub\n      swap1\n      return\n        /* \"artifacts/Lalit/Fallback,  Receive.sol\":1196:1275  function getwbal() public view returns( uint){... */\n    tag_12:\n        /* \"artifacts/Lalit/Fallback,  Receive.sol\":1236:1240  uint */\n      0x00\n        /* \"artifacts/Lalit/Fallback,  Receive.sol\":1250:1271  address(this).balance */\n      selfbalance\n        /* \"artifacts/Lalit/Fallback,  Receive.sol\":1243:1271  return address(this).balance */\n      swap1\n      pop\n        /* \"artifacts/Lalit/Fallback,  Receive.sol\":1196:1275  function getwbal() public view returns( uint){... */\n      swap1\n      jump\t// out\n        /* \"artifacts/Lalit/Fallback,  Receive.sol\":1276:1355  function getwbal2() public view returns( uint){... */\n    tag_15:\n        /* \"artifacts/Lalit/Fallback,  Receive.sol\":1317:1321  uint */\n      0x00\n        /* \"artifacts/Lalit/Fallback,  Receive.sol\":1332:1342  msg.sender */\n      caller\n        /* \"artifacts/Lalit/Fallback,  Receive.sol\":1331:1351  (msg.sender).balance */\n      0xffffffffffffffffffffffffffffffffffffffff\n      and\n      balance\n        /* \"artifacts/Lalit/Fallback,  Receive.sol\":1324:1351  return (msg.sender).balance */\n      swap1\n      pop\n        /* \"artifacts/Lalit/Fallback,  Receive.sol\":1276:1355  function getwbal2() public view returns( uint){... */\n      swap1\n      jump\t// out\n        /* \"artifacts/Lalit/Fallback,  Receive.sol\":1356:1435  function getwbal3() public view returns( uint){... */\n    tag_18:\n        /* \"artifacts/Lalit/Fallback,  Receive.sol\":1397:1401  uint */\n      0x00\n        /* \"artifacts/Lalit/Fallback,  Receive.sol\":1412:1422  msg.sender */\n      caller\n        /* \"artifacts/Lalit/Fallback,  Receive.sol\":1411:1431  (msg.sender).balance */\n      0xffffffffffffffffffffffffffffffffffffffff\n      and\n      balance\n        /* \"artifacts/Lalit/Fallback,  Receive.sol\":1404:1431  return (msg.sender).balance */\n      swap1\n      pop\n        /* \"artifacts/Lalit/Fallback,  Receive.sol\":1356:1435  function getwbal3() public view returns( uint){... */\n      swap1\n      jump\t// out\n\n    auxdata: 0xa2646970667358221220e77f2c5840a32f9e7b669d6359b0d845f4fe5407a1ca9d4480648f72f100d07764736f6c63430007060033\n}\n",
				"bytecode": {
					"linkReferences": {},
					"object": "608060405234801561001057600080fd5b506102c8806100206000396000f3fe6080604052600436106100385760003560e01c806323db5897146101cb578063acfb3b91146101f6578063c888874b1461022157610106565b36610106577fbb7455e1330c1ad664613f3d998bd858bae53893f04a4eb34718b211dd87c59e333460405180806020018473ffffffffffffffffffffffffffffffffffffffff16815260200183815260200180602001838103835260088152602001807f7265636569766520000000000000000000000000000000000000000000000000815250602001838103825260018152602001807f200000000000000000000000000000000000000000000000000000000000000081525060200194505050505060405180910390a1005b7fbb7455e1330c1ad664613f3d998bd858bae53893f04a4eb34718b211dd87c59e333460003660405180806020018673ffffffffffffffffffffffffffffffffffffffff16815260200185815260200180602001838103835260098152602001807f66616c6c6261636b2000000000000000000000000000000000000000000000008152506020018381038252858582818152602001925080828437600081840152601f19601f820116905080830192505050965050505050505060405180910390a1005b3480156101d757600080fd5b506101e061024c565b6040518082815260200191505060405180910390f35b34801561020257600080fd5b5061020b610254565b6040518082815260200191505060405180910390f35b34801561022d57600080fd5b50610236610273565b6040518082815260200191505060405180910390f35b600047905090565b60003373ffffffffffffffffffffffffffffffffffffffff1631905090565b60003373ffffffffffffffffffffffffffffffffffffffff163190509056fea2646970667358221220e77f2c5840a32f9e7b669d6359b0d845f4fe5407a1ca9d4480648f72f100d07764736f6c63430007060033",
					"opcodes": "PUSH1 0x80 PUSH1 0x40 MSTORE CALLVALUE DUP1 ISZERO PUSH2 0x10 JUMPI PUSH1 0x0 DUP1 REVERT JUMPDEST POP PUSH2 0x2C8 DUP1 PUSH2 0x20 PUSH1 0x0 CODECOPY PUSH1 0x0 RETURN INVALID PUSH1 0x80 PUSH1 0x40 MSTORE PUSH1 0x4 CALLDATASIZE LT PUSH2 0x38 JUMPI PUSH1 0x0 CALLDATALOAD PUSH1 0xE0 SHR DUP1 PUSH4 0x23DB5897 EQ PUSH2 0x1CB JUMPI DUP1 PUSH4 0xACFB3B91 EQ PUSH2 0x1F6 JUMPI DUP1 PUSH4 0xC888874B EQ PUSH2 0x221 JUMPI PUSH2 0x106 JUMP JUMPDEST CALLDATASIZE PUSH2 0x106 JUMPI PUSH32 0xBB7455E1330C1AD664613F3D998BD858BAE53893F04A4EB34718B211DD87C59E CALLER CALLVALUE PUSH1 0x40 MLOAD DUP1 DUP1 PUSH1 0x20 ADD DUP5 PUSH20 0xFFFFFFFFFFFFFFFFFFFFFFFFFFFFFFFFFFFFFFFF AND DUP2 MSTORE PUSH1 0x20 ADD DUP4 DUP2 MSTORE PUSH1 0x20 ADD DUP1 PUSH1 0x20 ADD DUP4 DUP2 SUB DUP4 MSTORE PUSH1 0x8 DUP2 MSTORE PUSH1 0x20 ADD DUP1 PUSH32 0x7265636569766520000000000000000000000000000000000000000000000000 DUP2 MSTORE POP PUSH1 0x20 ADD DUP4 DUP2 SUB DUP3 MSTORE PUSH1 0x1 DUP2 MSTORE PUSH1 0x20 ADD DUP1 PUSH32 0x2000000000000000000000000000000000000000000000000000000000000000 DUP2 MSTORE POP PUSH1 0x20 ADD SWAP5 POP POP POP POP POP PUSH1 0x40 MLOAD DUP1 SWAP2 SUB SWAP1 LOG1 STOP JUMPDEST PUSH32 0xBB7455E1330C1AD664613F3D998BD858BAE53893F04A4EB34718B211DD87C59E CALLER CALLVALUE PUSH1 0x0 CALLDATASIZE PUSH1 0x40 MLOAD DUP1 DUP1 PUSH1 0x20 ADD DUP7 PUSH20 0xFFFFFFFFFFFFFFFFFFFFFFFFFFFFFFFFFFFFFFFF AND DUP2 MSTORE PUSH1 0x20 ADD DUP6 DUP2 MSTORE PUSH1 0x20 ADD DUP1 PUSH1 0x20 ADD DUP4 DUP2 SUB DUP4 MSTORE PUSH1 0x9 DUP2 MSTORE PUSH1 0x20 ADD DUP1 PUSH32 0x66616C6C6261636B200000000000000000000000000000000000000000000000 DUP2 MSTORE POP PUSH1 0x20 ADD DUP4 DUP2 SUB DUP3 MSTORE DUP6 DUP6 DUP3 DUP2 DUP2 MSTORE PUSH1 0x20 ADD SWAP3 POP DUP1 DUP3 DUP5 CALLDATACOPY PUSH1 0x0 DUP2 DUP5 ADD MSTORE PUSH1 0x1F NOT PUSH1 0x1F DUP3 ADD AND SWAP1 POP DUP1 DUP4 ADD SWAP3 POP POP POP SWAP7 POP POP POP POP POP POP POP PUSH1 0x40 MLOAD DUP1 SWAP2 SUB SWAP1 LOG1 STOP JUMPDEST CALLVALUE DUP1 ISZERO PUSH2 0x1D7 JUMPI PUSH1 0x0 DUP1 REVERT JUMPDEST POP PUSH2 0x1E0 PUSH2 0x24C JUMP JUMPDEST PUSH1 0x40 MLOAD DUP1 DUP3 DUP2 MSTORE PUSH1 0x20 ADD SWAP2 POP POP PUSH1 0x40 MLOAD DUP1 SWAP2 SUB SWAP1 RETURN JUMPDEST CALLVALUE DUP1 ISZERO PUSH2 0x202 JUMPI PUSH1 0x0 DUP1 REVERT JUMPDEST POP PUSH2 0x20B PUSH2 0x254 JUMP JUMPDEST PUSH1 0x40 MLOAD DUP1 DUP3 DUP2 MSTORE PUSH1 0x20 ADD SWAP2 POP POP PUSH1 0x40 MLOAD DUP1 SWAP2 SUB SWAP1 RETURN JUMPDEST CALLVALUE DUP1 ISZERO PUSH2 0x22D JUMPI PUSH1 0x0 DUP1 REVERT JUMPDEST POP PUSH2 0x236 PUSH2 0x273 JUMP JUMPDEST PUSH1 0x40 MLOAD DUP1 DUP3 DUP2 MSTORE PUSH1 0x20 ADD SWAP2 POP POP PUSH1 0x40 MLOAD DUP1 SWAP2 SUB SWAP1 RETURN JUMPDEST PUSH1 0x0 SELFBALANCE SWAP1 POP SWAP1 JUMP JUMPDEST PUSH1 0x0 CALLER PUSH20 0xFFFFFFFFFFFFFFFFFFFFFFFFFFFFFFFFFFFFFFFF AND BALANCE SWAP1 POP SWAP1 JUMP JUMPDEST PUSH1 0x0 CALLER PUSH20 0xFFFFFFFFFFFFFFFFFFFFFFFFFFFFFFFFFFFFFFFF AND BALANCE SWAP1 POP SWAP1 JUMP INVALID LOG2 PUSH5 0x6970667358 0x22 SLT KECCAK256 0xE7 PUSH32 0x2C5840A32F9E7B669D6359B0D845F4FE5407A1CA9D4480648F72F100D0776473 PUSH16 0x6C634300070600330000000000000000 "
				},
				"gasEstimates": {
					"creation": {
						"codeDepositCost": "142400",
						"executionCost": "190",
						"totalCost": "142590"
					},
					"external": {
						"": "infinite",
						"getwbal()": "193",
						"getwbal2()": "918",
						"getwbal3()": "940"
					}
				},
				"methodIdentifiers": {
					"getwbal()": "23db5897",
					"getwbal2()": "acfb3b91",
					"getwbal3()": "c888874b"
				}
			},
			"storageLayout": {
				"storage": [],
				"types": null
			},
			"userdoc": {
				"kind": "user",
				"methods": {},
				"version": 1
			}
		}
	}
}