{
	"artifacts/Lalit/Selector.sol": {
		"Receiver": {
			"abi": [
				{
					"anonymous": false,
					"inputs": [
						{
							"indexed": false,
							"internalType": "bytes",
							"name": "data",
							"type": "bytes"
						}
					],
					"name": "log",
					"type": "event"
				},
				{
					"inputs": [
						{
							"internalType": "address",
							"name": "_to",
							"type": "address"
						},
						{
							"internalType": "uint256",
							"name": "_amount",
							"type": "uint256"
						}
					],
					"name": "TRansfer",
					"outputs": [],
					"stateMutability": "nonpayable",
					"type": "function"
				},
				{
					"inputs": [
						{
							"internalType": "string",
							"name": "_fun",
							"type": "string"
						}
					],
					"name": "checkselector",
					"outputs": [
						{
							"internalType": "bytes4",
							"name": "",
							"type": "bytes4"
						}
					],
					"stateMutability": "pure",
					"type": "function"
				}
			],
			"devdoc": {
				"kind": "dev",
				"methods": {},
				"version": 1
			},
			"evm": {
				"assembly": "    /* \"artifacts/Lalit/Selector.sol\":70:665  contract Receiver{... */\n  mstore(0x40, 0x80)\n  callvalue\n  dup1\n  iszero\n  tag_1\n  jumpi\n  0x00\n  dup1\n  revert\ntag_1:\n  pop\n  dataSize(sub_0)\n  dup1\n  dataOffset(sub_0)\n  0x00\n  codecopy\n  0x00\n  return\nstop\n\nsub_0: assembly {\n        /* \"artifacts/Lalit/Selector.sol\":70:665  contract Receiver{... */\n      mstore(0x40, 0x80)\n      callvalue\n      dup1\n      iszero\n      tag_1\n      jumpi\n      0x00\n      dup1\n      revert\n    tag_1:\n      pop\n      jumpi(tag_2, lt(calldatasize, 0x04))\n      shr(0xe0, calldataload(0x00))\n      dup1\n      0x67a144c0\n      eq\n      tag_3\n      jumpi\n      dup1\n      0xe1bbcc73\n      eq\n      tag_4\n      jumpi\n    tag_2:\n      0x00\n      dup1\n      revert\n        /* \"artifacts/Lalit/Selector.sol\":115:536  function TRansfer( address _to, uint _amount) public{... */\n    tag_3:\n      tag_5\n      0x04\n      dup1\n      calldatasize\n      sub\n      dup2\n      add\n      swap1\n      tag_6\n      swap2\n      swap1\n      tag_7\n      jump\t// in\n    tag_6:\n      tag_8\n      jump\t// in\n    tag_5:\n      stop\n        /* \"artifacts/Lalit/Selector.sol\":538:661  function checkselector( string calldata _fun) external pure returns(bytes4){... */\n    tag_4:\n      tag_9\n      0x04\n      dup1\n      calldatasize\n      sub\n      dup2\n      add\n      swap1\n      tag_10\n      swap2\n      swap1\n      tag_11\n      jump\t// in\n    tag_10:\n      tag_12\n      jump\t// in\n    tag_9:\n      mload(0x40)\n      tag_13\n      swap2\n      swap1\n      tag_14\n      jump\t// in\n    tag_13:\n      mload(0x40)\n      dup1\n      swap2\n      sub\n      swap1\n      return\n        /* \"artifacts/Lalit/Selector.sol\":115:536  function TRansfer( address _to, uint _amount) public{... */\n    tag_8:\n        /* \"artifacts/Lalit/Selector.sol\":174:187  log(msg.data) */\n      0x0be77f5642494da7d212b92a3472c4f471abb24e17467f41788e7de7915d6238\n        /* \"artifacts/Lalit/Selector.sol\":178:186  msg.data */\n      0x00\n      calldatasize\n        /* \"artifacts/Lalit/Selector.sol\":174:187  log(msg.data) */\n      mload(0x40)\n      tag_16\n      swap3\n      swap2\n      swap1\n      tag_17\n      jump\t// in\n    tag_16:\n      mload(0x40)\n      dup1\n      swap2\n      sub\n      swap1\n      log1\n        /* \"artifacts/Lalit/Selector.sol\":115:536  function TRansfer( address _to, uint _amount) public{... */\n      pop\n      pop\n      jump\t// out\n        /* \"artifacts/Lalit/Selector.sol\":538:661  function checkselector( string calldata _fun) external pure returns(bytes4){... */\n    tag_12:\n        /* \"artifacts/Lalit/Selector.sol\":606:612  bytes4 */\n      0x00\n        /* \"artifacts/Lalit/Selector.sol\":650:654  _fun */\n      dup3\n      dup3\n        /* \"artifacts/Lalit/Selector.sol\":634:656  keccak256(bytes(_fun)) */\n      mload(0x40)\n      tag_19\n      swap3\n      swap2\n      swap1\n      tag_20\n      jump\t// in\n    tag_19:\n      mload(0x40)\n      dup1\n      swap2\n      sub\n      swap1\n      keccak256\n        /* \"artifacts/Lalit/Selector.sol\":620:657  return bytes4(keccak256(bytes(_fun))) */\n      swap1\n      pop\n        /* \"artifacts/Lalit/Selector.sol\":538:661  function checkselector( string calldata _fun) external pure returns(bytes4){... */\n      swap3\n      swap2\n      pop\n      pop\n      jump\t// out\n        /* \"#utility.yul\":7:146   */\n    tag_22:\n        /* \"#utility.yul\":53:58   */\n      0x00\n        /* \"#utility.yul\":91:97   */\n      dup2\n        /* \"#utility.yul\":78:98   */\n      calldataload\n        /* \"#utility.yul\":69:98   */\n      swap1\n      pop\n        /* \"#utility.yul\":107:140   */\n      tag_24\n        /* \"#utility.yul\":134:139   */\n      dup2\n        /* \"#utility.yul\":107:140   */\n      tag_25\n      jump\t// in\n    tag_24:\n        /* \"#utility.yul\":7:146   */\n      swap3\n      swap2\n      pop\n      pop\n      jump\t// out\n        /* \"#utility.yul\":166:719   */\n    tag_26:\n        /* \"#utility.yul\":224:232   */\n      0x00\n        /* \"#utility.yul\":234:240   */\n      dup1\n        /* \"#utility.yul\":284:287   */\n      dup4\n        /* \"#utility.yul\":277:281   */\n      0x1f\n        /* \"#utility.yul\":269:275   */\n      dup5\n        /* \"#utility.yul\":265:282   */\n      add\n        /* \"#utility.yul\":261:288   */\n      slt\n        /* \"#utility.yul\":251:373   */\n      tag_28\n      jumpi\n        /* \"#utility.yul\":292:371   */\n      tag_29\n      tag_30\n      jump\t// in\n    tag_29:\n        /* \"#utility.yul\":251:373   */\n    tag_28:\n        /* \"#utility.yul\":405:411   */\n      dup3\n        /* \"#utility.yul\":392:412   */\n      calldataload\n        /* \"#utility.yul\":382:412   */\n      swap1\n      pop\n        /* \"#utility.yul\":435:453   */\n      0xffffffffffffffff\n        /* \"#utility.yul\":427:433   */\n      dup2\n        /* \"#utility.yul\":424:454   */\n      gt\n        /* \"#utility.yul\":421:538   */\n      iszero\n      tag_31\n      jumpi\n        /* \"#utility.yul\":457:536   */\n      tag_32\n      tag_33\n      jump\t// in\n    tag_32:\n        /* \"#utility.yul\":421:538   */\n    tag_31:\n        /* \"#utility.yul\":571:575   */\n      0x20\n        /* \"#utility.yul\":563:569   */\n      dup4\n        /* \"#utility.yul\":559:576   */\n      add\n        /* \"#utility.yul\":547:576   */\n      swap2\n      pop\n        /* \"#utility.yul\":625:628   */\n      dup4\n        /* \"#utility.yul\":617:621   */\n      0x01\n        /* \"#utility.yul\":609:615   */\n      dup3\n        /* \"#utility.yul\":605:622   */\n      mul\n        /* \"#utility.yul\":595:603   */\n      dup4\n        /* \"#utility.yul\":591:623   */\n      add\n        /* \"#utility.yul\":588:629   */\n      gt\n        /* \"#utility.yul\":585:713   */\n      iszero\n      tag_34\n      jumpi\n        /* \"#utility.yul\":632:711   */\n      tag_35\n      tag_36\n      jump\t// in\n    tag_35:\n        /* \"#utility.yul\":585:713   */\n    tag_34:\n        /* \"#utility.yul\":166:719   */\n      swap3\n      pop\n      swap3\n      swap1\n      pop\n      jump\t// out\n        /* \"#utility.yul\":725:864   */\n    tag_37:\n        /* \"#utility.yul\":771:776   */\n      0x00\n        /* \"#utility.yul\":809:815   */\n      dup2\n        /* \"#utility.yul\":796:816   */\n      calldataload\n        /* \"#utility.yul\":787:816   */\n      swap1\n      pop\n        /* \"#utility.yul\":825:858   */\n      tag_39\n        /* \"#utility.yul\":852:857   */\n      dup2\n        /* \"#utility.yul\":825:858   */\n      tag_40\n      jump\t// in\n    tag_39:\n        /* \"#utility.yul\":725:864   */\n      swap3\n      swap2\n      pop\n      pop\n      jump\t// out\n        /* \"#utility.yul\":870:1344   */\n    tag_7:\n        /* \"#utility.yul\":938:944   */\n      0x00\n        /* \"#utility.yul\":946:952   */\n      dup1\n        /* \"#utility.yul\":995:997   */\n      0x40\n        /* \"#utility.yul\":983:992   */\n      dup4\n        /* \"#utility.yul\":974:981   */\n      dup6\n        /* \"#utility.yul\":970:993   */\n      sub\n        /* \"#utility.yul\":966:998   */\n      slt\n        /* \"#utility.yul\":963:1082   */\n      iszero\n      tag_42\n      jumpi\n        /* \"#utility.yul\":1001:1080   */\n      tag_43\n      tag_44\n      jump\t// in\n    tag_43:\n        /* \"#utility.yul\":963:1082   */\n    tag_42:\n        /* \"#utility.yul\":1121:1122   */\n      0x00\n        /* \"#utility.yul\":1146:1199   */\n      tag_45\n        /* \"#utility.yul\":1191:1198   */\n      dup6\n        /* \"#utility.yul\":1182:1188   */\n      dup3\n        /* \"#utility.yul\":1171:1180   */\n      dup7\n        /* \"#utility.yul\":1167:1189   */\n      add\n        /* \"#utility.yul\":1146:1199   */\n      tag_22\n      jump\t// in\n    tag_45:\n        /* \"#utility.yul\":1136:1199   */\n      swap3\n      pop\n        /* \"#utility.yul\":1092:1209   */\n      pop\n        /* \"#utility.yul\":1248:1250   */\n      0x20\n        /* \"#utility.yul\":1274:1327   */\n      tag_46\n        /* \"#utility.yul\":1319:1326   */\n      dup6\n        /* \"#utility.yul\":1310:1316   */\n      dup3\n        /* \"#utility.yul\":1299:1308   */\n      dup7\n        /* \"#utility.yul\":1295:1317   */\n      add\n        /* \"#utility.yul\":1274:1327   */\n      tag_37\n      jump\t// in\n    tag_46:\n        /* \"#utility.yul\":1264:1327   */\n      swap2\n      pop\n        /* \"#utility.yul\":1219:1337   */\n      pop\n        /* \"#utility.yul\":870:1344   */\n      swap3\n      pop\n      swap3\n      swap1\n      pop\n      jump\t// out\n        /* \"#utility.yul\":1350:1879   */\n    tag_11:\n        /* \"#utility.yul\":1421:1427   */\n      0x00\n        /* \"#utility.yul\":1429:1435   */\n      dup1\n        /* \"#utility.yul\":1478:1480   */\n      0x20\n        /* \"#utility.yul\":1466:1475   */\n      dup4\n        /* \"#utility.yul\":1457:1464   */\n      dup6\n        /* \"#utility.yul\":1453:1476   */\n      sub\n        /* \"#utility.yul\":1449:1481   */\n      slt\n        /* \"#utility.yul\":1446:1565   */\n      iszero\n      tag_48\n      jumpi\n        /* \"#utility.yul\":1484:1563   */\n      tag_49\n      tag_44\n      jump\t// in\n    tag_49:\n        /* \"#utility.yul\":1446:1565   */\n    tag_48:\n        /* \"#utility.yul\":1632:1633   */\n      0x00\n        /* \"#utility.yul\":1621:1630   */\n      dup4\n        /* \"#utility.yul\":1617:1634   */\n      add\n        /* \"#utility.yul\":1604:1635   */\n      calldataload\n        /* \"#utility.yul\":1662:1680   */\n      0xffffffffffffffff\n        /* \"#utility.yul\":1654:1660   */\n      dup2\n        /* \"#utility.yul\":1651:1681   */\n      gt\n        /* \"#utility.yul\":1648:1765   */\n      iszero\n      tag_50\n      jumpi\n        /* \"#utility.yul\":1684:1763   */\n      tag_51\n      tag_52\n      jump\t// in\n    tag_51:\n        /* \"#utility.yul\":1648:1765   */\n    tag_50:\n        /* \"#utility.yul\":1797:1862   */\n      tag_53\n        /* \"#utility.yul\":1854:1861   */\n      dup6\n        /* \"#utility.yul\":1845:1851   */\n      dup3\n        /* \"#utility.yul\":1834:1843   */\n      dup7\n        /* \"#utility.yul\":1830:1852   */\n      add\n        /* \"#utility.yul\":1797:1862   */\n      tag_26\n      jump\t// in\n    tag_53:\n        /* \"#utility.yul\":1779:1862   */\n      swap3\n      pop\n      swap3\n      pop\n        /* \"#utility.yul\":1575:1872   */\n      pop\n        /* \"#utility.yul\":1350:1879   */\n      swap3\n      pop\n      swap3\n      swap1\n      pop\n      jump\t// out\n        /* \"#utility.yul\":1885:2000   */\n    tag_54:\n        /* \"#utility.yul\":1970:1993   */\n      tag_56\n        /* \"#utility.yul\":1987:1992   */\n      dup2\n        /* \"#utility.yul\":1970:1993   */\n      tag_57\n      jump\t// in\n    tag_56:\n        /* \"#utility.yul\":1965:1968   */\n      dup3\n        /* \"#utility.yul\":1958:1994   */\n      mstore\n        /* \"#utility.yul\":1885:2000   */\n      pop\n      pop\n      jump\t// out\n        /* \"#utility.yul\":2028:2329   */\n    tag_58:\n        /* \"#utility.yul\":2124:2127   */\n      0x00\n        /* \"#utility.yul\":2145:2215   */\n      tag_60\n        /* \"#utility.yul\":2208:2214   */\n      dup4\n        /* \"#utility.yul\":2203:2206   */\n      dup6\n        /* \"#utility.yul\":2145:2215   */\n      tag_61\n      jump\t// in\n    tag_60:\n        /* \"#utility.yul\":2138:2215   */\n      swap4\n      pop\n        /* \"#utility.yul\":2225:2268   */\n      tag_62\n        /* \"#utility.yul\":2261:2267   */\n      dup4\n        /* \"#utility.yul\":2256:2259   */\n      dup6\n        /* \"#utility.yul\":2249:2254   */\n      dup5\n        /* \"#utility.yul\":2225:2268   */\n      tag_63\n      jump\t// in\n    tag_62:\n        /* \"#utility.yul\":2293:2322   */\n      tag_64\n        /* \"#utility.yul\":2315:2321   */\n      dup4\n        /* \"#utility.yul\":2293:2322   */\n      tag_65\n      jump\t// in\n    tag_64:\n        /* \"#utility.yul\":2288:2291   */\n      dup5\n        /* \"#utility.yul\":2284:2323   */\n      add\n        /* \"#utility.yul\":2277:2323   */\n      swap1\n      pop\n        /* \"#utility.yul\":2028:2329   */\n      swap4\n      swap3\n      pop\n      pop\n      pop\n      jump\t// out\n        /* \"#utility.yul\":2357:2671   */\n    tag_66:\n        /* \"#utility.yul\":2471:2474   */\n      0x00\n        /* \"#utility.yul\":2492:2580   */\n      tag_68\n        /* \"#utility.yul\":2573:2579   */\n      dup4\n        /* \"#utility.yul\":2568:2571   */\n      dup6\n        /* \"#utility.yul\":2492:2580   */\n      tag_69\n      jump\t// in\n    tag_68:\n        /* \"#utility.yul\":2485:2580   */\n      swap4\n      pop\n        /* \"#utility.yul\":2590:2633   */\n      tag_70\n        /* \"#utility.yul\":2626:2632   */\n      dup4\n        /* \"#utility.yul\":2621:2624   */\n      dup6\n        /* \"#utility.yul\":2614:2619   */\n      dup5\n        /* \"#utility.yul\":2590:2633   */\n      tag_63\n      jump\t// in\n    tag_70:\n        /* \"#utility.yul\":2658:2664   */\n      dup3\n        /* \"#utility.yul\":2653:2656   */\n      dup5\n        /* \"#utility.yul\":2649:2665   */\n      add\n        /* \"#utility.yul\":2642:2665   */\n      swap1\n      pop\n        /* \"#utility.yul\":2357:2671   */\n      swap4\n      swap3\n      pop\n      pop\n      pop\n      jump\t// out\n        /* \"#utility.yul\":2677:2968   */\n    tag_20:\n        /* \"#utility.yul\":2817:2820   */\n      0x00\n        /* \"#utility.yul\":2839:2942   */\n      tag_72\n        /* \"#utility.yul\":2938:2941   */\n      dup3\n        /* \"#utility.yul\":2929:2935   */\n      dup5\n        /* \"#utility.yul\":2921:2927   */\n      dup7\n        /* \"#utility.yul\":2839:2942   */\n      tag_66\n      jump\t// in\n    tag_72:\n        /* \"#utility.yul\":2832:2942   */\n      swap2\n      pop\n        /* \"#utility.yul\":2959:2962   */\n      dup2\n        /* \"#utility.yul\":2952:2962   */\n      swap1\n      pop\n        /* \"#utility.yul\":2677:2968   */\n      swap4\n      swap3\n      pop\n      pop\n      pop\n      jump\t// out\n        /* \"#utility.yul\":2974:3192   */\n    tag_14:\n        /* \"#utility.yul\":3065:3069   */\n      0x00\n        /* \"#utility.yul\":3103:3105   */\n      0x20\n        /* \"#utility.yul\":3092:3101   */\n      dup3\n        /* \"#utility.yul\":3088:3106   */\n      add\n        /* \"#utility.yul\":3080:3106   */\n      swap1\n      pop\n        /* \"#utility.yul\":3116:3185   */\n      tag_74\n        /* \"#utility.yul\":3182:3183   */\n      0x00\n        /* \"#utility.yul\":3171:3180   */\n      dup4\n        /* \"#utility.yul\":3167:3184   */\n      add\n        /* \"#utility.yul\":3158:3164   */\n      dup5\n        /* \"#utility.yul\":3116:3185   */\n      tag_54\n      jump\t// in\n    tag_74:\n        /* \"#utility.yul\":2974:3192   */\n      swap3\n      swap2\n      pop\n      pop\n      jump\t// out\n        /* \"#utility.yul\":3198:3527   */\n    tag_17:\n        /* \"#utility.yul\":3319:3323   */\n      0x00\n        /* \"#utility.yul\":3357:3359   */\n      0x20\n        /* \"#utility.yul\":3346:3355   */\n      dup3\n        /* \"#utility.yul\":3342:3360   */\n      add\n        /* \"#utility.yul\":3334:3360   */\n      swap1\n      pop\n        /* \"#utility.yul\":3406:3415   */\n      dup2\n        /* \"#utility.yul\":3400:3404   */\n      dup2\n        /* \"#utility.yul\":3396:3416   */\n      sub\n        /* \"#utility.yul\":3392:3393   */\n      0x00\n        /* \"#utility.yul\":3381:3390   */\n      dup4\n        /* \"#utility.yul\":3377:3394   */\n      add\n        /* \"#utility.yul\":3370:3417   */\n      mstore\n        /* \"#utility.yul\":3434:3520   */\n      tag_76\n        /* \"#utility.yul\":3515:3519   */\n      dup2\n        /* \"#utility.yul\":3506:3512   */\n      dup5\n        /* \"#utility.yul\":3498:3504   */\n      dup7\n        /* \"#utility.yul\":3434:3520   */\n      tag_58\n      jump\t// in\n    tag_76:\n        /* \"#utility.yul\":3426:3520   */\n      swap1\n      pop\n        /* \"#utility.yul\":3198:3527   */\n      swap4\n      swap3\n      pop\n      pop\n      pop\n      jump\t// out\n        /* \"#utility.yul\":3614:3782   */\n    tag_61:\n        /* \"#utility.yul\":3697:3708   */\n      0x00\n        /* \"#utility.yul\":3731:3737   */\n      dup3\n        /* \"#utility.yul\":3726:3729   */\n      dup3\n        /* \"#utility.yul\":3719:3738   */\n      mstore\n        /* \"#utility.yul\":3771:3775   */\n      0x20\n        /* \"#utility.yul\":3766:3769   */\n      dup3\n        /* \"#utility.yul\":3762:3776   */\n      add\n        /* \"#utility.yul\":3747:3776   */\n      swap1\n      pop\n        /* \"#utility.yul\":3614:3782   */\n      swap3\n      swap2\n      pop\n      pop\n      jump\t// out\n        /* \"#utility.yul\":3788:3935   */\n    tag_69:\n        /* \"#utility.yul\":3889:3900   */\n      0x00\n        /* \"#utility.yul\":3926:3929   */\n      dup2\n        /* \"#utility.yul\":3911:3929   */\n      swap1\n      pop\n        /* \"#utility.yul\":3788:3935   */\n      swap3\n      swap2\n      pop\n      pop\n      jump\t// out\n        /* \"#utility.yul\":3941:4037   */\n    tag_81:\n        /* \"#utility.yul\":3978:3985   */\n      0x00\n        /* \"#utility.yul\":4007:4031   */\n      tag_83\n        /* \"#utility.yul\":4025:4030   */\n      dup3\n        /* \"#utility.yul\":4007:4031   */\n      tag_84\n      jump\t// in\n    tag_83:\n        /* \"#utility.yul\":3996:4031   */\n      swap1\n      pop\n        /* \"#utility.yul\":3941:4037   */\n      swap2\n      swap1\n      pop\n      jump\t// out\n        /* \"#utility.yul\":4043:4192   */\n    tag_57:\n        /* \"#utility.yul\":4079:4086   */\n      0x00\n        /* \"#utility.yul\":4119:4185   */\n      0xffffffff00000000000000000000000000000000000000000000000000000000\n        /* \"#utility.yul\":4112:4117   */\n      dup3\n        /* \"#utility.yul\":4108:4186   */\n      and\n        /* \"#utility.yul\":4097:4186   */\n      swap1\n      pop\n        /* \"#utility.yul\":4043:4192   */\n      swap2\n      swap1\n      pop\n      jump\t// out\n        /* \"#utility.yul\":4198:4324   */\n    tag_84:\n        /* \"#utility.yul\":4235:4242   */\n      0x00\n        /* \"#utility.yul\":4275:4317   */\n      0xffffffffffffffffffffffffffffffffffffffff\n        /* \"#utility.yul\":4268:4273   */\n      dup3\n        /* \"#utility.yul\":4264:4318   */\n      and\n        /* \"#utility.yul\":4253:4318   */\n      swap1\n      pop\n        /* \"#utility.yul\":4198:4324   */\n      swap2\n      swap1\n      pop\n      jump\t// out\n        /* \"#utility.yul\":4330:4407   */\n    tag_87:\n        /* \"#utility.yul\":4367:4374   */\n      0x00\n        /* \"#utility.yul\":4396:4401   */\n      dup2\n        /* \"#utility.yul\":4385:4401   */\n      swap1\n      pop\n        /* \"#utility.yul\":4330:4407   */\n      swap2\n      swap1\n      pop\n      jump\t// out\n        /* \"#utility.yul\":4413:4567   */\n    tag_63:\n        /* \"#utility.yul\":4497:4503   */\n      dup3\n        /* \"#utility.yul\":4492:4495   */\n      dup2\n        /* \"#utility.yul\":4487:4490   */\n      dup4\n        /* \"#utility.yul\":4474:4504   */\n      calldatacopy\n        /* \"#utility.yul\":4559:4560   */\n      0x00\n        /* \"#utility.yul\":4550:4556   */\n      dup4\n        /* \"#utility.yul\":4545:4548   */\n      dup4\n        /* \"#utility.yul\":4541:4557   */\n      add\n        /* \"#utility.yul\":4534:4561   */\n      mstore\n        /* \"#utility.yul\":4413:4567   */\n      pop\n      pop\n      pop\n      jump\t// out\n        /* \"#utility.yul\":4573:4690   */\n    tag_33:\n        /* \"#utility.yul\":4682:4683   */\n      0x00\n        /* \"#utility.yul\":4679:4680   */\n      dup1\n        /* \"#utility.yul\":4672:4684   */\n      revert\n        /* \"#utility.yul\":4696:4813   */\n    tag_30:\n        /* \"#utility.yul\":4805:4806   */\n      0x00\n        /* \"#utility.yul\":4802:4803   */\n      dup1\n        /* \"#utility.yul\":4795:4807   */\n      revert\n        /* \"#utility.yul\":4819:4936   */\n    tag_36:\n        /* \"#utility.yul\":4928:4929   */\n      0x00\n        /* \"#utility.yul\":4925:4926   */\n      dup1\n        /* \"#utility.yul\":4918:4930   */\n      revert\n        /* \"#utility.yul\":4942:5059   */\n    tag_52:\n        /* \"#utility.yul\":5051:5052   */\n      0x00\n        /* \"#utility.yul\":5048:5049   */\n      dup1\n        /* \"#utility.yul\":5041:5053   */\n      revert\n        /* \"#utility.yul\":5065:5182   */\n    tag_44:\n        /* \"#utility.yul\":5174:5175   */\n      0x00\n        /* \"#utility.yul\":5171:5172   */\n      dup1\n        /* \"#utility.yul\":5164:5176   */\n      revert\n        /* \"#utility.yul\":5188:5290   */\n    tag_65:\n        /* \"#utility.yul\":5229:5235   */\n      0x00\n        /* \"#utility.yul\":5280:5282   */\n      0x1f\n        /* \"#utility.yul\":5276:5283   */\n      not\n        /* \"#utility.yul\":5271:5273   */\n      0x1f\n        /* \"#utility.yul\":5264:5269   */\n      dup4\n        /* \"#utility.yul\":5260:5274   */\n      add\n        /* \"#utility.yul\":5256:5284   */\n      and\n        /* \"#utility.yul\":5246:5284   */\n      swap1\n      pop\n        /* \"#utility.yul\":5188:5290   */\n      swap2\n      swap1\n      pop\n      jump\t// out\n        /* \"#utility.yul\":5296:5418   */\n    tag_25:\n        /* \"#utility.yul\":5369:5393   */\n      tag_97\n        /* \"#utility.yul\":5387:5392   */\n      dup2\n        /* \"#utility.yul\":5369:5393   */\n      tag_81\n      jump\t// in\n    tag_97:\n        /* \"#utility.yul\":5362:5367   */\n      dup2\n        /* \"#utility.yul\":5359:5394   */\n      eq\n        /* \"#utility.yul\":5349:5412   */\n      tag_98\n      jumpi\n        /* \"#utility.yul\":5408:5409   */\n      0x00\n        /* \"#utility.yul\":5405:5406   */\n      dup1\n        /* \"#utility.yul\":5398:5410   */\n      revert\n        /* \"#utility.yul\":5349:5412   */\n    tag_98:\n        /* \"#utility.yul\":5296:5418   */\n      pop\n      jump\t// out\n        /* \"#utility.yul\":5424:5546   */\n    tag_40:\n        /* \"#utility.yul\":5497:5521   */\n      tag_100\n        /* \"#utility.yul\":5515:5520   */\n      dup2\n        /* \"#utility.yul\":5497:5521   */\n      tag_87\n      jump\t// in\n    tag_100:\n        /* \"#utility.yul\":5490:5495   */\n      dup2\n        /* \"#utility.yul\":5487:5522   */\n      eq\n        /* \"#utility.yul\":5477:5540   */\n      tag_101\n      jumpi\n        /* \"#utility.yul\":5536:5537   */\n      0x00\n        /* \"#utility.yul\":5533:5534   */\n      dup1\n        /* \"#utility.yul\":5526:5538   */\n      revert\n        /* \"#utility.yul\":5477:5540   */\n    tag_101:\n        /* \"#utility.yul\":5424:5546   */\n      pop\n      jump\t// out\n\n    auxdata: 0xa2646970667358221220334b7b5a37f9d30613a89081ea3e77dbcfddb96d404ccbbd78f862270e6bade664736f6c63430008070033\n}\n",
				"bytecode": {
					"linkReferences": {},
					"object": "608060405234801561001057600080fd5b506103ce806100206000396000f3fe608060405234801561001057600080fd5b50600436106100365760003560e01c806367a144c01461003b578063e1bbcc7314610057575b600080fd5b61005560048036038101906100509190610167565b610087565b005b610071600480360381019061006c91906101a7565b6100c5565b60405161007e919061026e565b60405180910390f35b7f0be77f5642494da7d212b92a3472c4f471abb24e17467f41788e7de7915d62386000366040516100b9929190610289565b60405180910390a15050565b600082826040516100d7929190610255565b6040518091039020905092915050565b6000813590506100f68161036a565b92915050565b60008083601f84011261011257610111610345565b5b8235905067ffffffffffffffff81111561012f5761012e610340565b5b60208301915083600182028301111561014b5761014a61034a565b5b9250929050565b60008135905061016181610381565b92915050565b6000806040838503121561017e5761017d610354565b5b600061018c858286016100e7565b925050602061019d85828601610152565b9150509250929050565b600080602083850312156101be576101bd610354565b5b600083013567ffffffffffffffff8111156101dc576101db61034f565b5b6101e8858286016100fc565b92509250509250929050565b6101fd816102db565b82525050565b600061020f83856102ad565b935061021c838584610331565b61022583610359565b840190509392505050565b600061023c83856102be565b9350610249838584610331565b82840190509392505050565b6000610262828486610230565b91508190509392505050565b600060208201905061028360008301846101f4565b92915050565b600060208201905081810360008301526102a4818486610203565b90509392505050565b600082825260208201905092915050565b600081905092915050565b60006102d482610307565b9050919050565b60007fffffffff0000000000000000000000000000000000000000000000000000000082169050919050565b600073ffffffffffffffffffffffffffffffffffffffff82169050919050565b6000819050919050565b82818337600083830152505050565b600080fd5b600080fd5b600080fd5b600080fd5b600080fd5b6000601f19601f8301169050919050565b610373816102c9565b811461037e57600080fd5b50565b61038a81610327565b811461039557600080fd5b5056fea2646970667358221220334b7b5a37f9d30613a89081ea3e77dbcfddb96d404ccbbd78f862270e6bade664736f6c63430008070033",
					"opcodes": "PUSH1 0x80 PUSH1 0x40 MSTORE CALLVALUE DUP1 ISZERO PUSH2 0x10 JUMPI PUSH1 0x0 DUP1 REVERT JUMPDEST POP PUSH2 0x3CE DUP1 PUSH2 0x20 PUSH1 0x0 CODECOPY PUSH1 0x0 RETURN INVALID PUSH1 0x80 PUSH1 0x40 MSTORE CALLVALUE DUP1 ISZERO PUSH2 0x10 JUMPI PUSH1 0x0 DUP1 REVERT JUMPDEST POP PUSH1 0x4 CALLDATASIZE LT PUSH2 0x36 JUMPI PUSH1 0x0 CALLDATALOAD PUSH1 0xE0 SHR DUP1 PUSH4 0x67A144C0 EQ PUSH2 0x3B JUMPI DUP1 PUSH4 0xE1BBCC73 EQ PUSH2 0x57 JUMPI JUMPDEST PUSH1 0x0 DUP1 REVERT JUMPDEST PUSH2 0x55 PUSH1 0x4 DUP1 CALLDATASIZE SUB DUP2 ADD SWAP1 PUSH2 0x50 SWAP2 SWAP1 PUSH2 0x167 JUMP JUMPDEST PUSH2 0x87 JUMP JUMPDEST STOP JUMPDEST PUSH2 0x71 PUSH1 0x4 DUP1 CALLDATASIZE SUB DUP2 ADD SWAP1 PUSH2 0x6C SWAP2 SWAP1 PUSH2 0x1A7 JUMP JUMPDEST PUSH2 0xC5 JUMP JUMPDEST PUSH1 0x40 MLOAD PUSH2 0x7E SWAP2 SWAP1 PUSH2 0x26E JUMP JUMPDEST PUSH1 0x40 MLOAD DUP1 SWAP2 SUB SWAP1 RETURN JUMPDEST PUSH32 0xBE77F5642494DA7D212B92A3472C4F471ABB24E17467F41788E7DE7915D6238 PUSH1 0x0 CALLDATASIZE PUSH1 0x40 MLOAD PUSH2 0xB9 SWAP3 SWAP2 SWAP1 PUSH2 0x289 JUMP JUMPDEST PUSH1 0x40 MLOAD DUP1 SWAP2 SUB SWAP1 LOG1 POP POP JUMP JUMPDEST PUSH1 0x0 DUP3 DUP3 PUSH1 0x40 MLOAD PUSH2 0xD7 SWAP3 SWAP2 SWAP1 PUSH2 0x255 JUMP JUMPDEST PUSH1 0x40 MLOAD DUP1 SWAP2 SUB SWAP1 KECCAK256 SWAP1 POP SWAP3 SWAP2 POP POP JUMP JUMPDEST PUSH1 0x0 DUP2 CALLDATALOAD SWAP1 POP PUSH2 0xF6 DUP2 PUSH2 0x36A JUMP JUMPDEST SWAP3 SWAP2 POP POP JUMP JUMPDEST PUSH1 0x0 DUP1 DUP4 PUSH1 0x1F DUP5 ADD SLT PUSH2 0x112 JUMPI PUSH2 0x111 PUSH2 0x345 JUMP JUMPDEST JUMPDEST DUP3 CALLDATALOAD SWAP1 POP PUSH8 0xFFFFFFFFFFFFFFFF DUP2 GT ISZERO PUSH2 0x12F JUMPI PUSH2 0x12E PUSH2 0x340 JUMP JUMPDEST JUMPDEST PUSH1 0x20 DUP4 ADD SWAP2 POP DUP4 PUSH1 0x1 DUP3 MUL DUP4 ADD GT ISZERO PUSH2 0x14B JUMPI PUSH2 0x14A PUSH2 0x34A JUMP JUMPDEST JUMPDEST SWAP3 POP SWAP3 SWAP1 POP JUMP JUMPDEST PUSH1 0x0 DUP2 CALLDATALOAD SWAP1 POP PUSH2 0x161 DUP2 PUSH2 0x381 JUMP JUMPDEST SWAP3 SWAP2 POP POP JUMP JUMPDEST PUSH1 0x0 DUP1 PUSH1 0x40 DUP4 DUP6 SUB SLT ISZERO PUSH2 0x17E JUMPI PUSH2 0x17D PUSH2 0x354 JUMP JUMPDEST JUMPDEST PUSH1 0x0 PUSH2 0x18C DUP6 DUP3 DUP7 ADD PUSH2 0xE7 JUMP JUMPDEST SWAP3 POP POP PUSH1 0x20 PUSH2 0x19D DUP6 DUP3 DUP7 ADD PUSH2 0x152 JUMP JUMPDEST SWAP2 POP POP SWAP3 POP SWAP3 SWAP1 POP JUMP JUMPDEST PUSH1 0x0 DUP1 PUSH1 0x20 DUP4 DUP6 SUB SLT ISZERO PUSH2 0x1BE JUMPI PUSH2 0x1BD PUSH2 0x354 JUMP JUMPDEST JUMPDEST PUSH1 0x0 DUP4 ADD CALLDATALOAD PUSH8 0xFFFFFFFFFFFFFFFF DUP2 GT ISZERO PUSH2 0x1DC JUMPI PUSH2 0x1DB PUSH2 0x34F JUMP JUMPDEST JUMPDEST PUSH2 0x1E8 DUP6 DUP3 DUP7 ADD PUSH2 0xFC JUMP JUMPDEST SWAP3 POP SWAP3 POP POP SWAP3 POP SWAP3 SWAP1 POP JUMP JUMPDEST PUSH2 0x1FD DUP2 PUSH2 0x2DB JUMP JUMPDEST DUP3 MSTORE POP POP JUMP JUMPDEST PUSH1 0x0 PUSH2 0x20F DUP4 DUP6 PUSH2 0x2AD JUMP JUMPDEST SWAP4 POP PUSH2 0x21C DUP4 DUP6 DUP5 PUSH2 0x331 JUMP JUMPDEST PUSH2 0x225 DUP4 PUSH2 0x359 JUMP JUMPDEST DUP5 ADD SWAP1 POP SWAP4 SWAP3 POP POP POP JUMP JUMPDEST PUSH1 0x0 PUSH2 0x23C DUP4 DUP6 PUSH2 0x2BE JUMP JUMPDEST SWAP4 POP PUSH2 0x249 DUP4 DUP6 DUP5 PUSH2 0x331 JUMP JUMPDEST DUP3 DUP5 ADD SWAP1 POP SWAP4 SWAP3 POP POP POP JUMP JUMPDEST PUSH1 0x0 PUSH2 0x262 DUP3 DUP5 DUP7 PUSH2 0x230 JUMP JUMPDEST SWAP2 POP DUP2 SWAP1 POP SWAP4 SWAP3 POP POP POP JUMP JUMPDEST PUSH1 0x0 PUSH1 0x20 DUP3 ADD SWAP1 POP PUSH2 0x283 PUSH1 0x0 DUP4 ADD DUP5 PUSH2 0x1F4 JUMP JUMPDEST SWAP3 SWAP2 POP POP JUMP JUMPDEST PUSH1 0x0 PUSH1 0x20 DUP3 ADD SWAP1 POP DUP2 DUP2 SUB PUSH1 0x0 DUP4 ADD MSTORE PUSH2 0x2A4 DUP2 DUP5 DUP7 PUSH2 0x203 JUMP JUMPDEST SWAP1 POP SWAP4 SWAP3 POP POP POP JUMP JUMPDEST PUSH1 0x0 DUP3 DUP3 MSTORE PUSH1 0x20 DUP3 ADD SWAP1 POP SWAP3 SWAP2 POP POP JUMP JUMPDEST PUSH1 0x0 DUP2 SWAP1 POP SWAP3 SWAP2 POP POP JUMP JUMPDEST PUSH1 0x0 PUSH2 0x2D4 DUP3 PUSH2 0x307 JUMP JUMPDEST SWAP1 POP SWAP2 SWAP1 POP JUMP JUMPDEST PUSH1 0x0 PUSH32 0xFFFFFFFF00000000000000000000000000000000000000000000000000000000 DUP3 AND SWAP1 POP SWAP2 SWAP1 POP JUMP JUMPDEST PUSH1 0x0 PUSH20 0xFFFFFFFFFFFFFFFFFFFFFFFFFFFFFFFFFFFFFFFF DUP3 AND SWAP1 POP SWAP2 SWAP1 POP JUMP JUMPDEST PUSH1 0x0 DUP2 SWAP1 POP SWAP2 SWAP1 POP JUMP JUMPDEST DUP3 DUP2 DUP4 CALLDATACOPY PUSH1 0x0 DUP4 DUP4 ADD MSTORE POP POP POP JUMP JUMPDEST PUSH1 0x0 DUP1 REVERT JUMPDEST PUSH1 0x0 DUP1 REVERT JUMPDEST PUSH1 0x0 DUP1 REVERT JUMPDEST PUSH1 0x0 DUP1 REVERT JUMPDEST PUSH1 0x0 DUP1 REVERT JUMPDEST PUSH1 0x0 PUSH1 0x1F NOT PUSH1 0x1F DUP4 ADD AND SWAP1 POP SWAP2 SWAP1 POP JUMP JUMPDEST PUSH2 0x373 DUP2 PUSH2 0x2C9 JUMP JUMPDEST DUP2 EQ PUSH2 0x37E JUMPI PUSH1 0x0 DUP1 REVERT JUMPDEST POP JUMP JUMPDEST PUSH2 0x38A DUP2 PUSH2 0x327 JUMP JUMPDEST DUP2 EQ PUSH2 0x395 JUMPI PUSH1 0x0 DUP1 REVERT JUMPDEST POP JUMP INVALID LOG2 PUSH5 0x6970667358 0x22 SLT KECCAK256 CALLER 0x4B PUSH28 0x5A37F9D30613A89081EA3E77DBCFDDB96D404CCBBD78F862270E6BAD 0xE6 PUSH5 0x736F6C6343 STOP ADDMOD SMOD STOP CALLER "
				},
				"gasEstimates": {
					"creation": {
						"codeDepositCost": "194800",
						"executionCost": "238",
						"totalCost": "195038"
					},
					"external": {
						"TRansfer(address,uint256)": "infinite",
						"checkselector(string)": "infinite"
					}
				},
				"methodIdentifiers": {
					"TRansfer(address,uint256)": "67a144c0",
					"checkselector(string)": "e1bbcc73"
				}
			},
			"storageLayout": {
				"storage": [],
				"types": null
			},
			"userdoc": {
				"kind": "user",
				"methods": {},
				"version": 1
			}
		}
	}
}