{
	"artifacts/Lalit/Timer.sol": {
		"timer": {
			"abi": [
				{
					"inputs": [
						{
							"internalType": "uint256",
							"name": "totaltime",
							"type": "uint256"
						}
					],
					"name": "End",
					"outputs": [],
					"stateMutability": "nonpayable",
					"type": "function"
				},
				{
					"inputs": [],
					"name": "Start",
					"outputs": [],
					"stateMutability": "nonpayable",
					"type": "function"
				},
				{
					"inputs": [],
					"name": "difftime",
					"outputs": [
						{
							"internalType": "uint256",
							"name": "",
							"type": "uint256"
						}
					],
					"stateMutability": "view",
					"type": "function"
				}
			],
			"devdoc": {
				"kind": "dev",
				"methods": {},
				"version": 1
			},
			"evm": {
				"assembly": "    /* \"artifacts/Lalit/Timer.sol\":230:540  contract timer{... */\n  mstore(0x40, 0x80)\n  callvalue\n  dup1\n  iszero\n  tag_1\n  jumpi\n  0x00\n  dup1\n  revert\ntag_1:\n  pop\n  dataSize(sub_0)\n  dup1\n  dataOffset(sub_0)\n  0x00\n  codecopy\n  0x00\n  return\nstop\n\nsub_0: assembly {\n        /* \"artifacts/Lalit/Timer.sol\":230:540  contract timer{... */\n      mstore(0x40, 0x80)\n      callvalue\n      dup1\n      iszero\n      tag_1\n      jumpi\n      0x00\n      dup1\n      revert\n    tag_1:\n      pop\n      jumpi(tag_2, lt(calldatasize, 0x04))\n      shr(0xe0, calldataload(0x00))\n      dup1\n      0x1b55ba3a\n      eq\n      tag_3\n      jumpi\n      dup1\n      0x1d9505ab\n      eq\n      tag_4\n      jumpi\n      dup1\n      0x2c03d2f0\n      eq\n      tag_5\n      jumpi\n    tag_2:\n      0x00\n      dup1\n      revert\n        /* \"artifacts/Lalit/Timer.sol\":283:357  function Start() public{... */\n    tag_3:\n      tag_6\n      tag_7\n      jump\t// in\n    tag_6:\n      stop\n        /* \"artifacts/Lalit/Timer.sol\":455:537  function difftime() public view returns(uint){... */\n    tag_4:\n      tag_8\n      tag_9\n      jump\t// in\n    tag_8:\n      mload(0x40)\n      dup1\n      dup3\n      dup2\n      mstore\n      0x20\n      add\n      swap2\n      pop\n      pop\n      mload(0x40)\n      dup1\n      swap2\n      sub\n      swap1\n      return\n        /* \"artifacts/Lalit/Timer.sol\":359:454  function End(uint totaltime) public{... */\n    tag_5:\n      tag_10\n      0x04\n      dup1\n      calldatasize\n      sub\n      0x20\n      dup2\n      lt\n      iszero\n      tag_11\n      jumpi\n      0x00\n      dup1\n      revert\n    tag_11:\n      dup2\n      add\n      swap1\n      dup1\n      dup1\n      calldataload\n      swap1\n      0x20\n      add\n      swap1\n      swap3\n      swap2\n      swap1\n      pop\n      pop\n      pop\n      tag_12\n      jump\t// in\n    tag_10:\n      stop\n        /* \"artifacts/Lalit/Timer.sol\":283:357  function Start() public{... */\n    tag_7:\n        /* \"artifacts/Lalit/Timer.sol\":325:340  block.timestamp */\n      timestamp\n        /* \"artifacts/Lalit/Timer.sol\":316:322  _Start */\n      0x00\n        /* \"artifacts/Lalit/Timer.sol\":316:340  _Start = block.timestamp */\n      dup2\n      swap1\n      sstore\n      pop\n        /* \"artifacts/Lalit/Timer.sol\":283:357  function Start() public{... */\n      jump\t// out\n        /* \"artifacts/Lalit/Timer.sol\":455:537  function difftime() public view returns(uint){... */\n    tag_9:\n        /* \"artifacts/Lalit/Timer.sol\":495:499  uint */\n      0x00\n        /* \"artifacts/Lalit/Timer.sol\":519:534  block.timestamp */\n      timestamp\n        /* \"artifacts/Lalit/Timer.sol\":514:518  _End */\n      sload(0x01)\n        /* \"artifacts/Lalit/Timer.sol\":514:534  _End-block.timestamp */\n      sub\n        /* \"artifacts/Lalit/Timer.sol\":507:534  return _End-block.timestamp */\n      swap1\n      pop\n        /* \"artifacts/Lalit/Timer.sol\":455:537  function difftime() public view returns(uint){... */\n      swap1\n      jump\t// out\n        /* \"artifacts/Lalit/Timer.sol\":359:454  function End(uint totaltime) public{... */\n    tag_12:\n        /* \"artifacts/Lalit/Timer.sol\":422:437  block.timestamp */\n      timestamp\n        /* \"artifacts/Lalit/Timer.sol\":411:420  totaltime */\n      dup2\n        /* \"artifacts/Lalit/Timer.sol\":411:437  totaltime +block.timestamp */\n      add\n        /* \"artifacts/Lalit/Timer.sol\":404:408  _End */\n      0x01\n        /* \"artifacts/Lalit/Timer.sol\":404:437  _End = totaltime +block.timestamp */\n      dup2\n      swap1\n      sstore\n      pop\n        /* \"artifacts/Lalit/Timer.sol\":359:454  function End(uint totaltime) public{... */\n      pop\n      jump\t// out\n\n    auxdata: 0xa2646970667358221220036919448e6a9a45ce1353bec41a75ecc515b4743dd62eee6980e65a84dfac6a64736f6c63430007060033\n}\n",
				"bytecode": {
					"linkReferences": {},
					"object": "608060405234801561001057600080fd5b5060e78061001f6000396000f3fe6080604052348015600f57600080fd5b5060043610603c5760003560e01c80631b55ba3a1460415780631d9505ab1460495780632c03d2f0146065575b600080fd5b60476090565b005b604f6099565b6040518082815260200191505060405180910390f35b608e60048036036020811015607957600080fd5b810190808035906020019092919050505060a5565b005b42600081905550565b60004260015403905090565b4281016001819055505056fea2646970667358221220036919448e6a9a45ce1353bec41a75ecc515b4743dd62eee6980e65a84dfac6a64736f6c63430007060033",
					"opcodes": "PUSH1 0x80 PUSH1 0x40 MSTORE CALLVALUE DUP1 ISZERO PUSH2 0x10 JUMPI PUSH1 0x0 DUP1 REVERT JUMPDEST POP PUSH1 0xE7 DUP1 PUSH2 0x1F PUSH1 0x0 CODECOPY PUSH1 0x0 RETURN INVALID PUSH1 0x80 PUSH1 0x40 MSTORE CALLVALUE DUP1 ISZERO PUSH1 0xF JUMPI PUSH1 0x0 DUP1 REVERT JUMPDEST POP PUSH1 0x4 CALLDATASIZE LT PUSH1 0x3C JUMPI PUSH1 0x0 CALLDATALOAD PUSH1 0xE0 SHR DUP1 PUSH4 0x1B55BA3A EQ PUSH1 0x41 JUMPI DUP1 PUSH4 0x1D9505AB EQ PUSH1 0x49 JUMPI DUP1 PUSH4 0x2C03D2F0 EQ PUSH1 0x65 JUMPI JUMPDEST PUSH1 0x0 DUP1 REVERT JUMPDEST PUSH1 0x47 PUSH1 0x90 JUMP JUMPDEST STOP JUMPDEST PUSH1 0x4F PUSH1 0x99 JUMP JUMPDEST PUSH1 0x40 MLOAD DUP1 DUP3 DUP2 MSTORE PUSH1 0x20 ADD SWAP2 POP POP PUSH1 0x40 MLOAD DUP1 SWAP2 SUB SWAP1 RETURN JUMPDEST PUSH1 0x8E PUSH1 0x4 DUP1 CALLDATASIZE SUB PUSH1 0x20 DUP2 LT ISZERO PUSH1 0x79 JUMPI PUSH1 0x0 DUP1 REVERT JUMPDEST DUP2 ADD SWAP1 DUP1 DUP1 CALLDATALOAD SWAP1 PUSH1 0x20 ADD SWAP1 SWAP3 SWAP2 SWAP1 POP POP POP PUSH1 0xA5 JUMP JUMPDEST STOP JUMPDEST TIMESTAMP PUSH1 0x0 DUP2 SWAP1 SSTORE POP JUMP JUMPDEST PUSH1 0x0 TIMESTAMP PUSH1 0x1 SLOAD SUB SWAP1 POP SWAP1 JUMP JUMPDEST TIMESTAMP DUP2 ADD PUSH1 0x1 DUP2 SWAP1 SSTORE POP POP JUMP INVALID LOG2 PUSH5 0x6970667358 0x22 SLT KECCAK256 SUB PUSH10 0x19448E6A9A45CE1353BE 0xC4 BYTE PUSH22 0xECC515B4743DD62EEE6980E65A84DFAC6A64736F6C63 NUMBER STOP SMOD MOD STOP CALLER "
				},
				"gasEstimates": {
					"creation": {
						"codeDepositCost": "46200",
						"executionCost": "99",
						"totalCost": "46299"
					},
					"external": {
						"End(uint256)": "20269",
						"Start()": "20135",
						"difftime()": "1018"
					}
				},
				"methodIdentifiers": {
					"End(uint256)": "2c03d2f0",
					"Start()": "1b55ba3a",
					"difftime()": "1d9505ab"
				}
			},
			"storageLayout": {
				"storage": [
					{
						"astId": 3,
						"contract": "artifacts/Lalit/Timer.sol:timer",
						"label": "_Start",
						"offset": 0,
						"slot": "0",
						"type": "t_uint256"
					},
					{
						"astId": 5,
						"contract": "artifacts/Lalit/Timer.sol:timer",
						"label": "_End",
						"offset": 0,
						"slot": "1",
						"type": "t_uint256"
					}
				],
				"types": {
					"t_uint256": {
						"encoding": "inplace",
						"label": "uint256",
						"numberOfBytes": "32"
					}
				}
			},
			"userdoc": {
				"kind": "user",
				"methods": {},
				"version": 1
			}
		}
	}
}