{
	"artifacts/Lalit/Fallback,  Receive.sol": {
		"fallback_receive": {
			"abi": [
				{
					"stateMutability": "payable",
					"type": "fallback"
				},
				{
					"inputs": [],
					"name": "getwbal",
					"outputs": [
						{
							"internalType": "uint256",
							"name": "",
							"type": "uint256"
						}
					],
					"stateMutability": "view",
					"type": "function"
				},
				{
					"stateMutability": "payable",
					"type": "receive"
				}
			],
			"devdoc": {
				"kind": "dev",
				"methods": {},
				"version": 1
			},
			"evm": {
				"assembly": "    /* \"artifacts/Lalit/Fallback,  Receive.sol\":541:726  contract fallback_receive{... */\n  mstore(0x40, 0x80)\n  callvalue\n  dup1\n  iszero\n  tag_1\n  jumpi\n  0x00\n  dup1\n  revert\ntag_1:\n  pop\n  dataSize(sub_0)\n  dup1\n  dataOffset(sub_0)\n  0x00\n  codecopy\n  0x00\n  return\nstop\n\nsub_0: assembly {\n        /* \"artifacts/Lalit/Fallback,  Receive.sol\":541:726  contract fallback_receive{... */\n      mstore(0x40, 0x80)\n      jumpi(tag_1, lt(calldatasize, 0x04))\n      shr(0xe0, calldataload(0x00))\n      dup1\n      0x23db5897\n      eq\n      tag_3\n      jumpi\n      jump(tag_2)\n    tag_1:\n      jumpi(tag_2, calldatasize)\n      stop\n    tag_2:\n      stop\n        /* \"artifacts/Lalit/Fallback,  Receive.sol\":643:722  function getwbal() public view returns( uint){... */\n    tag_3:\n      callvalue\n      dup1\n      iszero\n      tag_8\n      jumpi\n      0x00\n      dup1\n      revert\n    tag_8:\n      pop\n      tag_9\n      tag_10\n      jump\t// in\n    tag_9:\n      mload(0x40)\n      dup1\n      dup3\n      dup2\n      mstore\n      0x20\n      add\n      swap2\n      pop\n      pop\n      mload(0x40)\n      dup1\n      swap2\n      sub\n      swap1\n      return\n    tag_10:\n        /* \"artifacts/Lalit/Fallback,  Receive.sol\":683:687  uint */\n      0x00\n        /* \"artifacts/Lalit/Fallback,  Receive.sol\":697:718  address(this).balance */\n      selfbalance\n        /* \"artifacts/Lalit/Fallback,  Receive.sol\":690:718  return address(this).balance */\n      swap1\n      pop\n        /* \"artifacts/Lalit/Fallback,  Receive.sol\":643:722  function getwbal() public view returns( uint){... */\n      swap1\n      jump\t// out\n\n    auxdata: 0xa26469706673582212200390a4343fb6ac534565352ee92e3abe040ba6b31a752696a8a2e8f4e105bb0964736f6c63430007060033\n}\n",
				"bytecode": {
					"linkReferences": {},
					"object": "6080604052348015600f57600080fd5b50608d8061001e6000396000f3fe608060405260043610601f5760003560e01c806323db5897146027576025565b36602557005b005b348015603257600080fd5b506039604f565b6040518082815260200191505060405180910390f35b60004790509056fea26469706673582212200390a4343fb6ac534565352ee92e3abe040ba6b31a752696a8a2e8f4e105bb0964736f6c63430007060033",
					"opcodes": "PUSH1 0x80 PUSH1 0x40 MSTORE CALLVALUE DUP1 ISZERO PUSH1 0xF JUMPI PUSH1 0x0 DUP1 REVERT JUMPDEST POP PUSH1 0x8D DUP1 PUSH2 0x1E PUSH1 0x0 CODECOPY PUSH1 0x0 RETURN INVALID PUSH1 0x80 PUSH1 0x40 MSTORE PUSH1 0x4 CALLDATASIZE LT PUSH1 0x1F JUMPI PUSH1 0x0 CALLDATALOAD PUSH1 0xE0 SHR DUP1 PUSH4 0x23DB5897 EQ PUSH1 0x27 JUMPI PUSH1 0x25 JUMP JUMPDEST CALLDATASIZE PUSH1 0x25 JUMPI STOP JUMPDEST STOP JUMPDEST CALLVALUE DUP1 ISZERO PUSH1 0x32 JUMPI PUSH1 0x0 DUP1 REVERT JUMPDEST POP PUSH1 0x39 PUSH1 0x4F JUMP JUMPDEST PUSH1 0x40 MLOAD DUP1 DUP3 DUP2 MSTORE PUSH1 0x20 ADD SWAP2 POP POP PUSH1 0x40 MLOAD DUP1 SWAP2 SUB SWAP1 RETURN JUMPDEST PUSH1 0x0 SELFBALANCE SWAP1 POP SWAP1 JUMP INVALID LOG2 PUSH5 0x6970667358 0x22 SLT KECCAK256 SUB SWAP1 LOG4 CALLVALUE EXTCODEHASH 0xB6 0xAC MSTORE8 GASLIMIT PUSH6 0x352EE92E3ABE DIV SIGNEXTEND 0xA6 0xB3 BYTE PUSH22 0x2696A8A2E8F4E105BB0964736F6C6343000706003300 "
				},
				"gasEstimates": {
					"creation": {
						"codeDepositCost": "28200",
						"executionCost": "81",
						"totalCost": "28281"
					},
					"external": {
						"": "85",
						"getwbal()": "193"
					}
				},
				"methodIdentifiers": {
					"getwbal()": "23db5897"
				}
			},
			"storageLayout": {
				"storage": [],
				"types": null
			},
			"userdoc": {
				"kind": "user",
				"methods": {},
				"version": 1
			}
		}
	}
}