{
	"artifacts/Lalit/send,transfer,call theory.sol": {
		"sendEth": {
			"abi": [
				{
					"inputs": [],
					"name": "SEND",
					"outputs": [],
					"stateMutability": "nonpayable",
					"type": "function"
				},
				{
					"inputs": [],
					"name": "checkbal",
					"outputs": [
						{
							"internalType": "uint256",
							"name": "",
							"type": "uint256"
						}
					],
					"stateMutability": "view",
					"type": "function"
				},
				{
					"inputs": [],
					"name": "getter",
					"outputs": [
						{
							"internalType": "address payable",
							"name": "",
							"type": "address"
						}
					],
					"stateMutability": "view",
					"type": "function"
				},
				{
					"stateMutability": "payable",
					"type": "receive"
				}
			],
			"devdoc": {
				"kind": "dev",
				"methods": {},
				"version": 1
			},
			"evm": {
				"assembly": "    /* \"artifacts/Lalit/send,transfer,call theory.sol\":1212:1716  contract sendEth{... */\n  mstore(0x40, 0x80)\n    /* \"artifacts/Lalit/send,transfer,call theory.sol\":1272:1314  0xAb8483F64d9C6d1EcF9b849Ae677dD3315835cb2 */\n  0xab8483f64d9c6d1ecf9b849ae677dd3315835cb2\n    /* \"artifacts/Lalit/send,transfer,call theory.sol\":1231:1315  address payable public getter = payable (0xAb8483F64d9C6d1EcF9b849Ae677dD3315835cb2) */\n  0x00\n  dup1\n  0x0100\n  exp\n  dup2\n  sload\n  dup2\n  0xffffffffffffffffffffffffffffffffffffffff\n  mul\n  not\n  and\n  swap1\n  dup4\n  0xffffffffffffffffffffffffffffffffffffffff\n  and\n  mul\n  or\n  swap1\n  sstore\n  pop\n    /* \"artifacts/Lalit/send,transfer,call theory.sol\":1212:1716  contract sendEth{... */\n  callvalue\n  dup1\n  iszero\n  tag_1\n  jumpi\n  0x00\n  dup1\n  revert\ntag_1:\n  pop\n  dataSize(sub_0)\n  dup1\n  dataOffset(sub_0)\n  0x00\n  codecopy\n  0x00\n  return\nstop\n\nsub_0: assembly {\n        /* \"artifacts/Lalit/send,transfer,call theory.sol\":1212:1716  contract sendEth{... */\n      mstore(0x40, 0x80)\n      jumpi(tag_1, lt(calldatasize, 0x04))\n      shr(0xe0, calldataload(0x00))\n      dup1\n      0x1f5e1334\n      eq\n      tag_3\n      jumpi\n      dup1\n      0x20ace1d0\n      eq\n      tag_4\n      jumpi\n      dup1\n      0x993a04b7\n      eq\n      tag_5\n      jumpi\n      jump(tag_2)\n    tag_1:\n      jumpi(tag_2, calldatasize)\n      stop\n    tag_2:\n      0x00\n      dup1\n      revert\n        /* \"artifacts/Lalit/send,transfer,call theory.sol\":1494:1705  function SEND() public {... */\n    tag_3:\n      callvalue\n      dup1\n      iszero\n      tag_8\n      jumpi\n      0x00\n      dup1\n      revert\n    tag_8:\n      pop\n      tag_9\n      tag_10\n      jump\t// in\n    tag_9:\n      stop\n        /* \"artifacts/Lalit/send,transfer,call theory.sol\":1409:1492  function checkbal() public view returns(uint ){... */\n    tag_4:\n      callvalue\n      dup1\n      iszero\n      tag_11\n      jumpi\n      0x00\n      dup1\n      revert\n    tag_11:\n      pop\n      tag_12\n      tag_13\n      jump\t// in\n    tag_12:\n      mload(0x40)\n      dup1\n      dup3\n      dup2\n      mstore\n      0x20\n      add\n      swap2\n      pop\n      pop\n      mload(0x40)\n      dup1\n      swap2\n      sub\n      swap1\n      return\n        /* \"artifacts/Lalit/send,transfer,call theory.sol\":1231:1315  address payable public getter = payable (0xAb8483F64d9C6d1EcF9b849Ae677dD3315835cb2) */\n    tag_5:\n      callvalue\n      dup1\n      iszero\n      tag_14\n      jumpi\n      0x00\n      dup1\n      revert\n    tag_14:\n      pop\n      tag_15\n      tag_16\n      jump\t// in\n    tag_15:\n      mload(0x40)\n      dup1\n      dup3\n      0xffffffffffffffffffffffffffffffffffffffff\n      and\n      dup2\n      mstore\n      0x20\n      add\n      swap2\n      pop\n      pop\n      mload(0x40)\n      dup1\n      swap2\n      sub\n      swap1\n      return\n        /* \"artifacts/Lalit/send,transfer,call theory.sol\":1494:1705  function SEND() public {... */\n    tag_10:\n        /* \"artifacts/Lalit/send,transfer,call theory.sol\":1588:1604  bool sendconfirm */\n      0x00\n        /* \"artifacts/Lalit/send,transfer,call theory.sol\":1607:1613  getter */\n      dup1\n      0x00\n      swap1\n      sload\n      swap1\n      0x0100\n      exp\n      swap1\n      div\n      0xffffffffffffffffffffffffffffffffffffffff\n      and\n        /* \"artifacts/Lalit/send,transfer,call theory.sol\":1607:1618  getter.send */\n      0xffffffffffffffffffffffffffffffffffffffff\n      and\n        /* \"artifacts/Lalit/send,transfer,call theory.sol\":1607:1639  getter.send(1000000000000000000) */\n      0x08fc\n        /* \"artifacts/Lalit/send,transfer,call theory.sol\":1619:1638  1000000000000000000 */\n      0x0de0b6b3a7640000\n        /* \"artifacts/Lalit/send,transfer,call theory.sol\":1607:1639  getter.send(1000000000000000000) */\n      swap1\n      dup2\n      iszero\n      mul\n      swap1\n      mload(0x40)\n      0x00\n      mload(0x40)\n      dup1\n      dup4\n      sub\n      dup2\n      dup6\n      dup9\n      dup9\n      call\n      swap4\n      pop\n      pop\n      pop\n      pop\n        /* \"artifacts/Lalit/send,transfer,call theory.sol\":1588:1639  bool sendconfirm = getter.send(1000000000000000000) */\n      swap1\n      pop\n        /* \"artifacts/Lalit/send,transfer,call theory.sol\":1667:1671  true */\n      0x01\n        /* \"artifacts/Lalit/send,transfer,call theory.sol\":1652:1671  sendconfirm == true */\n      iszero\n      iszero\n        /* \"artifacts/Lalit/send,transfer,call theory.sol\":1652:1663  sendconfirm */\n      dup2\n        /* \"artifacts/Lalit/send,transfer,call theory.sol\":1652:1671  sendconfirm == true */\n      iszero\n      iszero\n      eq\n        /* \"artifacts/Lalit/send,transfer,call theory.sol\":1642:1701  require ( sendconfirm == true,\" transcation fail for send\") */\n      tag_19\n      jumpi\n      mload(0x40)\n      0x08c379a000000000000000000000000000000000000000000000000000000000\n      dup2\n      mstore\n      0x04\n      add\n      dup1\n      dup1\n      0x20\n      add\n      dup3\n      dup2\n      sub\n      dup3\n      mstore\n      0x1a\n      dup2\n      mstore\n      0x20\n      add\n      dup1\n      0x207472616e73636174696f6e206661696c20666f722073656e64000000000000\n      dup2\n      mstore\n      pop\n      0x20\n      add\n      swap2\n      pop\n      pop\n      mload(0x40)\n      dup1\n      swap2\n      sub\n      swap1\n      revert\n    tag_19:\n        /* \"artifacts/Lalit/send,transfer,call theory.sol\":1494:1705  function SEND() public {... */\n      pop\n      jump\t// out\n        /* \"artifacts/Lalit/send,transfer,call theory.sol\":1409:1492  function checkbal() public view returns(uint ){... */\n    tag_13:\n        /* \"artifacts/Lalit/send,transfer,call theory.sol\":1449:1453  uint */\n      0x00\n        /* \"artifacts/Lalit/send,transfer,call theory.sol\":1468:1489  address(this).balance */\n      selfbalance\n        /* \"artifacts/Lalit/send,transfer,call theory.sol\":1461:1489  return address(this).balance */\n      swap1\n      pop\n        /* \"artifacts/Lalit/send,transfer,call theory.sol\":1409:1492  function checkbal() public view returns(uint ){... */\n      swap1\n      jump\t// out\n        /* \"artifacts/Lalit/send,transfer,call theory.sol\":1231:1315  address payable public getter = payable (0xAb8483F64d9C6d1EcF9b849Ae677dD3315835cb2) */\n    tag_16:\n      0x00\n      dup1\n      sload\n      swap1\n      0x0100\n      exp\n      swap1\n      div\n      0xffffffffffffffffffffffffffffffffffffffff\n      and\n      dup2\n      jump\t// out\n\n    auxdata: 0xa26469706673582212209711ee08ea11d1e0efff066de38583613c334d934fd04d593f18d93e262738e064736f6c63430007060033\n}\n",
				"bytecode": {
					"linkReferences": {},
					"object": "608060405273ab8483f64d9c6d1ecf9b849ae677dd3315835cb26000806101000a81548173ffffffffffffffffffffffffffffffffffffffff021916908373ffffffffffffffffffffffffffffffffffffffff16021790555034801561006457600080fd5b50610208806100746000396000f3fe6080604052600436106100385760003560e01c80631f5e13341461004457806320ace1d01461005b578063993a04b7146100865761003f565b3661003f57005b600080fd5b34801561005057600080fd5b506100596100c7565b005b34801561006757600080fd5b506100706101a6565b6040518082815260200191505060405180910390f35b34801561009257600080fd5b5061009b6101ae565b604051808273ffffffffffffffffffffffffffffffffffffffff16815260200191505060405180910390f35b60008060009054906101000a900473ffffffffffffffffffffffffffffffffffffffff1673ffffffffffffffffffffffffffffffffffffffff166108fc670de0b6b3a76400009081150290604051600060405180830381858888f19350505050905060011515811515146101a3576040517f08c379a000000000000000000000000000000000000000000000000000000000815260040180806020018281038252601a8152602001807f207472616e73636174696f6e206661696c20666f722073656e6400000000000081525060200191505060405180910390fd5b50565b600047905090565b60008054906101000a900473ffffffffffffffffffffffffffffffffffffffff168156fea26469706673582212209711ee08ea11d1e0efff066de38583613c334d934fd04d593f18d93e262738e064736f6c63430007060033",
					"opcodes": "PUSH1 0x80 PUSH1 0x40 MSTORE PUSH20 0xAB8483F64D9C6D1ECF9B849AE677DD3315835CB2 PUSH1 0x0 DUP1 PUSH2 0x100 EXP DUP2 SLOAD DUP2 PUSH20 0xFFFFFFFFFFFFFFFFFFFFFFFFFFFFFFFFFFFFFFFF MUL NOT AND SWAP1 DUP4 PUSH20 0xFFFFFFFFFFFFFFFFFFFFFFFFFFFFFFFFFFFFFFFF AND MUL OR SWAP1 SSTORE POP CALLVALUE DUP1 ISZERO PUSH2 0x64 JUMPI PUSH1 0x0 DUP1 REVERT JUMPDEST POP PUSH2 0x208 DUP1 PUSH2 0x74 PUSH1 0x0 CODECOPY PUSH1 0x0 RETURN INVALID PUSH1 0x80 PUSH1 0x40 MSTORE PUSH1 0x4 CALLDATASIZE LT PUSH2 0x38 JUMPI PUSH1 0x0 CALLDATALOAD PUSH1 0xE0 SHR DUP1 PUSH4 0x1F5E1334 EQ PUSH2 0x44 JUMPI DUP1 PUSH4 0x20ACE1D0 EQ PUSH2 0x5B JUMPI DUP1 PUSH4 0x993A04B7 EQ PUSH2 0x86 JUMPI PUSH2 0x3F JUMP JUMPDEST CALLDATASIZE PUSH2 0x3F JUMPI STOP JUMPDEST PUSH1 0x0 DUP1 REVERT JUMPDEST CALLVALUE DUP1 ISZERO PUSH2 0x50 JUMPI PUSH1 0x0 DUP1 REVERT JUMPDEST POP PUSH2 0x59 PUSH2 0xC7 JUMP JUMPDEST STOP JUMPDEST CALLVALUE DUP1 ISZERO PUSH2 0x67 JUMPI PUSH1 0x0 DUP1 REVERT JUMPDEST POP PUSH2 0x70 PUSH2 0x1A6 JUMP JUMPDEST PUSH1 0x40 MLOAD DUP1 DUP3 DUP2 MSTORE PUSH1 0x20 ADD SWAP2 POP POP PUSH1 0x40 MLOAD DUP1 SWAP2 SUB SWAP1 RETURN JUMPDEST CALLVALUE DUP1 ISZERO PUSH2 0x92 JUMPI PUSH1 0x0 DUP1 REVERT JUMPDEST POP PUSH2 0x9B PUSH2 0x1AE JUMP JUMPDEST PUSH1 0x40 MLOAD DUP1 DUP3 PUSH20 0xFFFFFFFFFFFFFFFFFFFFFFFFFFFFFFFFFFFFFFFF AND DUP2 MSTORE PUSH1 0x20 ADD SWAP2 POP POP PUSH1 0x40 MLOAD DUP1 SWAP2 SUB SWAP1 RETURN JUMPDEST PUSH1 0x0 DUP1 PUSH1 0x0 SWAP1 SLOAD SWAP1 PUSH2 0x100 EXP SWAP1 DIV PUSH20 0xFFFFFFFFFFFFFFFFFFFFFFFFFFFFFFFFFFFFFFFF AND PUSH20 0xFFFFFFFFFFFFFFFFFFFFFFFFFFFFFFFFFFFFFFFF AND PUSH2 0x8FC PUSH8 0xDE0B6B3A7640000 SWAP1 DUP2 ISZERO MUL SWAP1 PUSH1 0x40 MLOAD PUSH1 0x0 PUSH1 0x40 MLOAD DUP1 DUP4 SUB DUP2 DUP6 DUP9 DUP9 CALL SWAP4 POP POP POP POP SWAP1 POP PUSH1 0x1 ISZERO ISZERO DUP2 ISZERO ISZERO EQ PUSH2 0x1A3 JUMPI PUSH1 0x40 MLOAD PUSH32 0x8C379A000000000000000000000000000000000000000000000000000000000 DUP2 MSTORE PUSH1 0x4 ADD DUP1 DUP1 PUSH1 0x20 ADD DUP3 DUP2 SUB DUP3 MSTORE PUSH1 0x1A DUP2 MSTORE PUSH1 0x20 ADD DUP1 PUSH32 0x207472616E73636174696F6E206661696C20666F722073656E64000000000000 DUP2 MSTORE POP PUSH1 0x20 ADD SWAP2 POP POP PUSH1 0x40 MLOAD DUP1 SWAP2 SUB SWAP1 REVERT JUMPDEST POP JUMP JUMPDEST PUSH1 0x0 SELFBALANCE SWAP1 POP SWAP1 JUMP JUMPDEST PUSH1 0x0 DUP1 SLOAD SWAP1 PUSH2 0x100 EXP SWAP1 DIV PUSH20 0xFFFFFFFFFFFFFFFFFFFFFFFFFFFFFFFFFFFFFFFF AND DUP2 JUMP INVALID LOG2 PUSH5 0x6970667358 0x22 SLT KECCAK256 SWAP8 GT 0xEE ADDMOD 0xEA GT 0xD1 0xE0 0xEF SELFDESTRUCT MOD PUSH14 0xE38583613C334D934FD04D593F18 0xD9 RETURNDATACOPY 0x26 0x27 CODESIZE 0xE0 PUSH5 0x736F6C6343 STOP SMOD MOD STOP CALLER "
				},
				"gasEstimates": {
					"creation": {
						"codeDepositCost": "104000",
						"executionCost": "21020",
						"totalCost": "125020"
					},
					"external": {
						"SEND()": "infinite",
						"checkbal()": "215",
						"getter()": "1066"
					}
				},
				"methodIdentifiers": {
					"SEND()": "1f5e1334",
					"checkbal()": "20ace1d0",
					"getter()": "993a04b7"
				}
			},
			"storageLayout": {
				"storage": [
					{
						"astId": 7,
						"contract": "artifacts/Lalit/send,transfer,call theory.sol:sendEth",
						"label": "getter",
						"offset": 0,
						"slot": "0",
						"type": "t_address_payable"
					}
				],
				"types": {
					"t_address_payable": {
						"encoding": "inplace",
						"label": "address payable",
						"numberOfBytes": "20"
					}
				}
			},
			"userdoc": {
				"kind": "user",
				"methods": {},
				"version": 1
			}
		}
	}
}