{
	"artifacts/Lalit/send,transfer,call.sol": {
		"sendEth": {
			"abi": [
				{
					"anonymous": false,
					"inputs": [
						{
							"indexed": false,
							"internalType": "uint256",
							"name": "value",
							"type": "uint256"
						}
					],
					"name": "log",
					"type": "event"
				},
				{
					"inputs": [
						{
							"internalType": "address payable",
							"name": "getter",
							"type": "address"
						}
					],
					"name": "CALL",
					"outputs": [],
					"stateMutability": "payable",
					"type": "function"
				},
				{
					"inputs": [
						{
							"internalType": "address payable",
							"name": "getter",
							"type": "address"
						}
					],
					"name": "SEND",
					"outputs": [],
					"stateMutability": "payable",
					"type": "function"
				},
				{
					"inputs": [
						{
							"internalType": "address payable",
							"name": "getter",
							"type": "address"
						}
					],
					"name": "TRANSFER",
					"outputs": [],
					"stateMutability": "payable",
					"type": "function"
				},
				{
					"inputs": [],
					"name": "checkbal",
					"outputs": [
						{
							"internalType": "uint256",
							"name": "",
							"type": "uint256"
						}
					],
					"stateMutability": "view",
					"type": "function"
				},
				{
					"stateMutability": "payable",
					"type": "receive"
				}
			],
			"devdoc": {
				"kind": "dev",
				"methods": {},
				"version": 1
			},
			"evm": {
				"assembly": "    /* \"artifacts/Lalit/send,transfer,call.sol\":1225:4011  contract sendEth{... */\n  mstore(0x40, 0x80)\n  callvalue\n  dup1\n  iszero\n  tag_1\n  jumpi\n  0x00\n  dup1\n  revert\ntag_1:\n  pop\n  dataSize(sub_0)\n  dup1\n  dataOffset(sub_0)\n  0x00\n  codecopy\n  0x00\n  return\nstop\n\nsub_0: assembly {\n        /* \"artifacts/Lalit/send,transfer,call.sol\":1225:4011  contract sendEth{... */\n      mstore(0x40, 0x80)\n      jumpi(tag_1, lt(calldatasize, 0x04))\n      shr(0xe0, calldataload(0x00))\n      dup1\n      0x20ace1d0\n      eq\n      tag_3\n      jumpi\n      dup1\n      0x9cb4ddd0\n      eq\n      tag_4\n      jumpi\n      dup1\n      0xaf075e0c\n      eq\n      tag_5\n      jumpi\n      dup1\n      0xb206494b\n      eq\n      tag_6\n      jumpi\n      jump(tag_2)\n    tag_1:\n      jumpi(tag_2, calldatasize)\n      stop\n    tag_2:\n      0x00\n      dup1\n      revert\n        /* \"artifacts/Lalit/send,transfer,call.sol\":1455:1538  function checkbal() public view returns(uint ){... */\n    tag_3:\n      callvalue\n      dup1\n      iszero\n      tag_9\n      jumpi\n      0x00\n      dup1\n      revert\n    tag_9:\n      pop\n      tag_10\n      tag_11\n      jump\t// in\n    tag_10:\n      mload(0x40)\n      dup1\n      dup3\n      dup2\n      mstore\n      0x20\n      add\n      swap2\n      pop\n      pop\n      mload(0x40)\n      dup1\n      swap2\n      sub\n      swap1\n      return\n        /* \"artifacts/Lalit/send,transfer,call.sol\":3478:3595  function TRANSFER(address payable getter) public payable{... */\n    tag_4:\n      tag_12\n      0x04\n      dup1\n      calldatasize\n      sub\n      0x20\n      dup2\n      lt\n      iszero\n      tag_13\n      jumpi\n      0x00\n      dup1\n      revert\n    tag_13:\n      dup2\n      add\n      swap1\n      dup1\n      dup1\n      calldataload\n      0xffffffffffffffffffffffffffffffffffffffff\n      and\n      swap1\n      0x20\n      add\n      swap1\n      swap3\n      swap2\n      swap1\n      pop\n      pop\n      pop\n      tag_14\n      jump\t// in\n    tag_12:\n      stop\n        /* \"artifacts/Lalit/send,transfer,call.sol\":3093:3475  function SEND( address payable getter) public payable {    // msg.value ko use karne ke liye function ko payable banana hoga.... */\n    tag_5:\n      tag_15\n      0x04\n      dup1\n      calldatasize\n      sub\n      0x20\n      dup2\n      lt\n      iszero\n      tag_16\n      jumpi\n      0x00\n      dup1\n      revert\n    tag_16:\n      dup2\n      add\n      swap1\n      dup1\n      dup1\n      calldataload\n      0xffffffffffffffffffffffffffffffffffffffff\n      and\n      swap1\n      0x20\n      add\n      swap1\n      swap3\n      swap2\n      swap1\n      pop\n      pop\n      pop\n      tag_17\n      jump\t// in\n    tag_15:\n      stop\n        /* \"artifacts/Lalit/send,transfer,call.sol\":3597:4007  function CALL(address payable getter) public payable{... */\n    tag_6:\n      tag_18\n      0x04\n      dup1\n      calldatasize\n      sub\n      0x20\n      dup2\n      lt\n      iszero\n      tag_19\n      jumpi\n      0x00\n      dup1\n      revert\n    tag_19:\n      dup2\n      add\n      swap1\n      dup1\n      dup1\n      calldataload\n      0xffffffffffffffffffffffffffffffffffffffff\n      and\n      swap1\n      0x20\n      add\n      swap1\n      swap3\n      swap2\n      swap1\n      pop\n      pop\n      pop\n      tag_20\n      jump\t// in\n    tag_18:\n      stop\n        /* \"artifacts/Lalit/send,transfer,call.sol\":1455:1538  function checkbal() public view returns(uint ){... */\n    tag_11:\n        /* \"artifacts/Lalit/send,transfer,call.sol\":1495:1499  uint */\n      0x00\n        /* \"artifacts/Lalit/send,transfer,call.sol\":1514:1535  address(this).balance */\n      selfbalance\n        /* \"artifacts/Lalit/send,transfer,call.sol\":1507:1535  return address(this).balance */\n      swap1\n      pop\n        /* \"artifacts/Lalit/send,transfer,call.sol\":1455:1538  function checkbal() public view returns(uint ){... */\n      swap1\n      jump\t// out\n        /* \"artifacts/Lalit/send,transfer,call.sol\":3478:3595  function TRANSFER(address payable getter) public payable{... */\n    tag_14:\n        /* \"artifacts/Lalit/send,transfer,call.sol\":3541:3547  getter */\n      dup1\n        /* \"artifacts/Lalit/send,transfer,call.sol\":3541:3556  getter.transfer */\n      0xffffffffffffffffffffffffffffffffffffffff\n      and\n        /* \"artifacts/Lalit/send,transfer,call.sol\":3541:3567  getter.transfer(msg.value) */\n      0x08fc\n        /* \"artifacts/Lalit/send,transfer,call.sol\":3557:3566  msg.value */\n      callvalue\n        /* \"artifacts/Lalit/send,transfer,call.sol\":3541:3567  getter.transfer(msg.value) */\n      swap1\n      dup2\n      iszero\n      mul\n      swap1\n      mload(0x40)\n      0x00\n      mload(0x40)\n      dup1\n      dup4\n      sub\n      dup2\n      dup6\n      dup9\n      dup9\n      call\n      swap4\n      pop\n      pop\n      pop\n      pop\n      iszero\n      dup1\n      iszero\n      tag_24\n      jumpi\n      returndatasize\n      0x00\n      dup1\n      returndatacopy\n      revert(0x00, returndatasize)\n    tag_24:\n      pop\n        /* \"artifacts/Lalit/send,transfer,call.sol\":3578:3592  log(msg.value) */\n      0xf82c50f1848136e6c140b186ea0c768b7deda5efffe42c25e96336a90b26c744\n        /* \"artifacts/Lalit/send,transfer,call.sol\":3582:3591  msg.value */\n      callvalue\n        /* \"artifacts/Lalit/send,transfer,call.sol\":3578:3592  log(msg.value) */\n      mload(0x40)\n      dup1\n      dup3\n      dup2\n      mstore\n      0x20\n      add\n      swap2\n      pop\n      pop\n      mload(0x40)\n      dup1\n      swap2\n      sub\n      swap1\n      log1\n        /* \"artifacts/Lalit/send,transfer,call.sol\":3478:3595  function TRANSFER(address payable getter) public payable{... */\n      pop\n      jump\t// out\n        /* \"artifacts/Lalit/send,transfer,call.sol\":3093:3475  function SEND( address payable getter) public payable {    // msg.value ko use karne ke liye function ko payable banana hoga.... */\n    tag_17:\n        /* \"artifacts/Lalit/send,transfer,call.sol\":3292:3306  log(msg.value) */\n      0xf82c50f1848136e6c140b186ea0c768b7deda5efffe42c25e96336a90b26c744\n        /* \"artifacts/Lalit/send,transfer,call.sol\":3296:3305  msg.value */\n      callvalue\n        /* \"artifacts/Lalit/send,transfer,call.sol\":3292:3306  log(msg.value) */\n      mload(0x40)\n      dup1\n      dup3\n      dup2\n      mstore\n      0x20\n      add\n      swap2\n      pop\n      pop\n      mload(0x40)\n      dup1\n      swap2\n      sub\n      swap1\n      log1\n        /* \"artifacts/Lalit/send,transfer,call.sol\":3336:3352  bool sendconfirm */\n      0x00\n        /* \"artifacts/Lalit/send,transfer,call.sol\":3355:3361  getter */\n      dup2\n        /* \"artifacts/Lalit/send,transfer,call.sol\":3355:3366  getter.send */\n      0xffffffffffffffffffffffffffffffffffffffff\n      and\n        /* \"artifacts/Lalit/send,transfer,call.sol\":3355:3377  getter.send(msg.value) */\n      0x08fc\n        /* \"artifacts/Lalit/send,transfer,call.sol\":3367:3376  msg.value */\n      callvalue\n        /* \"artifacts/Lalit/send,transfer,call.sol\":3355:3377  getter.send(msg.value) */\n      swap1\n      dup2\n      iszero\n      mul\n      swap1\n      mload(0x40)\n      0x00\n      mload(0x40)\n      dup1\n      dup4\n      sub\n      dup2\n      dup6\n      dup9\n      dup9\n      call\n      swap4\n      pop\n      pop\n      pop\n      pop\n        /* \"artifacts/Lalit/send,transfer,call.sol\":3336:3377  bool sendconfirm = getter.send(msg.value) */\n      swap1\n      pop\n        /* \"artifacts/Lalit/send,transfer,call.sol\":3437:3441  true */\n      0x01\n        /* \"artifacts/Lalit/send,transfer,call.sol\":3422:3441  sendconfirm == true */\n      iszero\n      iszero\n        /* \"artifacts/Lalit/send,transfer,call.sol\":3422:3433  sendconfirm */\n      dup2\n        /* \"artifacts/Lalit/send,transfer,call.sol\":3422:3441  sendconfirm == true */\n      iszero\n      iszero\n      eq\n        /* \"artifacts/Lalit/send,transfer,call.sol\":3412:3471  require ( sendconfirm == true,\" transcation fail for send\") */\n      tag_27\n      jumpi\n      mload(0x40)\n      0x08c379a000000000000000000000000000000000000000000000000000000000\n      dup2\n      mstore\n      0x04\n      add\n      dup1\n      dup1\n      0x20\n      add\n      dup3\n      dup2\n      sub\n      dup3\n      mstore\n      0x1a\n      dup2\n      mstore\n      0x20\n      add\n      dup1\n      0x207472616e73636174696f6e206661696c20666f722073656e64000000000000\n      dup2\n      mstore\n      pop\n      0x20\n      add\n      swap2\n      pop\n      pop\n      mload(0x40)\n      dup1\n      swap2\n      sub\n      swap1\n      revert\n    tag_27:\n        /* \"artifacts/Lalit/send,transfer,call.sol\":3093:3475  function SEND( address payable getter) public payable {    // msg.value ko use karne ke liye function ko payable banana hoga.... */\n      pop\n      pop\n      jump\t// out\n        /* \"artifacts/Lalit/send,transfer,call.sol\":3597:4007  function CALL(address payable getter) public payable{... */\n    tag_20:\n        /* \"artifacts/Lalit/send,transfer,call.sol\":3865:3874  bool sent */\n      0x00\n        /* \"artifacts/Lalit/send,transfer,call.sol\":3876:3893  bytes memory data */\n      dup1\n        /* \"artifacts/Lalit/send,transfer,call.sol\":3895:3901  getter */\n      dup3\n        /* \"artifacts/Lalit/send,transfer,call.sol\":3895:3906  getter.call */\n      0xffffffffffffffffffffffffffffffffffffffff\n      and\n        /* \"artifacts/Lalit/send,transfer,call.sol\":3913:3922  msg.value */\n      callvalue\n        /* \"artifacts/Lalit/send,transfer,call.sol\":3895:3927  getter.call{value:msg.value}(\"\") */\n      mload(0x40)\n      dup1\n      0x00\n      add\n      swap1\n      pop\n      0x00\n      mload(0x40)\n      dup1\n      dup4\n      sub\n      dup2\n      dup6\n      dup8\n      gas\n      call\n      swap3\n      pop\n      pop\n      pop\n      returndatasize\n      dup1\n      0x00\n      dup2\n      eq\n      tag_31\n      jumpi\n      mload(0x40)\n      swap2\n      pop\n      and(add(returndatasize, 0x3f), not(0x1f))\n      dup3\n      add\n      0x40\n      mstore\n      returndatasize\n      dup3\n      mstore\n      returndatasize\n      0x00\n      0x20\n      dup5\n      add\n      returndatacopy\n      jump(tag_30)\n    tag_31:\n      0x60\n      swap2\n      pop\n    tag_30:\n      pop\n        /* \"artifacts/Lalit/send,transfer,call.sol\":3864:3927  (bool sent, bytes memory data)=getter.call{value:msg.value}(\"\") */\n      swap2\n      pop\n      swap2\n      pop\n        /* \"artifacts/Lalit/send,transfer,call.sol\":3945:3949  true */\n      0x01\n        /* \"artifacts/Lalit/send,transfer,call.sol\":3938:3949  sent== true */\n      iszero\n      iszero\n        /* \"artifacts/Lalit/send,transfer,call.sol\":3938:3942  sent */\n      dup3\n        /* \"artifacts/Lalit/send,transfer,call.sol\":3938:3949  sent== true */\n      iszero\n      iszero\n      eq\n        /* \"artifacts/Lalit/send,transfer,call.sol\":3930:3980  require(sent== true, \" transcation fail for call\") */\n      tag_32\n      jumpi\n      mload(0x40)\n      0x08c379a000000000000000000000000000000000000000000000000000000000\n      dup2\n      mstore\n      0x04\n      add\n      dup1\n      dup1\n      0x20\n      add\n      dup3\n      dup2\n      sub\n      dup3\n      mstore\n      0x1a\n      dup2\n      mstore\n      0x20\n      add\n      dup1\n      0x207472616e73636174696f6e206661696c20666f722063616c6c000000000000\n      dup2\n      mstore\n      pop\n      0x20\n      add\n      swap2\n      pop\n      pop\n      mload(0x40)\n      dup1\n      swap2\n      sub\n      swap1\n      revert\n    tag_32:\n        /* \"artifacts/Lalit/send,transfer,call.sol\":3988:4002  log(msg.value) */\n      0xf82c50f1848136e6c140b186ea0c768b7deda5efffe42c25e96336a90b26c744\n        /* \"artifacts/Lalit/send,transfer,call.sol\":3992:4001  msg.value */\n      callvalue\n        /* \"artifacts/Lalit/send,transfer,call.sol\":3988:4002  log(msg.value) */\n      mload(0x40)\n      dup1\n      dup3\n      dup2\n      mstore\n      0x20\n      add\n      swap2\n      pop\n      pop\n      mload(0x40)\n      dup1\n      swap2\n      sub\n      swap1\n      log1\n        /* \"artifacts/Lalit/send,transfer,call.sol\":3597:4007  function CALL(address payable getter) public payable{... */\n      pop\n      pop\n      pop\n      jump\t// out\n\n    auxdata: 0xa26469706673582212200450997a0a3160ced94d6e01b813bfa3fe4b378444e2a0a41188155dc94e3e4464736f6c63430007060033\n}\n",
				"bytecode": {
					"linkReferences": {},
					"object": "608060405234801561001057600080fd5b50610414806100206000396000f3fe6080604052600436106100435760003560e01c806320ace1d01461004f5780639cb4ddd01461007a578063af075e0c146100be578063b206494b146101025761004a565b3661004a57005b600080fd5b34801561005b57600080fd5b50610064610146565b6040518082815260200191505060405180910390f35b6100bc6004803603602081101561009057600080fd5b81019080803573ffffffffffffffffffffffffffffffffffffffff16906020019092919050505061014e565b005b610100600480360360208110156100d457600080fd5b81019080803573ffffffffffffffffffffffffffffffffffffffff1690602001909291905050506101cf565b005b6101446004803603602081101561011857600080fd5b81019080803573ffffffffffffffffffffffffffffffffffffffff1690602001909291905050506102bd565b005b600047905090565b8073ffffffffffffffffffffffffffffffffffffffff166108fc349081150290604051600060405180830381858888f19350505050158015610194573d6000803e3d6000fd5b507ff82c50f1848136e6c140b186ea0c768b7deda5efffe42c25e96336a90b26c744346040518082815260200191505060405180910390a150565b7ff82c50f1848136e6c140b186ea0c768b7deda5efffe42c25e96336a90b26c744346040518082815260200191505060405180910390a160008173ffffffffffffffffffffffffffffffffffffffff166108fc349081150290604051600060405180830381858888f19350505050905060011515811515146102b9576040517f08c379a000000000000000000000000000000000000000000000000000000000815260040180806020018281038252601a8152602001807f207472616e73636174696f6e206661696c20666f722073656e6400000000000081525060200191505060405180910390fd5b5050565b6000808273ffffffffffffffffffffffffffffffffffffffff163460405180600001905060006040518083038185875af1925050503d806000811461031e576040519150601f19603f3d011682016040523d82523d6000602084013e610323565b606091505b509150915060011515821515146103a2576040517f08c379a000000000000000000000000000000000000000000000000000000000815260040180806020018281038252601a8152602001807f207472616e73636174696f6e206661696c20666f722063616c6c00000000000081525060200191505060405180910390fd5b7ff82c50f1848136e6c140b186ea0c768b7deda5efffe42c25e96336a90b26c744346040518082815260200191505060405180910390a150505056fea26469706673582212200450997a0a3160ced94d6e01b813bfa3fe4b378444e2a0a41188155dc94e3e4464736f6c63430007060033",
					"opcodes": "PUSH1 0x80 PUSH1 0x40 MSTORE CALLVALUE DUP1 ISZERO PUSH2 0x10 JUMPI PUSH1 0x0 DUP1 REVERT JUMPDEST POP PUSH2 0x414 DUP1 PUSH2 0x20 PUSH1 0x0 CODECOPY PUSH1 0x0 RETURN INVALID PUSH1 0x80 PUSH1 0x40 MSTORE PUSH1 0x4 CALLDATASIZE LT PUSH2 0x43 JUMPI PUSH1 0x0 CALLDATALOAD PUSH1 0xE0 SHR DUP1 PUSH4 0x20ACE1D0 EQ PUSH2 0x4F JUMPI DUP1 PUSH4 0x9CB4DDD0 EQ PUSH2 0x7A JUMPI DUP1 PUSH4 0xAF075E0C EQ PUSH2 0xBE JUMPI DUP1 PUSH4 0xB206494B EQ PUSH2 0x102 JUMPI PUSH2 0x4A JUMP JUMPDEST CALLDATASIZE PUSH2 0x4A JUMPI STOP JUMPDEST PUSH1 0x0 DUP1 REVERT JUMPDEST CALLVALUE DUP1 ISZERO PUSH2 0x5B JUMPI PUSH1 0x0 DUP1 REVERT JUMPDEST POP PUSH2 0x64 PUSH2 0x146 JUMP JUMPDEST PUSH1 0x40 MLOAD DUP1 DUP3 DUP2 MSTORE PUSH1 0x20 ADD SWAP2 POP POP PUSH1 0x40 MLOAD DUP1 SWAP2 SUB SWAP1 RETURN JUMPDEST PUSH2 0xBC PUSH1 0x4 DUP1 CALLDATASIZE SUB PUSH1 0x20 DUP2 LT ISZERO PUSH2 0x90 JUMPI PUSH1 0x0 DUP1 REVERT JUMPDEST DUP2 ADD SWAP1 DUP1 DUP1 CALLDATALOAD PUSH20 0xFFFFFFFFFFFFFFFFFFFFFFFFFFFFFFFFFFFFFFFF AND SWAP1 PUSH1 0x20 ADD SWAP1 SWAP3 SWAP2 SWAP1 POP POP POP PUSH2 0x14E JUMP JUMPDEST STOP JUMPDEST PUSH2 0x100 PUSH1 0x4 DUP1 CALLDATASIZE SUB PUSH1 0x20 DUP2 LT ISZERO PUSH2 0xD4 JUMPI PUSH1 0x0 DUP1 REVERT JUMPDEST DUP2 ADD SWAP1 DUP1 DUP1 CALLDATALOAD PUSH20 0xFFFFFFFFFFFFFFFFFFFFFFFFFFFFFFFFFFFFFFFF AND SWAP1 PUSH1 0x20 ADD SWAP1 SWAP3 SWAP2 SWAP1 POP POP POP PUSH2 0x1CF JUMP JUMPDEST STOP JUMPDEST PUSH2 0x144 PUSH1 0x4 DUP1 CALLDATASIZE SUB PUSH1 0x20 DUP2 LT ISZERO PUSH2 0x118 JUMPI PUSH1 0x0 DUP1 REVERT JUMPDEST DUP2 ADD SWAP1 DUP1 DUP1 CALLDATALOAD PUSH20 0xFFFFFFFFFFFFFFFFFFFFFFFFFFFFFFFFFFFFFFFF AND SWAP1 PUSH1 0x20 ADD SWAP1 SWAP3 SWAP2 SWAP1 POP POP POP PUSH2 0x2BD JUMP JUMPDEST STOP JUMPDEST PUSH1 0x0 SELFBALANCE SWAP1 POP SWAP1 JUMP JUMPDEST DUP1 PUSH20 0xFFFFFFFFFFFFFFFFFFFFFFFFFFFFFFFFFFFFFFFF AND PUSH2 0x8FC CALLVALUE SWAP1 DUP2 ISZERO MUL SWAP1 PUSH1 0x40 MLOAD PUSH1 0x0 PUSH1 0x40 MLOAD DUP1 DUP4 SUB DUP2 DUP6 DUP9 DUP9 CALL SWAP4 POP POP POP POP ISZERO DUP1 ISZERO PUSH2 0x194 JUMPI RETURNDATASIZE PUSH1 0x0 DUP1 RETURNDATACOPY RETURNDATASIZE PUSH1 0x0 REVERT JUMPDEST POP PUSH32 0xF82C50F1848136E6C140B186EA0C768B7DEDA5EFFFE42C25E96336A90B26C744 CALLVALUE PUSH1 0x40 MLOAD DUP1 DUP3 DUP2 MSTORE PUSH1 0x20 ADD SWAP2 POP POP PUSH1 0x40 MLOAD DUP1 SWAP2 SUB SWAP1 LOG1 POP JUMP JUMPDEST PUSH32 0xF82C50F1848136E6C140B186EA0C768B7DEDA5EFFFE42C25E96336A90B26C744 CALLVALUE PUSH1 0x40 MLOAD DUP1 DUP3 DUP2 MSTORE PUSH1 0x20 ADD SWAP2 POP POP PUSH1 0x40 MLOAD DUP1 SWAP2 SUB SWAP1 LOG1 PUSH1 0x0 DUP2 PUSH20 0xFFFFFFFFFFFFFFFFFFFFFFFFFFFFFFFFFFFFFFFF AND PUSH2 0x8FC CALLVALUE SWAP1 DUP2 ISZERO MUL SWAP1 PUSH1 0x40 MLOAD PUSH1 0x0 PUSH1 0x40 MLOAD DUP1 DUP4 SUB DUP2 DUP6 DUP9 DUP9 CALL SWAP4 POP POP POP POP SWAP1 POP PUSH1 0x1 ISZERO ISZERO DUP2 ISZERO ISZERO EQ PUSH2 0x2B9 JUMPI PUSH1 0x40 MLOAD PUSH32 0x8C379A000000000000000000000000000000000000000000000000000000000 DUP2 MSTORE PUSH1 0x4 ADD DUP1 DUP1 PUSH1 0x20 ADD DUP3 DUP2 SUB DUP3 MSTORE PUSH1 0x1A DUP2 MSTORE PUSH1 0x20 ADD DUP1 PUSH32 0x207472616E73636174696F6E206661696C20666F722073656E64000000000000 DUP2 MSTORE POP PUSH1 0x20 ADD SWAP2 POP POP PUSH1 0x40 MLOAD DUP1 SWAP2 SUB SWAP1 REVERT JUMPDEST POP POP JUMP JUMPDEST PUSH1 0x0 DUP1 DUP3 PUSH20 0xFFFFFFFFFFFFFFFFFFFFFFFFFFFFFFFFFFFFFFFF AND CALLVALUE PUSH1 0x40 MLOAD DUP1 PUSH1 0x0 ADD SWAP1 POP PUSH1 0x0 PUSH1 0x40 MLOAD DUP1 DUP4 SUB DUP2 DUP6 DUP8 GAS CALL SWAP3 POP POP POP RETURNDATASIZE DUP1 PUSH1 0x0 DUP2 EQ PUSH2 0x31E JUMPI PUSH1 0x40 MLOAD SWAP2 POP PUSH1 0x1F NOT PUSH1 0x3F RETURNDATASIZE ADD AND DUP3 ADD PUSH1 0x40 MSTORE RETURNDATASIZE DUP3 MSTORE RETURNDATASIZE PUSH1 0x0 PUSH1 0x20 DUP5 ADD RETURNDATACOPY PUSH2 0x323 JUMP JUMPDEST PUSH1 0x60 SWAP2 POP JUMPDEST POP SWAP2 POP SWAP2 POP PUSH1 0x1 ISZERO ISZERO DUP3 ISZERO ISZERO EQ PUSH2 0x3A2 JUMPI PUSH1 0x40 MLOAD PUSH32 0x8C379A000000000000000000000000000000000000000000000000000000000 DUP2 MSTORE PUSH1 0x4 ADD DUP1 DUP1 PUSH1 0x20 ADD DUP3 DUP2 SUB DUP3 MSTORE PUSH1 0x1A DUP2 MSTORE PUSH1 0x20 ADD DUP1 PUSH32 0x207472616E73636174696F6E206661696C20666F722063616C6C000000000000 DUP2 MSTORE POP PUSH1 0x20 ADD SWAP2 POP POP PUSH1 0x40 MLOAD DUP1 SWAP2 SUB SWAP1 REVERT JUMPDEST PUSH32 0xF82C50F1848136E6C140B186EA0C768B7DEDA5EFFFE42C25E96336A90B26C744 CALLVALUE PUSH1 0x40 MLOAD DUP1 DUP3 DUP2 MSTORE PUSH1 0x20 ADD SWAP2 POP POP PUSH1 0x40 MLOAD DUP1 SWAP2 SUB SWAP1 LOG1 POP POP POP JUMP INVALID LOG2 PUSH5 0x6970667358 0x22 SLT KECCAK256 DIV POP SWAP10 PUSH27 0xA3160CED94D6E01B813BFA3FE4B378444E2A0A41188155DC94E3E DIFFICULTY PUSH5 0x736F6C6343 STOP SMOD MOD STOP CALLER "
				},
				"gasEstimates": {
					"creation": {
						"codeDepositCost": "208800",
						"executionCost": "251",
						"totalCost": "209051"
					},
					"external": {
						"CALL(address)": "infinite",
						"SEND(address)": "infinite",
						"TRANSFER(address)": "infinite",
						"checkbal()": "193"
					}
				},
				"methodIdentifiers": {
					"CALL(address)": "b206494b",
					"SEND(address)": "af075e0c",
					"TRANSFER(address)": "9cb4ddd0",
					"checkbal()": "20ace1d0"
				}
			},
			"storageLayout": {
				"storage": [],
				"types": null
			},
			"userdoc": {
				"kind": "user",
				"methods": {},
				"version": 1
			}
		}
	}
}