{
	"artifacts/Lalit/now.sol": {
		"Timer": {
			"abi": [
				{
					"inputs": [
						{
							"internalType": "uint256",
							"name": "Totaltime",
							"type": "uint256"
						}
					],
					"name": "end",
					"outputs": [],
					"stateMutability": "nonpayable",
					"type": "function"
				},
				{
					"inputs": [],
					"name": "start",
					"outputs": [],
					"stateMutability": "nonpayable",
					"type": "function"
				}
			],
			"devdoc": {
				"kind": "dev",
				"methods": {},
				"version": 1
			},
			"evm": {
				"assembly": "    /* \"artifacts/Lalit/now.sol\":70:253  contract Timer{... */\n  mstore(0x40, 0x80)\n  callvalue\n  dup1\n  iszero\n  tag_1\n  jumpi\n  0x00\n  dup1\n  revert\ntag_1:\n  pop\n  dataSize(sub_0)\n  dup1\n  dataOffset(sub_0)\n  0x00\n  codecopy\n  0x00\n  return\nstop\n\nsub_0: assembly {\n        /* \"artifacts/Lalit/now.sol\":70:253  contract Timer{... */\n      mstore(0x40, 0x80)\n      callvalue\n      dup1\n      iszero\n      tag_1\n      jumpi\n      0x00\n      dup1\n      revert\n    tag_1:\n      pop\n      jumpi(tag_2, lt(calldatasize, 0x04))\n      shr(0xe0, calldataload(0x00))\n      dup1\n      0x0ad24528\n      eq\n      tag_3\n      jumpi\n      dup1\n      0xbe9a6555\n      eq\n      tag_4\n      jumpi\n    tag_2:\n      0x00\n      dup1\n      revert\n        /* \"artifacts/Lalit/now.sol\":183:249  function end(uint Totaltime) public{... */\n    tag_3:\n      tag_5\n      0x04\n      dup1\n      calldatasize\n      sub\n      0x20\n      dup2\n      lt\n      iszero\n      tag_6\n      jumpi\n      0x00\n      dup1\n      revert\n    tag_6:\n      dup2\n      add\n      swap1\n      dup1\n      dup1\n      calldataload\n      swap1\n      0x20\n      add\n      swap1\n      swap3\n      swap2\n      swap1\n      pop\n      pop\n      pop\n      tag_7\n      jump\t// in\n    tag_5:\n      stop\n        /* \"artifacts/Lalit/now.sol\":124:182  function start() public{... */\n    tag_4:\n      tag_8\n      tag_9\n      jump\t// in\n    tag_8:\n      stop\n        /* \"artifacts/Lalit/now.sol\":183:249  function end(uint Totaltime) public{... */\n    tag_7:\n        /* \"artifacts/Lalit/now.sol\":240:246  _start */\n      sload(0x00)\n        /* \"artifacts/Lalit/now.sol\":230:239  Totaltime */\n      dup2\n        /* \"artifacts/Lalit/now.sol\":230:246  Totaltime+_start */\n      add\n        /* \"artifacts/Lalit/now.sol\":224:228  _end */\n      0x01\n        /* \"artifacts/Lalit/now.sol\":224:246  _end= Totaltime+_start */\n      dup2\n      swap1\n      sstore\n      pop\n        /* \"artifacts/Lalit/now.sol\":183:249  function end(uint Totaltime) public{... */\n      pop\n      jump\t// out\n        /* \"artifacts/Lalit/now.sol\":124:182  function start() public{... */\n    tag_9:\n        /* \"artifacts/Lalit/now.sol\":160:175  block.timestamp */\n      timestamp\n        /* \"artifacts/Lalit/now.sol\":152:158  _start */\n      0x00\n        /* \"artifacts/Lalit/now.sol\":152:175  _start= block.timestamp */\n      dup2\n      swap1\n      sstore\n      pop\n        /* \"artifacts/Lalit/now.sol\":124:182  function start() public{... */\n      jump\t// out\n\n    auxdata: 0xa2646970667358221220d127f99cb58f508046b33d365b88e79391d76562e540a296e4d5f3969b05d30b64736f6c63430007060033\n}\n",
				"bytecode": {
					"linkReferences": {},
					"object": "608060405234801561001057600080fd5b5060b78061001f6000396000f3fe6080604052348015600f57600080fd5b506004361060325760003560e01c80630ad24528146037578063be9a6555146062575b600080fd5b606060048036036020811015604b57600080fd5b8101908080359060200190929190505050606a565b005b60686078565b005b600054810160018190555050565b4260008190555056fea2646970667358221220d127f99cb58f508046b33d365b88e79391d76562e540a296e4d5f3969b05d30b64736f6c63430007060033",
					"opcodes": "PUSH1 0x80 PUSH1 0x40 MSTORE CALLVALUE DUP1 ISZERO PUSH2 0x10 JUMPI PUSH1 0x0 DUP1 REVERT JUMPDEST POP PUSH1 0xB7 DUP1 PUSH2 0x1F PUSH1 0x0 CODECOPY PUSH1 0x0 RETURN INVALID PUSH1 0x80 PUSH1 0x40 MSTORE CALLVALUE DUP1 ISZERO PUSH1 0xF JUMPI PUSH1 0x0 DUP1 REVERT JUMPDEST POP PUSH1 0x4 CALLDATASIZE LT PUSH1 0x32 JUMPI PUSH1 0x0 CALLDATALOAD PUSH1 0xE0 SHR DUP1 PUSH4 0xAD24528 EQ PUSH1 0x37 JUMPI DUP1 PUSH4 0xBE9A6555 EQ PUSH1 0x62 JUMPI JUMPDEST PUSH1 0x0 DUP1 REVERT JUMPDEST PUSH1 0x60 PUSH1 0x4 DUP1 CALLDATASIZE SUB PUSH1 0x20 DUP2 LT ISZERO PUSH1 0x4B JUMPI PUSH1 0x0 DUP1 REVERT JUMPDEST DUP2 ADD SWAP1 DUP1 DUP1 CALLDATALOAD SWAP1 PUSH1 0x20 ADD SWAP1 SWAP3 SWAP2 SWAP1 POP POP POP PUSH1 0x6A JUMP JUMPDEST STOP JUMPDEST PUSH1 0x68 PUSH1 0x78 JUMP JUMPDEST STOP JUMPDEST PUSH1 0x0 SLOAD DUP2 ADD PUSH1 0x1 DUP2 SWAP1 SSTORE POP POP JUMP JUMPDEST TIMESTAMP PUSH1 0x0 DUP2 SWAP1 SSTORE POP JUMP INVALID LOG2 PUSH5 0x6970667358 0x22 SLT KECCAK256 0xD1 0x27 0xF9 SWAP13 0xB5 DUP16 POP DUP1 CHAINID 0xB3 RETURNDATASIZE CALLDATASIZE JUMPDEST DUP9 0xE7 SWAP4 SWAP2 0xD7 PUSH6 0x62E540A296E4 0xD5 RETURN SWAP7 SWAP12 SDIV 0xD3 SIGNEXTEND PUSH5 0x736F6C6343 STOP SMOD MOD STOP CALLER "
				},
				"gasEstimates": {
					"creation": {
						"codeDepositCost": "36600",
						"executionCost": "87",
						"totalCost": "36687"
					},
					"external": {
						"end(uint256)": "21026",
						"start()": "20157"
					}
				},
				"methodIdentifiers": {
					"end(uint256)": "0ad24528",
					"start()": "be9a6555"
				}
			},
			"storageLayout": {
				"storage": [
					{
						"astId": 3,
						"contract": "artifacts/Lalit/now.sol:Timer",
						"label": "_start",
						"offset": 0,
						"slot": "0",
						"type": "t_uint256"
					},
					{
						"astId": 5,
						"contract": "artifacts/Lalit/now.sol:Timer",
						"label": "_end",
						"offset": 0,
						"slot": "1",
						"type": "t_uint256"
					}
				],
				"types": {
					"t_uint256": {
						"encoding": "inplace",
						"label": "uint256",
						"numberOfBytes": "32"
					}
				}
			},
			"userdoc": {
				"kind": "user",
				"methods": {},
				"version": 1
			}
		}
	}
}