{
	"artifacts/Lalit/Array.sol": {
		"fixedsizearray": {
			"abi": [
				{
					"inputs": [
						{
							"internalType": "uint256",
							"name": "",
							"type": "uint256"
						}
					],
					"name": "arr1",
					"outputs": [
						{
							"internalType": "uint256",
							"name": "",
							"type": "uint256"
						}
					],
					"stateMutability": "view",
					"type": "function"
				},
				{
					"inputs": [],
					"name": "array",
					"outputs": [
						{
							"internalType": "uint256",
							"name": "",
							"type": "uint256"
						}
					],
					"stateMutability": "view",
					"type": "function"
				},
				{
					"inputs": [
						{
							"internalType": "uint256",
							"name": "x",
							"type": "uint256"
						}
					],
					"name": "arraywithloop",
					"outputs": [],
					"stateMutability": "nonpayable",
					"type": "function"
				}
			],
			"devdoc": {
				"kind": "dev",
				"methods": {},
				"version": 1
			},
			"evm": {
				"assembly": "    /* \"artifacts/Lalit/Array.sol\":71:609  contract fixedsizearray{... */\n  mstore(0x40, 0x80)\n  callvalue\n  dup1\n  iszero\n  tag_1\n  jumpi\n  0x00\n  dup1\n  revert\ntag_1:\n  pop\n  dataSize(sub_0)\n  dup1\n  dataOffset(sub_0)\n  0x00\n  codecopy\n  0x00\n  return\nstop\n\nsub_0: assembly {\n        /* \"artifacts/Lalit/Array.sol\":71:609  contract fixedsizearray{... */\n      mstore(0x40, 0x80)\n      callvalue\n      dup1\n      iszero\n      tag_1\n      jumpi\n      0x00\n      dup1\n      revert\n    tag_1:\n      pop\n      jumpi(tag_2, lt(calldatasize, 0x04))\n      shr(0xe0, calldataload(0x00))\n      dup1\n      0x2aa7f0af\n      eq\n      tag_3\n      jumpi\n      dup1\n      0x6987b1fb\n      eq\n      tag_4\n      jumpi\n      dup1\n      0xb0ec2ae1\n      eq\n      tag_5\n      jumpi\n    tag_2:\n      0x00\n      dup1\n      revert\n        /* \"artifacts/Lalit/Array.sol\":156:250  function arraywithloop (uint x) public{... */\n    tag_3:\n      tag_6\n      0x04\n      dup1\n      calldatasize\n      sub\n      0x20\n      dup2\n      lt\n      iszero\n      tag_7\n      jumpi\n      0x00\n      dup1\n      revert\n    tag_7:\n      dup2\n      add\n      swap1\n      dup1\n      dup1\n      calldataload\n      swap1\n      0x20\n      add\n      swap1\n      swap3\n      swap2\n      swap1\n      pop\n      pop\n      pop\n      tag_8\n      jump\t// in\n    tag_6:\n      stop\n        /* \"artifacts/Lalit/Array.sol\":97:116  uint[5] public arr1 */\n    tag_4:\n      tag_9\n      0x04\n      dup1\n      calldatasize\n      sub\n      0x20\n      dup2\n      lt\n      iszero\n      tag_10\n      jumpi\n      0x00\n      dup1\n      revert\n    tag_10:\n      dup2\n      add\n      swap1\n      dup1\n      dup1\n      calldataload\n      swap1\n      0x20\n      add\n      swap1\n      swap3\n      swap2\n      swap1\n      pop\n      pop\n      pop\n      tag_11\n      jump\t// in\n    tag_9:\n      mload(0x40)\n      dup1\n      dup3\n      dup2\n      mstore\n      0x20\n      add\n      swap2\n      pop\n      pop\n      mload(0x40)\n      dup1\n      swap2\n      sub\n      swap1\n      return\n        /* \"artifacts/Lalit/Array.sol\":372:606  function array() public view returns( uint){... */\n    tag_5:\n      tag_12\n      tag_13\n      jump\t// in\n    tag_12:\n      mload(0x40)\n      dup1\n      dup3\n      dup2\n      mstore\n      0x20\n      add\n      swap2\n      pop\n      pop\n      mload(0x40)\n      dup1\n      swap2\n      sub\n      swap1\n      return\n        /* \"artifacts/Lalit/Array.sol\":156:250  function arraywithloop (uint x) public{... */\n    tag_8:\n        /* \"artifacts/Lalit/Array.sol\":201:207  uint i */\n      0x00\n        /* \"artifacts/Lalit/Array.sol\":197:247  for(uint i=0; i<arr1.length;i++){... */\n    tag_15:\n        /* \"artifacts/Lalit/Array.sol\":213:224  arr1.length */\n      0x05\n        /* \"artifacts/Lalit/Array.sol\":211:212  i */\n      dup2\n        /* \"artifacts/Lalit/Array.sol\":211:224  i<arr1.length */\n      lt\n        /* \"artifacts/Lalit/Array.sol\":197:247  for(uint i=0; i<arr1.length;i++){... */\n      iszero\n      tag_16\n      jumpi\n        /* \"artifacts/Lalit/Array.sol\":241:242  i */\n      dup1\n        /* \"artifacts/Lalit/Array.sol\":239:240  x */\n      dup3\n        /* \"artifacts/Lalit/Array.sol\":239:242  x+i */\n      add\n        /* \"artifacts/Lalit/Array.sol\":231:235  arr1 */\n      0x00\n        /* \"artifacts/Lalit/Array.sol\":236:237  i */\n      dup3\n        /* \"artifacts/Lalit/Array.sol\":231:238  arr1[i] */\n      0x05\n      dup2\n      lt\n      tag_18\n      jumpi\n      invalid\n    tag_18:\n      add\n        /* \"artifacts/Lalit/Array.sol\":231:242  arr1[i]=x+i */\n      dup2\n      swap1\n      sstore\n      pop\n        /* \"artifacts/Lalit/Array.sol\":225:228  i++ */\n      dup1\n      dup1\n      0x01\n      add\n      swap2\n      pop\n      pop\n        /* \"artifacts/Lalit/Array.sol\":197:247  for(uint i=0; i<arr1.length;i++){... */\n      jump(tag_15)\n    tag_16:\n      pop\n        /* \"artifacts/Lalit/Array.sol\":156:250  function arraywithloop (uint x) public{... */\n      pop\n      jump\t// out\n        /* \"artifacts/Lalit/Array.sol\":97:116  uint[5] public arr1 */\n    tag_11:\n      0x00\n      dup2\n      0x05\n      dup2\n      lt\n      tag_20\n      jumpi\n      0x00\n      dup1\n      revert\n    tag_20:\n      add\n      0x00\n      swap2\n      pop\n      swap1\n      pop\n      sload\n      dup2\n      jump\t// out\n        /* \"artifacts/Lalit/Array.sol\":372:606  function array() public view returns( uint){... */\n    tag_13:\n        /* \"artifacts/Lalit/Array.sol\":410:414  uint */\n      0x00\n        /* \"artifacts/Lalit/Array.sol\":372:606  function array() public view returns( uint){... */\n      swap1\n      jump\t// out\n\n    auxdata: 0xa2646970667358221220d12a991e37d030b0445514d0be2cd06ba2bbc736232ee6d3ec390511caf50a8364736f6c63430007060033\n}\n",
				"bytecode": {
					"linkReferences": {},
					"object": "608060405234801561001057600080fd5b5061015c806100206000396000f3fe608060405234801561001057600080fd5b50600436106100415760003560e01c80632aa7f0af146100465780636987b1fb14610074578063b0ec2ae1146100b6575b600080fd5b6100726004803603602081101561005c57600080fd5b81019080803590602001909291905050506100d4565b005b6100a06004803603602081101561008a57600080fd5b8101908080359060200190929190505050610106565b6040518082815260200191505060405180910390f35b6100be610121565b6040518082815260200191505060405180910390f35b60005b600581101561010257808201600082600581106100f057fe5b018190555080806001019150506100d7565b5050565b6000816005811061011657600080fd5b016000915090505481565b60009056fea2646970667358221220d12a991e37d030b0445514d0be2cd06ba2bbc736232ee6d3ec390511caf50a8364736f6c63430007060033",
					"opcodes": "PUSH1 0x80 PUSH1 0x40 MSTORE CALLVALUE DUP1 ISZERO PUSH2 0x10 JUMPI PUSH1 0x0 DUP1 REVERT JUMPDEST POP PUSH2 0x15C DUP1 PUSH2 0x20 PUSH1 0x0 CODECOPY PUSH1 0x0 RETURN INVALID PUSH1 0x80 PUSH1 0x40 MSTORE CALLVALUE DUP1 ISZERO PUSH2 0x10 JUMPI PUSH1 0x0 DUP1 REVERT JUMPDEST POP PUSH1 0x4 CALLDATASIZE LT PUSH2 0x41 JUMPI PUSH1 0x0 CALLDATALOAD PUSH1 0xE0 SHR DUP1 PUSH4 0x2AA7F0AF EQ PUSH2 0x46 JUMPI DUP1 PUSH4 0x6987B1FB EQ PUSH2 0x74 JUMPI DUP1 PUSH4 0xB0EC2AE1 EQ PUSH2 0xB6 JUMPI JUMPDEST PUSH1 0x0 DUP1 REVERT JUMPDEST PUSH2 0x72 PUSH1 0x4 DUP1 CALLDATASIZE SUB PUSH1 0x20 DUP2 LT ISZERO PUSH2 0x5C JUMPI PUSH1 0x0 DUP1 REVERT JUMPDEST DUP2 ADD SWAP1 DUP1 DUP1 CALLDATALOAD SWAP1 PUSH1 0x20 ADD SWAP1 SWAP3 SWAP2 SWAP1 POP POP POP PUSH2 0xD4 JUMP JUMPDEST STOP JUMPDEST PUSH2 0xA0 PUSH1 0x4 DUP1 CALLDATASIZE SUB PUSH1 0x20 DUP2 LT ISZERO PUSH2 0x8A JUMPI PUSH1 0x0 DUP1 REVERT JUMPDEST DUP2 ADD SWAP1 DUP1 DUP1 CALLDATALOAD SWAP1 PUSH1 0x20 ADD SWAP1 SWAP3 SWAP2 SWAP1 POP POP POP PUSH2 0x106 JUMP JUMPDEST PUSH1 0x40 MLOAD DUP1 DUP3 DUP2 MSTORE PUSH1 0x20 ADD SWAP2 POP POP PUSH1 0x40 MLOAD DUP1 SWAP2 SUB SWAP1 RETURN JUMPDEST PUSH2 0xBE PUSH2 0x121 JUMP JUMPDEST PUSH1 0x40 MLOAD DUP1 DUP3 DUP2 MSTORE PUSH1 0x20 ADD SWAP2 POP POP PUSH1 0x40 MLOAD DUP1 SWAP2 SUB SWAP1 RETURN JUMPDEST PUSH1 0x0 JUMPDEST PUSH1 0x5 DUP2 LT ISZERO PUSH2 0x102 JUMPI DUP1 DUP3 ADD PUSH1 0x0 DUP3 PUSH1 0x5 DUP2 LT PUSH2 0xF0 JUMPI INVALID JUMPDEST ADD DUP2 SWAP1 SSTORE POP DUP1 DUP1 PUSH1 0x1 ADD SWAP2 POP POP PUSH2 0xD7 JUMP JUMPDEST POP POP JUMP JUMPDEST PUSH1 0x0 DUP2 PUSH1 0x5 DUP2 LT PUSH2 0x116 JUMPI PUSH1 0x0 DUP1 REVERT JUMPDEST ADD PUSH1 0x0 SWAP2 POP SWAP1 POP SLOAD DUP2 JUMP JUMPDEST PUSH1 0x0 SWAP1 JUMP INVALID LOG2 PUSH5 0x6970667358 0x22 SLT KECCAK256 0xD1 0x2A SWAP10 0x1E CALLDATACOPY 0xD0 ADDRESS 0xB0 DIFFICULTY SSTORE EQ 0xD0 0xBE 0x2C 0xD0 PUSH12 0xA2BBC736232EE6D3EC390511 0xCA CREATE2 EXP DUP4 PUSH5 0x736F6C6343 STOP SMOD MOD STOP CALLER "
				},
				"gasEstimates": {
					"creation": {
						"codeDepositCost": "69600",
						"executionCost": "117",
						"totalCost": "69717"
					},
					"external": {
						"arr1(uint256)": "1129",
						"array()": "227",
						"arraywithloop(uint256)": "infinite"
					}
				},
				"methodIdentifiers": {
					"arr1(uint256)": "6987b1fb",
					"array()": "b0ec2ae1",
					"arraywithloop(uint256)": "2aa7f0af"
				}
			},
			"storageLayout": {
				"storage": [
					{
						"astId": 5,
						"contract": "artifacts/Lalit/Array.sol:fixedsizearray",
						"label": "arr1",
						"offset": 0,
						"slot": "0",
						"type": "t_array(t_uint256)5_storage"
					}
				],
				"types": {
					"t_array(t_uint256)5_storage": {
						"base": "t_uint256",
						"encoding": "inplace",
						"label": "uint256[5]",
						"numberOfBytes": "160"
					},
					"t_uint256": {
						"encoding": "inplace",
						"label": "uint256",
						"numberOfBytes": "32"
					}
				}
			},
			"userdoc": {
				"kind": "user",
				"methods": {},
				"version": 1
			}
		}
	}
}