{
	"artifacts/Lalit/Crowfunding.sol": {
		"Crowfunding": {
			"abi": [
				{
					"inputs": [
						{
							"internalType": "uint256",
							"name": "_target",
							"type": "uint256"
						},
						{
							"internalType": "uint256",
							"name": "_deadline",
							"type": "uint256"
						}
					],
					"stateMutability": "nonpayable",
					"type": "constructor"
				},
				{
					"inputs": [
						{
							"internalType": "address",
							"name": "",
							"type": "address"
						}
					],
					"name": "contributors",
					"outputs": [
						{
							"internalType": "uint256",
							"name": "",
							"type": "uint256"
						}
					],
					"stateMutability": "view",
					"type": "function"
				},
				{
					"inputs": [],
					"name": "deadline",
					"outputs": [
						{
							"internalType": "uint256",
							"name": "",
							"type": "uint256"
						}
					],
					"stateMutability": "view",
					"type": "function"
				},
				{
					"inputs": [],
					"name": "manager",
					"outputs": [
						{
							"internalType": "address",
							"name": "",
							"type": "address"
						}
					],
					"stateMutability": "view",
					"type": "function"
				},
				{
					"inputs": [],
					"name": "minimum_contibution",
					"outputs": [
						{
							"internalType": "uint256",
							"name": "",
							"type": "uint256"
						}
					],
					"stateMutability": "view",
					"type": "function"
				},
				{
					"inputs": [],
					"name": "no_of_contributors",
					"outputs": [
						{
							"internalType": "uint256",
							"name": "",
							"type": "uint256"
						}
					],
					"stateMutability": "view",
					"type": "function"
				},
				{
					"inputs": [],
					"name": "raisedAmount",
					"outputs": [
						{
							"internalType": "uint256",
							"name": "",
							"type": "uint256"
						}
					],
					"stateMutability": "view",
					"type": "function"
				},
				{
					"inputs": [],
					"name": "refund_if_traget_not_achive",
					"outputs": [],
					"stateMutability": "nonpayable",
					"type": "function"
				},
				{
					"inputs": [],
					"name": "sendEth",
					"outputs": [],
					"stateMutability": "payable",
					"type": "function"
				},
				{
					"inputs": [],
					"name": "target",
					"outputs": [
						{
							"internalType": "uint256",
							"name": "",
							"type": "uint256"
						}
					],
					"stateMutability": "view",
					"type": "function"
				},
				{
					"inputs": [],
					"name": "totalcontractbalance",
					"outputs": [
						{
							"internalType": "uint256",
							"name": "",
							"type": "uint256"
						}
					],
					"stateMutability": "view",
					"type": "function"
				}
			],
			"devdoc": {
				"kind": "dev",
				"methods": {},
				"version": 1
			},
			"evm": {
				"assembly": "    /* \"artifacts/Lalit/Crowfunding.sol\":70:1700  contract Crowfunding{... */\n  mstore(0x40, 0x80)\n    /* \"artifacts/Lalit/Crowfunding.sol\":335:603  constructor (uint _target, uint _deadline){... */\n  callvalue\n  dup1\n  iszero\n  tag_1\n  jumpi\n  0x00\n  dup1\n  revert\ntag_1:\n  pop\n  mload(0x40)\n  sub(codesize, bytecodeSize)\n  dup1\n  bytecodeSize\n  dup4\n  codecopy\n  dup2\n  dup2\n  add\n  0x40\n  mstore\n  0x40\n  dup2\n  lt\n  iszero\n  tag_2\n  jumpi\n  0x00\n  dup1\n  revert\ntag_2:\n  dup2\n  add\n  swap1\n  dup1\n  dup1\n  mload\n  swap1\n  0x20\n  add\n  swap1\n  swap3\n  swap2\n  swap1\n  dup1\n  mload\n  swap1\n  0x20\n  add\n  swap1\n  swap3\n  swap2\n  swap1\n  pop\n  pop\n  pop\n    /* \"artifacts/Lalit/Crowfunding.sol\":396:403  _target */\n  dup2\n    /* \"artifacts/Lalit/Crowfunding.sol\":387:393  target */\n  0x04\n    /* \"artifacts/Lalit/Crowfunding.sol\":387:403  target = _target */\n  dup2\n  swap1\n  sstore\n  pop\n    /* \"artifacts/Lalit/Crowfunding.sol\":517:526  _deadline */\n  dup1\n    /* \"artifacts/Lalit/Crowfunding.sol\":499:514  block.timestamp */\n  timestamp\n    /* \"artifacts/Lalit/Crowfunding.sol\":499:526  block.timestamp + _deadline */\n  add\n    /* \"artifacts/Lalit/Crowfunding.sol\":488:496  deadline */\n  0x03\n    /* \"artifacts/Lalit/Crowfunding.sol\":488:526  deadline = block.timestamp + _deadline */\n  dup2\n  swap1\n  sstore\n  pop\n    /* \"artifacts/Lalit/Crowfunding.sol\":558:565  100 wei */\n  0x64\n    /* \"artifacts/Lalit/Crowfunding.sol\":536:555  minimum_contibution */\n  0x02\n    /* \"artifacts/Lalit/Crowfunding.sol\":536:565  minimum_contibution = 100 wei */\n  dup2\n  swap1\n  sstore\n  pop\n    /* \"artifacts/Lalit/Crowfunding.sol\":585:595  msg.sender */\n  caller\n    /* \"artifacts/Lalit/Crowfunding.sol\":575:582  manager */\n  0x01\n  0x00\n    /* \"artifacts/Lalit/Crowfunding.sol\":575:595  manager = msg.sender */\n  0x0100\n  exp\n  dup2\n  sload\n  dup2\n  0xffffffffffffffffffffffffffffffffffffffff\n  mul\n  not\n  and\n  swap1\n  dup4\n  0xffffffffffffffffffffffffffffffffffffffff\n  and\n  mul\n  or\n  swap1\n  sstore\n  pop\n    /* \"artifacts/Lalit/Crowfunding.sol\":335:603  constructor (uint _target, uint _deadline){... */\n  pop\n  pop\n    /* \"artifacts/Lalit/Crowfunding.sol\":70:1700  contract Crowfunding{... */\n  dataSize(sub_0)\n  dup1\n  dataOffset(sub_0)\n  0x00\n  codecopy\n  0x00\n  return\nstop\n\nsub_0: assembly {\n        /* \"artifacts/Lalit/Crowfunding.sol\":70:1700  contract Crowfunding{... */\n      mstore(0x40, 0x80)\n      jumpi(tag_1, lt(calldatasize, 0x04))\n      shr(0xe0, calldataload(0x00))\n      dup1\n      0x544204a0\n      gt\n      tag_12\n      jumpi\n      dup1\n      0x544204a0\n      eq\n      tag_7\n      jumpi\n      dup1\n      0xc59ee1dc\n      eq\n      tag_8\n      jumpi\n      dup1\n      0xce9504d4\n      eq\n      tag_9\n      jumpi\n      dup1\n      0xd4b83992\n      eq\n      tag_10\n      jumpi\n      dup1\n      0xe9050b51\n      eq\n      tag_11\n      jumpi\n      jump(tag_1)\n    tag_12:\n      dup1\n      0x06e99fef\n      eq\n      tag_2\n      jumpi\n      dup1\n      0x1f6d4942\n      eq\n      tag_3\n      jumpi\n      dup1\n      0x29dcb0cf\n      eq\n      tag_4\n      jumpi\n      dup1\n      0x2f159273\n      eq\n      tag_5\n      jumpi\n      dup1\n      0x481c6a75\n      eq\n      tag_6\n      jumpi\n    tag_1:\n      0x00\n      dup1\n      revert\n        /* \"artifacts/Lalit/Crowfunding.sol\":674:1226  function sendEth() public payable {... */\n    tag_2:\n      tag_13\n      tag_14\n      jump\t// in\n    tag_13:\n      stop\n        /* \"artifacts/Lalit/Crowfunding.sol\":96:141  mapping ( address=> uint) public contributors */\n    tag_3:\n      callvalue\n      dup1\n      iszero\n      tag_15\n      jumpi\n      0x00\n      dup1\n      revert\n    tag_15:\n      pop\n      tag_16\n      0x04\n      dup1\n      calldatasize\n      sub\n      0x20\n      dup2\n      lt\n      iszero\n      tag_17\n      jumpi\n      0x00\n      dup1\n      revert\n    tag_17:\n      dup2\n      add\n      swap1\n      dup1\n      dup1\n      calldataload\n      0xffffffffffffffffffffffffffffffffffffffff\n      and\n      swap1\n      0x20\n      add\n      swap1\n      swap3\n      swap2\n      swap1\n      pop\n      pop\n      pop\n      tag_18\n      jump\t// in\n    tag_16:\n      mload(0x40)\n      dup1\n      dup3\n      dup2\n      mstore\n      0x20\n      add\n      swap2\n      pop\n      pop\n      mload(0x40)\n      dup1\n      swap2\n      sub\n      swap1\n      return\n        /* \"artifacts/Lalit/Crowfunding.sol\":212:232  uint public deadline */\n    tag_4:\n      callvalue\n      dup1\n      iszero\n      tag_19\n      jumpi\n      0x00\n      dup1\n      revert\n    tag_19:\n      pop\n      tag_20\n      tag_21\n      jump\t// in\n    tag_20:\n      mload(0x40)\n      dup1\n      dup3\n      dup2\n      mstore\n      0x20\n      add\n      swap2\n      pop\n      pop\n      mload(0x40)\n      dup1\n      swap2\n      sub\n      swap1\n      return\n        /* \"artifacts/Lalit/Crowfunding.sol\":175:206  uint public minimum_contibution */\n    tag_5:\n      callvalue\n      dup1\n      iszero\n      tag_22\n      jumpi\n      0x00\n      dup1\n      revert\n    tag_22:\n      pop\n      tag_23\n      tag_24\n      jump\t// in\n    tag_23:\n      mload(0x40)\n      dup1\n      dup3\n      dup2\n      mstore\n      0x20\n      add\n      swap2\n      pop\n      pop\n      mload(0x40)\n      dup1\n      swap2\n      sub\n      swap1\n      return\n        /* \"artifacts/Lalit/Crowfunding.sol\":147:169  address public manager */\n    tag_6:\n      callvalue\n      dup1\n      iszero\n      tag_25\n      jumpi\n      0x00\n      dup1\n      revert\n    tag_25:\n      pop\n      tag_26\n      tag_27\n      jump\t// in\n    tag_26:\n      mload(0x40)\n      dup1\n      dup3\n      0xffffffffffffffffffffffffffffffffffffffff\n      and\n      dup2\n      mstore\n      0x20\n      add\n      swap2\n      pop\n      pop\n      mload(0x40)\n      dup1\n      swap2\n      sub\n      swap1\n      return\n        /* \"artifacts/Lalit/Crowfunding.sol\":1228:1320  function totalcontractbalance() public view returns(uint){... */\n    tag_7:\n      callvalue\n      dup1\n      iszero\n      tag_28\n      jumpi\n      0x00\n      dup1\n      revert\n    tag_28:\n      pop\n      tag_29\n      tag_30\n      jump\t// in\n    tag_29:\n      mload(0x40)\n      dup1\n      dup3\n      dup2\n      mstore\n      0x20\n      add\n      swap2\n      pop\n      pop\n      mload(0x40)\n      dup1\n      swap2\n      sub\n      swap1\n      return\n        /* \"artifacts/Lalit/Crowfunding.sol\":262:286  uint public raisedAmount */\n    tag_8:\n      callvalue\n      dup1\n      iszero\n      tag_31\n      jumpi\n      0x00\n      dup1\n      revert\n    tag_31:\n      pop\n      tag_32\n      tag_33\n      jump\t// in\n    tag_32:\n      mload(0x40)\n      dup1\n      dup3\n      dup2\n      mstore\n      0x20\n      add\n      swap2\n      pop\n      pop\n      mload(0x40)\n      dup1\n      swap2\n      sub\n      swap1\n      return\n        /* \"artifacts/Lalit/Crowfunding.sol\":1326:1693  function refund_if_traget_not_achive() public {... */\n    tag_9:\n      callvalue\n      dup1\n      iszero\n      tag_34\n      jumpi\n      0x00\n      dup1\n      revert\n    tag_34:\n      pop\n      tag_35\n      tag_36\n      jump\t// in\n    tag_35:\n      stop\n        /* \"artifacts/Lalit/Crowfunding.sol\":238:256  uint public target */\n    tag_10:\n      callvalue\n      dup1\n      iszero\n      tag_37\n      jumpi\n      0x00\n      dup1\n      revert\n    tag_37:\n      pop\n      tag_38\n      tag_39\n      jump\t// in\n    tag_38:\n      mload(0x40)\n      dup1\n      dup3\n      dup2\n      mstore\n      0x20\n      add\n      swap2\n      pop\n      pop\n      mload(0x40)\n      dup1\n      swap2\n      sub\n      swap1\n      return\n        /* \"artifacts/Lalit/Crowfunding.sol\":292:322  uint public no_of_contributors */\n    tag_11:\n      callvalue\n      dup1\n      iszero\n      tag_40\n      jumpi\n      0x00\n      dup1\n      revert\n    tag_40:\n      pop\n      tag_41\n      tag_42\n      jump\t// in\n    tag_41:\n      mload(0x40)\n      dup1\n      dup3\n      dup2\n      mstore\n      0x20\n      add\n      swap2\n      pop\n      pop\n      mload(0x40)\n      dup1\n      swap2\n      sub\n      swap1\n      return\n        /* \"artifacts/Lalit/Crowfunding.sol\":674:1226  function sendEth() public payable {... */\n    tag_14:\n        /* \"artifacts/Lalit/Crowfunding.sol\":734:742  deadline */\n      sload(0x03)\n        /* \"artifacts/Lalit/Crowfunding.sol\":718:733  block.timestamp */\n      timestamp\n        /* \"artifacts/Lalit/Crowfunding.sol\":718:742  block.timestamp<deadline */\n      lt\n        /* \"artifacts/Lalit/Crowfunding.sol\":710:786  require(block.timestamp<deadline,\" deadline pass now you cannot contribute\") */\n      tag_44\n      jumpi\n      mload(0x40)\n      0x08c379a000000000000000000000000000000000000000000000000000000000\n      dup2\n      mstore\n      0x04\n      add\n      dup1\n      dup1\n      0x20\n      add\n      dup3\n      dup2\n      sub\n      dup3\n      mstore\n      0x28\n      dup2\n      mstore\n      0x20\n      add\n      dup1\n      data_2a220fd9338d1e7a9e0fc1ad3a8d43f2e8a702c51eb4e2ecfcbaf943826c61fa\n      0x28\n      swap2\n      codecopy\n      0x40\n      add\n      swap2\n      pop\n      pop\n      mload(0x40)\n      dup1\n      swap2\n      sub\n      swap1\n      revert\n    tag_44:\n        /* \"artifacts/Lalit/Crowfunding.sol\":809:828  minimum_contibution */\n      sload(0x02)\n        /* \"artifacts/Lalit/Crowfunding.sol\":796:805  msg.value */\n      callvalue\n        /* \"artifacts/Lalit/Crowfunding.sol\":796:828  msg.value >= minimum_contibution */\n      lt\n      iszero\n        /* \"artifacts/Lalit/Crowfunding.sol\":788:879  require(msg.value >= minimum_contibution,\" please transfer at least minimum contribution \") */\n      tag_45\n      jumpi\n      mload(0x40)\n      0x08c379a000000000000000000000000000000000000000000000000000000000\n      dup2\n      mstore\n      0x04\n      add\n      dup1\n      dup1\n      0x20\n      add\n      dup3\n      dup2\n      sub\n      dup3\n      mstore\n      0x2f\n      dup2\n      mstore\n      0x20\n      add\n      dup1\n      data_89bc88ed578b07c11ca6660d751be93545c251e4452b5327aee7f388500c7699\n      0x2f\n      swap2\n      codecopy\n      0x40\n      add\n      swap2\n      pop\n      pop\n      mload(0x40)\n      dup1\n      swap2\n      sub\n      swap1\n      revert\n    tag_45:\n        /* \"artifacts/Lalit/Crowfunding.sol\":1033:1038  0 wei */\n      0x00\n        /* \"artifacts/Lalit/Crowfunding.sol\":1005:1017  contributors */\n      dup1\n        /* \"artifacts/Lalit/Crowfunding.sol\":1005:1029  contributors[msg.sender] */\n      0x00\n        /* \"artifacts/Lalit/Crowfunding.sol\":1018:1028  msg.sender */\n      caller\n        /* \"artifacts/Lalit/Crowfunding.sol\":1005:1029  contributors[msg.sender] */\n      0xffffffffffffffffffffffffffffffffffffffff\n      and\n      0xffffffffffffffffffffffffffffffffffffffff\n      and\n      dup2\n      mstore\n      0x20\n      add\n      swap1\n      dup2\n      mstore\n      0x20\n      add\n      0x00\n      keccak256\n      sload\n        /* \"artifacts/Lalit/Crowfunding.sol\":1005:1038  contributors[msg.sender] == 0 wei */\n      eq\n        /* \"artifacts/Lalit/Crowfunding.sol\":1002:1065  if(contributors[msg.sender] == 0 wei){... */\n      iszero\n      tag_46\n      jumpi\n        /* \"artifacts/Lalit/Crowfunding.sol\":1041:1059  no_of_contributors */\n      0x06\n      0x00\n        /* \"artifacts/Lalit/Crowfunding.sol\":1041:1061  no_of_contributors++ */\n      dup2\n      sload\n      dup1\n      swap3\n      swap2\n      swap1\n      0x01\n      add\n      swap2\n      swap1\n      pop\n      sstore\n      pop\n        /* \"artifacts/Lalit/Crowfunding.sol\":1002:1065  if(contributors[msg.sender] == 0 wei){... */\n    tag_46:\n        /* \"artifacts/Lalit/Crowfunding.sol\":1121:1130  msg.value */\n      callvalue\n        /* \"artifacts/Lalit/Crowfunding.sol\":1094:1106  contributors */\n      0x00\n        /* \"artifacts/Lalit/Crowfunding.sol\":1094:1118  contributors[msg.sender] */\n      dup1\n        /* \"artifacts/Lalit/Crowfunding.sol\":1107:1117  msg.sender */\n      caller\n        /* \"artifacts/Lalit/Crowfunding.sol\":1094:1118  contributors[msg.sender] */\n      0xffffffffffffffffffffffffffffffffffffffff\n      and\n      0xffffffffffffffffffffffffffffffffffffffff\n      and\n      dup2\n      mstore\n      0x20\n      add\n      swap1\n      dup2\n      mstore\n      0x20\n      add\n      0x00\n      keccak256\n      sload\n        /* \"artifacts/Lalit/Crowfunding.sol\":1094:1130  contributors[msg.sender] + msg.value */\n      add\n        /* \"artifacts/Lalit/Crowfunding.sol\":1067:1079  contributors */\n      0x00\n        /* \"artifacts/Lalit/Crowfunding.sol\":1067:1091  contributors[msg.sender] */\n      dup1\n        /* \"artifacts/Lalit/Crowfunding.sol\":1080:1090  msg.sender */\n      caller\n        /* \"artifacts/Lalit/Crowfunding.sol\":1067:1091  contributors[msg.sender] */\n      0xffffffffffffffffffffffffffffffffffffffff\n      and\n      0xffffffffffffffffffffffffffffffffffffffff\n      and\n      dup2\n      mstore\n      0x20\n      add\n      swap1\n      dup2\n      mstore\n      0x20\n      add\n      0x00\n      keccak256\n        /* \"artifacts/Lalit/Crowfunding.sol\":1067:1130  contributors[msg.sender] = contributors[msg.sender] + msg.value */\n      dup2\n      swap1\n      sstore\n      pop\n        /* \"artifacts/Lalit/Crowfunding.sol\":1149:1158  msg.value */\n      callvalue\n        /* \"artifacts/Lalit/Crowfunding.sol\":1133:1145  raisedAmount */\n      0x05\n      0x00\n        /* \"artifacts/Lalit/Crowfunding.sol\":1133:1158  raisedAmount += msg.value */\n      dup3\n      dup3\n      sload\n      add\n      swap3\n      pop\n      pop\n      dup2\n      swap1\n      sstore\n      pop\n        /* \"artifacts/Lalit/Crowfunding.sol\":674:1226  function sendEth() public payable {... */\n      jump\t// out\n        /* \"artifacts/Lalit/Crowfunding.sol\":96:141  mapping ( address=> uint) public contributors */\n    tag_18:\n      mstore(0x20, 0x00)\n      dup1\n      0x00\n      mstore\n      keccak256(0x00, 0x40)\n      0x00\n      swap2\n      pop\n      swap1\n      pop\n      sload\n      dup2\n      jump\t// out\n        /* \"artifacts/Lalit/Crowfunding.sol\":212:232  uint public deadline */\n    tag_21:\n      sload(0x03)\n      dup2\n      jump\t// out\n        /* \"artifacts/Lalit/Crowfunding.sol\":175:206  uint public minimum_contibution */\n    tag_24:\n      sload(0x02)\n      dup2\n      jump\t// out\n        /* \"artifacts/Lalit/Crowfunding.sol\":147:169  address public manager */\n    tag_27:\n      0x01\n      0x00\n      swap1\n      sload\n      swap1\n      0x0100\n      exp\n      swap1\n      div\n      0xffffffffffffffffffffffffffffffffffffffff\n      and\n      dup2\n      jump\t// out\n        /* \"artifacts/Lalit/Crowfunding.sol\":1228:1320  function totalcontractbalance() public view returns(uint){... */\n    tag_30:\n        /* \"artifacts/Lalit/Crowfunding.sol\":1280:1284  uint */\n      0x00\n        /* \"artifacts/Lalit/Crowfunding.sol\":1295:1316  address(this).balance */\n      selfbalance\n        /* \"artifacts/Lalit/Crowfunding.sol\":1288:1316  return address(this).balance */\n      swap1\n      pop\n        /* \"artifacts/Lalit/Crowfunding.sol\":1228:1320  function totalcontractbalance() public view returns(uint){... */\n      swap1\n      jump\t// out\n        /* \"artifacts/Lalit/Crowfunding.sol\":262:286  uint public raisedAmount */\n    tag_33:\n      sload(0x05)\n      dup2\n      jump\t// out\n        /* \"artifacts/Lalit/Crowfunding.sol\":1326:1693  function refund_if_traget_not_achive() public {... */\n    tag_36:\n        /* \"artifacts/Lalit/Crowfunding.sol\":1398:1406  deadline */\n      sload(0x03)\n        /* \"artifacts/Lalit/Crowfunding.sol\":1382:1397  block.timestamp */\n      timestamp\n        /* \"artifacts/Lalit/Crowfunding.sol\":1382:1406  block.timestamp>deadline */\n      gt\n        /* \"artifacts/Lalit/Crowfunding.sol\":1382:1429  block.timestamp>deadline && raisedAmount<target */\n      dup1\n      iszero\n      tag_49\n      jumpi\n      pop\n        /* \"artifacts/Lalit/Crowfunding.sol\":1423:1429  target */\n      sload(0x04)\n        /* \"artifacts/Lalit/Crowfunding.sol\":1410:1422  raisedAmount */\n      sload(0x05)\n        /* \"artifacts/Lalit/Crowfunding.sol\":1410:1429  raisedAmount<target */\n      lt\n        /* \"artifacts/Lalit/Crowfunding.sol\":1382:1429  block.timestamp>deadline && raisedAmount<target */\n    tag_49:\n        /* \"artifacts/Lalit/Crowfunding.sol\":1374:1465  require(block.timestamp>deadline && raisedAmount<target,\" you are not eligible for refund\") */\n      tag_50\n      jumpi\n      mload(0x40)\n      0x08c379a000000000000000000000000000000000000000000000000000000000\n      dup2\n      mstore\n      0x04\n      add\n      dup1\n      dup1\n      0x20\n      add\n      dup3\n      dup2\n      sub\n      dup3\n      mstore\n      0x20\n      dup2\n      mstore\n      0x20\n      add\n      dup1\n      0x20796f7520617265206e6f7420656c696769626c6520666f7220726566756e64\n      dup2\n      mstore\n      pop\n      0x20\n      add\n      swap2\n      pop\n      pop\n      mload(0x40)\n      dup1\n      swap2\n      sub\n      swap1\n      revert\n    tag_50:\n        /* \"artifacts/Lalit/Crowfunding.sol\":1501:1502  0 */\n      0x00\n        /* \"artifacts/Lalit/Crowfunding.sol\":1476:1488  contributors */\n      dup1\n        /* \"artifacts/Lalit/Crowfunding.sol\":1476:1500  contributors[msg.sender] */\n      0x00\n        /* \"artifacts/Lalit/Crowfunding.sol\":1489:1499  msg.sender */\n      caller\n        /* \"artifacts/Lalit/Crowfunding.sol\":1476:1500  contributors[msg.sender] */\n      0xffffffffffffffffffffffffffffffffffffffff\n      and\n      0xffffffffffffffffffffffffffffffffffffffff\n      and\n      dup2\n      mstore\n      0x20\n      add\n      swap1\n      dup2\n      mstore\n      0x20\n      add\n      0x00\n      keccak256\n      sload\n        /* \"artifacts/Lalit/Crowfunding.sol\":1476:1502  contributors[msg.sender]>0 */\n      gt\n        /* \"artifacts/Lalit/Crowfunding.sol\":1467:1540  require (contributors[msg.sender]>0,\" you are not contribute any amount\") */\n      tag_51\n      jumpi\n      mload(0x40)\n      0x08c379a000000000000000000000000000000000000000000000000000000000\n      dup2\n      mstore\n      0x04\n      add\n      dup1\n      dup1\n      0x20\n      add\n      dup3\n      dup2\n      sub\n      dup3\n      mstore\n      0x22\n      dup2\n      mstore\n      0x20\n      add\n      dup1\n      data_348ccce91046703abbbacf8c68a9237537a1423e384fb6fe8e511d1c72bf540d\n      0x22\n      swap2\n      codecopy\n      0x40\n      add\n      swap2\n      pop\n      pop\n      mload(0x40)\n      dup1\n      swap2\n      sub\n      swap1\n      revert\n    tag_51:\n        /* \"artifacts/Lalit/Crowfunding.sol\":1574:1594  address payable user */\n      0x00\n        /* \"artifacts/Lalit/Crowfunding.sol\":1605:1615  msg.sender */\n      caller\n        /* \"artifacts/Lalit/Crowfunding.sol\":1574:1616  address payable user = payable(msg.sender) */\n      swap1\n      pop\n        /* \"artifacts/Lalit/Crowfunding.sol\":1618:1622  user */\n      dup1\n        /* \"artifacts/Lalit/Crowfunding.sol\":1618:1631  user.transfer */\n      0xffffffffffffffffffffffffffffffffffffffff\n      and\n        /* \"artifacts/Lalit/Crowfunding.sol\":1618:1657  user.transfer(contributors[msg.sender]) */\n      0x08fc\n        /* \"artifacts/Lalit/Crowfunding.sol\":1632:1644  contributors */\n      0x00\n        /* \"artifacts/Lalit/Crowfunding.sol\":1632:1656  contributors[msg.sender] */\n      dup1\n        /* \"artifacts/Lalit/Crowfunding.sol\":1645:1655  msg.sender */\n      caller\n        /* \"artifacts/Lalit/Crowfunding.sol\":1632:1656  contributors[msg.sender] */\n      0xffffffffffffffffffffffffffffffffffffffff\n      and\n      0xffffffffffffffffffffffffffffffffffffffff\n      and\n      dup2\n      mstore\n      0x20\n      add\n      swap1\n      dup2\n      mstore\n      0x20\n      add\n      0x00\n      keccak256\n      sload\n        /* \"artifacts/Lalit/Crowfunding.sol\":1618:1657  user.transfer(contributors[msg.sender]) */\n      swap1\n      dup2\n      iszero\n      mul\n      swap1\n      mload(0x40)\n      0x00\n      mload(0x40)\n      dup1\n      dup4\n      sub\n      dup2\n      dup6\n      dup9\n      dup9\n      call\n      swap4\n      pop\n      pop\n      pop\n      pop\n      iszero\n      dup1\n      iszero\n      tag_53\n      jumpi\n      returndatasize\n      0x00\n      dup1\n      returndatacopy\n      revert(0x00, returndatasize)\n    tag_53:\n      pop\n        /* \"artifacts/Lalit/Crowfunding.sol\":1687:1688  0 */\n      0x00\n        /* \"artifacts/Lalit/Crowfunding.sol\":1660:1672  contributors */\n      dup1\n        /* \"artifacts/Lalit/Crowfunding.sol\":1660:1684  contributors[msg.sender] */\n      0x00\n        /* \"artifacts/Lalit/Crowfunding.sol\":1673:1683  msg.sender */\n      caller\n        /* \"artifacts/Lalit/Crowfunding.sol\":1660:1684  contributors[msg.sender] */\n      0xffffffffffffffffffffffffffffffffffffffff\n      and\n      0xffffffffffffffffffffffffffffffffffffffff\n      and\n      dup2\n      mstore\n      0x20\n      add\n      swap1\n      dup2\n      mstore\n      0x20\n      add\n      0x00\n      keccak256\n        /* \"artifacts/Lalit/Crowfunding.sol\":1660:1688  contributors[msg.sender] = 0 */\n      dup2\n      swap1\n      sstore\n      pop\n        /* \"artifacts/Lalit/Crowfunding.sol\":1326:1693  function refund_if_traget_not_achive() public {... */\n      pop\n      jump\t// out\n        /* \"artifacts/Lalit/Crowfunding.sol\":238:256  uint public target */\n    tag_39:\n      sload(0x04)\n      dup2\n      jump\t// out\n        /* \"artifacts/Lalit/Crowfunding.sol\":292:322  uint public no_of_contributors */\n    tag_42:\n      sload(0x06)\n      dup2\n      jump\t// out\n    stop\n    data_2a220fd9338d1e7a9e0fc1ad3a8d43f2e8a702c51eb4e2ecfcbaf943826c61fa 20646561646c696e652070617373206e6f7720796f752063616e6e6f7420636f6e74726962757465\n    data_348ccce91046703abbbacf8c68a9237537a1423e384fb6fe8e511d1c72bf540d 20796f7520617265206e6f7420636f6e7472696275746520616e7920616d6f756e74\n    data_89bc88ed578b07c11ca6660d751be93545c251e4452b5327aee7f388500c7699 20706c65617365207472616e73666572206174206c65617374206d696e696d756d20636f6e747269627574696f6e20\n\n    auxdata: 0xa26469706673582212201871e1ef2b0596eb4aa66857606344dd812e685259183b1f23b9f7a3dde3601a64736f6c63430007060033\n}\n",
				"bytecode": {
					"linkReferences": {},
					"object": "608060405234801561001057600080fd5b506040516107bc3803806107bc8339818101604052604081101561003357600080fd5b81019080805190602001909291908051906020019092919050505081600481905550804201600381905550606460028190555033600160006101000a81548173ffffffffffffffffffffffffffffffffffffffff021916908373ffffffffffffffffffffffffffffffffffffffff1602179055505050610704806100b86000396000f3fe6080604052600436106100915760003560e01c8063544204a011610059578063544204a01461019c578063c59ee1dc146101c7578063ce9504d4146101f2578063d4b8399214610209578063e9050b511461023457610091565b806306e99fef146100965780631f6d4942146100a057806329dcb0cf146101055780632f15927314610130578063481c6a751461015b575b600080fd5b61009e61025f565b005b3480156100ac57600080fd5b506100ef600480360360208110156100c357600080fd5b81019080803573ffffffffffffffffffffffffffffffffffffffff169060200190929190505050610403565b6040518082815260200191505060405180910390f35b34801561011157600080fd5b5061011a61041b565b6040518082815260200191505060405180910390f35b34801561013c57600080fd5b50610145610421565b6040518082815260200191505060405180910390f35b34801561016757600080fd5b50610170610427565b604051808273ffffffffffffffffffffffffffffffffffffffff16815260200191505060405180910390f35b3480156101a857600080fd5b506101b161044d565b6040518082815260200191505060405180910390f35b3480156101d357600080fd5b506101dc610455565b6040518082815260200191505060405180910390f35b3480156101fe57600080fd5b5061020761045b565b005b34801561021557600080fd5b5061021e610649565b6040518082815260200191505060405180910390f35b34801561024057600080fd5b5061024961064f565b6040518082815260200191505060405180910390f35b60035442106102b9576040517f08c379a00000000000000000000000000000000000000000000000000000000081526004018080602001828103825260288152602001806106566028913960400191505060405180910390fd5b600254341015610314576040517f08c379a000000000000000000000000000000000000000000000000000000000815260040180806020018281038252602f8152602001806106a0602f913960400191505060405180910390fd5b60008060003373ffffffffffffffffffffffffffffffffffffffff1673ffffffffffffffffffffffffffffffffffffffff16815260200190815260200160002054141561036e576006600081548092919060010191905055505b346000803373ffffffffffffffffffffffffffffffffffffffff1673ffffffffffffffffffffffffffffffffffffffff16815260200190815260200160002054016000803373ffffffffffffffffffffffffffffffffffffffff1673ffffffffffffffffffffffffffffffffffffffff1681526020019081526020016000208190555034600560008282540192505081905550565b60006020528060005260406000206000915090505481565b60035481565b60025481565b600160009054906101000a900473ffffffffffffffffffffffffffffffffffffffff1681565b600047905090565b60055481565b6003544211801561046f5750600454600554105b6104e1576040517f08c379a00000000000000000000000000000000000000000000000000000000081526004018080602001828103825260208152602001807f20796f7520617265206e6f7420656c696769626c6520666f7220726566756e6481525060200191505060405180910390fd5b60008060003373ffffffffffffffffffffffffffffffffffffffff1673ffffffffffffffffffffffffffffffffffffffff1681526020019081526020016000205411610578576040517f08c379a000000000000000000000000000000000000000000000000000000000815260040180806020018281038252602281526020018061067e6022913960400191505060405180910390fd5b60003390508073ffffffffffffffffffffffffffffffffffffffff166108fc6000803373ffffffffffffffffffffffffffffffffffffffff1673ffffffffffffffffffffffffffffffffffffffff168152602001908152602001600020549081150290604051600060405180830381858888f19350505050158015610601573d6000803e3d6000fd5b5060008060003373ffffffffffffffffffffffffffffffffffffffff1673ffffffffffffffffffffffffffffffffffffffff1681526020019081526020016000208190555050565b60045481565b6006548156fe20646561646c696e652070617373206e6f7720796f752063616e6e6f7420636f6e7472696275746520796f7520617265206e6f7420636f6e7472696275746520616e7920616d6f756e7420706c65617365207472616e73666572206174206c65617374206d696e696d756d20636f6e747269627574696f6e20a26469706673582212201871e1ef2b0596eb4aa66857606344dd812e685259183b1f23b9f7a3dde3601a64736f6c63430007060033",
					"opcodes": "PUSH1 0x80 PUSH1 0x40 MSTORE CALLVALUE DUP1 ISZERO PUSH2 0x10 JUMPI PUSH1 0x0 DUP1 REVERT JUMPDEST POP PUSH1 0x40 MLOAD PUSH2 0x7BC CODESIZE SUB DUP1 PUSH2 0x7BC DUP4 CODECOPY DUP2 DUP2 ADD PUSH1 0x40 MSTORE PUSH1 0x40 DUP2 LT ISZERO PUSH2 0x33 JUMPI PUSH1 0x0 DUP1 REVERT JUMPDEST DUP2 ADD SWAP1 DUP1 DUP1 MLOAD SWAP1 PUSH1 0x20 ADD SWAP1 SWAP3 SWAP2 SWAP1 DUP1 MLOAD SWAP1 PUSH1 0x20 ADD SWAP1 SWAP3 SWAP2 SWAP1 POP POP POP DUP2 PUSH1 0x4 DUP2 SWAP1 SSTORE POP DUP1 TIMESTAMP ADD PUSH1 0x3 DUP2 SWAP1 SSTORE POP PUSH1 0x64 PUSH1 0x2 DUP2 SWAP1 SSTORE POP CALLER PUSH1 0x1 PUSH1 0x0 PUSH2 0x100 EXP DUP2 SLOAD DUP2 PUSH20 0xFFFFFFFFFFFFFFFFFFFFFFFFFFFFFFFFFFFFFFFF MUL NOT AND SWAP1 DUP4 PUSH20 0xFFFFFFFFFFFFFFFFFFFFFFFFFFFFFFFFFFFFFFFF AND MUL OR SWAP1 SSTORE POP POP POP PUSH2 0x704 DUP1 PUSH2 0xB8 PUSH1 0x0 CODECOPY PUSH1 0x0 RETURN INVALID PUSH1 0x80 PUSH1 0x40 MSTORE PUSH1 0x4 CALLDATASIZE LT PUSH2 0x91 JUMPI PUSH1 0x0 CALLDATALOAD PUSH1 0xE0 SHR DUP1 PUSH4 0x544204A0 GT PUSH2 0x59 JUMPI DUP1 PUSH4 0x544204A0 EQ PUSH2 0x19C JUMPI DUP1 PUSH4 0xC59EE1DC EQ PUSH2 0x1C7 JUMPI DUP1 PUSH4 0xCE9504D4 EQ PUSH2 0x1F2 JUMPI DUP1 PUSH4 0xD4B83992 EQ PUSH2 0x209 JUMPI DUP1 PUSH4 0xE9050B51 EQ PUSH2 0x234 JUMPI PUSH2 0x91 JUMP JUMPDEST DUP1 PUSH4 0x6E99FEF EQ PUSH2 0x96 JUMPI DUP1 PUSH4 0x1F6D4942 EQ PUSH2 0xA0 JUMPI DUP1 PUSH4 0x29DCB0CF EQ PUSH2 0x105 JUMPI DUP1 PUSH4 0x2F159273 EQ PUSH2 0x130 JUMPI DUP1 PUSH4 0x481C6A75 EQ PUSH2 0x15B JUMPI JUMPDEST PUSH1 0x0 DUP1 REVERT JUMPDEST PUSH2 0x9E PUSH2 0x25F JUMP JUMPDEST STOP JUMPDEST CALLVALUE DUP1 ISZERO PUSH2 0xAC JUMPI PUSH1 0x0 DUP1 REVERT JUMPDEST POP PUSH2 0xEF PUSH1 0x4 DUP1 CALLDATASIZE SUB PUSH1 0x20 DUP2 LT ISZERO PUSH2 0xC3 JUMPI PUSH1 0x0 DUP1 REVERT JUMPDEST DUP2 ADD SWAP1 DUP1 DUP1 CALLDATALOAD PUSH20 0xFFFFFFFFFFFFFFFFFFFFFFFFFFFFFFFFFFFFFFFF AND SWAP1 PUSH1 0x20 ADD SWAP1 SWAP3 SWAP2 SWAP1 POP POP POP PUSH2 0x403 JUMP JUMPDEST PUSH1 0x40 MLOAD DUP1 DUP3 DUP2 MSTORE PUSH1 0x20 ADD SWAP2 POP POP PUSH1 0x40 MLOAD DUP1 SWAP2 SUB SWAP1 RETURN JUMPDEST CALLVALUE DUP1 ISZERO PUSH2 0x111 JUMPI PUSH1 0x0 DUP1 REVERT JUMPDEST POP PUSH2 0x11A PUSH2 0x41B JUMP JUMPDEST PUSH1 0x40 MLOAD DUP1 DUP3 DUP2 MSTORE PUSH1 0x20 ADD SWAP2 POP POP PUSH1 0x40 MLOAD DUP1 SWAP2 SUB SWAP1 RETURN JUMPDEST CALLVALUE DUP1 ISZERO PUSH2 0x13C JUMPI PUSH1 0x0 DUP1 REVERT JUMPDEST POP PUSH2 0x145 PUSH2 0x421 JUMP JUMPDEST PUSH1 0x40 MLOAD DUP1 DUP3 DUP2 MSTORE PUSH1 0x20 ADD SWAP2 POP POP PUSH1 0x40 MLOAD DUP1 SWAP2 SUB SWAP1 RETURN JUMPDEST CALLVALUE DUP1 ISZERO PUSH2 0x167 JUMPI PUSH1 0x0 DUP1 REVERT JUMPDEST POP PUSH2 0x170 PUSH2 0x427 JUMP JUMPDEST PUSH1 0x40 MLOAD DUP1 DUP3 PUSH20 0xFFFFFFFFFFFFFFFFFFFFFFFFFFFFFFFFFFFFFFFF AND DUP2 MSTORE PUSH1 0x20 ADD SWAP2 POP POP PUSH1 0x40 MLOAD DUP1 SWAP2 SUB SWAP1 RETURN JUMPDEST CALLVALUE DUP1 ISZERO PUSH2 0x1A8 JUMPI PUSH1 0x0 DUP1 REVERT JUMPDEST POP PUSH2 0x1B1 PUSH2 0x44D JUMP JUMPDEST PUSH1 0x40 MLOAD DUP1 DUP3 DUP2 MSTORE PUSH1 0x20 ADD SWAP2 POP POP PUSH1 0x40 MLOAD DUP1 SWAP2 SUB SWAP1 RETURN JUMPDEST CALLVALUE DUP1 ISZERO PUSH2 0x1D3 JUMPI PUSH1 0x0 DUP1 REVERT JUMPDEST POP PUSH2 0x1DC PUSH2 0x455 JUMP JUMPDEST PUSH1 0x40 MLOAD DUP1 DUP3 DUP2 MSTORE PUSH1 0x20 ADD SWAP2 POP POP PUSH1 0x40 MLOAD DUP1 SWAP2 SUB SWAP1 RETURN JUMPDEST CALLVALUE DUP1 ISZERO PUSH2 0x1FE JUMPI PUSH1 0x0 DUP1 REVERT JUMPDEST POP PUSH2 0x207 PUSH2 0x45B JUMP JUMPDEST STOP JUMPDEST CALLVALUE DUP1 ISZERO PUSH2 0x215 JUMPI PUSH1 0x0 DUP1 REVERT JUMPDEST POP PUSH2 0x21E PUSH2 0x649 JUMP JUMPDEST PUSH1 0x40 MLOAD DUP1 DUP3 DUP2 MSTORE PUSH1 0x20 ADD SWAP2 POP POP PUSH1 0x40 MLOAD DUP1 SWAP2 SUB SWAP1 RETURN JUMPDEST CALLVALUE DUP1 ISZERO PUSH2 0x240 JUMPI PUSH1 0x0 DUP1 REVERT JUMPDEST POP PUSH2 0x249 PUSH2 0x64F JUMP JUMPDEST PUSH1 0x40 MLOAD DUP1 DUP3 DUP2 MSTORE PUSH1 0x20 ADD SWAP2 POP POP PUSH1 0x40 MLOAD DUP1 SWAP2 SUB SWAP1 RETURN JUMPDEST PUSH1 0x3 SLOAD TIMESTAMP LT PUSH2 0x2B9 JUMPI PUSH1 0x40 MLOAD PUSH32 0x8C379A000000000000000000000000000000000000000000000000000000000 DUP2 MSTORE PUSH1 0x4 ADD DUP1 DUP1 PUSH1 0x20 ADD DUP3 DUP2 SUB DUP3 MSTORE PUSH1 0x28 DUP2 MSTORE PUSH1 0x20 ADD DUP1 PUSH2 0x656 PUSH1 0x28 SWAP2 CODECOPY PUSH1 0x40 ADD SWAP2 POP POP PUSH1 0x40 MLOAD DUP1 SWAP2 SUB SWAP1 REVERT JUMPDEST PUSH1 0x2 SLOAD CALLVALUE LT ISZERO PUSH2 0x314 JUMPI PUSH1 0x40 MLOAD PUSH32 0x8C379A000000000000000000000000000000000000000000000000000000000 DUP2 MSTORE PUSH1 0x4 ADD DUP1 DUP1 PUSH1 0x20 ADD DUP3 DUP2 SUB DUP3 MSTORE PUSH1 0x2F DUP2 MSTORE PUSH1 0x20 ADD DUP1 PUSH2 0x6A0 PUSH1 0x2F SWAP2 CODECOPY PUSH1 0x40 ADD SWAP2 POP POP PUSH1 0x40 MLOAD DUP1 SWAP2 SUB SWAP1 REVERT JUMPDEST PUSH1 0x0 DUP1 PUSH1 0x0 CALLER PUSH20 0xFFFFFFFFFFFFFFFFFFFFFFFFFFFFFFFFFFFFFFFF AND PUSH20 0xFFFFFFFFFFFFFFFFFFFFFFFFFFFFFFFFFFFFFFFF AND DUP2 MSTORE PUSH1 0x20 ADD SWAP1 DUP2 MSTORE PUSH1 0x20 ADD PUSH1 0x0 KECCAK256 SLOAD EQ ISZERO PUSH2 0x36E JUMPI PUSH1 0x6 PUSH1 0x0 DUP2 SLOAD DUP1 SWAP3 SWAP2 SWAP1 PUSH1 0x1 ADD SWAP2 SWAP1 POP SSTORE POP JUMPDEST CALLVALUE PUSH1 0x0 DUP1 CALLER PUSH20 0xFFFFFFFFFFFFFFFFFFFFFFFFFFFFFFFFFFFFFFFF AND PUSH20 0xFFFFFFFFFFFFFFFFFFFFFFFFFFFFFFFFFFFFFFFF AND DUP2 MSTORE PUSH1 0x20 ADD SWAP1 DUP2 MSTORE PUSH1 0x20 ADD PUSH1 0x0 KECCAK256 SLOAD ADD PUSH1 0x0 DUP1 CALLER PUSH20 0xFFFFFFFFFFFFFFFFFFFFFFFFFFFFFFFFFFFFFFFF AND PUSH20 0xFFFFFFFFFFFFFFFFFFFFFFFFFFFFFFFFFFFFFFFF AND DUP2 MSTORE PUSH1 0x20 ADD SWAP1 DUP2 MSTORE PUSH1 0x20 ADD PUSH1 0x0 KECCAK256 DUP2 SWAP1 SSTORE POP CALLVALUE PUSH1 0x5 PUSH1 0x0 DUP3 DUP3 SLOAD ADD SWAP3 POP POP DUP2 SWAP1 SSTORE POP JUMP JUMPDEST PUSH1 0x0 PUSH1 0x20 MSTORE DUP1 PUSH1 0x0 MSTORE PUSH1 0x40 PUSH1 0x0 KECCAK256 PUSH1 0x0 SWAP2 POP SWAP1 POP SLOAD DUP2 JUMP JUMPDEST PUSH1 0x3 SLOAD DUP2 JUMP JUMPDEST PUSH1 0x2 SLOAD DUP2 JUMP JUMPDEST PUSH1 0x1 PUSH1 0x0 SWAP1 SLOAD SWAP1 PUSH2 0x100 EXP SWAP1 DIV PUSH20 0xFFFFFFFFFFFFFFFFFFFFFFFFFFFFFFFFFFFFFFFF AND DUP2 JUMP JUMPDEST PUSH1 0x0 SELFBALANCE SWAP1 POP SWAP1 JUMP JUMPDEST PUSH1 0x5 SLOAD DUP2 JUMP JUMPDEST PUSH1 0x3 SLOAD TIMESTAMP GT DUP1 ISZERO PUSH2 0x46F JUMPI POP PUSH1 0x4 SLOAD PUSH1 0x5 SLOAD LT JUMPDEST PUSH2 0x4E1 JUMPI PUSH1 0x40 MLOAD PUSH32 0x8C379A000000000000000000000000000000000000000000000000000000000 DUP2 MSTORE PUSH1 0x4 ADD DUP1 DUP1 PUSH1 0x20 ADD DUP3 DUP2 SUB DUP3 MSTORE PUSH1 0x20 DUP2 MSTORE PUSH1 0x20 ADD DUP1 PUSH32 0x20796F7520617265206E6F7420656C696769626C6520666F7220726566756E64 DUP2 MSTORE POP PUSH1 0x20 ADD SWAP2 POP POP PUSH1 0x40 MLOAD DUP1 SWAP2 SUB SWAP1 REVERT JUMPDEST PUSH1 0x0 DUP1 PUSH1 0x0 CALLER PUSH20 0xFFFFFFFFFFFFFFFFFFFFFFFFFFFFFFFFFFFFFFFF AND PUSH20 0xFFFFFFFFFFFFFFFFFFFFFFFFFFFFFFFFFFFFFFFF AND DUP2 MSTORE PUSH1 0x20 ADD SWAP1 DUP2 MSTORE PUSH1 0x20 ADD PUSH1 0x0 KECCAK256 SLOAD GT PUSH2 0x578 JUMPI PUSH1 0x40 MLOAD PUSH32 0x8C379A000000000000000000000000000000000000000000000000000000000 DUP2 MSTORE PUSH1 0x4 ADD DUP1 DUP1 PUSH1 0x20 ADD DUP3 DUP2 SUB DUP3 MSTORE PUSH1 0x22 DUP2 MSTORE PUSH1 0x20 ADD DUP1 PUSH2 0x67E PUSH1 0x22 SWAP2 CODECOPY PUSH1 0x40 ADD SWAP2 POP POP PUSH1 0x40 MLOAD DUP1 SWAP2 SUB SWAP1 REVERT JUMPDEST PUSH1 0x0 CALLER SWAP1 POP DUP1 PUSH20 0xFFFFFFFFFFFFFFFFFFFFFFFFFFFFFFFFFFFFFFFF AND PUSH2 0x8FC PUSH1 0x0 DUP1 CALLER PUSH20 0xFFFFFFFFFFFFFFFFFFFFFFFFFFFFFFFFFFFFFFFF AND PUSH20 0xFFFFFFFFFFFFFFFFFFFFFFFFFFFFFFFFFFFFFFFF AND DUP2 MSTORE PUSH1 0x20 ADD SWAP1 DUP2 MSTORE PUSH1 0x20 ADD PUSH1 0x0 KECCAK256 SLOAD SWAP1 DUP2 ISZERO MUL SWAP1 PUSH1 0x40 MLOAD PUSH1 0x0 PUSH1 0x40 MLOAD DUP1 DUP4 SUB DUP2 DUP6 DUP9 DUP9 CALL SWAP4 POP POP POP POP ISZERO DUP1 ISZERO PUSH2 0x601 JUMPI RETURNDATASIZE PUSH1 0x0 DUP1 RETURNDATACOPY RETURNDATASIZE PUSH1 0x0 REVERT JUMPDEST POP PUSH1 0x0 DUP1 PUSH1 0x0 CALLER PUSH20 0xFFFFFFFFFFFFFFFFFFFFFFFFFFFFFFFFFFFFFFFF AND PUSH20 0xFFFFFFFFFFFFFFFFFFFFFFFFFFFFFFFFFFFFFFFF AND DUP2 MSTORE PUSH1 0x20 ADD SWAP1 DUP2 MSTORE PUSH1 0x20 ADD PUSH1 0x0 KECCAK256 DUP2 SWAP1 SSTORE POP POP JUMP JUMPDEST PUSH1 0x4 SLOAD DUP2 JUMP JUMPDEST PUSH1 0x6 SLOAD DUP2 JUMP INVALID KECCAK256 PUSH5 0x6561646C69 PUSH15 0x652070617373206E6F7720796F7520 PUSH4 0x616E6E6F PUSH21 0x20636F6E7472696275746520796F7520617265206E PUSH16 0x7420636F6E7472696275746520616E79 KECCAK256 PUSH2 0x6D6F PUSH22 0x6E7420706C65617365207472616E7366657220617420 PUSH13 0x65617374206D696E696D756D20 PUSH4 0x6F6E7472 PUSH10 0x627574696F6E20A26469 PUSH17 0x6673582212201871E1EF2B0596EB4AA668 JUMPI PUSH1 0x63 DIFFICULTY 0xDD DUP2 0x2E PUSH9 0x5259183B1F23B9F7A3 0xDD 0xE3 PUSH1 0x1A PUSH5 0x736F6C6343 STOP SMOD MOD STOP CALLER "
				},
				"gasEstimates": {
					"creation": {
						"codeDepositCost": "359200",
						"executionCost": "infinite",
						"totalCost": "infinite"
					},
					"external": {
						"contributors(address)": "1192",
						"deadline()": "1050",
						"manager()": "1136",
						"minimum_contibution()": "1072",
						"no_of_contributors()": "1093",
						"raisedAmount()": "1027",
						"refund_if_traget_not_achive()": "infinite",
						"sendEth()": "infinite",
						"target()": "1071",
						"totalcontractbalance()": "215"
					}
				},
				"methodIdentifiers": {
					"contributors(address)": "1f6d4942",
					"deadline()": "29dcb0cf",
					"manager()": "481c6a75",
					"minimum_contibution()": "2f159273",
					"no_of_contributors()": "e9050b51",
					"raisedAmount()": "c59ee1dc",
					"refund_if_traget_not_achive()": "ce9504d4",
					"sendEth()": "06e99fef",
					"target()": "d4b83992",
					"totalcontractbalance()": "544204a0"
				}
			},
			"storageLayout": {
				"storage": [
					{
						"astId": 5,
						"contract": "artifacts/Lalit/Crowfunding.sol:Crowfunding",
						"label": "contributors",
						"offset": 0,
						"slot": "0",
						"type": "t_mapping(t_address,t_uint256)"
					},
					{
						"astId": 7,
						"contract": "artifacts/Lalit/Crowfunding.sol:Crowfunding",
						"label": "manager",
						"offset": 0,
						"slot": "1",
						"type": "t_address"
					},
					{
						"astId": 9,
						"contract": "artifacts/Lalit/Crowfunding.sol:Crowfunding",
						"label": "minimum_contibution",
						"offset": 0,
						"slot": "2",
						"type": "t_uint256"
					},
					{
						"astId": 11,
						"contract": "artifacts/Lalit/Crowfunding.sol:Crowfunding",
						"label": "deadline",
						"offset": 0,
						"slot": "3",
						"type": "t_uint256"
					},
					{
						"astId": 13,
						"contract": "artifacts/Lalit/Crowfunding.sol:Crowfunding",
						"label": "target",
						"offset": 0,
						"slot": "4",
						"type": "t_uint256"
					},
					{
						"astId": 15,
						"contract": "artifacts/Lalit/Crowfunding.sol:Crowfunding",
						"label": "raisedAmount",
						"offset": 0,
						"slot": "5",
						"type": "t_uint256"
					},
					{
						"astId": 17,
						"contract": "artifacts/Lalit/Crowfunding.sol:Crowfunding",
						"label": "no_of_contributors",
						"offset": 0,
						"slot": "6",
						"type": "t_uint256"
					}
				],
				"types": {
					"t_address": {
						"encoding": "inplace",
						"label": "address",
						"numberOfBytes": "20"
					},
					"t_mapping(t_address,t_uint256)": {
						"encoding": "mapping",
						"key": "t_address",
						"label": "mapping(address => uint256)",
						"numberOfBytes": "32",
						"value": "t_uint256"
					},
					"t_uint256": {
						"encoding": "inplace",
						"label": "uint256",
						"numberOfBytes": "32"
					}
				}
			},
			"userdoc": {
				"kind": "user",
				"methods": {},
				"version": 1
			}
		}
	}
}