{
	"artifacts/Lalit/payable.sol": {
		"Payable": {
			"abi": [
				{
					"inputs": [],
					"name": "getEth",
					"outputs": [],
					"stateMutability": "payable",
					"type": "function"
				},
				{
					"inputs": [],
					"name": "getwbal",
					"outputs": [
						{
							"internalType": "uint256",
							"name": "",
							"type": "uint256"
						}
					],
					"stateMutability": "view",
					"type": "function"
				}
			],
			"devdoc": {
				"kind": "dev",
				"methods": {},
				"version": 1
			},
			"evm": {
				"assembly": "    /* \"artifacts/Lalit/payable.sol\":344:807  contract Payable{... */\n  mstore(0x40, 0x80)\n  callvalue\n  dup1\n  iszero\n  tag_1\n  jumpi\n  0x00\n  dup1\n  revert\ntag_1:\n  pop\n  dataSize(sub_0)\n  dup1\n  dataOffset(sub_0)\n  0x00\n  codecopy\n  0x00\n  return\nstop\n\nsub_0: assembly {\n        /* \"artifacts/Lalit/payable.sol\":344:807  contract Payable{... */\n      mstore(0x40, 0x80)\n      jumpi(tag_1, lt(calldatasize, 0x04))\n      shr(0xe0, calldataload(0x00))\n      dup1\n      0x23db5897\n      eq\n      tag_2\n      jumpi\n      dup1\n      0xcb05b93e\n      eq\n      tag_3\n      jumpi\n    tag_1:\n      0x00\n      dup1\n      revert\n        /* \"artifacts/Lalit/payable.sol\":487:566  function getwbal() public view returns( uint){... */\n    tag_2:\n      callvalue\n      dup1\n      iszero\n      tag_4\n      jumpi\n      0x00\n      dup1\n      revert\n    tag_4:\n      pop\n      tag_5\n      tag_6\n      jump\t// in\n    tag_5:\n      mload(0x40)\n      dup1\n      dup3\n      dup2\n      mstore\n      0x20\n      add\n      swap2\n      pop\n      pop\n      mload(0x40)\n      dup1\n      swap2\n      sub\n      swap1\n      return\n        /* \"artifacts/Lalit/payable.sol\":369:485  function getEth() public payable{       // is function ko view, pure nahi bna skte, kyoki ether add kar rhe hai.... */\n    tag_3:\n      tag_7\n      tag_8\n      jump\t// in\n    tag_7:\n      stop\n        /* \"artifacts/Lalit/payable.sol\":487:566  function getwbal() public view returns( uint){... */\n    tag_6:\n        /* \"artifacts/Lalit/payable.sol\":527:531  uint */\n      0x00\n        /* \"artifacts/Lalit/payable.sol\":541:562  address(this).balance */\n      selfbalance\n        /* \"artifacts/Lalit/payable.sol\":534:562  return address(this).balance */\n      swap1\n      pop\n        /* \"artifacts/Lalit/payable.sol\":487:566  function getwbal() public view returns( uint){... */\n      swap1\n      jump\t// out\n        /* \"artifacts/Lalit/payable.sol\":369:485  function getEth() public payable{       // is function ko view, pure nahi bna skte, kyoki ether add kar rhe hai.... */\n    tag_8:\n      jump\t// out\n\n    auxdata: 0xa26469706673582212201cdf3604b7dd42c94a8f13c05e202ea98ca9f95aa6679a594c58b6625705b6ba64736f6c63430007060033\n}\n",
				"bytecode": {
					"linkReferences": {},
					"object": "6080604052348015600f57600080fd5b50609b8061001e6000396000f3fe60806040526004361060265760003560e01c806323db589714602b578063cb05b93e146053575b600080fd5b348015603657600080fd5b50603d605b565b6040518082815260200191505060405180910390f35b60596063565b005b600047905090565b56fea26469706673582212201cdf3604b7dd42c94a8f13c05e202ea98ca9f95aa6679a594c58b6625705b6ba64736f6c63430007060033",
					"opcodes": "PUSH1 0x80 PUSH1 0x40 MSTORE CALLVALUE DUP1 ISZERO PUSH1 0xF JUMPI PUSH1 0x0 DUP1 REVERT JUMPDEST POP PUSH1 0x9B DUP1 PUSH2 0x1E PUSH1 0x0 CODECOPY PUSH1 0x0 RETURN INVALID PUSH1 0x80 PUSH1 0x40 MSTORE PUSH1 0x4 CALLDATASIZE LT PUSH1 0x26 JUMPI PUSH1 0x0 CALLDATALOAD PUSH1 0xE0 SHR DUP1 PUSH4 0x23DB5897 EQ PUSH1 0x2B JUMPI DUP1 PUSH4 0xCB05B93E EQ PUSH1 0x53 JUMPI JUMPDEST PUSH1 0x0 DUP1 REVERT JUMPDEST CALLVALUE DUP1 ISZERO PUSH1 0x36 JUMPI PUSH1 0x0 DUP1 REVERT JUMPDEST POP PUSH1 0x3D PUSH1 0x5B JUMP JUMPDEST PUSH1 0x40 MLOAD DUP1 DUP3 DUP2 MSTORE PUSH1 0x20 ADD SWAP2 POP POP PUSH1 0x40 MLOAD DUP1 SWAP2 SUB SWAP1 RETURN JUMPDEST PUSH1 0x59 PUSH1 0x63 JUMP JUMPDEST STOP JUMPDEST PUSH1 0x0 SELFBALANCE SWAP1 POP SWAP1 JUMP JUMPDEST JUMP INVALID LOG2 PUSH5 0x6970667358 0x22 SLT KECCAK256 SHR 0xDF CALLDATASIZE DIV 0xB7 0xDD TIMESTAMP 0xC9 0x4A DUP16 SGT 0xC0 0x5E KECCAK256 0x2E 0xA9 DUP13 0xA9 0xF9 GAS 0xA6 PUSH8 0x9A594C58B6625705 0xB6 0xBA PUSH5 0x736F6C6343 STOP SMOD MOD STOP CALLER "
				},
				"gasEstimates": {
					"creation": {
						"codeDepositCost": "31000",
						"executionCost": "81",
						"totalCost": "31081"
					},
					"external": {
						"getEth()": "120",
						"getwbal()": "193"
					}
				},
				"methodIdentifiers": {
					"getEth()": "cb05b93e",
					"getwbal()": "23db5897"
				}
			},
			"storageLayout": {
				"storage": [],
				"types": null
			},
			"userdoc": {
				"kind": "user",
				"methods": {},
				"version": 1
			}
		}
	}
}