{
	"artifacts/Lalit/payable.sol": {
		"Payable": {
			"abi": [
				{
					"inputs": [],
					"stateMutability": "payable",
					"type": "constructor"
				},
				{
					"inputs": [],
					"name": "getEth",
					"outputs": [],
					"stateMutability": "payable",
					"type": "function"
				},
				{
					"inputs": [],
					"name": "getadd",
					"outputs": [
						{
							"internalType": "address",
							"name": "",
							"type": "address"
						}
					],
					"stateMutability": "view",
					"type": "function"
				},
				{
					"inputs": [],
					"name": "getadd1",
					"outputs": [
						{
							"internalType": "address",
							"name": "",
							"type": "address"
						}
					],
					"stateMutability": "view",
					"type": "function"
				},
				{
					"inputs": [],
					"name": "getwbal",
					"outputs": [
						{
							"internalType": "uint256",
							"name": "",
							"type": "uint256"
						}
					],
					"stateMutability": "view",
					"type": "function"
				},
				{
					"inputs": [],
					"name": "getwbal2",
					"outputs": [
						{
							"internalType": "uint256",
							"name": "",
							"type": "uint256"
						}
					],
					"stateMutability": "view",
					"type": "function"
				},
				{
					"inputs": [],
					"name": "owner",
					"outputs": [
						{
							"internalType": "address payable",
							"name": "",
							"type": "address"
						}
					],
					"stateMutability": "view",
					"type": "function"
				}
			],
			"devdoc": {
				"kind": "dev",
				"methods": {},
				"version": 1
			},
			"evm": {
				"assembly": "    /* \"artifacts/Lalit/payable.sol\":344:988  contract Payable{... */\n  mstore(0x40, 0x80)\n    /* \"artifacts/Lalit/payable.sol\":509:519  msg.sender */\n  caller\n    /* \"artifacts/Lalit/payable.sol\":470:520  address payable public owner= payable (msg.sender) */\n  0x00\n  dup1\n  0x0100\n  exp\n  dup2\n  sload\n  dup2\n  0xffffffffffffffffffffffffffffffffffffffff\n  mul\n  not\n  and\n  swap1\n  dup4\n  0xffffffffffffffffffffffffffffffffffffffff\n  and\n  mul\n  or\n  swap1\n  sstore\n  pop\n    /* \"artifacts/Lalit/payable.sol\":344:988  contract Payable{... */\n  dataSize(sub_0)\n  dup1\n  dataOffset(sub_0)\n  0x00\n  codecopy\n  0x00\n  return\nstop\n\nsub_0: assembly {\n        /* \"artifacts/Lalit/payable.sol\":344:988  contract Payable{... */\n      mstore(0x40, 0x80)\n      jumpi(tag_1, lt(calldatasize, 0x04))\n      shr(0xe0, calldataload(0x00))\n      dup1\n      0x23db5897\n      eq\n      tag_2\n      jumpi\n      dup1\n      0x8da5cb5b\n      eq\n      tag_3\n      jumpi\n      dup1\n      0x8fa19350\n      eq\n      tag_4\n      jumpi\n      dup1\n      0xa74915cf\n      eq\n      tag_5\n      jumpi\n      dup1\n      0xacfb3b91\n      eq\n      tag_6\n      jumpi\n      dup1\n      0xcb05b93e\n      eq\n      tag_7\n      jumpi\n    tag_1:\n      0x00\n      dup1\n      revert\n        /* \"artifacts/Lalit/payable.sol\":674:753  function getwbal() public view returns( uint){... */\n    tag_2:\n      callvalue\n      dup1\n      iszero\n      tag_8\n      jumpi\n      0x00\n      dup1\n      revert\n    tag_8:\n      pop\n      tag_9\n      tag_10\n      jump\t// in\n    tag_9:\n      mload(0x40)\n      dup1\n      dup3\n      dup2\n      mstore\n      0x20\n      add\n      swap2\n      pop\n      pop\n      mload(0x40)\n      dup1\n      swap2\n      sub\n      swap1\n      return\n        /* \"artifacts/Lalit/payable.sol\":470:520  address payable public owner= payable (msg.sender) */\n    tag_3:\n      callvalue\n      dup1\n      iszero\n      tag_11\n      jumpi\n      0x00\n      dup1\n      revert\n    tag_11:\n      pop\n      tag_12\n      tag_13\n      jump\t// in\n    tag_12:\n      mload(0x40)\n      dup1\n      dup3\n      0xffffffffffffffffffffffffffffffffffffffff\n      and\n      dup2\n      mstore\n      0x20\n      add\n      swap2\n      pop\n      pop\n      mload(0x40)\n      dup1\n      swap2\n      sub\n      swap1\n      return\n        /* \"artifacts/Lalit/payable.sol\":827:905  function getadd1() public view returns(address ){... */\n    tag_4:\n      callvalue\n      dup1\n      iszero\n      tag_14\n      jumpi\n      0x00\n      dup1\n      revert\n    tag_14:\n      pop\n      tag_15\n      tag_16\n      jump\t// in\n    tag_15:\n      mload(0x40)\n      dup1\n      dup3\n      0xffffffffffffffffffffffffffffffffffffffff\n      and\n      dup2\n      mstore\n      0x20\n      add\n      swap2\n      pop\n      pop\n      mload(0x40)\n      dup1\n      swap2\n      sub\n      swap1\n      return\n        /* \"artifacts/Lalit/payable.sol\":754:826  function getadd() public view returns(address ){... */\n    tag_5:\n      callvalue\n      dup1\n      iszero\n      tag_17\n      jumpi\n      0x00\n      dup1\n      revert\n    tag_17:\n      pop\n      tag_18\n      tag_19\n      jump\t// in\n    tag_18:\n      mload(0x40)\n      dup1\n      dup3\n      0xffffffffffffffffffffffffffffffffffffffff\n      and\n      dup2\n      mstore\n      0x20\n      add\n      swap2\n      pop\n      pop\n      mload(0x40)\n      dup1\n      swap2\n      sub\n      swap1\n      return\n        /* \"artifacts/Lalit/payable.sol\":907:986  function getwbal2() public view returns( uint){... */\n    tag_6:\n      callvalue\n      dup1\n      iszero\n      tag_20\n      jumpi\n      0x00\n      dup1\n      revert\n    tag_20:\n      pop\n      tag_21\n      tag_22\n      jump\t// in\n    tag_21:\n      mload(0x40)\n      dup1\n      dup3\n      dup2\n      mstore\n      0x20\n      add\n      swap2\n      pop\n      pop\n      mload(0x40)\n      dup1\n      swap2\n      sub\n      swap1\n      return\n        /* \"artifacts/Lalit/payable.sol\":523:639  function getEth() public payable{       // is function ko view, pure nahi bna skte, kyoki ether add kar rhe hai.... */\n    tag_7:\n      tag_23\n      tag_24\n      jump\t// in\n    tag_23:\n      stop\n        /* \"artifacts/Lalit/payable.sol\":674:753  function getwbal() public view returns( uint){... */\n    tag_10:\n        /* \"artifacts/Lalit/payable.sol\":714:718  uint */\n      0x00\n        /* \"artifacts/Lalit/payable.sol\":728:749  address(this).balance */\n      selfbalance\n        /* \"artifacts/Lalit/payable.sol\":721:749  return address(this).balance */\n      swap1\n      pop\n        /* \"artifacts/Lalit/payable.sol\":674:753  function getwbal() public view returns( uint){... */\n      swap1\n      jump\t// out\n        /* \"artifacts/Lalit/payable.sol\":470:520  address payable public owner= payable (msg.sender) */\n    tag_13:\n      0x00\n      dup1\n      sload\n      swap1\n      0x0100\n      exp\n      swap1\n      div\n      0xffffffffffffffffffffffffffffffffffffffff\n      and\n      dup2\n      jump\t// out\n        /* \"artifacts/Lalit/payable.sol\":827:905  function getadd1() public view returns(address ){... */\n    tag_16:\n        /* \"artifacts/Lalit/payable.sol\":866:873  address */\n      0x00\n        /* \"artifacts/Lalit/payable.sol\":896:900  this */\n      address\n        /* \"artifacts/Lalit/payable.sol\":881:901  return address(this) */\n      swap1\n      pop\n        /* \"artifacts/Lalit/payable.sol\":827:905  function getadd1() public view returns(address ){... */\n      swap1\n      jump\t// out\n        /* \"artifacts/Lalit/payable.sol\":754:826  function getadd() public view returns(address ){... */\n    tag_19:\n        /* \"artifacts/Lalit/payable.sol\":792:799  address */\n      0x00\n        /* \"artifacts/Lalit/payable.sol\":812:822  msg.sender */\n      caller\n        /* \"artifacts/Lalit/payable.sol\":805:822  return msg.sender */\n      swap1\n      pop\n        /* \"artifacts/Lalit/payable.sol\":754:826  function getadd() public view returns(address ){... */\n      swap1\n      jump\t// out\n        /* \"artifacts/Lalit/payable.sol\":907:986  function getwbal2() public view returns( uint){... */\n    tag_22:\n        /* \"artifacts/Lalit/payable.sol\":948:952  uint */\n      0x00\n        /* \"artifacts/Lalit/payable.sol\":963:973  msg.sender */\n      caller\n        /* \"artifacts/Lalit/payable.sol\":962:982  (msg.sender).balance */\n      0xffffffffffffffffffffffffffffffffffffffff\n      and\n      balance\n        /* \"artifacts/Lalit/payable.sol\":955:982  return (msg.sender).balance */\n      swap1\n      pop\n        /* \"artifacts/Lalit/payable.sol\":907:986  function getwbal2() public view returns( uint){... */\n      swap1\n      jump\t// out\n        /* \"artifacts/Lalit/payable.sol\":523:639  function getEth() public payable{       // is function ko view, pure nahi bna skte, kyoki ether add kar rhe hai.... */\n    tag_24:\n      jump\t// out\n\n    auxdata: 0xa264697066735822122090336494c77cc9f0a200225e024343f6c47ed937f39bbe57a3b0fe19c604976564736f6c63430007060033\n}\n",
				"bytecode": {
					"linkReferences": {},
					"object": "6080604052336000806101000a81548173ffffffffffffffffffffffffffffffffffffffff021916908373ffffffffffffffffffffffffffffffffffffffff160217905550610210806100536000396000f3fe6080604052600436106100555760003560e01c806323db58971461005a5780638da5cb5b146100855780638fa19350146100c6578063a74915cf14610107578063acfb3b9114610148578063cb05b93e14610173575b600080fd5b34801561006657600080fd5b5061006f61017d565b6040518082815260200191505060405180910390f35b34801561009157600080fd5b5061009a610185565b604051808273ffffffffffffffffffffffffffffffffffffffff16815260200191505060405180910390f35b3480156100d257600080fd5b506100db6101a9565b604051808273ffffffffffffffffffffffffffffffffffffffff16815260200191505060405180910390f35b34801561011357600080fd5b5061011c6101b1565b604051808273ffffffffffffffffffffffffffffffffffffffff16815260200191505060405180910390f35b34801561015457600080fd5b5061015d6101b9565b6040518082815260200191505060405180910390f35b61017b6101d8565b005b600047905090565b60008054906101000a900473ffffffffffffffffffffffffffffffffffffffff1681565b600030905090565b600033905090565b60003373ffffffffffffffffffffffffffffffffffffffff1631905090565b56fea264697066735822122090336494c77cc9f0a200225e024343f6c47ed937f39bbe57a3b0fe19c604976564736f6c63430007060033",
					"opcodes": "PUSH1 0x80 PUSH1 0x40 MSTORE CALLER PUSH1 0x0 DUP1 PUSH2 0x100 EXP DUP2 SLOAD DUP2 PUSH20 0xFFFFFFFFFFFFFFFFFFFFFFFFFFFFFFFFFFFFFFFF MUL NOT AND SWAP1 DUP4 PUSH20 0xFFFFFFFFFFFFFFFFFFFFFFFFFFFFFFFFFFFFFFFF AND MUL OR SWAP1 SSTORE POP PUSH2 0x210 DUP1 PUSH2 0x53 PUSH1 0x0 CODECOPY PUSH1 0x0 RETURN INVALID PUSH1 0x80 PUSH1 0x40 MSTORE PUSH1 0x4 CALLDATASIZE LT PUSH2 0x55 JUMPI PUSH1 0x0 CALLDATALOAD PUSH1 0xE0 SHR DUP1 PUSH4 0x23DB5897 EQ PUSH2 0x5A JUMPI DUP1 PUSH4 0x8DA5CB5B EQ PUSH2 0x85 JUMPI DUP1 PUSH4 0x8FA19350 EQ PUSH2 0xC6 JUMPI DUP1 PUSH4 0xA74915CF EQ PUSH2 0x107 JUMPI DUP1 PUSH4 0xACFB3B91 EQ PUSH2 0x148 JUMPI DUP1 PUSH4 0xCB05B93E EQ PUSH2 0x173 JUMPI JUMPDEST PUSH1 0x0 DUP1 REVERT JUMPDEST CALLVALUE DUP1 ISZERO PUSH2 0x66 JUMPI PUSH1 0x0 DUP1 REVERT JUMPDEST POP PUSH2 0x6F PUSH2 0x17D JUMP JUMPDEST PUSH1 0x40 MLOAD DUP1 DUP3 DUP2 MSTORE PUSH1 0x20 ADD SWAP2 POP POP PUSH1 0x40 MLOAD DUP1 SWAP2 SUB SWAP1 RETURN JUMPDEST CALLVALUE DUP1 ISZERO PUSH2 0x91 JUMPI PUSH1 0x0 DUP1 REVERT JUMPDEST POP PUSH2 0x9A PUSH2 0x185 JUMP JUMPDEST PUSH1 0x40 MLOAD DUP1 DUP3 PUSH20 0xFFFFFFFFFFFFFFFFFFFFFFFFFFFFFFFFFFFFFFFF AND DUP2 MSTORE PUSH1 0x20 ADD SWAP2 POP POP PUSH1 0x40 MLOAD DUP1 SWAP2 SUB SWAP1 RETURN JUMPDEST CALLVALUE DUP1 ISZERO PUSH2 0xD2 JUMPI PUSH1 0x0 DUP1 REVERT JUMPDEST POP PUSH2 0xDB PUSH2 0x1A9 JUMP JUMPDEST PUSH1 0x40 MLOAD DUP1 DUP3 PUSH20 0xFFFFFFFFFFFFFFFFFFFFFFFFFFFFFFFFFFFFFFFF AND DUP2 MSTORE PUSH1 0x20 ADD SWAP2 POP POP PUSH1 0x40 MLOAD DUP1 SWAP2 SUB SWAP1 RETURN JUMPDEST CALLVALUE DUP1 ISZERO PUSH2 0x113 JUMPI PUSH1 0x0 DUP1 REVERT JUMPDEST POP PUSH2 0x11C PUSH2 0x1B1 JUMP JUMPDEST PUSH1 0x40 MLOAD DUP1 DUP3 PUSH20 0xFFFFFFFFFFFFFFFFFFFFFFFFFFFFFFFFFFFFFFFF AND DUP2 MSTORE PUSH1 0x20 ADD SWAP2 POP POP PUSH1 0x40 MLOAD DUP1 SWAP2 SUB SWAP1 RETURN JUMPDEST CALLVALUE DUP1 ISZERO PUSH2 0x154 JUMPI PUSH1 0x0 DUP1 REVERT JUMPDEST POP PUSH2 0x15D PUSH2 0x1B9 JUMP JUMPDEST PUSH1 0x40 MLOAD DUP1 DUP3 DUP2 MSTORE PUSH1 0x20 ADD SWAP2 POP POP PUSH1 0x40 MLOAD DUP1 SWAP2 SUB SWAP1 RETURN JUMPDEST PUSH2 0x17B PUSH2 0x1D8 JUMP JUMPDEST STOP JUMPDEST PUSH1 0x0 SELFBALANCE SWAP1 POP SWAP1 JUMP JUMPDEST PUSH1 0x0 DUP1 SLOAD SWAP1 PUSH2 0x100 EXP SWAP1 DIV PUSH20 0xFFFFFFFFFFFFFFFFFFFFFFFFFFFFFFFFFFFFFFFF AND DUP2 JUMP JUMPDEST PUSH1 0x0 ADDRESS SWAP1 POP SWAP1 JUMP JUMPDEST PUSH1 0x0 CALLER SWAP1 POP SWAP1 JUMP JUMPDEST PUSH1 0x0 CALLER PUSH20 0xFFFFFFFFFFFFFFFFFFFFFFFFFFFFFFFFFFFFFFFF AND BALANCE SWAP1 POP SWAP1 JUMP JUMPDEST JUMP INVALID LOG2 PUSH5 0x6970667358 0x22 SLT KECCAK256 SWAP1 CALLER PUSH5 0x94C77CC9F0 LOG2 STOP 0x22 0x5E MUL NUMBER NUMBER 0xF6 0xC4 PUSH31 0xD937F39BBE57A3B0FE19C604976564736F6C63430007060033000000000000 "
				},
				"gasEstimates": {
					"creation": {
						"codeDepositCost": "105600",
						"executionCost": "20995",
						"totalCost": "126595"
					},
					"external": {
						"getEth()": "208",
						"getadd()": "262",
						"getadd1()": "240",
						"getwbal()": "193",
						"getwbal2()": "984",
						"owner()": "1044"
					}
				},
				"methodIdentifiers": {
					"getEth()": "cb05b93e",
					"getadd()": "a74915cf",
					"getadd1()": "8fa19350",
					"getwbal()": "23db5897",
					"getwbal2()": "acfb3b91",
					"owner()": "8da5cb5b"
				}
			},
			"storageLayout": {
				"storage": [
					{
						"astId": 8,
						"contract": "artifacts/Lalit/payable.sol:Payable",
						"label": "owner",
						"offset": 0,
						"slot": "0",
						"type": "t_address_payable"
					}
				],
				"types": {
					"t_address_payable": {
						"encoding": "inplace",
						"label": "address payable",
						"numberOfBytes": "20"
					}
				}
			},
			"userdoc": {
				"kind": "user",
				"methods": {},
				"version": 1
			}
		}
	}
}