{
	"artifacts/Lalit/Array.sol": {
		"fixedsizearray": {
			"abi": [
				{
					"inputs": [
						{
							"internalType": "uint256",
							"name": "",
							"type": "uint256"
						}
					],
					"name": "arr1",
					"outputs": [
						{
							"internalType": "uint256",
							"name": "",
							"type": "uint256"
						}
					],
					"stateMutability": "view",
					"type": "function"
				},
				{
					"inputs": [],
					"name": "array",
					"outputs": [
						{
							"internalType": "uint256",
							"name": "",
							"type": "uint256"
						}
					],
					"stateMutability": "nonpayable",
					"type": "function"
				}
			],
			"devdoc": {
				"kind": "dev",
				"methods": {},
				"version": 1
			},
			"evm": {
				"assembly": "    /* \"artifacts/Lalit/Array.sol\":71:260  contract fixedsizearray{... */\n  mstore(0x40, 0x80)\n    /* \"artifacts/Lalit/Array.sol\":121:157  uint[5] public arr1=[10,20,30,40,50] */\n  mload(0x40)\n  dup1\n  0xa0\n  add\n  0x40\n  mstore\n  dup1\n    /* \"artifacts/Lalit/Array.sol\":142:144  10 */\n  0x0a\n    /* \"artifacts/Lalit/Array.sol\":121:157  uint[5] public arr1=[10,20,30,40,50] */\n  0xff\n  and\n  dup2\n  mstore\n  0x20\n  add\n    /* \"artifacts/Lalit/Array.sol\":145:147  20 */\n  0x14\n    /* \"artifacts/Lalit/Array.sol\":121:157  uint[5] public arr1=[10,20,30,40,50] */\n  0xff\n  and\n  dup2\n  mstore\n  0x20\n  add\n    /* \"artifacts/Lalit/Array.sol\":148:150  30 */\n  0x1e\n    /* \"artifacts/Lalit/Array.sol\":121:157  uint[5] public arr1=[10,20,30,40,50] */\n  0xff\n  and\n  dup2\n  mstore\n  0x20\n  add\n    /* \"artifacts/Lalit/Array.sol\":151:153  40 */\n  0x28\n    /* \"artifacts/Lalit/Array.sol\":121:157  uint[5] public arr1=[10,20,30,40,50] */\n  0xff\n  and\n  dup2\n  mstore\n  0x20\n  add\n    /* \"artifacts/Lalit/Array.sol\":154:156  50 */\n  0x32\n    /* \"artifacts/Lalit/Array.sol\":121:157  uint[5] public arr1=[10,20,30,40,50] */\n  0xff\n  and\n  dup2\n  mstore\n  pop\n  0x00\n  swap1\n  0x05\n  tag_1\n  swap3\n  swap2\n  swap1\n  tag_2\n  jump\t// in\ntag_1:\n  pop\n    /* \"artifacts/Lalit/Array.sol\":71:260  contract fixedsizearray{... */\n  callvalue\n  dup1\n  iszero\n  tag_3\n  jumpi\n  0x00\n  dup1\n  revert\ntag_3:\n  pop\n  jump(tag_4)\ntag_2:\n  dup3\n  0x05\n  dup2\n  add\n  swap3\n  dup3\n  iszero\n  tag_5\n  jumpi\n  swap2\n  0x20\n  mul\n  dup3\n  add\ntag_6:\n  dup3\n  dup2\n  gt\n  iszero\n  tag_7\n  jumpi\n  dup3\n  mload\n  dup3\n  swap1\n  0xff\n  and\n  swap1\n  sstore\n  swap2\n  0x20\n  add\n  swap2\n  swap1\n  0x01\n  add\n  swap1\n  jump(tag_6)\ntag_7:\ntag_5:\n  pop\n  swap1\n  pop\n  tag_8\n  swap2\n  swap1\n  tag_9\n  jump\t// in\ntag_8:\n  pop\n  swap1\n  jump\t// out\ntag_9:\ntag_10:\n  dup1\n  dup3\n  gt\n  iszero\n  tag_11\n  jumpi\n  0x00\n  dup2\n  0x00\n  swap1\n  sstore\n  pop\n  0x01\n  add\n  jump(tag_10)\ntag_11:\n  pop\n  swap1\n  jump\t// out\ntag_4:\n  dataSize(sub_0)\n  dup1\n  dataOffset(sub_0)\n  0x00\n  codecopy\n  0x00\n  return\nstop\n\nsub_0: assembly {\n        /* \"artifacts/Lalit/Array.sol\":71:260  contract fixedsizearray{... */\n      mstore(0x40, 0x80)\n      callvalue\n      dup1\n      iszero\n      tag_1\n      jumpi\n      0x00\n      dup1\n      revert\n    tag_1:\n      pop\n      jumpi(tag_2, lt(calldatasize, 0x04))\n      shr(0xe0, calldataload(0x00))\n      dup1\n      0x6987b1fb\n      eq\n      tag_3\n      jumpi\n      dup1\n      0xb0ec2ae1\n      eq\n      tag_4\n      jumpi\n    tag_2:\n      0x00\n      dup1\n      revert\n        /* \"artifacts/Lalit/Array.sol\":121:157  uint[5] public arr1=[10,20,30,40,50] */\n    tag_3:\n      tag_5\n      0x04\n      dup1\n      calldatasize\n      sub\n      0x20\n      dup2\n      lt\n      iszero\n      tag_6\n      jumpi\n      0x00\n      dup1\n      revert\n    tag_6:\n      dup2\n      add\n      swap1\n      dup1\n      dup1\n      calldataload\n      swap1\n      0x20\n      add\n      swap1\n      swap3\n      swap2\n      swap1\n      pop\n      pop\n      pop\n      tag_7\n      jump\t// in\n    tag_5:\n      mload(0x40)\n      dup1\n      dup3\n      dup2\n      mstore\n      0x20\n      add\n      swap2\n      pop\n      pop\n      mload(0x40)\n      dup1\n      swap2\n      sub\n      swap1\n      return\n        /* \"artifacts/Lalit/Array.sol\":212:257  function array() public returns( uint){... */\n    tag_4:\n      tag_8\n      tag_9\n      jump\t// in\n    tag_8:\n      mload(0x40)\n      dup1\n      dup3\n      dup2\n      mstore\n      0x20\n      add\n      swap2\n      pop\n      pop\n      mload(0x40)\n      dup1\n      swap2\n      sub\n      swap1\n      return\n        /* \"artifacts/Lalit/Array.sol\":121:157  uint[5] public arr1=[10,20,30,40,50] */\n    tag_7:\n      0x00\n      dup2\n      0x05\n      dup2\n      lt\n      tag_10\n      jumpi\n      0x00\n      dup1\n      revert\n    tag_10:\n      add\n      0x00\n      swap2\n      pop\n      swap1\n      pop\n      sload\n      dup2\n      jump\t// out\n        /* \"artifacts/Lalit/Array.sol\":212:257  function array() public returns( uint){... */\n    tag_9:\n        /* \"artifacts/Lalit/Array.sol\":245:249  uint */\n      0x00\n        /* \"artifacts/Lalit/Array.sol\":212:257  function array() public returns( uint){... */\n      swap1\n      jump\t// out\n\n    auxdata: 0xa26469706673582212209836344ba8bb83b92924d1e59c7ab0f8e3e496c2551d8948973c46e69f5b70dc64736f6c63430007060033\n}\n",
				"bytecode": {
					"linkReferences": {},
					"object": "60806040526040518060a00160405280600a60ff168152602001601460ff168152602001601e60ff168152602001602860ff168152602001603260ff16815250600090600561004f929190610062565b5034801561005c57600080fd5b506100c4565b8260058101928215610096579160200282015b82811115610095578251829060ff16905591602001919060010190610075565b5b5090506100a391906100a7565b5090565b5b808211156100c05760008160009055506001016100a8565b5090565b60e7806100d26000396000f3fe6080604052348015600f57600080fd5b506004361060325760003560e01c80636987b1fb146037578063b0ec2ae1146076575b600080fd5b606060048036036020811015604b57600080fd5b81019080803590602001909291905050506092565b6040518082815260200191505060405180910390f35b607c60ac565b6040518082815260200191505060405180910390f35b6000816005811060a157600080fd5b016000915090505481565b60009056fea26469706673582212209836344ba8bb83b92924d1e59c7ab0f8e3e496c2551d8948973c46e69f5b70dc64736f6c63430007060033",
					"opcodes": "PUSH1 0x80 PUSH1 0x40 MSTORE PUSH1 0x40 MLOAD DUP1 PUSH1 0xA0 ADD PUSH1 0x40 MSTORE DUP1 PUSH1 0xA PUSH1 0xFF AND DUP2 MSTORE PUSH1 0x20 ADD PUSH1 0x14 PUSH1 0xFF AND DUP2 MSTORE PUSH1 0x20 ADD PUSH1 0x1E PUSH1 0xFF AND DUP2 MSTORE PUSH1 0x20 ADD PUSH1 0x28 PUSH1 0xFF AND DUP2 MSTORE PUSH1 0x20 ADD PUSH1 0x32 PUSH1 0xFF AND DUP2 MSTORE POP PUSH1 0x0 SWAP1 PUSH1 0x5 PUSH2 0x4F SWAP3 SWAP2 SWAP1 PUSH2 0x62 JUMP JUMPDEST POP CALLVALUE DUP1 ISZERO PUSH2 0x5C JUMPI PUSH1 0x0 DUP1 REVERT JUMPDEST POP PUSH2 0xC4 JUMP JUMPDEST DUP3 PUSH1 0x5 DUP2 ADD SWAP3 DUP3 ISZERO PUSH2 0x96 JUMPI SWAP2 PUSH1 0x20 MUL DUP3 ADD JUMPDEST DUP3 DUP2 GT ISZERO PUSH2 0x95 JUMPI DUP3 MLOAD DUP3 SWAP1 PUSH1 0xFF AND SWAP1 SSTORE SWAP2 PUSH1 0x20 ADD SWAP2 SWAP1 PUSH1 0x1 ADD SWAP1 PUSH2 0x75 JUMP JUMPDEST JUMPDEST POP SWAP1 POP PUSH2 0xA3 SWAP2 SWAP1 PUSH2 0xA7 JUMP JUMPDEST POP SWAP1 JUMP JUMPDEST JUMPDEST DUP1 DUP3 GT ISZERO PUSH2 0xC0 JUMPI PUSH1 0x0 DUP2 PUSH1 0x0 SWAP1 SSTORE POP PUSH1 0x1 ADD PUSH2 0xA8 JUMP JUMPDEST POP SWAP1 JUMP JUMPDEST PUSH1 0xE7 DUP1 PUSH2 0xD2 PUSH1 0x0 CODECOPY PUSH1 0x0 RETURN INVALID PUSH1 0x80 PUSH1 0x40 MSTORE CALLVALUE DUP1 ISZERO PUSH1 0xF JUMPI PUSH1 0x0 DUP1 REVERT JUMPDEST POP PUSH1 0x4 CALLDATASIZE LT PUSH1 0x32 JUMPI PUSH1 0x0 CALLDATALOAD PUSH1 0xE0 SHR DUP1 PUSH4 0x6987B1FB EQ PUSH1 0x37 JUMPI DUP1 PUSH4 0xB0EC2AE1 EQ PUSH1 0x76 JUMPI JUMPDEST PUSH1 0x0 DUP1 REVERT JUMPDEST PUSH1 0x60 PUSH1 0x4 DUP1 CALLDATASIZE SUB PUSH1 0x20 DUP2 LT ISZERO PUSH1 0x4B JUMPI PUSH1 0x0 DUP1 REVERT JUMPDEST DUP2 ADD SWAP1 DUP1 DUP1 CALLDATALOAD SWAP1 PUSH1 0x20 ADD SWAP1 SWAP3 SWAP2 SWAP1 POP POP POP PUSH1 0x92 JUMP JUMPDEST PUSH1 0x40 MLOAD DUP1 DUP3 DUP2 MSTORE PUSH1 0x20 ADD SWAP2 POP POP PUSH1 0x40 MLOAD DUP1 SWAP2 SUB SWAP1 RETURN JUMPDEST PUSH1 0x7C PUSH1 0xAC JUMP JUMPDEST PUSH1 0x40 MLOAD DUP1 DUP3 DUP2 MSTORE PUSH1 0x20 ADD SWAP2 POP POP PUSH1 0x40 MLOAD DUP1 SWAP2 SUB SWAP1 RETURN JUMPDEST PUSH1 0x0 DUP2 PUSH1 0x5 DUP2 LT PUSH1 0xA1 JUMPI PUSH1 0x0 DUP1 REVERT JUMPDEST ADD PUSH1 0x0 SWAP2 POP SWAP1 POP SLOAD DUP2 JUMP JUMPDEST PUSH1 0x0 SWAP1 JUMP INVALID LOG2 PUSH5 0x6970667358 0x22 SLT KECCAK256 SWAP9 CALLDATASIZE CALLVALUE 0x4B 0xA8 0xBB DUP4 0xB9 0x29 0x24 0xD1 0xE5 SWAP13 PUSH27 0xB0F8E3E496C2551D8948973C46E69F5B70DC64736F6C6343000706 STOP CALLER "
				},
				"gasEstimates": {
					"creation": {
						"codeDepositCost": "46200",
						"executionCost": "infinite",
						"totalCost": "infinite"
					},
					"external": {
						"arr1(uint256)": "1107",
						"array()": "205"
					}
				},
				"methodIdentifiers": {
					"arr1(uint256)": "6987b1fb",
					"array()": "b0ec2ae1"
				}
			},
			"storageLayout": {
				"storage": [
					{
						"astId": 11,
						"contract": "artifacts/Lalit/Array.sol:fixedsizearray",
						"label": "arr1",
						"offset": 0,
						"slot": "0",
						"type": "t_array(t_uint256)5_storage"
					}
				],
				"types": {
					"t_array(t_uint256)5_storage": {
						"base": "t_uint256",
						"encoding": "inplace",
						"label": "uint256[5]",
						"numberOfBytes": "160"
					},
					"t_uint256": {
						"encoding": "inplace",
						"label": "uint256",
						"numberOfBytes": "32"
					}
				}
			},
			"userdoc": {
				"kind": "user",
				"methods": {},
				"version": 1
			}
		}
	}
}