{
	"artifacts/Lalit/payable.sol": {
		"Payable": {
			"abi": [
				{
					"inputs": [],
					"name": "getEth",
					"outputs": [],
					"stateMutability": "payable",
					"type": "function"
				},
				{
					"inputs": [],
					"name": "getadd",
					"outputs": [
						{
							"internalType": "address",
							"name": "",
							"type": "address"
						}
					],
					"stateMutability": "view",
					"type": "function"
				},
				{
					"inputs": [],
					"name": "getadd1",
					"outputs": [
						{
							"internalType": "address",
							"name": "",
							"type": "address"
						}
					],
					"stateMutability": "view",
					"type": "function"
				},
				{
					"inputs": [],
					"name": "getwbal",
					"outputs": [
						{
							"internalType": "uint256",
							"name": "",
							"type": "uint256"
						}
					],
					"stateMutability": "view",
					"type": "function"
				},
				{
					"inputs": [],
					"name": "getwbal2",
					"outputs": [
						{
							"internalType": "uint256",
							"name": "",
							"type": "uint256"
						}
					],
					"stateMutability": "view",
					"type": "function"
				}
			],
			"devdoc": {
				"kind": "dev",
				"methods": {},
				"version": 1
			},
			"evm": {
				"assembly": "    /* \"artifacts/Lalit/payable.sol\":344:797  contract Payable{... */\n  mstore(0x40, 0x80)\n  callvalue\n  dup1\n  iszero\n  tag_1\n  jumpi\n  0x00\n  dup1\n  revert\ntag_1:\n  pop\n  dataSize(sub_0)\n  dup1\n  dataOffset(sub_0)\n  0x00\n  codecopy\n  0x00\n  return\nstop\n\nsub_0: assembly {\n        /* \"artifacts/Lalit/payable.sol\":344:797  contract Payable{... */\n      mstore(0x40, 0x80)\n      jumpi(tag_1, lt(calldatasize, 0x04))\n      shr(0xe0, calldataload(0x00))\n      dup1\n      0x23db5897\n      eq\n      tag_2\n      jumpi\n      dup1\n      0x8fa19350\n      eq\n      tag_3\n      jumpi\n      dup1\n      0xa74915cf\n      eq\n      tag_4\n      jumpi\n      dup1\n      0xacfb3b91\n      eq\n      tag_5\n      jumpi\n      dup1\n      0xcb05b93e\n      eq\n      tag_6\n      jumpi\n    tag_1:\n      0x00\n      dup1\n      revert\n        /* \"artifacts/Lalit/payable.sol\":481:560  function getwbal() public view returns( uint){... */\n    tag_2:\n      callvalue\n      dup1\n      iszero\n      tag_7\n      jumpi\n      0x00\n      dup1\n      revert\n    tag_7:\n      pop\n      tag_8\n      tag_9\n      jump\t// in\n    tag_8:\n      mload(0x40)\n      dup1\n      dup3\n      dup2\n      mstore\n      0x20\n      add\n      swap2\n      pop\n      pop\n      mload(0x40)\n      dup1\n      swap2\n      sub\n      swap1\n      return\n        /* \"artifacts/Lalit/payable.sol\":636:714  function getadd1() public view returns(address ){... */\n    tag_3:\n      callvalue\n      dup1\n      iszero\n      tag_10\n      jumpi\n      0x00\n      dup1\n      revert\n    tag_10:\n      pop\n      tag_11\n      tag_12\n      jump\t// in\n    tag_11:\n      mload(0x40)\n      dup1\n      dup3\n      0xffffffffffffffffffffffffffffffffffffffff\n      and\n      dup2\n      mstore\n      0x20\n      add\n      swap2\n      pop\n      pop\n      mload(0x40)\n      dup1\n      swap2\n      sub\n      swap1\n      return\n        /* \"artifacts/Lalit/payable.sol\":561:635  function getadd() public view returns(address ){... */\n    tag_4:\n      callvalue\n      dup1\n      iszero\n      tag_13\n      jumpi\n      0x00\n      dup1\n      revert\n    tag_13:\n      pop\n      tag_14\n      tag_15\n      jump\t// in\n    tag_14:\n      mload(0x40)\n      dup1\n      dup3\n      0xffffffffffffffffffffffffffffffffffffffff\n      and\n      dup2\n      mstore\n      0x20\n      add\n      swap2\n      pop\n      pop\n      mload(0x40)\n      dup1\n      swap2\n      sub\n      swap1\n      return\n        /* \"artifacts/Lalit/payable.sol\":716:795  function getwbal2() public view returns( uint){... */\n    tag_5:\n      callvalue\n      dup1\n      iszero\n      tag_16\n      jumpi\n      0x00\n      dup1\n      revert\n    tag_16:\n      pop\n      tag_17\n      tag_18\n      jump\t// in\n    tag_17:\n      mload(0x40)\n      dup1\n      dup3\n      dup2\n      mstore\n      0x20\n      add\n      swap2\n      pop\n      pop\n      mload(0x40)\n      dup1\n      swap2\n      sub\n      swap1\n      return\n        /* \"artifacts/Lalit/payable.sol\":363:479  function getEth() public payable{       // is function ko view, pure nahi bna skte, kyoki ether add kar rhe hai.... */\n    tag_6:\n      tag_19\n      tag_20\n      jump\t// in\n    tag_19:\n      stop\n        /* \"artifacts/Lalit/payable.sol\":481:560  function getwbal() public view returns( uint){... */\n    tag_9:\n        /* \"artifacts/Lalit/payable.sol\":521:525  uint */\n      0x00\n        /* \"artifacts/Lalit/payable.sol\":535:556  address(this).balance */\n      selfbalance\n        /* \"artifacts/Lalit/payable.sol\":528:556  return address(this).balance */\n      swap1\n      pop\n        /* \"artifacts/Lalit/payable.sol\":481:560  function getwbal() public view returns( uint){... */\n      swap1\n      jump\t// out\n        /* \"artifacts/Lalit/payable.sol\":636:714  function getadd1() public view returns(address ){... */\n    tag_12:\n        /* \"artifacts/Lalit/payable.sol\":675:682  address */\n      0x00\n        /* \"artifacts/Lalit/payable.sol\":705:709  this */\n      address\n        /* \"artifacts/Lalit/payable.sol\":690:710  return address(this) */\n      swap1\n      pop\n        /* \"artifacts/Lalit/payable.sol\":636:714  function getadd1() public view returns(address ){... */\n      swap1\n      jump\t// out\n        /* \"artifacts/Lalit/payable.sol\":561:635  function getadd() public view returns(address ){... */\n    tag_15:\n        /* \"artifacts/Lalit/payable.sol\":599:606  address */\n      0x00\n        /* \"artifacts/Lalit/payable.sol\":621:631  msg.sender */\n      caller\n        /* \"artifacts/Lalit/payable.sol\":614:631  return msg.sender */\n      swap1\n      pop\n        /* \"artifacts/Lalit/payable.sol\":561:635  function getadd() public view returns(address ){... */\n      swap1\n      jump\t// out\n        /* \"artifacts/Lalit/payable.sol\":716:795  function getwbal2() public view returns( uint){... */\n    tag_18:\n        /* \"artifacts/Lalit/payable.sol\":757:761  uint */\n      0x00\n        /* \"artifacts/Lalit/payable.sol\":772:782  msg.sender */\n      caller\n        /* \"artifacts/Lalit/payable.sol\":771:791  (msg.sender).balance */\n      0xffffffffffffffffffffffffffffffffffffffff\n      and\n      balance\n        /* \"artifacts/Lalit/payable.sol\":764:791  return (msg.sender).balance */\n      swap1\n      pop\n        /* \"artifacts/Lalit/payable.sol\":716:795  function getwbal2() public view returns( uint){... */\n      swap1\n      jump\t// out\n        /* \"artifacts/Lalit/payable.sol\":363:479  function getEth() public payable{       // is function ko view, pure nahi bna skte, kyoki ether add kar rhe hai.... */\n    tag_20:\n      jump\t// out\n\n    auxdata: 0xa2646970667358221220c7636226cda35a6c5cf83cae4db8a8ae14322c3d15ea3a03ec45f6bc62cb0b8864736f6c63430007060033\n}\n",
				"bytecode": {
					"linkReferences": {},
					"object": "608060405234801561001057600080fd5b506101a0806100206000396000f3fe60806040526004361061004a5760003560e01c806323db58971461004f5780638fa193501461007a578063a74915cf146100bb578063acfb3b91146100fc578063cb05b93e14610127575b600080fd5b34801561005b57600080fd5b50610064610131565b6040518082815260200191505060405180910390f35b34801561008657600080fd5b5061008f610139565b604051808273ffffffffffffffffffffffffffffffffffffffff16815260200191505060405180910390f35b3480156100c757600080fd5b506100d0610141565b604051808273ffffffffffffffffffffffffffffffffffffffff16815260200191505060405180910390f35b34801561010857600080fd5b50610111610149565b6040518082815260200191505060405180910390f35b61012f610168565b005b600047905090565b600030905090565b600033905090565b60003373ffffffffffffffffffffffffffffffffffffffff1631905090565b56fea2646970667358221220c7636226cda35a6c5cf83cae4db8a8ae14322c3d15ea3a03ec45f6bc62cb0b8864736f6c63430007060033",
					"opcodes": "PUSH1 0x80 PUSH1 0x40 MSTORE CALLVALUE DUP1 ISZERO PUSH2 0x10 JUMPI PUSH1 0x0 DUP1 REVERT JUMPDEST POP PUSH2 0x1A0 DUP1 PUSH2 0x20 PUSH1 0x0 CODECOPY PUSH1 0x0 RETURN INVALID PUSH1 0x80 PUSH1 0x40 MSTORE PUSH1 0x4 CALLDATASIZE LT PUSH2 0x4A JUMPI PUSH1 0x0 CALLDATALOAD PUSH1 0xE0 SHR DUP1 PUSH4 0x23DB5897 EQ PUSH2 0x4F JUMPI DUP1 PUSH4 0x8FA19350 EQ PUSH2 0x7A JUMPI DUP1 PUSH4 0xA74915CF EQ PUSH2 0xBB JUMPI DUP1 PUSH4 0xACFB3B91 EQ PUSH2 0xFC JUMPI DUP1 PUSH4 0xCB05B93E EQ PUSH2 0x127 JUMPI JUMPDEST PUSH1 0x0 DUP1 REVERT JUMPDEST CALLVALUE DUP1 ISZERO PUSH2 0x5B JUMPI PUSH1 0x0 DUP1 REVERT JUMPDEST POP PUSH2 0x64 PUSH2 0x131 JUMP JUMPDEST PUSH1 0x40 MLOAD DUP1 DUP3 DUP2 MSTORE PUSH1 0x20 ADD SWAP2 POP POP PUSH1 0x40 MLOAD DUP1 SWAP2 SUB SWAP1 RETURN JUMPDEST CALLVALUE DUP1 ISZERO PUSH2 0x86 JUMPI PUSH1 0x0 DUP1 REVERT JUMPDEST POP PUSH2 0x8F PUSH2 0x139 JUMP JUMPDEST PUSH1 0x40 MLOAD DUP1 DUP3 PUSH20 0xFFFFFFFFFFFFFFFFFFFFFFFFFFFFFFFFFFFFFFFF AND DUP2 MSTORE PUSH1 0x20 ADD SWAP2 POP POP PUSH1 0x40 MLOAD DUP1 SWAP2 SUB SWAP1 RETURN JUMPDEST CALLVALUE DUP1 ISZERO PUSH2 0xC7 JUMPI PUSH1 0x0 DUP1 REVERT JUMPDEST POP PUSH2 0xD0 PUSH2 0x141 JUMP JUMPDEST PUSH1 0x40 MLOAD DUP1 DUP3 PUSH20 0xFFFFFFFFFFFFFFFFFFFFFFFFFFFFFFFFFFFFFFFF AND DUP2 MSTORE PUSH1 0x20 ADD SWAP2 POP POP PUSH1 0x40 MLOAD DUP1 SWAP2 SUB SWAP1 RETURN JUMPDEST CALLVALUE DUP1 ISZERO PUSH2 0x108 JUMPI PUSH1 0x0 DUP1 REVERT JUMPDEST POP PUSH2 0x111 PUSH2 0x149 JUMP JUMPDEST PUSH1 0x40 MLOAD DUP1 DUP3 DUP2 MSTORE PUSH1 0x20 ADD SWAP2 POP POP PUSH1 0x40 MLOAD DUP1 SWAP2 SUB SWAP1 RETURN JUMPDEST PUSH2 0x12F PUSH2 0x168 JUMP JUMPDEST STOP JUMPDEST PUSH1 0x0 SELFBALANCE SWAP1 POP SWAP1 JUMP JUMPDEST PUSH1 0x0 ADDRESS SWAP1 POP SWAP1 JUMP JUMPDEST PUSH1 0x0 CALLER SWAP1 POP SWAP1 JUMP JUMPDEST PUSH1 0x0 CALLER PUSH20 0xFFFFFFFFFFFFFFFFFFFFFFFFFFFFFFFFFFFFFFFF AND BALANCE SWAP1 POP SWAP1 JUMP JUMPDEST JUMP INVALID LOG2 PUSH5 0x6970667358 0x22 SLT KECCAK256 0xC7 PUSH4 0x6226CDA3 GAS PUSH13 0x5CF83CAE4DB8A8AE14322C3D15 0xEA GASPRICE SUB 0xEC GASLIMIT 0xF6 0xBC PUSH3 0xCB0B88 PUSH5 0x736F6C6343 STOP SMOD MOD STOP CALLER "
				},
				"gasEstimates": {
					"creation": {
						"codeDepositCost": "83200",
						"executionCost": "129",
						"totalCost": "83329"
					},
					"external": {
						"getEth()": "186",
						"getadd()": "240",
						"getadd1()": "218",
						"getwbal()": "193",
						"getwbal2()": "962"
					}
				},
				"methodIdentifiers": {
					"getEth()": "cb05b93e",
					"getadd()": "a74915cf",
					"getadd1()": "8fa19350",
					"getwbal()": "23db5897",
					"getwbal2()": "acfb3b91"
				}
			},
			"storageLayout": {
				"storage": [],
				"types": null
			},
			"userdoc": {
				"kind": "user",
				"methods": {},
				"version": 1
			}
		}
	}
}