{
	"artifacts/Lalit/Fallback,  Receive.sol": {
		"fallback_receive": {
			"abi": [
				{
					"inputs": [],
					"name": "getwbal",
					"outputs": [
						{
							"internalType": "uint256",
							"name": "",
							"type": "uint256"
						}
					],
					"stateMutability": "view",
					"type": "function"
				}
			],
			"devdoc": {
				"kind": "dev",
				"methods": {},
				"version": 1
			},
			"evm": {
				"assembly": "    /* \"artifacts/Lalit/Fallback,  Receive.sol\":530:679  contract fallback_receive{... */\n  mstore(0x40, 0x80)\n  callvalue\n  dup1\n  iszero\n  tag_1\n  jumpi\n  0x00\n  dup1\n  revert\ntag_1:\n  pop\n  dataSize(sub_0)\n  dup1\n  dataOffset(sub_0)\n  0x00\n  codecopy\n  0x00\n  return\nstop\n\nsub_0: assembly {\n        /* \"artifacts/Lalit/Fallback,  Receive.sol\":530:679  contract fallback_receive{... */\n      mstore(0x40, 0x80)\n      callvalue\n      dup1\n      iszero\n      tag_1\n      jumpi\n      0x00\n      dup1\n      revert\n    tag_1:\n      pop\n      jumpi(tag_2, lt(calldatasize, 0x04))\n      shr(0xe0, calldataload(0x00))\n      dup1\n      0x23db5897\n      eq\n      tag_3\n      jumpi\n    tag_2:\n      0x00\n      dup1\n      revert\n        /* \"artifacts/Lalit/Fallback,  Receive.sol\":596:675  function getwbal() public view returns( uint){... */\n    tag_3:\n      tag_4\n      tag_5\n      jump\t// in\n    tag_4:\n      mload(0x40)\n      dup1\n      dup3\n      dup2\n      mstore\n      0x20\n      add\n      swap2\n      pop\n      pop\n      mload(0x40)\n      dup1\n      swap2\n      sub\n      swap1\n      return\n    tag_5:\n        /* \"artifacts/Lalit/Fallback,  Receive.sol\":636:640  uint */\n      0x00\n        /* \"artifacts/Lalit/Fallback,  Receive.sol\":650:671  address(this).balance */\n      selfbalance\n        /* \"artifacts/Lalit/Fallback,  Receive.sol\":643:671  return address(this).balance */\n      swap1\n      pop\n        /* \"artifacts/Lalit/Fallback,  Receive.sol\":596:675  function getwbal() public view returns( uint){... */\n      swap1\n      jump\t// out\n\n    auxdata: 0xa26469706673582212203b9f11bb0da8cb1fda389504d3a6b5221948e849a07af95c4164756df771cb6464736f6c63430007060033\n}\n",
				"bytecode": {
					"linkReferences": {},
					"object": "6080604052348015600f57600080fd5b5060878061001e6000396000f3fe6080604052348015600f57600080fd5b506004361060285760003560e01c806323db589714602d575b600080fd5b60336049565b6040518082815260200191505060405180910390f35b60004790509056fea26469706673582212203b9f11bb0da8cb1fda389504d3a6b5221948e849a07af95c4164756df771cb6464736f6c63430007060033",
					"opcodes": "PUSH1 0x80 PUSH1 0x40 MSTORE CALLVALUE DUP1 ISZERO PUSH1 0xF JUMPI PUSH1 0x0 DUP1 REVERT JUMPDEST POP PUSH1 0x87 DUP1 PUSH2 0x1E PUSH1 0x0 CODECOPY PUSH1 0x0 RETURN INVALID PUSH1 0x80 PUSH1 0x40 MSTORE CALLVALUE DUP1 ISZERO PUSH1 0xF JUMPI PUSH1 0x0 DUP1 REVERT JUMPDEST POP PUSH1 0x4 CALLDATASIZE LT PUSH1 0x28 JUMPI PUSH1 0x0 CALLDATALOAD PUSH1 0xE0 SHR DUP1 PUSH4 0x23DB5897 EQ PUSH1 0x2D JUMPI JUMPDEST PUSH1 0x0 DUP1 REVERT JUMPDEST PUSH1 0x33 PUSH1 0x49 JUMP JUMPDEST PUSH1 0x40 MLOAD DUP1 DUP3 DUP2 MSTORE PUSH1 0x20 ADD SWAP2 POP POP PUSH1 0x40 MLOAD DUP1 SWAP2 SUB SWAP1 RETURN JUMPDEST PUSH1 0x0 SELFBALANCE SWAP1 POP SWAP1 JUMP INVALID LOG2 PUSH5 0x6970667358 0x22 SLT KECCAK256 EXTCODESIZE SWAP16 GT 0xBB 0xD 0xA8 0xCB 0x1F 0xDA CODESIZE SWAP6 DIV 0xD3 0xA6 0xB5 0x22 NOT 0x48 0xE8 0x49 LOG0 PUSH27 0xF95C4164756DF771CB6464736F6C63430007060033000000000000 "
				},
				"gasEstimates": {
					"creation": {
						"codeDepositCost": "27000",
						"executionCost": "81",
						"totalCost": "27081"
					},
					"external": {
						"getwbal()": "193"
					}
				},
				"methodIdentifiers": {
					"getwbal()": "23db5897"
				}
			},
			"storageLayout": {
				"storage": [],
				"types": null
			},
			"userdoc": {
				"kind": "user",
				"methods": {},
				"version": 1
			}
		}
	}
}