{
	"artifacts/Lalit/modifier.sol": {
		"Modifier": {
			"abi": [
				{
					"inputs": [],
					"name": "fun1",
					"outputs": [
						{
							"internalType": "string",
							"name": "",
							"type": "string"
						}
					],
					"stateMutability": "pure",
					"type": "function"
				},
				{
					"inputs": [],
					"name": "fun2",
					"outputs": [
						{
							"internalType": "uint256",
							"name": "_x",
							"type": "uint256"
						}
					],
					"stateMutability": "pure",
					"type": "function"
				},
				{
					"inputs": [],
					"name": "fun3",
					"outputs": [
						{
							"internalType": "address",
							"name": "",
							"type": "address"
						}
					],
					"stateMutability": "view",
					"type": "function"
				}
			],
			"devdoc": {
				"kind": "dev",
				"methods": {},
				"version": 1
			},
			"evm": {
				"assembly": "    /* \"artifacts/Lalit/modifier.sol\":217:883  contract Modifier{... */\n  mstore(0x40, 0x80)\n  callvalue\n  dup1\n  iszero\n  tag_1\n  jumpi\n  0x00\n  dup1\n  revert\ntag_1:\n  pop\n  dataSize(sub_0)\n  dup1\n  dataOffset(sub_0)\n  0x00\n  codecopy\n  0x00\n  return\nstop\n\nsub_0: assembly {\n        /* \"artifacts/Lalit/modifier.sol\":217:883  contract Modifier{... */\n      mstore(0x40, 0x80)\n      callvalue\n      dup1\n      iszero\n      tag_1\n      jumpi\n      0x00\n      dup1\n      revert\n    tag_1:\n      pop\n      jumpi(tag_2, lt(calldatasize, 0x04))\n      shr(0xe0, calldataload(0x00))\n      dup1\n      0x157b5167\n      eq\n      tag_3\n      jumpi\n      dup1\n      0x446a45b7\n      eq\n      tag_4\n      jumpi\n      dup1\n      0x7b8239fa\n      eq\n      tag_5\n      jumpi\n    tag_2:\n      0x00\n      dup1\n      revert\n        /* \"artifacts/Lalit/modifier.sol\":656:763  function fun2() public pure returns ( uint _x ){... */\n    tag_3:\n      tag_6\n      tag_7\n      jump\t// in\n    tag_6:\n      mload(0x40)\n      dup1\n      dup3\n      dup2\n      mstore\n      0x20\n      add\n      swap2\n      pop\n      pop\n      mload(0x40)\n      dup1\n      swap2\n      sub\n      swap1\n      return\n        /* \"artifacts/Lalit/modifier.sol\":527:653  function fun1() public pure modname returns(string memory){... */\n    tag_4:\n      tag_8\n      tag_9\n      jump\t// in\n    tag_8:\n      mload(0x40)\n      dup1\n      dup1\n      0x20\n      add\n      dup3\n      dup2\n      sub\n      dup3\n      mstore\n      dup4\n      dup2\n      dup2\n      mload\n      dup2\n      mstore\n      0x20\n      add\n      swap2\n      pop\n      dup1\n      mload\n      swap1\n      0x20\n      add\n      swap1\n      dup1\n      dup4\n      dup4\n      0x00\n    tag_10:\n      dup4\n      dup2\n      lt\n      iszero\n      tag_12\n      jumpi\n      dup1\n      dup3\n      add\n      mload\n      dup2\n      dup5\n      add\n      mstore\n      0x20\n      dup2\n      add\n      swap1\n      pop\n      jump(tag_10)\n    tag_12:\n      pop\n      pop\n      pop\n      pop\n      swap1\n      pop\n      swap1\n      dup2\n      add\n      swap1\n      0x1f\n      and\n      dup1\n      iszero\n      tag_13\n      jumpi\n      dup1\n      dup3\n      sub\n      dup1\n      mload\n      0x01\n      dup4\n      0x20\n      sub\n      0x0100\n      exp\n      sub\n      not\n      and\n      dup2\n      mstore\n      0x20\n      add\n      swap2\n      pop\n    tag_13:\n      pop\n      swap3\n      pop\n      pop\n      pop\n      mload(0x40)\n      dup1\n      swap2\n      sub\n      swap1\n      return\n        /* \"artifacts/Lalit/modifier.sol\":765:881  function fun3() public view returns ( address){... */\n    tag_5:\n      tag_14\n      tag_15\n      jump\t// in\n    tag_14:\n      mload(0x40)\n      dup1\n      dup3\n      0xffffffffffffffffffffffffffffffffffffffff\n      and\n      dup2\n      mstore\n      0x20\n      add\n      swap2\n      pop\n      pop\n      mload(0x40)\n      dup1\n      swap2\n      sub\n      swap1\n      return\n        /* \"artifacts/Lalit/modifier.sol\":656:763  function fun2() public pure returns ( uint _x ){... */\n    tag_7:\n        /* \"artifacts/Lalit/modifier.sol\":694:701  uint _x */\n      0x00\n        /* \"artifacts/Lalit/modifier.sol\":710:716  uint i */\n      dup1\n        /* \"artifacts/Lalit/modifier.sol\":717:718  0 */\n      0x00\n        /* \"artifacts/Lalit/modifier.sol\":710:718  uint i=0 */\n      swap1\n      pop\n        /* \"artifacts/Lalit/modifier.sol\":722:724  10 */\n      0x0a\n        /* \"artifacts/Lalit/modifier.sol\":720:721  i */\n      dup2\n        /* \"artifacts/Lalit/modifier.sol\":720:724  i<10 */\n      lt\n        /* \"artifacts/Lalit/modifier.sol\":705:756  for (uint i=0; i<10;i++){... */\n      iszero\n      tag_18\n      jumpi\n        /* \"artifacts/Lalit/modifier.sol\":749:751  25 */\n      0x19\n        /* \"artifacts/Lalit/modifier.sol\":746:751  _x=25 */\n      swap2\n      pop\n        /* \"artifacts/Lalit/modifier.sol\":739:751  return _x=25 */\n      pop\n      jump(tag_16)\n        /* \"artifacts/Lalit/modifier.sol\":705:756  for (uint i=0; i<10;i++){... */\n    tag_18:\n      pop\n        /* \"artifacts/Lalit/modifier.sol\":656:763  function fun2() public pure returns ( uint _x ){... */\n    tag_16:\n      swap1\n      jump\t// out\n        /* \"artifacts/Lalit/modifier.sol\":527:653  function fun1() public pure modname returns(string memory){... */\n    tag_9:\n        /* \"artifacts/Lalit/modifier.sol\":571:584  string memory */\n      0x60\n        /* \"artifacts/Lalit/modifier.sol\":267:273  uint i */\n      0x00\n        /* \"artifacts/Lalit/modifier.sol\":262:435  for (uint i=0; i<10;i++){... */\n    tag_21:\n        /* \"artifacts/Lalit/modifier.sol\":279:281  10 */\n      0x0a\n        /* \"artifacts/Lalit/modifier.sol\":277:278  i */\n      dup2\n        /* \"artifacts/Lalit/modifier.sol\":277:281  i<10 */\n      lt\n        /* \"artifacts/Lalit/modifier.sol\":262:435  for (uint i=0; i<10;i++){... */\n      iszero\n      tag_22\n      jumpi\n        /* \"artifacts/Lalit/modifier.sol\":594:600  uint i */\n      0x00\n        /* \"artifacts/Lalit/modifier.sol\":606:608  10 */\n      0x0a\n        /* \"artifacts/Lalit/modifier.sol\":604:605  i */\n      dup2\n        /* \"artifacts/Lalit/modifier.sol\":604:608  i<10 */\n      lt\n        /* \"artifacts/Lalit/modifier.sol\":589:651  for (uint i=0; i<10;i++){... */\n      iszero\n      tag_26\n      jumpi\n        /* \"artifacts/Lalit/modifier.sol\":624:646  return \" hare Krishna\" */\n      mload(0x40)\n      dup1\n      0x40\n      add\n      0x40\n      mstore\n      dup1\n      0x0d\n      dup2\n      mstore\n      0x20\n      add\n      0x2068617265204b726973686e6100000000000000000000000000000000000000\n      dup2\n      mstore\n      pop\n      swap3\n      pop\n      pop\n      jump(tag_24)\n        /* \"artifacts/Lalit/modifier.sol\":589:651  for (uint i=0; i<10;i++){... */\n    tag_26:\n      pop\n        /* \"artifacts/Lalit/modifier.sol\":296:297  _ */\n    tag_24:\n        /* \"artifacts/Lalit/modifier.sol\":282:285  i++ */\n      dup1\n      dup1\n      0x01\n      add\n      swap2\n      pop\n      pop\n        /* \"artifacts/Lalit/modifier.sol\":262:435  for (uint i=0; i<10;i++){... */\n      jump(tag_21)\n    tag_22:\n      pop\n        /* \"artifacts/Lalit/modifier.sol\":527:653  function fun1() public pure modname returns(string memory){... */\n      swap1\n      jump\t// out\n        /* \"artifacts/Lalit/modifier.sol\":765:881  function fun3() public view returns ( address){... */\n    tag_15:\n        /* \"artifacts/Lalit/modifier.sol\":803:810  address */\n      0x00\n        /* \"artifacts/Lalit/modifier.sol\":818:824  uint i */\n      dup1\n        /* \"artifacts/Lalit/modifier.sol\":825:826  0 */\n      0x00\n        /* \"artifacts/Lalit/modifier.sol\":818:826  uint i=0 */\n      swap1\n      pop\n        /* \"artifacts/Lalit/modifier.sol\":830:832  10 */\n      0x0a\n        /* \"artifacts/Lalit/modifier.sol\":828:829  i */\n      dup2\n        /* \"artifacts/Lalit/modifier.sol\":828:832  i<10 */\n      lt\n        /* \"artifacts/Lalit/modifier.sol\":813:874  for (uint i=0; i<10;i++){... */\n      iszero\n      tag_30\n      jumpi\n        /* \"artifacts/Lalit/modifier.sol\":858:868  msg.sender */\n      caller\n        /* \"artifacts/Lalit/modifier.sol\":849:869  return ( msg.sender) */\n      swap2\n      pop\n      pop\n      jump(tag_28)\n        /* \"artifacts/Lalit/modifier.sol\":813:874  for (uint i=0; i<10;i++){... */\n    tag_30:\n      pop\n        /* \"artifacts/Lalit/modifier.sol\":765:881  function fun3() public view returns ( address){... */\n    tag_28:\n      swap1\n      jump\t// out\n\n    auxdata: 0xa264697066735822122026f143bcee053af9213898cf2ad8088be7b21ee6af65efa3e7b386a99a011f3664736f6c63430007060033\n}\n",
				"bytecode": {
					"linkReferences": {},
					"object": "608060405234801561001057600080fd5b506101f8806100206000396000f3fe608060405234801561001057600080fd5b50600436106100415760003560e01c8063157b516714610046578063446a45b7146100645780637b8239fa146100e7575b600080fd5b61004e61011b565b6040518082815260200191505060405180910390f35b61006c61013a565b6040518080602001828103825283818151815260200191508051906020019080838360005b838110156100ac578082015181840152602081019050610091565b50505050905090810190601f1680156100d95780820380516001836020036101000a031916815260200191505b509250505060405180910390f35b6100ef6101a4565b604051808273ffffffffffffffffffffffffffffffffffffffff16815260200191505060405180910390f35b60008060009050600a811015610135576019915050610137565b505b90565b606060005b600a8110156101a0576000600a811015610191576040518060400160405280600d81526020017f2068617265204b726973686e6100000000000000000000000000000000000000815250925050610193565b505b808060010191505061013f565b5090565b60008060009050600a8110156101bd57339150506101bf565b505b9056fea264697066735822122026f143bcee053af9213898cf2ad8088be7b21ee6af65efa3e7b386a99a011f3664736f6c63430007060033",
					"opcodes": "PUSH1 0x80 PUSH1 0x40 MSTORE CALLVALUE DUP1 ISZERO PUSH2 0x10 JUMPI PUSH1 0x0 DUP1 REVERT JUMPDEST POP PUSH2 0x1F8 DUP1 PUSH2 0x20 PUSH1 0x0 CODECOPY PUSH1 0x0 RETURN INVALID PUSH1 0x80 PUSH1 0x40 MSTORE CALLVALUE DUP1 ISZERO PUSH2 0x10 JUMPI PUSH1 0x0 DUP1 REVERT JUMPDEST POP PUSH1 0x4 CALLDATASIZE LT PUSH2 0x41 JUMPI PUSH1 0x0 CALLDATALOAD PUSH1 0xE0 SHR DUP1 PUSH4 0x157B5167 EQ PUSH2 0x46 JUMPI DUP1 PUSH4 0x446A45B7 EQ PUSH2 0x64 JUMPI DUP1 PUSH4 0x7B8239FA EQ PUSH2 0xE7 JUMPI JUMPDEST PUSH1 0x0 DUP1 REVERT JUMPDEST PUSH2 0x4E PUSH2 0x11B JUMP JUMPDEST PUSH1 0x40 MLOAD DUP1 DUP3 DUP2 MSTORE PUSH1 0x20 ADD SWAP2 POP POP PUSH1 0x40 MLOAD DUP1 SWAP2 SUB SWAP1 RETURN JUMPDEST PUSH2 0x6C PUSH2 0x13A JUMP JUMPDEST PUSH1 0x40 MLOAD DUP1 DUP1 PUSH1 0x20 ADD DUP3 DUP2 SUB DUP3 MSTORE DUP4 DUP2 DUP2 MLOAD DUP2 MSTORE PUSH1 0x20 ADD SWAP2 POP DUP1 MLOAD SWAP1 PUSH1 0x20 ADD SWAP1 DUP1 DUP4 DUP4 PUSH1 0x0 JUMPDEST DUP4 DUP2 LT ISZERO PUSH2 0xAC JUMPI DUP1 DUP3 ADD MLOAD DUP2 DUP5 ADD MSTORE PUSH1 0x20 DUP2 ADD SWAP1 POP PUSH2 0x91 JUMP JUMPDEST POP POP POP POP SWAP1 POP SWAP1 DUP2 ADD SWAP1 PUSH1 0x1F AND DUP1 ISZERO PUSH2 0xD9 JUMPI DUP1 DUP3 SUB DUP1 MLOAD PUSH1 0x1 DUP4 PUSH1 0x20 SUB PUSH2 0x100 EXP SUB NOT AND DUP2 MSTORE PUSH1 0x20 ADD SWAP2 POP JUMPDEST POP SWAP3 POP POP POP PUSH1 0x40 MLOAD DUP1 SWAP2 SUB SWAP1 RETURN JUMPDEST PUSH2 0xEF PUSH2 0x1A4 JUMP JUMPDEST PUSH1 0x40 MLOAD DUP1 DUP3 PUSH20 0xFFFFFFFFFFFFFFFFFFFFFFFFFFFFFFFFFFFFFFFF AND DUP2 MSTORE PUSH1 0x20 ADD SWAP2 POP POP PUSH1 0x40 MLOAD DUP1 SWAP2 SUB SWAP1 RETURN JUMPDEST PUSH1 0x0 DUP1 PUSH1 0x0 SWAP1 POP PUSH1 0xA DUP2 LT ISZERO PUSH2 0x135 JUMPI PUSH1 0x19 SWAP2 POP POP PUSH2 0x137 JUMP JUMPDEST POP JUMPDEST SWAP1 JUMP JUMPDEST PUSH1 0x60 PUSH1 0x0 JUMPDEST PUSH1 0xA DUP2 LT ISZERO PUSH2 0x1A0 JUMPI PUSH1 0x0 PUSH1 0xA DUP2 LT ISZERO PUSH2 0x191 JUMPI PUSH1 0x40 MLOAD DUP1 PUSH1 0x40 ADD PUSH1 0x40 MSTORE DUP1 PUSH1 0xD DUP2 MSTORE PUSH1 0x20 ADD PUSH32 0x2068617265204B726973686E6100000000000000000000000000000000000000 DUP2 MSTORE POP SWAP3 POP POP PUSH2 0x193 JUMP JUMPDEST POP JUMPDEST DUP1 DUP1 PUSH1 0x1 ADD SWAP2 POP POP PUSH2 0x13F JUMP JUMPDEST POP SWAP1 JUMP JUMPDEST PUSH1 0x0 DUP1 PUSH1 0x0 SWAP1 POP PUSH1 0xA DUP2 LT ISZERO PUSH2 0x1BD JUMPI CALLER SWAP2 POP POP PUSH2 0x1BF JUMP JUMPDEST POP JUMPDEST SWAP1 JUMP INVALID LOG2 PUSH5 0x6970667358 0x22 SLT KECCAK256 0x26 CALL NUMBER 0xBC 0xEE SDIV GASPRICE 0xF9 0x21 CODESIZE SWAP9 0xCF 0x2A 0xD8 ADDMOD DUP12 0xE7 0xB2 0x1E 0xE6 0xAF PUSH6 0xEFA3E7B386A9 SWAP11 ADD 0x1F CALLDATASIZE PUSH5 0x736F6C6343 STOP SMOD MOD STOP CALLER "
				},
				"gasEstimates": {
					"creation": {
						"codeDepositCost": "100800",
						"executionCost": "147",
						"totalCost": "100947"
					},
					"external": {
						"fun1()": "infinite",
						"fun2()": "241",
						"fun3()": "290"
					}
				},
				"methodIdentifiers": {
					"fun1()": "446a45b7",
					"fun2()": "157b5167",
					"fun3()": "7b8239fa"
				}
			},
			"storageLayout": {
				"storage": [],
				"types": null
			},
			"userdoc": {
				"kind": "user",
				"methods": {},
				"version": 1
			}
		}
	}
}