{
	"artifacts/Lalit/multiple inheritance.sol": {
		"B": {
			"abi": [
				{
					"inputs": [],
					"stateMutability": "nonpayable",
					"type": "constructor"
				},
				{
					"inputs": [],
					"name": "a",
					"outputs": [
						{
							"internalType": "uint256",
							"name": "",
							"type": "uint256"
						}
					],
					"stateMutability": "view",
					"type": "function"
				},
				{
					"inputs": [],
					"name": "b",
					"outputs": [
						{
							"internalType": "uint256",
							"name": "",
							"type": "uint256"
						}
					],
					"stateMutability": "view",
					"type": "function"
				},
				{
					"inputs": [],
					"name": "funA",
					"outputs": [],
					"stateMutability": "nonpayable",
					"type": "function"
				},
				{
					"inputs": [],
					"name": "funB",
					"outputs": [],
					"stateMutability": "nonpayable",
					"type": "function"
				}
			],
			"devdoc": {
				"kind": "dev",
				"methods": {},
				"version": 1
			},
			"evm": {
				"assembly": "    /* \"artifacts/Lalit/multiple inheritance.sol\":475:569  contract B is A{... */\n  mstore(0x40, 0x80)\n    /* \"artifacts/Lalit/multiple inheritance.sol\":508:531  constructor(){... */\n  callvalue\n  dup1\n  iszero\n  tag_1\n  jumpi\n  0x00\n  dup1\n  revert\ntag_1:\n  pop\n    /* \"artifacts/Lalit/multiple inheritance.sol\":117:120  100 */\n  0x64\n    /* \"artifacts/Lalit/multiple inheritance.sol\":115:116  a */\n  0x00\n    /* \"artifacts/Lalit/multiple inheritance.sol\":115:120  a=100 */\n  dup2\n  swap1\n  sstore\n  pop\n    /* \"artifacts/Lalit/multiple inheritance.sol\":525:528  100 */\n  0x64\n    /* \"artifacts/Lalit/multiple inheritance.sol\":523:524  b */\n  0x01\n    /* \"artifacts/Lalit/multiple inheritance.sol\":523:528  b=100 */\n  dup2\n  swap1\n  sstore\n  pop\n    /* \"artifacts/Lalit/multiple inheritance.sol\":475:569  contract B is A{... */\n  dataSize(sub_0)\n  dup1\n  dataOffset(sub_0)\n  0x00\n  codecopy\n  0x00\n  return\nstop\n\nsub_0: assembly {\n        /* \"artifacts/Lalit/multiple inheritance.sol\":475:569  contract B is A{... */\n      mstore(0x40, 0x80)\n      callvalue\n      dup1\n      iszero\n      tag_1\n      jumpi\n      0x00\n      dup1\n      revert\n    tag_1:\n      pop\n      jumpi(tag_2, lt(calldatasize, 0x04))\n      shr(0xe0, calldataload(0x00))\n      dup1\n      0x09ebbbdb\n      eq\n      tag_3\n      jumpi\n      dup1\n      0x0dbe671f\n      eq\n      tag_4\n      jumpi\n      dup1\n      0x4df7e3d0\n      eq\n      tag_5\n      jumpi\n      dup1\n      0x8e5159b0\n      eq\n      tag_6\n      jumpi\n    tag_2:\n      0x00\n      dup1\n      revert\n        /* \"artifacts/Lalit/multiple inheritance.sol\":533:567  function funB() public {... */\n    tag_3:\n      tag_7\n      tag_8\n      jump\t// in\n    tag_7:\n      stop\n        /* \"artifacts/Lalit/multiple inheritance.sol\":85:98  uint public a */\n    tag_4:\n      tag_9\n      tag_10\n      jump\t// in\n    tag_9:\n      mload(0x40)\n      dup1\n      dup3\n      dup2\n      mstore\n      0x20\n      add\n      swap2\n      pop\n      pop\n      mload(0x40)\n      dup1\n      swap2\n      sub\n      swap1\n      return\n        /* \"artifacts/Lalit/multiple inheritance.sol\":493:506  uint public b */\n    tag_5:\n      tag_11\n      tag_12\n      jump\t// in\n    tag_11:\n      mload(0x40)\n      dup1\n      dup3\n      dup2\n      mstore\n      0x20\n      add\n      swap2\n      pop\n      pop\n      mload(0x40)\n      dup1\n      swap2\n      sub\n      swap1\n      return\n        /* \"artifacts/Lalit/multiple inheritance.sol\":125:159  function funA() public {... */\n    tag_6:\n      tag_13\n      tag_14\n      jump\t// in\n    tag_13:\n      stop\n        /* \"artifacts/Lalit/multiple inheritance.sol\":533:567  function funB() public {... */\n    tag_8:\n        /* \"artifacts/Lalit/multiple inheritance.sol\":561:563  10 */\n      0x0a\n        /* \"artifacts/Lalit/multiple inheritance.sol\":559:560  b */\n      0x01\n        /* \"artifacts/Lalit/multiple inheritance.sol\":559:563  b=10 */\n      dup2\n      swap1\n      sstore\n      pop\n        /* \"artifacts/Lalit/multiple inheritance.sol\":533:567  function funB() public {... */\n      jump\t// out\n        /* \"artifacts/Lalit/multiple inheritance.sol\":85:98  uint public a */\n    tag_10:\n      sload(0x00)\n      dup2\n      jump\t// out\n        /* \"artifacts/Lalit/multiple inheritance.sol\":493:506  uint public b */\n    tag_12:\n      sload(0x01)\n      dup2\n      jump\t// out\n        /* \"artifacts/Lalit/multiple inheritance.sol\":125:159  function funA() public {... */\n    tag_14:\n        /* \"artifacts/Lalit/multiple inheritance.sol\":153:155  10 */\n      0x0a\n        /* \"artifacts/Lalit/multiple inheritance.sol\":151:152  a */\n      0x00\n        /* \"artifacts/Lalit/multiple inheritance.sol\":151:155  a=10 */\n      dup2\n      swap1\n      sstore\n      pop\n        /* \"artifacts/Lalit/multiple inheritance.sol\":125:159  function funA() public {... */\n      jump\t// out\n\n    auxdata: 0xa26469706673582212203e6ab673878e58bd8912f1c9e12b3b47925d6090ddcf29094f5ac741a92b0ee764736f6c63430007060033\n}\n",
				"bytecode": {
					"linkReferences": {},
					"object": "608060405234801561001057600080fd5b506064600081905550606460018190555060e98061002f6000396000f3fe6080604052348015600f57600080fd5b506004361060465760003560e01c806309ebbbdb14604b5780630dbe671f1460535780634df7e3d014606f5780638e5159b014608b575b600080fd5b60516093565b005b6059609d565b6040518082815260200191505060405180910390f35b607560a3565b6040518082815260200191505060405180910390f35b609160a9565b005b600a600181905550565b60005481565b60015481565b600a60008190555056fea26469706673582212203e6ab673878e58bd8912f1c9e12b3b47925d6090ddcf29094f5ac741a92b0ee764736f6c63430007060033",
					"opcodes": "PUSH1 0x80 PUSH1 0x40 MSTORE CALLVALUE DUP1 ISZERO PUSH2 0x10 JUMPI PUSH1 0x0 DUP1 REVERT JUMPDEST POP PUSH1 0x64 PUSH1 0x0 DUP2 SWAP1 SSTORE POP PUSH1 0x64 PUSH1 0x1 DUP2 SWAP1 SSTORE POP PUSH1 0xE9 DUP1 PUSH2 0x2F PUSH1 0x0 CODECOPY PUSH1 0x0 RETURN INVALID PUSH1 0x80 PUSH1 0x40 MSTORE CALLVALUE DUP1 ISZERO PUSH1 0xF JUMPI PUSH1 0x0 DUP1 REVERT JUMPDEST POP PUSH1 0x4 CALLDATASIZE LT PUSH1 0x46 JUMPI PUSH1 0x0 CALLDATALOAD PUSH1 0xE0 SHR DUP1 PUSH4 0x9EBBBDB EQ PUSH1 0x4B JUMPI DUP1 PUSH4 0xDBE671F EQ PUSH1 0x53 JUMPI DUP1 PUSH4 0x4DF7E3D0 EQ PUSH1 0x6F JUMPI DUP1 PUSH4 0x8E5159B0 EQ PUSH1 0x8B JUMPI JUMPDEST PUSH1 0x0 DUP1 REVERT JUMPDEST PUSH1 0x51 PUSH1 0x93 JUMP JUMPDEST STOP JUMPDEST PUSH1 0x59 PUSH1 0x9D JUMP JUMPDEST PUSH1 0x40 MLOAD DUP1 DUP3 DUP2 MSTORE PUSH1 0x20 ADD SWAP2 POP POP PUSH1 0x40 MLOAD DUP1 SWAP2 SUB SWAP1 RETURN JUMPDEST PUSH1 0x75 PUSH1 0xA3 JUMP JUMPDEST PUSH1 0x40 MLOAD DUP1 DUP3 DUP2 MSTORE PUSH1 0x20 ADD SWAP2 POP POP PUSH1 0x40 MLOAD DUP1 SWAP2 SUB SWAP1 RETURN JUMPDEST PUSH1 0x91 PUSH1 0xA9 JUMP JUMPDEST STOP JUMPDEST PUSH1 0xA PUSH1 0x1 DUP2 SWAP1 SSTORE POP JUMP JUMPDEST PUSH1 0x0 SLOAD DUP2 JUMP JUMPDEST PUSH1 0x1 SLOAD DUP2 JUMP JUMPDEST PUSH1 0xA PUSH1 0x0 DUP2 SWAP1 SSTORE POP JUMP INVALID LOG2 PUSH5 0x6970667358 0x22 SLT KECCAK256 RETURNDATACOPY PUSH11 0xB673878E58BD8912F1C9E1 0x2B EXTCODESIZE SELFBALANCE SWAP3 0x5D PUSH1 0x90 0xDD 0xCF 0x29 MULMOD 0x4F GAS 0xC7 COINBASE 0xA9 0x2B 0xE 0xE7 PUSH5 0x736F6C6343 STOP SMOD MOD STOP CALLER "
				},
				"gasEstimates": {
					"creation": {
						"codeDepositCost": "46600",
						"executionCost": "40127",
						"totalCost": "86727"
					},
					"external": {
						"a()": "1005",
						"b()": "1027",
						"funA()": "20202",
						"funB()": "20136"
					}
				},
				"methodIdentifiers": {
					"a()": "0dbe671f",
					"b()": "4df7e3d0",
					"funA()": "8e5159b0",
					"funB()": "09ebbbdb"
				}
			},
			"storageLayout": {
				"storage": [
					{
						"astId": 3,
						"contract": "artifacts/Lalit/multiple inheritance.sol:B",
						"label": "a",
						"offset": 0,
						"slot": "0",
						"type": "t_uint256"
					},
					{
						"astId": 24,
						"contract": "artifacts/Lalit/multiple inheritance.sol:B",
						"label": "b",
						"offset": 0,
						"slot": "1",
						"type": "t_uint256"
					}
				],
				"types": {
					"t_uint256": {
						"encoding": "inplace",
						"label": "uint256",
						"numberOfBytes": "32"
					}
				}
			},
			"userdoc": {
				"kind": "user",
				"methods": {},
				"version": 1
			}
		}
	}
}