{
	"artifacts/Lalit/require.sol": {
		"Require": {
			"abi": [
				{
					"inputs": [
						{
							"internalType": "uint256",
							"name": "_x",
							"type": "uint256"
						}
					],
					"name": "Req",
					"outputs": [],
					"stateMutability": "nonpayable",
					"type": "function"
				},
				{
					"inputs": [],
					"name": "age",
					"outputs": [
						{
							"internalType": "uint256",
							"name": "",
							"type": "uint256"
						}
					],
					"stateMutability": "view",
					"type": "function"
				},
				{
					"inputs": [],
					"name": "onlyowner",
					"outputs": [],
					"stateMutability": "nonpayable",
					"type": "function"
				},
				{
					"inputs": [],
					"name": "owner",
					"outputs": [
						{
							"internalType": "address",
							"name": "",
							"type": "address"
						}
					],
					"stateMutability": "view",
					"type": "function"
				}
			],
			"devdoc": {
				"kind": "dev",
				"methods": {},
				"version": 1
			},
			"evm": {
				"assembly": "    /* \"artifacts/Lalit/require.sol\":98:518  contract Require{... */\n  mstore(0x40, 0x80)\n    /* \"artifacts/Lalit/require.sol\":139:149  msg.sender */\n  caller\n    /* \"artifacts/Lalit/require.sol\":117:149  address public owner= msg.sender */\n  0x00\n  dup1\n  0x0100\n  exp\n  dup2\n  sload\n  dup2\n  0xffffffffffffffffffffffffffffffffffffffff\n  mul\n  not\n  and\n  swap1\n  dup4\n  0xffffffffffffffffffffffffffffffffffffffff\n  and\n  mul\n  or\n  swap1\n  sstore\n  pop\n    /* \"artifacts/Lalit/require.sol\":167:169  20 */\n  0x14\n    /* \"artifacts/Lalit/require.sol\":151:169  uint public age=20 */\n  0x01\n  sstore\n    /* \"artifacts/Lalit/require.sol\":98:518  contract Require{... */\n  callvalue\n  dup1\n  iszero\n  tag_1\n  jumpi\n  0x00\n  dup1\n  revert\ntag_1:\n  pop\n  dataSize(sub_0)\n  dup1\n  dataOffset(sub_0)\n  0x00\n  codecopy\n  0x00\n  return\nstop\n\nsub_0: assembly {\n        /* \"artifacts/Lalit/require.sol\":98:518  contract Require{... */\n      mstore(0x40, 0x80)\n      callvalue\n      dup1\n      iszero\n      tag_1\n      jumpi\n      0x00\n      dup1\n      revert\n    tag_1:\n      pop\n      jumpi(tag_2, lt(calldatasize, 0x04))\n      shr(0xe0, calldataload(0x00))\n      dup1\n      0x0c8d3a9a\n      eq\n      tag_3\n      jumpi\n      dup1\n      0x262a9dff\n      eq\n      tag_4\n      jumpi\n      dup1\n      0x8da5cb5b\n      eq\n      tag_5\n      jumpi\n      dup1\n      0xb273e139\n      eq\n      tag_6\n      jumpi\n    tag_2:\n      0x00\n      dup1\n      revert\n        /* \"artifacts/Lalit/require.sol\":419:515  function onlyowner() public {... */\n    tag_3:\n      tag_7\n      tag_8\n      jump\t// in\n    tag_7:\n      stop\n        /* \"artifacts/Lalit/require.sol\":151:169  uint public age=20 */\n    tag_4:\n      tag_9\n      tag_10\n      jump\t// in\n    tag_9:\n      mload(0x40)\n      dup1\n      dup3\n      dup2\n      mstore\n      0x20\n      add\n      swap2\n      pop\n      pop\n      mload(0x40)\n      dup1\n      swap2\n      sub\n      swap1\n      return\n        /* \"artifacts/Lalit/require.sol\":117:149  address public owner= msg.sender */\n    tag_5:\n      tag_11\n      tag_12\n      jump\t// in\n    tag_11:\n      mload(0x40)\n      dup1\n      dup3\n      0xffffffffffffffffffffffffffffffffffffffff\n      and\n      dup2\n      mstore\n      0x20\n      add\n      swap2\n      pop\n      pop\n      mload(0x40)\n      dup1\n      swap2\n      sub\n      swap1\n      return\n        /* \"artifacts/Lalit/require.sol\":171:416  function Req(uint _x) public {... */\n    tag_6:\n      tag_13\n      0x04\n      dup1\n      calldatasize\n      sub\n      0x20\n      dup2\n      lt\n      iszero\n      tag_14\n      jumpi\n      0x00\n      dup1\n      revert\n    tag_14:\n      dup2\n      add\n      swap1\n      dup1\n      dup1\n      calldataload\n      swap1\n      0x20\n      add\n      swap1\n      swap3\n      swap2\n      swap1\n      pop\n      pop\n      pop\n      tag_15\n      jump\t// in\n    tag_13:\n      stop\n        /* \"artifacts/Lalit/require.sol\":419:515  function onlyowner() public {... */\n    tag_8:\n        /* \"artifacts/Lalit/require.sol\":472:482  msg.sender */\n      caller\n        /* \"artifacts/Lalit/require.sol\":463:482  owner == msg.sender */\n      0xffffffffffffffffffffffffffffffffffffffff\n      and\n        /* \"artifacts/Lalit/require.sol\":463:468  owner */\n      0x00\n      dup1\n      sload\n      swap1\n      0x0100\n      exp\n      swap1\n      div\n      0xffffffffffffffffffffffffffffffffffffffff\n      and\n        /* \"artifacts/Lalit/require.sol\":463:482  owner == msg.sender */\n      0xffffffffffffffffffffffffffffffffffffffff\n      and\n      eq\n        /* \"artifacts/Lalit/require.sol\":454:495  require (owner == msg.sender,\"not owner\") */\n      tag_17\n      jumpi\n      mload(0x40)\n      0x08c379a000000000000000000000000000000000000000000000000000000000\n      dup2\n      mstore\n      0x04\n      add\n      dup1\n      dup1\n      0x20\n      add\n      dup3\n      dup2\n      sub\n      dup3\n      mstore\n      0x09\n      dup2\n      mstore\n      0x20\n      add\n      dup1\n      0x6e6f74206f776e65720000000000000000000000000000000000000000000000\n      dup2\n      mstore\n      pop\n      0x20\n      add\n      swap2\n      pop\n      pop\n      mload(0x40)\n      dup1\n      swap2\n      sub\n      swap1\n      revert\n    tag_17:\n        /* \"artifacts/Lalit/require.sol\":510:512  10 */\n      0x0a\n        /* \"artifacts/Lalit/require.sol\":506:509  age */\n      sload(0x01)\n        /* \"artifacts/Lalit/require.sol\":506:512  age+10 */\n      add\n        /* \"artifacts/Lalit/require.sol\":501:504  age */\n      0x01\n        /* \"artifacts/Lalit/require.sol\":501:512  age= age+10 */\n      dup2\n      swap1\n      sstore\n      pop\n        /* \"artifacts/Lalit/require.sol\":419:515  function onlyowner() public {... */\n      jump\t// out\n        /* \"artifacts/Lalit/require.sol\":151:169  uint public age=20 */\n    tag_10:\n      sload(0x01)\n      dup2\n      jump\t// out\n        /* \"artifacts/Lalit/require.sol\":117:149  address public owner= msg.sender */\n    tag_12:\n      0x00\n      dup1\n      sload\n      swap1\n      0x0100\n      exp\n      swap1\n      div\n      0xffffffffffffffffffffffffffffffffffffffff\n      and\n      dup2\n      jump\t// out\n        /* \"artifacts/Lalit/require.sol\":171:416  function Req(uint _x) public {... */\n    tag_15:\n        /* \"artifacts/Lalit/require.sol\":214:215  5 */\n      0x05\n        /* \"artifacts/Lalit/require.sol\":210:213  age */\n      sload(0x01)\n        /* \"artifacts/Lalit/require.sol\":210:215  age+5 */\n      add\n        /* \"artifacts/Lalit/require.sol\":204:207  age */\n      0x01\n        /* \"artifacts/Lalit/require.sol\":204:215  age = age+5 */\n      dup2\n      swap1\n      sstore\n      pop\n        /* \"artifacts/Lalit/require.sol\":253:254  2 */\n      0x02\n        /* \"artifacts/Lalit/require.sol\":250:252  _x */\n      dup2\n        /* \"artifacts/Lalit/require.sol\":250:254  _x>2 */\n      gt\n        /* \"artifacts/Lalit/require.sol\":241:275  require (_x>2,\"value less than 2\") */\n      tag_19\n      jumpi\n      mload(0x40)\n      0x08c379a000000000000000000000000000000000000000000000000000000000\n      dup2\n      mstore\n      0x04\n      add\n      dup1\n      dup1\n      0x20\n      add\n      dup3\n      dup2\n      sub\n      dup3\n      mstore\n      0x11\n      dup2\n      mstore\n      0x20\n      add\n      dup1\n      0x76616c7565206c657373207468616e2032000000000000000000000000000000\n      dup2\n      mstore\n      pop\n      0x20\n      add\n      swap2\n      pop\n      pop\n      mload(0x40)\n      dup1\n      swap2\n      sub\n      swap1\n      revert\n    tag_19:\n        /* \"artifacts/Lalit/require.sol\":171:416  function Req(uint _x) public {... */\n      pop\n      jump\t// out\n\n    auxdata: 0xa2646970667358221220bacb1cded45fb638762fafcaa19b2e363565a851d847c83e6c6f416a68b1f2f964736f6c63430007060033\n}\n",
				"bytecode": {
					"linkReferences": {},
					"object": "6080604052336000806101000a81548173ffffffffffffffffffffffffffffffffffffffff021916908373ffffffffffffffffffffffffffffffffffffffff160217905550601460015534801561005557600080fd5b5061028f806100656000396000f3fe608060405234801561001057600080fd5b506004361061004c5760003560e01c80630c8d3a9a14610051578063262a9dff1461005b5780638da5cb5b14610079578063b273e139146100ad575b600080fd5b6100596100db565b005b6100636101aa565b6040518082815260200191505060405180910390f35b6100816101b0565b604051808273ffffffffffffffffffffffffffffffffffffffff16815260200191505060405180910390f35b6100d9600480360360208110156100c357600080fd5b81019080803590602001909291905050506101d4565b005b3373ffffffffffffffffffffffffffffffffffffffff1660008054906101000a900473ffffffffffffffffffffffffffffffffffffffff1673ffffffffffffffffffffffffffffffffffffffff161461019c576040517f08c379a00000000000000000000000000000000000000000000000000000000081526004018080602001828103825260098152602001807f6e6f74206f776e6572000000000000000000000000000000000000000000000081525060200191505060405180910390fd5b600a60015401600181905550565b60015481565b60008054906101000a900473ffffffffffffffffffffffffffffffffffffffff1681565b60056001540160018190555060028111610256576040517f08c379a00000000000000000000000000000000000000000000000000000000081526004018080602001828103825260118152602001807f76616c7565206c657373207468616e203200000000000000000000000000000081525060200191505060405180910390fd5b5056fea2646970667358221220bacb1cded45fb638762fafcaa19b2e363565a851d847c83e6c6f416a68b1f2f964736f6c63430007060033",
					"opcodes": "PUSH1 0x80 PUSH1 0x40 MSTORE CALLER PUSH1 0x0 DUP1 PUSH2 0x100 EXP DUP2 SLOAD DUP2 PUSH20 0xFFFFFFFFFFFFFFFFFFFFFFFFFFFFFFFFFFFFFFFF MUL NOT AND SWAP1 DUP4 PUSH20 0xFFFFFFFFFFFFFFFFFFFFFFFFFFFFFFFFFFFFFFFF AND MUL OR SWAP1 SSTORE POP PUSH1 0x14 PUSH1 0x1 SSTORE CALLVALUE DUP1 ISZERO PUSH2 0x55 JUMPI PUSH1 0x0 DUP1 REVERT JUMPDEST POP PUSH2 0x28F DUP1 PUSH2 0x65 PUSH1 0x0 CODECOPY PUSH1 0x0 RETURN INVALID PUSH1 0x80 PUSH1 0x40 MSTORE CALLVALUE DUP1 ISZERO PUSH2 0x10 JUMPI PUSH1 0x0 DUP1 REVERT JUMPDEST POP PUSH1 0x4 CALLDATASIZE LT PUSH2 0x4C JUMPI PUSH1 0x0 CALLDATALOAD PUSH1 0xE0 SHR DUP1 PUSH4 0xC8D3A9A EQ PUSH2 0x51 JUMPI DUP1 PUSH4 0x262A9DFF EQ PUSH2 0x5B JUMPI DUP1 PUSH4 0x8DA5CB5B EQ PUSH2 0x79 JUMPI DUP1 PUSH4 0xB273E139 EQ PUSH2 0xAD JUMPI JUMPDEST PUSH1 0x0 DUP1 REVERT JUMPDEST PUSH2 0x59 PUSH2 0xDB JUMP JUMPDEST STOP JUMPDEST PUSH2 0x63 PUSH2 0x1AA JUMP JUMPDEST PUSH1 0x40 MLOAD DUP1 DUP3 DUP2 MSTORE PUSH1 0x20 ADD SWAP2 POP POP PUSH1 0x40 MLOAD DUP1 SWAP2 SUB SWAP1 RETURN JUMPDEST PUSH2 0x81 PUSH2 0x1B0 JUMP JUMPDEST PUSH1 0x40 MLOAD DUP1 DUP3 PUSH20 0xFFFFFFFFFFFFFFFFFFFFFFFFFFFFFFFFFFFFFFFF AND DUP2 MSTORE PUSH1 0x20 ADD SWAP2 POP POP PUSH1 0x40 MLOAD DUP1 SWAP2 SUB SWAP1 RETURN JUMPDEST PUSH2 0xD9 PUSH1 0x4 DUP1 CALLDATASIZE SUB PUSH1 0x20 DUP2 LT ISZERO PUSH2 0xC3 JUMPI PUSH1 0x0 DUP1 REVERT JUMPDEST DUP2 ADD SWAP1 DUP1 DUP1 CALLDATALOAD SWAP1 PUSH1 0x20 ADD SWAP1 SWAP3 SWAP2 SWAP1 POP POP POP PUSH2 0x1D4 JUMP JUMPDEST STOP JUMPDEST CALLER PUSH20 0xFFFFFFFFFFFFFFFFFFFFFFFFFFFFFFFFFFFFFFFF AND PUSH1 0x0 DUP1 SLOAD SWAP1 PUSH2 0x100 EXP SWAP1 DIV PUSH20 0xFFFFFFFFFFFFFFFFFFFFFFFFFFFFFFFFFFFFFFFF AND PUSH20 0xFFFFFFFFFFFFFFFFFFFFFFFFFFFFFFFFFFFFFFFF AND EQ PUSH2 0x19C JUMPI PUSH1 0x40 MLOAD PUSH32 0x8C379A000000000000000000000000000000000000000000000000000000000 DUP2 MSTORE PUSH1 0x4 ADD DUP1 DUP1 PUSH1 0x20 ADD DUP3 DUP2 SUB DUP3 MSTORE PUSH1 0x9 DUP2 MSTORE PUSH1 0x20 ADD DUP1 PUSH32 0x6E6F74206F776E65720000000000000000000000000000000000000000000000 DUP2 MSTORE POP PUSH1 0x20 ADD SWAP2 POP POP PUSH1 0x40 MLOAD DUP1 SWAP2 SUB SWAP1 REVERT JUMPDEST PUSH1 0xA PUSH1 0x1 SLOAD ADD PUSH1 0x1 DUP2 SWAP1 SSTORE POP JUMP JUMPDEST PUSH1 0x1 SLOAD DUP2 JUMP JUMPDEST PUSH1 0x0 DUP1 SLOAD SWAP1 PUSH2 0x100 EXP SWAP1 DIV PUSH20 0xFFFFFFFFFFFFFFFFFFFFFFFFFFFFFFFFFFFFFFFF AND DUP2 JUMP JUMPDEST PUSH1 0x5 PUSH1 0x1 SLOAD ADD PUSH1 0x1 DUP2 SWAP1 SSTORE POP PUSH1 0x2 DUP2 GT PUSH2 0x256 JUMPI PUSH1 0x40 MLOAD PUSH32 0x8C379A000000000000000000000000000000000000000000000000000000000 DUP2 MSTORE PUSH1 0x4 ADD DUP1 DUP1 PUSH1 0x20 ADD DUP3 DUP2 SUB DUP3 MSTORE PUSH1 0x11 DUP2 MSTORE PUSH1 0x20 ADD DUP1 PUSH32 0x76616C7565206C657373207468616E2032000000000000000000000000000000 DUP2 MSTORE POP PUSH1 0x20 ADD SWAP2 POP POP PUSH1 0x40 MLOAD DUP1 SWAP2 SUB SWAP1 REVERT JUMPDEST POP JUMP INVALID LOG2 PUSH5 0x6970667358 0x22 SLT KECCAK256 0xBA 0xCB SHR 0xDE 0xD4 0x5F 0xB6 CODESIZE PUSH23 0x2FAFCAA19B2E363565A851D847C83E6C6F416A68B1F2F9 PUSH5 0x736F6C6343 STOP SMOD MOD STOP CALLER "
				},
				"gasEstimates": {
					"creation": {
						"codeDepositCost": "131000",
						"executionCost": "41049",
						"totalCost": "172049"
					},
					"external": {
						"Req(uint256)": "21226",
						"age()": "1005",
						"onlyowner()": "21809",
						"owner()": "1066"
					}
				},
				"methodIdentifiers": {
					"Req(uint256)": "b273e139",
					"age()": "262a9dff",
					"onlyowner()": "0c8d3a9a",
					"owner()": "8da5cb5b"
				}
			},
			"storageLayout": {
				"storage": [
					{
						"astId": 5,
						"contract": "artifacts/Lalit/require.sol:Require",
						"label": "owner",
						"offset": 0,
						"slot": "0",
						"type": "t_address"
					},
					{
						"astId": 8,
						"contract": "artifacts/Lalit/require.sol:Require",
						"label": "age",
						"offset": 0,
						"slot": "1",
						"type": "t_uint256"
					}
				],
				"types": {
					"t_address": {
						"encoding": "inplace",
						"label": "address",
						"numberOfBytes": "20"
					},
					"t_uint256": {
						"encoding": "inplace",
						"label": "uint256",
						"numberOfBytes": "32"
					}
				}
			},
			"userdoc": {
				"kind": "user",
				"methods": {},
				"version": 1
			}
		}
	}
}