{
	"artifacts/Lalit/send,transfer,call theory.sol": {
		"sendEth": {
			"abi": [
				{
					"inputs": [
						{
							"internalType": "address payable",
							"name": "getter",
							"type": "address"
						}
					],
					"name": "CALL",
					"outputs": [],
					"stateMutability": "nonpayable",
					"type": "function"
				},
				{
					"inputs": [
						{
							"internalType": "address payable",
							"name": "getter",
							"type": "address"
						}
					],
					"name": "SEND",
					"outputs": [],
					"stateMutability": "nonpayable",
					"type": "function"
				},
				{
					"inputs": [
						{
							"internalType": "address payable",
							"name": "getter",
							"type": "address"
						}
					],
					"name": "TRANSFER",
					"outputs": [],
					"stateMutability": "nonpayable",
					"type": "function"
				},
				{
					"inputs": [],
					"name": "checkbal",
					"outputs": [
						{
							"internalType": "uint256",
							"name": "",
							"type": "uint256"
						}
					],
					"stateMutability": "view",
					"type": "function"
				},
				{
					"stateMutability": "payable",
					"type": "receive"
				}
			],
			"devdoc": {
				"kind": "dev",
				"methods": {},
				"version": 1
			},
			"evm": {
				"assembly": "    /* \"artifacts/Lalit/send,transfer,call theory.sol\":1218:3685  contract sendEth{... */\n  mstore(0x40, 0x80)\n  callvalue\n  dup1\n  iszero\n  tag_1\n  jumpi\n  0x00\n  dup1\n  revert\ntag_1:\n  pop\n  dataSize(sub_0)\n  dup1\n  dataOffset(sub_0)\n  0x00\n  codecopy\n  0x00\n  return\nstop\n\nsub_0: assembly {\n        /* \"artifacts/Lalit/send,transfer,call theory.sol\":1218:3685  contract sendEth{... */\n      mstore(0x40, 0x80)\n      jumpi(tag_1, lt(calldatasize, 0x04))\n      shr(0xe0, calldataload(0x00))\n      dup1\n      0x20ace1d0\n      eq\n      tag_3\n      jumpi\n      dup1\n      0x9cb4ddd0\n      eq\n      tag_4\n      jumpi\n      dup1\n      0xaf075e0c\n      eq\n      tag_5\n      jumpi\n      dup1\n      0xb206494b\n      eq\n      tag_6\n      jumpi\n      jump(tag_2)\n    tag_1:\n      jumpi(tag_2, calldatasize)\n      stop\n    tag_2:\n      0x00\n      dup1\n      revert\n        /* \"artifacts/Lalit/send,transfer,call theory.sol\":1448:1531  function checkbal() public view returns(uint ){... */\n    tag_3:\n      callvalue\n      dup1\n      iszero\n      tag_9\n      jumpi\n      0x00\n      dup1\n      revert\n    tag_9:\n      pop\n      tag_10\n      tag_11\n      jump\t// in\n    tag_10:\n      mload(0x40)\n      dup1\n      dup3\n      dup2\n      mstore\n      0x20\n      add\n      swap2\n      pop\n      pop\n      mload(0x40)\n      dup1\n      swap2\n      sub\n      swap1\n      return\n        /* \"artifacts/Lalit/send,transfer,call theory.sol\":3195:3289  function TRANSFER(address payable getter) public{... */\n    tag_4:\n      callvalue\n      dup1\n      iszero\n      tag_12\n      jumpi\n      0x00\n      dup1\n      revert\n    tag_12:\n      pop\n      tag_13\n      0x04\n      dup1\n      calldatasize\n      sub\n      0x20\n      dup2\n      lt\n      iszero\n      tag_14\n      jumpi\n      0x00\n      dup1\n      revert\n    tag_14:\n      dup2\n      add\n      swap1\n      dup1\n      dup1\n      calldataload\n      0xffffffffffffffffffffffffffffffffffffffff\n      and\n      swap1\n      0x20\n      add\n      swap1\n      swap3\n      swap2\n      swap1\n      pop\n      pop\n      pop\n      tag_15\n      jump\t// in\n    tag_13:\n      stop\n        /* \"artifacts/Lalit/send,transfer,call theory.sol\":2958:3192  function SEND( address payable getter) public {... */\n    tag_5:\n      callvalue\n      dup1\n      iszero\n      tag_16\n      jumpi\n      0x00\n      dup1\n      revert\n    tag_16:\n      pop\n      tag_17\n      0x04\n      dup1\n      calldatasize\n      sub\n      0x20\n      dup2\n      lt\n      iszero\n      tag_18\n      jumpi\n      0x00\n      dup1\n      revert\n    tag_18:\n      dup2\n      add\n      swap1\n      dup1\n      dup1\n      calldataload\n      0xffffffffffffffffffffffffffffffffffffffff\n      and\n      swap1\n      0x20\n      add\n      swap1\n      swap3\n      swap2\n      swap1\n      pop\n      pop\n      pop\n      tag_19\n      jump\t// in\n    tag_17:\n      stop\n        /* \"artifacts/Lalit/send,transfer,call theory.sol\":3291:3681  function CALL(address payable getter) public{... */\n    tag_6:\n      callvalue\n      dup1\n      iszero\n      tag_20\n      jumpi\n      0x00\n      dup1\n      revert\n    tag_20:\n      pop\n      tag_21\n      0x04\n      dup1\n      calldatasize\n      sub\n      0x20\n      dup2\n      lt\n      iszero\n      tag_22\n      jumpi\n      0x00\n      dup1\n      revert\n    tag_22:\n      dup2\n      add\n      swap1\n      dup1\n      dup1\n      calldataload\n      0xffffffffffffffffffffffffffffffffffffffff\n      and\n      swap1\n      0x20\n      add\n      swap1\n      swap3\n      swap2\n      swap1\n      pop\n      pop\n      pop\n      tag_23\n      jump\t// in\n    tag_21:\n      stop\n        /* \"artifacts/Lalit/send,transfer,call theory.sol\":1448:1531  function checkbal() public view returns(uint ){... */\n    tag_11:\n        /* \"artifacts/Lalit/send,transfer,call theory.sol\":1488:1492  uint */\n      0x00\n        /* \"artifacts/Lalit/send,transfer,call theory.sol\":1507:1528  address(this).balance */\n      selfbalance\n        /* \"artifacts/Lalit/send,transfer,call theory.sol\":1500:1528  return address(this).balance */\n      swap1\n      pop\n        /* \"artifacts/Lalit/send,transfer,call theory.sol\":1448:1531  function checkbal() public view returns(uint ){... */\n      swap1\n      jump\t// out\n        /* \"artifacts/Lalit/send,transfer,call theory.sol\":3195:3289  function TRANSFER(address payable getter) public{... */\n    tag_15:\n        /* \"artifacts/Lalit/send,transfer,call theory.sol\":3250:3256  getter */\n      dup1\n        /* \"artifacts/Lalit/send,transfer,call theory.sol\":3250:3265  getter.transfer */\n      0xffffffffffffffffffffffffffffffffffffffff\n      and\n        /* \"artifacts/Lalit/send,transfer,call theory.sol\":3250:3286  getter.transfer(1000000000000000000) */\n      0x08fc\n        /* \"artifacts/Lalit/send,transfer,call theory.sol\":3266:3285  1000000000000000000 */\n      0x0de0b6b3a7640000\n        /* \"artifacts/Lalit/send,transfer,call theory.sol\":3250:3286  getter.transfer(1000000000000000000) */\n      swap1\n      dup2\n      iszero\n      mul\n      swap1\n      mload(0x40)\n      0x00\n      mload(0x40)\n      dup1\n      dup4\n      sub\n      dup2\n      dup6\n      dup9\n      dup9\n      call\n      swap4\n      pop\n      pop\n      pop\n      pop\n      iszero\n      dup1\n      iszero\n      tag_27\n      jumpi\n      returndatasize\n      0x00\n      dup1\n      returndatacopy\n      revert(0x00, returndatasize)\n    tag_27:\n      pop\n        /* \"artifacts/Lalit/send,transfer,call theory.sol\":3195:3289  function TRANSFER(address payable getter) public{... */\n      pop\n      jump\t// out\n        /* \"artifacts/Lalit/send,transfer,call theory.sol\":2958:3192  function SEND( address payable getter) public {... */\n    tag_19:\n        /* \"artifacts/Lalit/send,transfer,call theory.sol\":3075:3091  bool sendconfirm */\n      0x00\n        /* \"artifacts/Lalit/send,transfer,call theory.sol\":3094:3100  getter */\n      dup2\n        /* \"artifacts/Lalit/send,transfer,call theory.sol\":3094:3105  getter.send */\n      0xffffffffffffffffffffffffffffffffffffffff\n      and\n        /* \"artifacts/Lalit/send,transfer,call theory.sol\":3094:3126  getter.send(1000000000000000000) */\n      0x08fc\n        /* \"artifacts/Lalit/send,transfer,call theory.sol\":3106:3125  1000000000000000000 */\n      0x0de0b6b3a7640000\n        /* \"artifacts/Lalit/send,transfer,call theory.sol\":3094:3126  getter.send(1000000000000000000) */\n      swap1\n      dup2\n      iszero\n      mul\n      swap1\n      mload(0x40)\n      0x00\n      mload(0x40)\n      dup1\n      dup4\n      sub\n      dup2\n      dup6\n      dup9\n      dup9\n      call\n      swap4\n      pop\n      pop\n      pop\n      pop\n        /* \"artifacts/Lalit/send,transfer,call theory.sol\":3075:3126  bool sendconfirm = getter.send(1000000000000000000) */\n      swap1\n      pop\n        /* \"artifacts/Lalit/send,transfer,call theory.sol\":3154:3158  true */\n      0x01\n        /* \"artifacts/Lalit/send,transfer,call theory.sol\":3139:3158  sendconfirm == true */\n      iszero\n      iszero\n        /* \"artifacts/Lalit/send,transfer,call theory.sol\":3139:3150  sendconfirm */\n      dup2\n        /* \"artifacts/Lalit/send,transfer,call theory.sol\":3139:3158  sendconfirm == true */\n      iszero\n      iszero\n      eq\n        /* \"artifacts/Lalit/send,transfer,call theory.sol\":3129:3188  require ( sendconfirm == true,\" transcation fail for send\") */\n      tag_30\n      jumpi\n      mload(0x40)\n      0x08c379a000000000000000000000000000000000000000000000000000000000\n      dup2\n      mstore\n      0x04\n      add\n      dup1\n      dup1\n      0x20\n      add\n      dup3\n      dup2\n      sub\n      dup3\n      mstore\n      0x1a\n      dup2\n      mstore\n      0x20\n      add\n      dup1\n      0x207472616e73636174696f6e206661696c20666f722073656e64000000000000\n      dup2\n      mstore\n      pop\n      0x20\n      add\n      swap2\n      pop\n      pop\n      mload(0x40)\n      dup1\n      swap2\n      sub\n      swap1\n      revert\n    tag_30:\n        /* \"artifacts/Lalit/send,transfer,call theory.sol\":2958:3192  function SEND( address payable getter) public {... */\n      pop\n      pop\n      jump\t// out\n        /* \"artifacts/Lalit/send,transfer,call theory.sol\":3291:3681  function CALL(address payable getter) public{... */\n    tag_23:\n        /* \"artifacts/Lalit/send,transfer,call theory.sol\":3551:3560  bool sent */\n      0x00\n        /* \"artifacts/Lalit/send,transfer,call theory.sol\":3562:3579  bytes memory data */\n      dup1\n        /* \"artifacts/Lalit/send,transfer,call theory.sol\":3581:3587  getter */\n      dup3\n        /* \"artifacts/Lalit/send,transfer,call theory.sol\":3581:3592  getter.call */\n      0xffffffffffffffffffffffffffffffffffffffff\n      and\n        /* \"artifacts/Lalit/send,transfer,call theory.sol\":3599:3618  1000000000000000000 */\n      0x0de0b6b3a7640000\n        /* \"artifacts/Lalit/send,transfer,call theory.sol\":3581:3623  getter.call{value:1000000000000000000}(\"\") */\n      mload(0x40)\n      dup1\n      0x00\n      add\n      swap1\n      pop\n      0x00\n      mload(0x40)\n      dup1\n      dup4\n      sub\n      dup2\n      dup6\n      dup8\n      gas\n      call\n      swap3\n      pop\n      pop\n      pop\n      returndatasize\n      dup1\n      0x00\n      dup2\n      eq\n      tag_34\n      jumpi\n      mload(0x40)\n      swap2\n      pop\n      and(add(returndatasize, 0x3f), not(0x1f))\n      dup3\n      add\n      0x40\n      mstore\n      returndatasize\n      dup3\n      mstore\n      returndatasize\n      0x00\n      0x20\n      dup5\n      add\n      returndatacopy\n      jump(tag_33)\n    tag_34:\n      0x60\n      swap2\n      pop\n    tag_33:\n      pop\n        /* \"artifacts/Lalit/send,transfer,call theory.sol\":3550:3623  (bool sent, bytes memory data)=getter.call{value:1000000000000000000}(\"\") */\n      swap2\n      pop\n      swap2\n      pop\n        /* \"artifacts/Lalit/send,transfer,call theory.sol\":3641:3645  true */\n      0x01\n        /* \"artifacts/Lalit/send,transfer,call theory.sol\":3634:3645  sent== true */\n      iszero\n      iszero\n        /* \"artifacts/Lalit/send,transfer,call theory.sol\":3634:3638  sent */\n      dup3\n        /* \"artifacts/Lalit/send,transfer,call theory.sol\":3634:3645  sent== true */\n      iszero\n      iszero\n      eq\n        /* \"artifacts/Lalit/send,transfer,call theory.sol\":3626:3676  require(sent== true, \" transcation fail for call\") */\n      tag_35\n      jumpi\n      mload(0x40)\n      0x08c379a000000000000000000000000000000000000000000000000000000000\n      dup2\n      mstore\n      0x04\n      add\n      dup1\n      dup1\n      0x20\n      add\n      dup3\n      dup2\n      sub\n      dup3\n      mstore\n      0x1a\n      dup2\n      mstore\n      0x20\n      add\n      dup1\n      0x207472616e73636174696f6e206661696c20666f722063616c6c000000000000\n      dup2\n      mstore\n      pop\n      0x20\n      add\n      swap2\n      pop\n      pop\n      mload(0x40)\n      dup1\n      swap2\n      sub\n      swap1\n      revert\n    tag_35:\n        /* \"artifacts/Lalit/send,transfer,call theory.sol\":3291:3681  function CALL(address payable getter) public{... */\n      pop\n      pop\n      pop\n      jump\t// out\n\n    auxdata: 0xa2646970667358221220fe524897204f196e33cb262a53bfd0bb43ee898f6435a7df83d8e6ab0a4a085264736f6c63430007060033\n}\n",
				"bytecode": {
					"linkReferences": {},
					"object": "608060405234801561001057600080fd5b506103ae806100206000396000f3fe6080604052600436106100435760003560e01c806320ace1d01461004f5780639cb4ddd01461007a578063af075e0c146100cb578063b206494b1461011c5761004a565b3661004a57005b600080fd5b34801561005b57600080fd5b5061006461016d565b6040518082815260200191505060405180910390f35b34801561008657600080fd5b506100c96004803603602081101561009d57600080fd5b81019080803573ffffffffffffffffffffffffffffffffffffffff169060200190929190505050610175565b005b3480156100d757600080fd5b5061011a600480360360208110156100ee57600080fd5b81019080803573ffffffffffffffffffffffffffffffffffffffff1690602001909291905050506101c7565b005b34801561012857600080fd5b5061016b6004803603602081101561013f57600080fd5b81019080803573ffffffffffffffffffffffffffffffffffffffff169060200190929190505050610286565b005b600047905090565b8073ffffffffffffffffffffffffffffffffffffffff166108fc670de0b6b3a76400009081150290604051600060405180830381858888f193505050501580156101c3573d6000803e3d6000fd5b5050565b60008173ffffffffffffffffffffffffffffffffffffffff166108fc670de0b6b3a76400009081150290604051600060405180830381858888f1935050505090506001151581151514610282576040517f08c379a000000000000000000000000000000000000000000000000000000000815260040180806020018281038252601a8152602001807f207472616e73636174696f6e206661696c20666f722073656e6400000000000081525060200191505060405180910390fd5b5050565b6000808273ffffffffffffffffffffffffffffffffffffffff16670de0b6b3a764000060405180600001905060006040518083038185875af1925050503d80600081146102ef576040519150601f19603f3d011682016040523d82523d6000602084013e6102f4565b606091505b50915091506001151582151514610373576040517f08c379a000000000000000000000000000000000000000000000000000000000815260040180806020018281038252601a8152602001807f207472616e73636174696f6e206661696c20666f722063616c6c00000000000081525060200191505060405180910390fd5b50505056fea2646970667358221220fe524897204f196e33cb262a53bfd0bb43ee898f6435a7df83d8e6ab0a4a085264736f6c63430007060033",
					"opcodes": "PUSH1 0x80 PUSH1 0x40 MSTORE CALLVALUE DUP1 ISZERO PUSH2 0x10 JUMPI PUSH1 0x0 DUP1 REVERT JUMPDEST POP PUSH2 0x3AE DUP1 PUSH2 0x20 PUSH1 0x0 CODECOPY PUSH1 0x0 RETURN INVALID PUSH1 0x80 PUSH1 0x40 MSTORE PUSH1 0x4 CALLDATASIZE LT PUSH2 0x43 JUMPI PUSH1 0x0 CALLDATALOAD PUSH1 0xE0 SHR DUP1 PUSH4 0x20ACE1D0 EQ PUSH2 0x4F JUMPI DUP1 PUSH4 0x9CB4DDD0 EQ PUSH2 0x7A JUMPI DUP1 PUSH4 0xAF075E0C EQ PUSH2 0xCB JUMPI DUP1 PUSH4 0xB206494B EQ PUSH2 0x11C JUMPI PUSH2 0x4A JUMP JUMPDEST CALLDATASIZE PUSH2 0x4A JUMPI STOP JUMPDEST PUSH1 0x0 DUP1 REVERT JUMPDEST CALLVALUE DUP1 ISZERO PUSH2 0x5B JUMPI PUSH1 0x0 DUP1 REVERT JUMPDEST POP PUSH2 0x64 PUSH2 0x16D JUMP JUMPDEST PUSH1 0x40 MLOAD DUP1 DUP3 DUP2 MSTORE PUSH1 0x20 ADD SWAP2 POP POP PUSH1 0x40 MLOAD DUP1 SWAP2 SUB SWAP1 RETURN JUMPDEST CALLVALUE DUP1 ISZERO PUSH2 0x86 JUMPI PUSH1 0x0 DUP1 REVERT JUMPDEST POP PUSH2 0xC9 PUSH1 0x4 DUP1 CALLDATASIZE SUB PUSH1 0x20 DUP2 LT ISZERO PUSH2 0x9D JUMPI PUSH1 0x0 DUP1 REVERT JUMPDEST DUP2 ADD SWAP1 DUP1 DUP1 CALLDATALOAD PUSH20 0xFFFFFFFFFFFFFFFFFFFFFFFFFFFFFFFFFFFFFFFF AND SWAP1 PUSH1 0x20 ADD SWAP1 SWAP3 SWAP2 SWAP1 POP POP POP PUSH2 0x175 JUMP JUMPDEST STOP JUMPDEST CALLVALUE DUP1 ISZERO PUSH2 0xD7 JUMPI PUSH1 0x0 DUP1 REVERT JUMPDEST POP PUSH2 0x11A PUSH1 0x4 DUP1 CALLDATASIZE SUB PUSH1 0x20 DUP2 LT ISZERO PUSH2 0xEE JUMPI PUSH1 0x0 DUP1 REVERT JUMPDEST DUP2 ADD SWAP1 DUP1 DUP1 CALLDATALOAD PUSH20 0xFFFFFFFFFFFFFFFFFFFFFFFFFFFFFFFFFFFFFFFF AND SWAP1 PUSH1 0x20 ADD SWAP1 SWAP3 SWAP2 SWAP1 POP POP POP PUSH2 0x1C7 JUMP JUMPDEST STOP JUMPDEST CALLVALUE DUP1 ISZERO PUSH2 0x128 JUMPI PUSH1 0x0 DUP1 REVERT JUMPDEST POP PUSH2 0x16B PUSH1 0x4 DUP1 CALLDATASIZE SUB PUSH1 0x20 DUP2 LT ISZERO PUSH2 0x13F JUMPI PUSH1 0x0 DUP1 REVERT JUMPDEST DUP2 ADD SWAP1 DUP1 DUP1 CALLDATALOAD PUSH20 0xFFFFFFFFFFFFFFFFFFFFFFFFFFFFFFFFFFFFFFFF AND SWAP1 PUSH1 0x20 ADD SWAP1 SWAP3 SWAP2 SWAP1 POP POP POP PUSH2 0x286 JUMP JUMPDEST STOP JUMPDEST PUSH1 0x0 SELFBALANCE SWAP1 POP SWAP1 JUMP JUMPDEST DUP1 PUSH20 0xFFFFFFFFFFFFFFFFFFFFFFFFFFFFFFFFFFFFFFFF AND PUSH2 0x8FC PUSH8 0xDE0B6B3A7640000 SWAP1 DUP2 ISZERO MUL SWAP1 PUSH1 0x40 MLOAD PUSH1 0x0 PUSH1 0x40 MLOAD DUP1 DUP4 SUB DUP2 DUP6 DUP9 DUP9 CALL SWAP4 POP POP POP POP ISZERO DUP1 ISZERO PUSH2 0x1C3 JUMPI RETURNDATASIZE PUSH1 0x0 DUP1 RETURNDATACOPY RETURNDATASIZE PUSH1 0x0 REVERT JUMPDEST POP POP JUMP JUMPDEST PUSH1 0x0 DUP2 PUSH20 0xFFFFFFFFFFFFFFFFFFFFFFFFFFFFFFFFFFFFFFFF AND PUSH2 0x8FC PUSH8 0xDE0B6B3A7640000 SWAP1 DUP2 ISZERO MUL SWAP1 PUSH1 0x40 MLOAD PUSH1 0x0 PUSH1 0x40 MLOAD DUP1 DUP4 SUB DUP2 DUP6 DUP9 DUP9 CALL SWAP4 POP POP POP POP SWAP1 POP PUSH1 0x1 ISZERO ISZERO DUP2 ISZERO ISZERO EQ PUSH2 0x282 JUMPI PUSH1 0x40 MLOAD PUSH32 0x8C379A000000000000000000000000000000000000000000000000000000000 DUP2 MSTORE PUSH1 0x4 ADD DUP1 DUP1 PUSH1 0x20 ADD DUP3 DUP2 SUB DUP3 MSTORE PUSH1 0x1A DUP2 MSTORE PUSH1 0x20 ADD DUP1 PUSH32 0x207472616E73636174696F6E206661696C20666F722073656E64000000000000 DUP2 MSTORE POP PUSH1 0x20 ADD SWAP2 POP POP PUSH1 0x40 MLOAD DUP1 SWAP2 SUB SWAP1 REVERT JUMPDEST POP POP JUMP JUMPDEST PUSH1 0x0 DUP1 DUP3 PUSH20 0xFFFFFFFFFFFFFFFFFFFFFFFFFFFFFFFFFFFFFFFF AND PUSH8 0xDE0B6B3A7640000 PUSH1 0x40 MLOAD DUP1 PUSH1 0x0 ADD SWAP1 POP PUSH1 0x0 PUSH1 0x40 MLOAD DUP1 DUP4 SUB DUP2 DUP6 DUP8 GAS CALL SWAP3 POP POP POP RETURNDATASIZE DUP1 PUSH1 0x0 DUP2 EQ PUSH2 0x2EF JUMPI PUSH1 0x40 MLOAD SWAP2 POP PUSH1 0x1F NOT PUSH1 0x3F RETURNDATASIZE ADD AND DUP3 ADD PUSH1 0x40 MSTORE RETURNDATASIZE DUP3 MSTORE RETURNDATASIZE PUSH1 0x0 PUSH1 0x20 DUP5 ADD RETURNDATACOPY PUSH2 0x2F4 JUMP JUMPDEST PUSH1 0x60 SWAP2 POP JUMPDEST POP SWAP2 POP SWAP2 POP PUSH1 0x1 ISZERO ISZERO DUP3 ISZERO ISZERO EQ PUSH2 0x373 JUMPI PUSH1 0x40 MLOAD PUSH32 0x8C379A000000000000000000000000000000000000000000000000000000000 DUP2 MSTORE PUSH1 0x4 ADD DUP1 DUP1 PUSH1 0x20 ADD DUP3 DUP2 SUB DUP3 MSTORE PUSH1 0x1A DUP2 MSTORE PUSH1 0x20 ADD DUP1 PUSH32 0x207472616E73636174696F6E206661696C20666F722063616C6C000000000000 DUP2 MSTORE POP PUSH1 0x20 ADD SWAP2 POP POP PUSH1 0x40 MLOAD DUP1 SWAP2 SUB SWAP1 REVERT JUMPDEST POP POP POP JUMP INVALID LOG2 PUSH5 0x6970667358 0x22 SLT KECCAK256 INVALID MSTORE 0x48 SWAP8 KECCAK256 0x4F NOT PUSH15 0x33CB262A53BFD0BB43EE898F6435A7 0xDF DUP4 0xD8 0xE6 0xAB EXP 0x4A ADDMOD MSTORE PUSH5 0x736F6C6343 STOP SMOD MOD STOP CALLER "
				},
				"gasEstimates": {
					"creation": {
						"codeDepositCost": "188400",
						"executionCost": "232",
						"totalCost": "188632"
					},
					"external": {
						"CALL(address)": "infinite",
						"SEND(address)": "infinite",
						"TRANSFER(address)": "infinite",
						"checkbal()": "193"
					}
				},
				"methodIdentifiers": {
					"CALL(address)": "b206494b",
					"SEND(address)": "af075e0c",
					"TRANSFER(address)": "9cb4ddd0",
					"checkbal()": "20ace1d0"
				}
			},
			"storageLayout": {
				"storage": [],
				"types": null
			},
			"userdoc": {
				"kind": "user",
				"methods": {},
				"version": 1
			}
		}
	}
}