{
	"data": {
		"bytecode": {
			"linkReferences": {},
			"object": "608060405234801561001057600080fd5b50610105806100206000396000f3fe6080604052348015600f57600080fd5b5060043610603c5760003560e01c80630ad2452814604157806316d061a514606c578063be9a6555146088575b600080fd5b606a60048036036020811015605557600080fd5b810190808035906020019092919050505060a4565b005b607260b2565b6040518082815260200191505060405180910390f35b608e60be565b6040518082815260200191505060405180910390f35b600054810160018190555050565b60004260015403905090565b60004260008190555060005490509056fea2646970667358221220c9c64c473b10ef42119a10e5f5a3cc3150853818bec5f2beca618b4bc513692864736f6c63430007060033",
			"opcodes": "PUSH1 0x80 PUSH1 0x40 MSTORE CALLVALUE DUP1 ISZERO PUSH2 0x10 JUMPI PUSH1 0x0 DUP1 REVERT JUMPDEST POP PUSH2 0x105 DUP1 PUSH2 0x20 PUSH1 0x0 CODECOPY PUSH1 0x0 RETURN INVALID PUSH1 0x80 PUSH1 0x40 MSTORE CALLVALUE DUP1 ISZERO PUSH1 0xF JUMPI PUSH1 0x0 DUP1 REVERT JUMPDEST POP PUSH1 0x4 CALLDATASIZE LT PUSH1 0x3C JUMPI PUSH1 0x0 CALLDATALOAD PUSH1 0xE0 SHR DUP1 PUSH4 0xAD24528 EQ PUSH1 0x41 JUMPI DUP1 PUSH4 0x16D061A5 EQ PUSH1 0x6C JUMPI DUP1 PUSH4 0xBE9A6555 EQ PUSH1 0x88 JUMPI JUMPDEST PUSH1 0x0 DUP1 REVERT JUMPDEST PUSH1 0x6A PUSH1 0x4 DUP1 CALLDATASIZE SUB PUSH1 0x20 DUP2 LT ISZERO PUSH1 0x55 JUMPI PUSH1 0x0 DUP1 REVERT JUMPDEST DUP2 ADD SWAP1 DUP1 DUP1 CALLDATALOAD SWAP1 PUSH1 0x20 ADD SWAP1 SWAP3 SWAP2 SWAP1 POP POP POP PUSH1 0xA4 JUMP JUMPDEST STOP JUMPDEST PUSH1 0x72 PUSH1 0xB2 JUMP JUMPDEST PUSH1 0x40 MLOAD DUP1 DUP3 DUP2 MSTORE PUSH1 0x20 ADD SWAP2 POP POP PUSH1 0x40 MLOAD DUP1 SWAP2 SUB SWAP1 RETURN JUMPDEST PUSH1 0x8E PUSH1 0xBE JUMP JUMPDEST PUSH1 0x40 MLOAD DUP1 DUP3 DUP2 MSTORE PUSH1 0x20 ADD SWAP2 POP POP PUSH1 0x40 MLOAD DUP1 SWAP2 SUB SWAP1 RETURN JUMPDEST PUSH1 0x0 SLOAD DUP2 ADD PUSH1 0x1 DUP2 SWAP1 SSTORE POP POP JUMP JUMPDEST PUSH1 0x0 TIMESTAMP PUSH1 0x1 SLOAD SUB SWAP1 POP SWAP1 JUMP JUMPDEST PUSH1 0x0 TIMESTAMP PUSH1 0x0 DUP2 SWAP1 SSTORE POP PUSH1 0x0 SLOAD SWAP1 POP SWAP1 JUMP INVALID LOG2 PUSH5 0x6970667358 0x22 SLT KECCAK256 0xC9 0xC6 0x4C SELFBALANCE EXTCODESIZE LT 0xEF TIMESTAMP GT SWAP11 LT 0xE5 CREATE2 LOG3 0xCC BALANCE POP DUP6 CODESIZE XOR 0xBE 0xC5 CALLCODE 0xBE 0xCA PUSH2 0x8B4B 0xC5 SGT PUSH10 0x2864736F6C6343000706 STOP CALLER "
		},
		"gasEstimates": {
			"creation": {
				"codeDepositCost": "52200",
				"executionCost": "105",
				"totalCost": "52305"
			},
			"external": {
				"end(uint256)": "21026",
				"gettime()": "1018",
				"start()": "21048"
			}
		},
		"methodIdentifiers": {
			"end(uint256)": "0ad24528",
			"gettime()": "16d061a5",
			"start()": "be9a6555"
		}
	},
	"abi": [
		{
			"inputs": [
				{
					"internalType": "uint256",
					"name": "Totaltime",
					"type": "uint256"
				}
			],
			"name": "end",
			"outputs": [],
			"stateMutability": "nonpayable",
			"type": "function"
		},
		{
			"inputs": [],
			"name": "gettime",
			"outputs": [
				{
					"internalType": "uint256",
					"name": "",
					"type": "uint256"
				}
			],
			"stateMutability": "view",
			"type": "function"
		},
		{
			"inputs": [],
			"name": "start",
			"outputs": [
				{
					"internalType": "uint256",
					"name": "",
					"type": "uint256"
				}
			],
			"stateMutability": "nonpayable",
			"type": "function"
		}
	]
}